{
  "contractName": "Helper",
  "abi": [
    {
      "inputs": [
        {
          "internalType": "address",
          "name": "asset",
          "type": "address"
        },
        {
          "internalType": "address",
          "name": "account",
          "type": "address"
        },
        {
          "internalType": "address",
          "name": "spender",
          "type": "address"
        }
      ],
      "name": "getAssetData",
      "outputs": [
        {
          "internalType": "string",
          "name": "",
          "type": "string"
        },
        {
          "internalType": "string",
          "name": "",
          "type": "string"
        },
        {
          "internalType": "uint256",
          "name": "",
          "type": "uint256"
        },
        {
          "internalType": "uint256",
          "name": "",
          "type": "uint256"
        },
        {
          "internalType": "uint256",
          "name": "",
          "type": "uint256"
        }
      ],
      "stateMutability": "view",
      "type": "function"
    },
    {
      "inputs": [
        {
          "internalType": "address",
          "name": "promiseChef",
          "type": "address"
        }
      ],
      "name": "getPromiseChefPools",
      "outputs": [
        {
          "internalType": "address[]",
          "name": "creatorTokens",
          "type": "address[]"
        },
        {
          "internalType": "address[]",
          "name": "joinerTokens",
          "type": "address[]"
        }
      ],
      "stateMutability": "view",
      "type": "function"
    }
  ],
  "bytecode": "0x608060405234801561001057600080fd5b50610a1d806100206000396000f3fe608060405234801561001057600080fd5b50600436106100365760003560e01c80634a0ad4751461003b578063abfb89e01461011c575b600080fd5b61007d6004803603602081101561005157600080fd5b81019080803573ffffffffffffffffffffffffffffffffffffffff16906020019092919050505061029a565b604051808060200180602001838103835285818151815260200191508051906020019060200280838360005b838110156100c45780820151818401526020810190506100a9565b50505050905001838103825284818151815260200191508051906020019060200280838360005b838110156101065780820151818401526020810190506100eb565b5050505090500194505050505060405180910390f35b61019e6004803603606081101561013257600080fd5b81019080803573ffffffffffffffffffffffffffffffffffffffff169060200190929190803573ffffffffffffffffffffffffffffffffffffffff169060200190929190803573ffffffffffffffffffffffffffffffffffffffff16906020019092919050505061055e565b604051808060200180602001868152602001858152602001848152602001838103835288818151815260200191508051906020019080838360005b838110156101f45780820151818401526020810190506101d9565b50505050905090810190601f1680156102215780820380516001836020036101000a031916815260200191505b50838103825287818151815260200191508051906020019080838360005b8381101561025a57808201518184015260208101905061023f565b50505050905090810190601f1680156102875780820380516001836020036101000a031916815260200191505b5097505050505050505060405180910390f35b60608060008373ffffffffffffffffffffffffffffffffffffffff1663081e3eda6040518163ffffffff1660e01b815260040160206040518083038186803b1580156102e557600080fd5b505afa1580156102f9573d6000803e3d6000fd5b505050506040513d602081101561030f57600080fd5b810190808051906020019092919050505090508067ffffffffffffffff8111801561033957600080fd5b506040519080825280602002602001820160405280156103685781602001602082028036833780820191505090505b5092508067ffffffffffffffff8111801561038257600080fd5b506040519080825280602002602001820160405280156103b15781602001602082028036833780820191505090505b5091506000805b82821015610556578573ffffffffffffffffffffffffffffffffffffffff16631526fe27836040518263ffffffff1660e01b8152600401808281526020019150506101206040518083038186803b15801561041257600080fd5b505afa158015610426573d6000803e3d6000fd5b505050506040513d61012081101561043d57600080fd5b81019080805190602001909291908051906020019092919080519060200190929190805190602001909291908051906020019092919080519060200190929190805190602001909291908051906020019092919080519060200190929190505050909192939495509091929394509091929350909192509091509050508584815181106104c657fe5b602002602001018173ffffffffffffffffffffffffffffffffffffffff1673ffffffffffffffffffffffffffffffffffffffff1681525081925050508085838151811061050f57fe5b602002602001019073ffffffffffffffffffffffffffffffffffffffff16908173ffffffffffffffffffffffffffffffffffffffff168152505081806001019250506103b8565b505050915091565b6060806000806000808890508073ffffffffffffffffffffffffffffffffffffffff166306fdde036040518163ffffffff1660e01b815260040160006040518083038186803b1580156105b057600080fd5b505afa1580156105c4573d6000803e3d6000fd5b505050506040513d6000823e3d601f19601f8201168201806040525060208110156105ee57600080fd5b810190808051604051939291908464010000000082111561060e57600080fd5b8382019150602082018581111561062457600080fd5b825186600182028301116401000000008211171561064157600080fd5b8083526020830192505050908051906020019080838360005b8381101561067557808201518184015260208101905061065a565b50505050905090810190601f1680156106a25780820380516001836020036101000a031916815260200191505b506040525050508173ffffffffffffffffffffffffffffffffffffffff166395d89b416040518163ffffffff1660e01b815260040160006040518083038186803b1580156106ef57600080fd5b505afa158015610703573d6000803e3d6000fd5b505050506040513d6000823e3d601f19601f82011682018060405250602081101561072d57600080fd5b810190808051604051939291908464010000000082111561074d57600080fd5b8382019150602082018581111561076357600080fd5b825186600182028301116401000000008211171561078057600080fd5b8083526020830192505050908051906020019080838360005b838110156107b4578082015181840152602081019050610799565b50505050905090810190601f1680156107e15780820380516001836020036101000a031916815260200191505b506040525050508273ffffffffffffffffffffffffffffffffffffffff1663313ce5676040518163ffffffff1660e01b815260040160206040518083038186803b15801561082e57600080fd5b505afa158015610842573d6000803e3d6000fd5b505050506040513d602081101561085857600080fd5b81019080805190602001909291905050508373ffffffffffffffffffffffffffffffffffffffff1663dd62ed3e8c8c6040518363ffffffff1660e01b8152600401808373ffffffffffffffffffffffffffffffffffffffff1681526020018273ffffffffffffffffffffffffffffffffffffffff1681526020019250505060206040518083038186803b1580156108ee57600080fd5b505afa158015610902573d6000803e3d6000fd5b505050506040513d602081101561091857600080fd5b81019080805190602001909291905050508473ffffffffffffffffffffffffffffffffffffffff166370a082318d6040518263ffffffff1660e01b8152600401808273ffffffffffffffffffffffffffffffffffffffff16815260200191505060206040518083038186803b15801561099057600080fd5b505afa1580156109a4573d6000803e3d6000fd5b505050506040513d60208110156109ba57600080fd5b81019080805190602001909291905050508260ff169250955095509550955095505093979296509350935056fea2646970667358221220b3410ed241c06e5d83d19e336c692d9d8939b50f13ee25fe91179f28ba299ce664736f6c63430007060033",
  "immutableReferences": {},
  "source": "pragma solidity >=0.4.21 <0.8.0;\n\nimport {IERC20} from \"./interfaces/IERC20.sol\";\nimport {PromiseChef} from \"./farms/PromiseChef.sol\";\n\ncontract Helper {\n    function getAssetData(\n        address asset,\n        address account,\n        address spender\n    )\n        public\n        view\n        returns (\n            string memory,\n            string memory,\n            uint256,\n            uint256,\n            uint256\n        )\n    {\n        IERC20 token = IERC20(asset);\n        return (\n            token.name(),\n            token.symbol(),\n            token.decimals(),\n            token.allowance(account, spender),\n            token.balanceOf(account)\n        );\n    }\n\n    function getPromiseChefPools(address promiseChef)\n        public\n        view\n        returns (address[] memory creatorTokens, address[] memory joinerTokens)\n    {\n        uint256 poolLength = PromiseChef(promiseChef).poolLength();\n        creatorTokens = new address[](poolLength);\n        joinerTokens = new address[](poolLength);\n        uint256 i;\n        IERC20 _creatorToken;\n        while (i < poolLength) {\n            (_creatorToken, joinerTokens[i], , , , , , , ) = PromiseChef(promiseChef).poolInfo(i);\n            creatorTokens[i] = address(_creatorToken);\n            i++;\n        }\n    }\n}\n",
  "sourcePath": "/Users/nanoissuperior/promise-contracts/contracts/Helper.sol",
  "compiler": {
    "name": "solc",
    "version": "0.7.6+commit.7338295f.Emscripten.clang"
  },
  "schemaVersion": "3.2.4",
  "updatedAt": "2021-07-27T14:57:09.960Z",
  "devdoc": {
    "kind": "dev",
    "methods": {},
    "version": 1
  },
  "userdoc": {
    "kind": "user",
    "methods": {},
    "version": 1
  }
}