{
  "contractName": "Helper",
  "abi": [
    {
      "inputs": [
        {
          "internalType": "address",
          "name": "_prom",
          "type": "address"
        }
      ],
      "stateMutability": "nonpayable",
      "type": "constructor"
    },
    {
      "inputs": [],
      "name": "prom",
      "outputs": [
        {
          "internalType": "address",
          "name": "",
          "type": "address"
        }
      ],
      "stateMutability": "view",
      "type": "function",
      "constant": true
    },
    {
      "inputs": [
        {
          "internalType": "address",
          "name": "asset",
          "type": "address"
        },
        {
          "internalType": "address",
          "name": "account",
          "type": "address"
        }
      ],
      "name": "getAssetData",
      "outputs": [
        {
          "internalType": "string",
          "name": "",
          "type": "string"
        },
        {
          "internalType": "string",
          "name": "",
          "type": "string"
        },
        {
          "internalType": "uint256",
          "name": "",
          "type": "uint256"
        },
        {
          "internalType": "uint256",
          "name": "",
          "type": "uint256"
        },
        {
          "internalType": "uint256",
          "name": "",
          "type": "uint256"
        }
      ],
      "stateMutability": "view",
      "type": "function",
      "constant": true
    }
  ],
  "bytecode": "0x60a060405234801561001057600080fd5b5060405161076d38038061076d8339818101604052602081101561003357600080fd5b81019080805190602001909291905050508073ffffffffffffffffffffffffffffffffffffffff1660808173ffffffffffffffffffffffffffffffffffffffff1660601b815250505060805160601c6106cf61009e600039806101cf528061051b52506106cf6000f3fe608060405234801561001057600080fd5b50600436106100365760003560e01c8063dde0bc141461003b578063e90f8c1b1461006f575b600080fd5b6100436101cd565b604051808273ffffffffffffffffffffffffffffffffffffffff16815260200191505060405180910390f35b6100d16004803603604081101561008557600080fd5b81019080803573ffffffffffffffffffffffffffffffffffffffff169060200190929190803573ffffffffffffffffffffffffffffffffffffffff1690602001909291905050506101f1565b604051808060200180602001868152602001858152602001848152602001838103835288818151815260200191508051906020019080838360005b8381101561012757808201518184015260208101905061010c565b50505050905090810190601f1680156101545780820380516001836020036101000a031916815260200191505b50838103825287818151815260200191508051906020019080838360005b8381101561018d578082015181840152602081019050610172565b50505050905090810190601f1680156101ba5780820380516001836020036101000a031916815260200191505b5097505050505050505060405180910390f35b7f000000000000000000000000000000000000000000000000000000000000000081565b6060806000806000808790508073ffffffffffffffffffffffffffffffffffffffff166306fdde036040518163ffffffff1660e01b815260040160006040518083038186803b15801561024357600080fd5b505afa158015610257573d6000803e3d6000fd5b505050506040513d6000823e3d601f19601f82011682018060405250602081101561028157600080fd5b81019080805160405193929190846401000000008211156102a157600080fd5b838201915060208201858111156102b757600080fd5b82518660018202830111640100000000821117156102d457600080fd5b8083526020830192505050908051906020019080838360005b838110156103085780820151818401526020810190506102ed565b50505050905090810190601f1680156103355780820380516001836020036101000a031916815260200191505b506040525050508173ffffffffffffffffffffffffffffffffffffffff166395d89b416040518163ffffffff1660e01b815260040160006040518083038186803b15801561038257600080fd5b505afa158015610396573d6000803e3d6000fd5b505050506040513d6000823e3d601f19601f8201168201806040525060208110156103c057600080fd5b81019080805160405193929190846401000000008211156103e057600080fd5b838201915060208201858111156103f657600080fd5b825186600182028301116401000000008211171561041357600080fd5b8083526020830192505050908051906020019080838360005b8381101561044757808201518184015260208101905061042c565b50505050905090810190601f1680156104745780820380516001836020036101000a031916815260200191505b506040525050508273ffffffffffffffffffffffffffffffffffffffff1663313ce5676040518163ffffffff1660e01b815260040160206040518083038186803b1580156104c157600080fd5b505afa1580156104d5573d6000803e3d6000fd5b505050506040513d60208110156104eb57600080fd5b81019080805190602001909291905050508373ffffffffffffffffffffffffffffffffffffffff1663dd62ed3e8b7f00000000000000000000000000000000000000000000000000000000000000006040518363ffffffff1660e01b8152600401808373ffffffffffffffffffffffffffffffffffffffff1681526020018273ffffffffffffffffffffffffffffffffffffffff1681526020019250505060206040518083038186803b1580156105a157600080fd5b505afa1580156105b5573d6000803e3d6000fd5b505050506040513d60208110156105cb57600080fd5b81019080805190602001909291905050508473ffffffffffffffffffffffffffffffffffffffff166370a082318c6040518263ffffffff1660e01b8152600401808273ffffffffffffffffffffffffffffffffffffffff16815260200191505060206040518083038186803b15801561064357600080fd5b505afa158015610657573d6000803e3d6000fd5b505050506040513d602081101561066d57600080fd5b81019080805190602001909291905050508260ff1692509550955095509550955050929550929590935056fea2646970667358221220b057162f9b24fcf7f028bddee186453fa99740366e460ce4ed61852eec3f065a64736f6c63430007060033",
  "immutableReferences": {
    "5": [
      {
        "length": 32,
        "start": 463
      },
      {
        "length": 32,
        "start": 1307
      }
    ]
  },
  "source": "pragma solidity >=0.4.21 <0.8.0;\n\nimport {IERC20} from \"./interfaces/IERC20.sol\";\n\ncontract Helper {\n    address public immutable prom;\n\n    constructor(address _prom) public {\n        prom = _prom;\n    }\n\n    function getAssetData(address asset, address account)\n        public\n        view\n        returns (\n            string memory,\n            string memory,\n            uint256,\n            uint256,\n            uint256\n        )\n    {\n        IERC20 token = IERC20(asset);\n        return (token.name(), token.symbol(), token.decimals(), token.allowance(account, address(prom)), token.balanceOf(account));\n    }\n}\n",
  "sourcePath": "/Users/nanoissuperior/promise-contracts/contracts/Helper.sol",
  "compiler": {
    "name": "solc",
    "version": "0.7.6+commit.7338295f.Emscripten.clang"
  },
  "schemaVersion": "3.2.4",
  "updatedAt": "2021-06-28T14:52:17.087Z",
  "networkType": "ethereum",
  "devdoc": {
    "kind": "dev",
    "methods": {},
    "version": 1
  },
  "userdoc": {
    "kind": "user",
    "methods": {},
    "version": 1
  }
}