{
  "contractName": "PromiseChef",
  "abi": [
    {
      "inputs": [
        {
          "internalType": "contract PromiseToken",
          "name": "_prom",
          "type": "address"
        },
        {
          "internalType": "contract PromiseCore",
          "name": "_promiseCore",
          "type": "address"
        },
        {
          "internalType": "uint256",
          "name": "_promPerBlock",
          "type": "uint256"
        },
        {
          "internalType": "uint256",
          "name": "_startBlock",
          "type": "uint256"
        }
      ],
      "stateMutability": "nonpayable",
      "type": "constructor"
    },
    {
      "anonymous": false,
      "inputs": [
        {
          "indexed": true,
          "internalType": "address",
          "name": "previousOwner",
          "type": "address"
        },
        {
          "indexed": true,
          "internalType": "address",
          "name": "newOwner",
          "type": "address"
        }
      ],
      "name": "OwnershipTransferred",
      "type": "event"
    },
    {
      "inputs": [],
      "name": "BONUS_MULTIPLIER",
      "outputs": [
        {
          "internalType": "uint256",
          "name": "",
          "type": "uint256"
        }
      ],
      "stateMutability": "view",
      "type": "function",
      "constant": true
    },
    {
      "inputs": [
        {
          "internalType": "uint256",
          "name": "",
          "type": "uint256"
        },
        {
          "internalType": "uint256",
          "name": "",
          "type": "uint256"
        }
      ],
      "name": "chefPromiseInfo",
      "outputs": [
        {
          "internalType": "uint256",
          "name": "amount",
          "type": "uint256"
        },
        {
          "internalType": "uint256",
          "name": "rewardDebt",
          "type": "uint256"
        }
      ],
      "stateMutability": "view",
      "type": "function",
      "constant": true
    },
    {
      "inputs": [],
      "name": "joinableListIdTimeInterval",
      "outputs": [
        {
          "internalType": "uint256",
          "name": "",
          "type": "uint256"
        }
      ],
      "stateMutability": "view",
      "type": "function",
      "constant": true
    },
    {
      "inputs": [
        {
          "internalType": "address",
          "name": "",
          "type": "address"
        }
      ],
      "name": "lastClaim",
      "outputs": [
        {
          "internalType": "uint256",
          "name": "",
          "type": "uint256"
        }
      ],
      "stateMutability": "view",
      "type": "function",
      "constant": true
    },
    {
      "inputs": [
        {
          "internalType": "bytes32",
          "name": "",
          "type": "bytes32"
        }
      ],
      "name": "length",
      "outputs": [
        {
          "internalType": "uint256",
          "name": "",
          "type": "uint256"
        }
      ],
      "stateMutability": "view",
      "type": "function",
      "constant": true
    },
    {
      "inputs": [
        {
          "internalType": "bytes32",
          "name": "",
          "type": "bytes32"
        }
      ],
      "name": "list",
      "outputs": [
        {
          "internalType": "bytes32",
          "name": "next",
          "type": "bytes32"
        },
        {
          "internalType": "uint256",
          "name": "id",
          "type": "uint256"
        },
        {
          "internalType": "bytes32",
          "name": "previous",
          "type": "bytes32"
        }
      ],
      "stateMutability": "view",
      "type": "function",
      "constant": true
    },
    {
      "inputs": [
        {
          "internalType": "bytes32",
          "name": "",
          "type": "bytes32"
        }
      ],
      "name": "numberOfPromisesInTimeInterval",
      "outputs": [
        {
          "internalType": "uint256",
          "name": "",
          "type": "uint256"
        }
      ],
      "stateMutability": "view",
      "type": "function",
      "constant": true
    },
    {
      "inputs": [],
      "name": "owner",
      "outputs": [
        {
          "internalType": "address",
          "name": "",
          "type": "address"
        }
      ],
      "stateMutability": "view",
      "type": "function",
      "constant": true
    },
    {
      "inputs": [
        {
          "internalType": "uint256",
          "name": "",
          "type": "uint256"
        }
      ],
      "name": "poolInfo",
      "outputs": [
        {
          "internalType": "contract IERC20",
          "name": "creatorToken",
          "type": "address"
        },
        {
          "internalType": "address",
          "name": "joinerToken",
          "type": "address"
        },
        {
          "internalType": "uint256",
          "name": "minRatio",
          "type": "uint256"
        },
        {
          "internalType": "uint256",
          "name": "maxRatio",
          "type": "uint256"
        },
        {
          "internalType": "uint256",
          "name": "allocPoint",
          "type": "uint256"
        },
        {
          "internalType": "uint256",
          "name": "lastRewardBlock",
          "type": "uint256"
        },
        {
          "internalType": "uint256",
          "name": "accPromPerShare",
          "type": "uint256"
        },
        {
          "internalType": "uint256",
          "name": "expirationDate",
          "type": "uint256"
        },
        {
          "internalType": "uint256",
          "name": "lpSupply",
          "type": "uint256"
        }
      ],
      "stateMutability": "view",
      "type": "function",
      "constant": true
    },
    {
      "inputs": [],
      "name": "prom",
      "outputs": [
        {
          "internalType": "contract PromiseToken",
          "name": "",
          "type": "address"
        }
      ],
      "stateMutability": "view",
      "type": "function",
      "constant": true
    },
    {
      "inputs": [],
      "name": "promPerBlock",
      "outputs": [
        {
          "internalType": "uint256",
          "name": "",
          "type": "uint256"
        }
      ],
      "stateMutability": "view",
      "type": "function",
      "constant": true
    },
    {
      "inputs": [],
      "name": "promiseCore",
      "outputs": [
        {
          "internalType": "contract PromiseCore",
          "name": "",
          "type": "address"
        }
      ],
      "stateMutability": "view",
      "type": "function",
      "constant": true
    },
    {
      "inputs": [],
      "name": "promiseHolder",
      "outputs": [
        {
          "internalType": "address",
          "name": "",
          "type": "address"
        }
      ],
      "stateMutability": "view",
      "type": "function",
      "constant": true
    },
    {
      "inputs": [],
      "name": "startBlock",
      "outputs": [
        {
          "internalType": "uint256",
          "name": "",
          "type": "uint256"
        }
      ],
      "stateMutability": "view",
      "type": "function",
      "constant": true
    },
    {
      "inputs": [],
      "name": "startBlockTime",
      "outputs": [
        {
          "internalType": "uint256",
          "name": "",
          "type": "uint256"
        }
      ],
      "stateMutability": "view",
      "type": "function",
      "constant": true
    },
    {
      "inputs": [
        {
          "internalType": "bytes32",
          "name": "",
          "type": "bytes32"
        }
      ],
      "name": "tail",
      "outputs": [
        {
          "internalType": "bytes32",
          "name": "",
          "type": "bytes32"
        }
      ],
      "stateMutability": "view",
      "type": "function",
      "constant": true
    },
    {
      "inputs": [],
      "name": "totalAllocPoint",
      "outputs": [
        {
          "internalType": "uint256",
          "name": "",
          "type": "uint256"
        }
      ],
      "stateMutability": "view",
      "type": "function",
      "constant": true
    },
    {
      "inputs": [
        {
          "internalType": "address",
          "name": "newOwner",
          "type": "address"
        }
      ],
      "name": "transferOwnership",
      "outputs": [],
      "stateMutability": "nonpayable",
      "type": "function"
    },
    {
      "inputs": [],
      "name": "poolLength",
      "outputs": [
        {
          "internalType": "uint256",
          "name": "",
          "type": "uint256"
        }
      ],
      "stateMutability": "view",
      "type": "function",
      "constant": true
    },
    {
      "inputs": [
        {
          "internalType": "uint256",
          "name": "_allocPoint",
          "type": "uint256"
        },
        {
          "internalType": "contract IERC20",
          "name": "_creatorToken",
          "type": "address"
        },
        {
          "internalType": "address",
          "name": "_joinerToken",
          "type": "address"
        },
        {
          "internalType": "uint256[2]",
          "name": "_minUncalculatedRatio",
          "type": "uint256[2]"
        },
        {
          "internalType": "uint256[2]",
          "name": "_maxUncalculatedRatio",
          "type": "uint256[2]"
        },
        {
          "internalType": "bool",
          "name": "_withUpdate",
          "type": "bool"
        },
        {
          "internalType": "uint256",
          "name": "_expirationDate",
          "type": "uint256"
        }
      ],
      "name": "add",
      "outputs": [],
      "stateMutability": "nonpayable",
      "type": "function"
    },
    {
      "inputs": [
        {
          "internalType": "uint256",
          "name": "_pid",
          "type": "uint256"
        },
        {
          "internalType": "uint256",
          "name": "_allocPoint",
          "type": "uint256"
        },
        {
          "internalType": "bool",
          "name": "_withUpdate",
          "type": "bool"
        }
      ],
      "name": "set",
      "outputs": [],
      "stateMutability": "nonpayable",
      "type": "function"
    },
    {
      "inputs": [
        {
          "internalType": "uint256",
          "name": "_from",
          "type": "uint256"
        },
        {
          "internalType": "uint256",
          "name": "_to",
          "type": "uint256"
        }
      ],
      "name": "getMultiplier",
      "outputs": [
        {
          "internalType": "uint256",
          "name": "",
          "type": "uint256"
        }
      ],
      "stateMutability": "pure",
      "type": "function",
      "constant": true
    },
    {
      "inputs": [
        {
          "internalType": "uint256",
          "name": "_pid",
          "type": "uint256"
        },
        {
          "internalType": "address",
          "name": "_user",
          "type": "address"
        },
        {
          "internalType": "uint256",
          "name": "promiseId",
          "type": "uint256"
        }
      ],
      "name": "pendingProm",
      "outputs": [
        {
          "internalType": "uint256",
          "name": "",
          "type": "uint256"
        }
      ],
      "stateMutability": "view",
      "type": "function",
      "constant": true
    },
    {
      "inputs": [],
      "name": "massUpdatePools",
      "outputs": [],
      "stateMutability": "nonpayable",
      "type": "function"
    },
    {
      "inputs": [
        {
          "internalType": "uint256",
          "name": "_pid",
          "type": "uint256"
        }
      ],
      "name": "updatePool",
      "outputs": [],
      "stateMutability": "nonpayable",
      "type": "function"
    },
    {
      "inputs": [
        {
          "internalType": "uint256",
          "name": "_pid",
          "type": "uint256"
        },
        {
          "internalType": "uint256",
          "name": "_creatorAmount",
          "type": "uint256"
        },
        {
          "internalType": "uint256",
          "name": "_joinerAmount",
          "type": "uint256"
        }
      ],
      "name": "createPromise",
      "outputs": [],
      "stateMutability": "nonpayable",
      "type": "function"
    },
    {
      "inputs": [
        {
          "internalType": "uint256",
          "name": "id",
          "type": "uint256"
        }
      ],
      "name": "payPromise",
      "outputs": [],
      "stateMutability": "nonpayable",
      "type": "function"
    },
    {
      "inputs": [
        {
          "internalType": "uint256",
          "name": "_pid",
          "type": "uint256"
        },
        {
          "internalType": "uint256",
          "name": "promiseId",
          "type": "uint256"
        },
        {
          "internalType": "address",
          "name": "account",
          "type": "address"
        }
      ],
      "name": "executePromise",
      "outputs": [],
      "stateMutability": "nonpayable",
      "type": "function"
    },
    {
      "inputs": [
        {
          "internalType": "uint256",
          "name": "_pid",
          "type": "uint256"
        },
        {
          "internalType": "uint256",
          "name": "promiseId",
          "type": "uint256"
        }
      ],
      "name": "closePendingPromiseAmount",
      "outputs": [],
      "stateMutability": "nonpayable",
      "type": "function"
    },
    {
      "inputs": [
        {
          "internalType": "uint256",
          "name": "_pid",
          "type": "uint256"
        },
        {
          "internalType": "uint256",
          "name": "promiseId",
          "type": "uint256"
        }
      ],
      "name": "claimReward",
      "outputs": [],
      "stateMutability": "nonpayable",
      "type": "function"
    },
    {
      "inputs": [
        {
          "internalType": "address",
          "name": "_promiseHolder",
          "type": "address"
        }
      ],
      "name": "setPromiseHolder",
      "outputs": [],
      "stateMutability": "nonpayable",
      "type": "function"
    },
    {
      "inputs": [
        {
          "internalType": "uint256",
          "name": "_promPerBlock",
          "type": "uint256"
        }
      ],
      "name": "updateEmissionRate",
      "outputs": [],
      "stateMutability": "nonpayable",
      "type": "function"
    },
    {
      "inputs": [
        {
          "internalType": "uint256",
          "name": "creatorAmount",
          "type": "uint256"
        },
        {
          "internalType": "uint256",
          "name": "joinerAmount",
          "type": "uint256"
        }
      ],
      "name": "calculateRatio",
      "outputs": [
        {
          "internalType": "uint256",
          "name": "z",
          "type": "uint256"
        }
      ],
      "stateMutability": "pure",
      "type": "function",
      "constant": true
    }
  ],
  "bytecode": "0x6080604052620151806005556000600e5534801561001c57600080fd5b50604051613faf380380613faf8339818101604052608081101561003f57600080fd5b810190808051906020019092919080519060200190929190805190602001909291908051906020019092919050505033806000806101000a81548173ffffffffffffffffffffffffffffffffffffffff021916908373ffffffffffffffffffffffffffffffffffffffff16021790555060008054906101000a900473ffffffffffffffffffffffffffffffffffffffff1673ffffffffffffffffffffffffffffffffffffffff16600073ffffffffffffffffffffffffffffffffffffffff167f8be0079c531659141344cd1fd0a4f28419497f9722a3daafe3b4186f6b6457e060405160405180910390a3504260068190555083600760006101000a81548173ffffffffffffffffffffffffffffffffffffffff021916908373ffffffffffffffffffffffffffffffffffffffff16021790555082600860006101000a81548173ffffffffffffffffffffffffffffffffffffffff021916908373ffffffffffffffffffffffffffffffffffffffff1602179055508160098190555043600f8190555050505050613dda806101d56000396000f3fe608060405234801561001057600080fd5b50600436106101fb5760003560e01c806351eb05a61161011a5780638dbb1e3a116100ad578063dde0bc141161007c578063dde0bc1414610948578063e571826b1461097c578063ea545f7e146109c0578063f2fde38b14610a02578063fda1c15014610a46576101fb565b80638dbb1e3a1461085057806395bad7f11461089c578063a9dbaf25146108ba578063ada0b0ed146108fc576101fb565b806386bb8f37116100e957806386bb8f37146107985780638aa28550146107d05780638c97d711146107ee5780638da5cb5b1461081c576101fb565b806351eb05a6146106c45780635c16e15e146106f2578063630b5ba11461074a57806364482f7914610754576101fb565b80632afd0560116101925780633e6834f8116101615780633e6834f8146105b3578063451113f71461060657806346c3225e1461067257806348cd4cb1146106a6576101fb565b80632afd0560146104c75780632d4f843e146104e557806338d24c87146105275780633bb260bd1461057f576101fb565b80631526fe27116101ce5780631526fe27146102ba57806317caf6f1146103605780631ebb4c101461037e5780632ac00efb14610485576101fb565b8063081e3eda146102005780630ba84cd21461021e5780630c18d4ce1461024c57806313d49a8b1461026a575b600080fd5b610208610a7e565b6040518082815260200191505060405180910390f35b61024a6004803603602081101561023457600080fd5b8101908080359060200190929190505050610a8b565b005b610254610b5e565b6040518082815260200191505060405180910390f35b6102966004803603602081101561028057600080fd5b8101908080359060200190929190505050610b64565b60405180848152602001838152602001828152602001935050505060405180910390f35b6102e6600480360360208110156102d057600080fd5b8101908080359060200190929190505050610b8e565b604051808a73ffffffffffffffffffffffffffffffffffffffff1681526020018973ffffffffffffffffffffffffffffffffffffffff168152602001888152602001878152602001868152602001858152602001848152602001838152602001828152602001995050505050505050505060405180910390f35b610368610c2c565b6040518082815260200191505060405180910390f35b610483600480360361012081101561039557600080fd5b8101908080359060200190929190803573ffffffffffffffffffffffffffffffffffffffff169060200190929190803573ffffffffffffffffffffffffffffffffffffffff16906020019092919080604001906002806020026040519081016040528092919082600260200280828437600081840152601f19601f820116905080830192505050505050919291929080604001906002806020026040519081016040528092919082600260200280828437600081840152601f19601f820116905080830192505050505050919291929080351515906020019092919080359060200190929190505050610c32565b005b6104b16004803603602081101561049b57600080fd5b8101908080359060200190929190505050611096565b6040518082815260200191505060405180910390f35b6104cf6110ae565b6040518082815260200191505060405180910390f35b610511600480360360208110156104fb57600080fd5b81019080803590602001909291905050506110b4565b6040518082815260200191505060405180910390f35b61057d6004803603606081101561053d57600080fd5b810190808035906020019092919080359060200190929190803573ffffffffffffffffffffffffffffffffffffffff1690602001909291905050506110cc565b005b610587611871565b604051808273ffffffffffffffffffffffffffffffffffffffff16815260200191505060405180910390f35b6105e9600480360360408110156105c957600080fd5b810190808035906020019092919080359060200190929190505050611897565b604051808381526020018281526020019250505060405180910390f35b61065c6004803603606081101561061c57600080fd5b8101908080359060200190929190803573ffffffffffffffffffffffffffffffffffffffff169060200190929190803590602001909291905050506118c8565b6040518082815260200191505060405180910390f35b61067a611a22565b604051808273ffffffffffffffffffffffffffffffffffffffff16815260200191505060405180910390f35b6106ae611a48565b6040518082815260200191505060405180910390f35b6106f0600480360360208110156106da57600080fd5b8101908080359060200190929190505050611a4e565b005b6107346004803603602081101561070857600080fd5b81019080803573ffffffffffffffffffffffffffffffffffffffff169060200190929190505050611c08565b6040518082815260200191505060405180910390f35b610752611c20565b005b6107966004803603606081101561076a57600080fd5b810190808035906020019092919080359060200190929190803515159060200190929190505050611c4d565b005b6107ce600480360360408110156107ae57600080fd5b810190808035906020019092919080359060200190929190505050611d90565b005b6107d8612123565b6040518082815260200191505060405180910390f35b61081a6004803603602081101561080457600080fd5b8101908080359060200190929190505050612128565b005b6108246123de565b604051808273ffffffffffffffffffffffffffffffffffffffff16815260200191505060405180910390f35b6108866004803603604081101561086657600080fd5b810190808035906020019092919080359060200190929190505050612407565b6040518082815260200191505060405180910390f35b6108a4612437565b6040518082815260200191505060405180910390f35b6108e6600480360360208110156108d057600080fd5b810190808035906020019092919050505061243d565b6040518082815260200191505060405180910390f35b6109326004803603604081101561091257600080fd5b810190808035906020019092919080359060200190929190505050612455565b6040518082815260200191505060405180910390f35b61095061248c565b604051808273ffffffffffffffffffffffffffffffffffffffff16815260200191505060405180910390f35b6109be6004803603602081101561099257600080fd5b81019080803573ffffffffffffffffffffffffffffffffffffffff1690602001909291905050506124b2565b005b610a00600480360360608110156109d657600080fd5b810190808035906020019092919080359060200190929190803590602001909291905050506125b7565b005b610a4460048036036020811015610a1857600080fd5b81019080803573ffffffffffffffffffffffffffffffffffffffff169060200190929190505050612a92565b005b610a7c60048036036040811015610a5c57600080fd5b810190808035906020019092919080359060200190929190505050612c96565b005b6000600b80549050905090565b3373ffffffffffffffffffffffffffffffffffffffff1660008054906101000a900473ffffffffffffffffffffffffffffffffffffffff1673ffffffffffffffffffffffffffffffffffffffff1614610b4c576040517f08c379a00000000000000000000000000000000000000000000000000000000081526004018080602001828103825260208152602001807f4f776e61626c653a2063616c6c6572206973206e6f7420746865206f776e657281525060200191505060405180910390fd5b610b54611c20565b8060098190555050565b60065481565b60016020528060005260406000206000915090508060000154908060010154908060020154905083565b600b8181548110610b9e57600080fd5b90600052602060002090600902016000915090508060000160009054906101000a900473ffffffffffffffffffffffffffffffffffffffff16908060010160009054906101000a900473ffffffffffffffffffffffffffffffffffffffff16908060020154908060030154908060040154908060050154908060060154908060070154908060080154905089565b600e5481565b3373ffffffffffffffffffffffffffffffffffffffff1660008054906101000a900473ffffffffffffffffffffffffffffffffffffffff1673ffffffffffffffffffffffffffffffffffffffff1614610cf3576040517f08c379a00000000000000000000000000000000000000000000000000000000081526004018080602001828103825260208152602001807f4f776e61626c653a2063616c6c6572206973206e6f7420746865206f776e657281525060200191505060405180910390fd5b8115610d0257610d01611c20565b5b6000600f544311610d1557600f54610d17565b435b9050610d2e88600e546131f090919063ffffffff16565b600e81905550600b6040518061012001604052808973ffffffffffffffffffffffffffffffffffffffff1681526020018873ffffffffffffffffffffffffffffffffffffffff168152602001610da688600060028110610d8a57fe5b602002015189600160028110610d9c57fe5b6020020151612455565b8152602001610dd787600060028110610dbb57fe5b602002015188600160028110610dcd57fe5b6020020151612455565b81526020018a8152602001838152602001600081526020018481526020016000815250908060018154018082558091505060019003906000526020600020906009020160009091909190915060008201518160000160006101000a81548173ffffffffffffffffffffffffffffffffffffffff021916908373ffffffffffffffffffffffffffffffffffffffff16021790555060208201518160010160006101000a81548173ffffffffffffffffffffffffffffffffffffffff021916908373ffffffffffffffffffffffffffffffffffffffff16021790555060408201518160020155606082015181600301556080820151816004015560a0820151816005015560c0820151816006015560e0820151816007015561010082015181600801555050600a60009054906101000a900473ffffffffffffffffffffffffffffffffffffffff1673ffffffffffffffffffffffffffffffffffffffff16630f5f4df3886040518263ffffffff1660e01b8152600401808273ffffffffffffffffffffffffffffffffffffffff168152602001915050600060405180830381600087803b158015610f8557600080fd5b505af1158015610f99573d6000803e3d6000fd5b505050508673ffffffffffffffffffffffffffffffffffffffff1663095ea7b3600860009054906101000a900473ffffffffffffffffffffffffffffffffffffffff167fffffffffffffffffffffffffffffffffffffffffffffffffffffffffffffffff6040518363ffffffff1660e01b8152600401808373ffffffffffffffffffffffffffffffffffffffff16815260200182815260200192505050602060405180830381600087803b15801561105057600080fd5b505af1158015611064573d6000803e3d6000fd5b505050506040513d602081101561107a57600080fd5b8101908080519060200190929190505050505050505050505050565b60026020528060005260406000206000915090505481565b60095481565b60046020528060005260406000206000915090505481565b6110d4613c27565b600860009054906101000a900473ffffffffffffffffffffffffffffffffffffffff1673ffffffffffffffffffffffffffffffffffffffff16631f06c859846040518263ffffffff1660e01b8152600401808281526020019150506101406040518083038186803b15801561114857600080fd5b505afa15801561115c573d6000803e3d6000fd5b505050506040513d61014081101561117357600080fd5b8101908080519060200190929190805190602001909291908051906020019092919080519060200190929190805190602001909291908051906020019092919080519060200190929190805190602001909291908051906020019092919080519060200190929190505050909192939495969798505088602001896040018a6060018b6080018c60a0018d60c0018e60e0018f610100018881525088815250886dffffffffffffffffffffffffffff166dffffffffffffffffffffffffffff168152508873ffffffffffffffffffffffffffffffffffffffff1673ffffffffffffffffffffffffffffffffffffffff16815250881515151581525088815250886dffffffffffffffffffffffffffff166dffffffffffffffffffffffffffff168152508873ffffffffffffffffffffffffffffffffffffffff1673ffffffffffffffffffffffffffffffffffffffff168152505050505050505050600082604051602001808273ffffffffffffffffffffffffffffffffffffffff1660601b8152601401915050604051602081830303815290604052805190602001209050600083604051602001808273ffffffffffffffffffffffffffffffffffffffff1660601b81526014019150506040516020818303038152906040528051906020012085604051602001808381526020018281526020019250505060405160208183030381529060405280519060200120905084600160008481526020019081526020016000206001015414806113bd5750846001600083815260200190815260200160002060010154145b611412576040517f08c379a0000000000000000000000000000000000000000000000000000000008152600401808060200182810382526031815260200180613d746031913960400191505060405180910390fd5b82608001516114e957600860009054906101000a900473ffffffffffffffffffffffffffffffffffffffff1673ffffffffffffffffffffffffffffffffffffffff1663d61693ae86600a60009054906101000a900473ffffffffffffffffffffffffffffffffffffffff166040518363ffffffff1660e01b8152600401808381526020018273ffffffffffffffffffffffffffffffffffffffff16815260200192505050600060405180830381600087803b1580156114d057600080fd5b505af11580156114e4573d6000803e3d6000fd5b505050505b6000611625600860009054906101000a900473ffffffffffffffffffffffffffffffffffffffff1673ffffffffffffffffffffffffffffffffffffffff16638ae9962786604001518760c001518861010001516040518463ffffffff1660e01b815260040180846dffffffffffffffffffffffffffff168152602001836dffffffffffffffffffffffffffff168152602001828152602001935050505060206040518083038186803b15801561159e57600080fd5b505afa1580156115b2573d6000803e3d6000fd5b505050506040513d60208110156115c857600080fd5b81019080805190602001909291905050506116176115f46002886060015161320f90919063ffffffff16565b87604001516dffffffffffffffffffffffffffff1661324990919063ffffffff16565b61324990919063ffffffff16565b905060006116458561010001518660e001516131f090919063ffffffff16565b9050600082111561174257846020015173ffffffffffffffffffffffffffffffffffffffff166323b872dd600a60009054906101000a900473ffffffffffffffffffffffffffffffffffffffff1688856040518463ffffffff1660e01b8152600401808473ffffffffffffffffffffffffffffffffffffffff1681526020018373ffffffffffffffffffffffffffffffffffffffff1681526020018281526020019350505050602060405180830381600087803b15801561170557600080fd5b505af1158015611719573d6000803e3d6000fd5b505050506040513d602081101561172f57600080fd5b8101908080519060200190929190505050505b600081111561183d578460a0015173ffffffffffffffffffffffffffffffffffffffff166323b872dd600a60009054906101000a900473ffffffffffffffffffffffffffffffffffffffff1688846040518463ffffffff1660e01b8152600401808473ffffffffffffffffffffffffffffffffffffffff1681526020018373ffffffffffffffffffffffffffffffffffffffff1681526020018281526020019350505050602060405180830381600087803b15801561180057600080fd5b505af1158015611814573d6000803e3d6000fd5b505050506040513d602081101561182a57600080fd5b8101908080519060200190929190505050505b61185d8886604001516dffffffffffffffffffffffffffff168989613269565b611867878761340a565b5050505050505050565b600860009054906101000a900473ffffffffffffffffffffffffffffffffffffffff1681565b600c602052816000526040600020602052806000526040600020600091509150508060000154908060010154905082565b600080600b85815481106118d857fe5b906000526020600020906009020190506000600c600087815260200190815260200160002060008581526020019081526020016000209050600082600601549050600083600801549050836005015443118015611936575060008114155b156119d157600061194b856005015443612407565b9050600061198e600e5461198088600401546119726009548761320f90919063ffffffff16565b61320f90919063ffffffff16565b61349290919063ffffffff16565b90506119cc6119bd846119af64e8d4a510008561320f90919063ffffffff16565b61349290919063ffffffff16565b856131f090919063ffffffff16565b935050505b611a158360010154611a0764e8d4a510006119f986886000015461320f90919063ffffffff16565b61349290919063ffffffff16565b61324990919063ffffffff16565b9450505050509392505050565b600a60009054906101000a900473ffffffffffffffffffffffffffffffffffffffff1681565b600f5481565b6000600b8281548110611a5d57fe5b9060005260206000209060090201905080600501544311611a7e5750611c05565b6000816008015490506000811480611a9a575060008260040154145b15611aaf574382600501819055505050611c05565b6000611abf836005015443612407565b90506000611b02600e54611af48660040154611ae66009548761320f90919063ffffffff16565b61320f90919063ffffffff16565b61349290919063ffffffff16565b9050600760009054906101000a900473ffffffffffffffffffffffffffffffffffffffff1673ffffffffffffffffffffffffffffffffffffffff166340c10f1930836040518363ffffffff1660e01b8152600401808373ffffffffffffffffffffffffffffffffffffffff16815260200182815260200192505050600060405180830381600087803b158015611b9757600080fd5b505af1158015611bab573d6000803e3d6000fd5b50505050611bef611bdc84611bce64e8d4a510008561320f90919063ffffffff16565b61349290919063ffffffff16565b85600601546131f090919063ffffffff16565b8460060181905550438460050181905550505050505b50565b600d6020528060005260406000206000915090505481565b6000600b80549050905060005b81811015611c4957611c3e81611a4e565b806001019050611c2d565b5050565b3373ffffffffffffffffffffffffffffffffffffffff1660008054906101000a900473ffffffffffffffffffffffffffffffffffffffff1673ffffffffffffffffffffffffffffffffffffffff1614611d0e576040517f08c379a00000000000000000000000000000000000000000000000000000000081526004018080602001828103825260208152602001807f4f776e61626c653a2063616c6c6572206973206e6f7420746865206f776e657281525060200191505060405180910390fd5b8015611d1d57611d1c611c20565b5b611d6282611d54600b8681548110611d3157fe5b906000526020600020906009020160040154600e5461324990919063ffffffff16565b6131f090919063ffffffff16565b600e8190555081600b8481548110611d7657fe5b906000526020600020906009020160040181905550505050565b6000600b8381548110611d9f57fe5b906000526020600020906009020190506000600c600085815260200190815260200160002060008481526020019081526020016000209050600080600860009054906101000a900473ffffffffffffffffffffffffffffffffffffffff1673ffffffffffffffffffffffffffffffffffffffff16631f06c859866040518263ffffffff1660e01b8152600401808281526020019150506101406040518083038186803b158015611e4e57600080fd5b505afa158015611e62573d6000803e3d6000fd5b505050506040513d610140811015611e7957600080fd5b81019080805190602001909291908051906020019092919080519060200190929190805190602001909291908051906020019092919080519060200190929190805190602001909291908051906020019092919080519060200190929190805190602001909291905050509091929394959697509091929394959650909192939495509091929350909192509091509050508092508193505050600033604051602001808273ffffffffffffffffffffffffffffffffffffffff1660601b81526014019150506040516020818303038152906040528051906020012090506000818760405160200180838152602001828152602001925050506040516020818303038152906040528051906020012090508660016000848152602001908152602001600020600101541480611fc35750866001600083815260200190815260200160002060010154145b612018576040517f08c379a0000000000000000000000000000000000000000000000000000000008152600401808060200182810382526031815260200180613d746031913960400191505060405180910390fd5b6000151583151514612075576040517f08c379a0000000000000000000000000000000000000000000000000000000008152600401808060200182810382526034815260200180613d406034913960400191505060405180910390fd5b61207e88611a4e565b60006120c886600101546120ba64e8d4a510006120ac8b600601548b6000015461320f90919063ffffffff16565b61349290919063ffffffff16565b61324990919063ffffffff16565b905060008111156120de576120dd33826134b8565b5b61211064e8d4a510006121028960060154896000015461320f90919063ffffffff16565b61349290919063ffffffff16565b8660010181905550505050505050505050565b600181565b600080600860009054906101000a900473ffffffffffffffffffffffffffffffffffffffff1673ffffffffffffffffffffffffffffffffffffffff16631f06c859846040518263ffffffff1660e01b8152600401808281526020019150506101406040518083038186803b15801561219f57600080fd5b505afa1580156121b3573d6000803e3d6000fd5b505050506040513d6101408110156121ca57600080fd5b81019080805190602001909291908051906020019092919080519060200190929190805190602001909291908051906020019092919080519060200190929190805190602001909291908051906020019092919080519060200190929190805190602001909291905050505050505050509350509250508173ffffffffffffffffffffffffffffffffffffffff166323b872dd3330846040518463ffffffff1660e01b8152600401808473ffffffffffffffffffffffffffffffffffffffff1681526020018373ffffffffffffffffffffffffffffffffffffffff1681526020018281526020019350505050602060405180830381600087803b1580156122d057600080fd5b505af11580156122e4573d6000803e3d6000fd5b505050506040513d60208110156122fa57600080fd5b810190808051906020019092919050505050600860009054906101000a900473ffffffffffffffffffffffffffffffffffffffff1673ffffffffffffffffffffffffffffffffffffffff1663627cf47484600a60009054906101000a900473ffffffffffffffffffffffffffffffffffffffff166040518363ffffffff1660e01b8152600401808381526020018273ffffffffffffffffffffffffffffffffffffffff16815260200192505050600060405180830381600087803b1580156123c157600080fd5b505af11580156123d5573d6000803e3d6000fd5b50505050505050565b60008060009054906101000a900473ffffffffffffffffffffffffffffffffffffffff16905090565b600061242f6001612421858561324990919063ffffffff16565b61320f90919063ffffffff16565b905092915050565b60055481565b60036020528060005260406000206000915090505481565b600061248482612476670de0b6b3a76400008661320f90919063ffffffff16565b61349290919063ffffffff16565b905092915050565b600760009054906101000a900473ffffffffffffffffffffffffffffffffffffffff1681565b3373ffffffffffffffffffffffffffffffffffffffff1660008054906101000a900473ffffffffffffffffffffffffffffffffffffffff1673ffffffffffffffffffffffffffffffffffffffff1614612573576040517f08c379a00000000000000000000000000000000000000000000000000000000081526004018080602001828103825260208152602001807f4f776e61626c653a2063616c6c6572206973206e6f7420746865206f776e657281525060200191505060405180910390fd5b80600a60006101000a81548173ffffffffffffffffffffffffffffffffffffffff021916908373ffffffffffffffffffffffffffffffffffffffff16021790555050565b6000600b84815481106125c657fe5b906000526020600020906009020190506000600c600086815260200190815260200160002060006126a36001600860009054906101000a900473ffffffffffffffffffffffffffffffffffffffff1673ffffffffffffffffffffffffffffffffffffffff1663c1292cc36040518163ffffffff1660e01b815260040160206040518083038186803b15801561265a57600080fd5b505afa15801561266e573d6000803e3d6000fd5b505050506040513d602081101561268457600080fd5b81019080805190602001909291905050506131f090919063ffffffff16565b8152602001908152602001600020905060006126dc60026126ce60028861349290919063ffffffff16565b61320f90919063ffffffff16565b6dffffffffffffffffffffffffffff16905060006126fa8686612455565b905083600201548110158015612714575083600301548111155b612769576040517f08c379a000000000000000000000000000000000000000000000000000000000815260040180806020018281038252603b815260200180613cdf603b913960400191505060405180910390fd5b61277287611a4e565b6000821115612a89576127df333061279460028661349290919063ffffffff16565b8760000160009054906101000a900473ffffffffffffffffffffffffffffffffffffffff1673ffffffffffffffffffffffffffffffffffffffff16613731909392919063ffffffff16565b6127f68285600801546131f090919063ffffffff16565b8460080181905550600860009054906101000a900473ffffffffffffffffffffffffffffffffffffffff1673ffffffffffffffffffffffffffffffffffffffff1663e2d638d4600a60009054906101000a900473ffffffffffffffffffffffffffffffffffffffff168660000160009054906101000a900473ffffffffffffffffffffffffffffffffffffffff16858860010160009054906101000a900473ffffffffffffffffffffffffffffffffffffffff168a8a600701546040518763ffffffff1660e01b8152600401808773ffffffffffffffffffffffffffffffffffffffff1681526020018673ffffffffffffffffffffffffffffffffffffffff168152602001856dffffffffffffffffffffffffffff1681526020018473ffffffffffffffffffffffffffffffffffffffff168152602001836dffffffffffffffffffffffffffff1681526020018281526020019650505050505050600060405180830381600087803b15801561296b57600080fd5b505af115801561297f573d6000803e3d6000fd5b5050505061299a8284600001546131f090919063ffffffff16565b8360000181905550612a4e600860009054906101000a900473ffffffffffffffffffffffffffffffffffffffff1673ffffffffffffffffffffffffffffffffffffffff1663c1292cc36040518163ffffffff1660e01b815260040160206040518083038186803b158015612a0d57600080fd5b505afa158015612a21573d6000803e3d6000fd5b505050506040513d6020811015612a3757600080fd5b81019080805190602001909291905050503361380a565b612a8064e8d4a51000612a728660060154866000015461320f90919063ffffffff16565b61349290919063ffffffff16565b83600101819055505b50505050505050565b3373ffffffffffffffffffffffffffffffffffffffff1660008054906101000a900473ffffffffffffffffffffffffffffffffffffffff1673ffffffffffffffffffffffffffffffffffffffff1614612b53576040517f08c379a00000000000000000000000000000000000000000000000000000000081526004018080602001828103825260208152602001807f4f776e61626c653a2063616c6c6572206973206e6f7420746865206f776e657281525060200191505060405180910390fd5b600073ffffffffffffffffffffffffffffffffffffffff168173ffffffffffffffffffffffffffffffffffffffff161415612bd9576040517f08c379a0000000000000000000000000000000000000000000000000000000008152600401808060200182810382526026815260200180613d1a6026913960400191505060405180910390fd5b8073ffffffffffffffffffffffffffffffffffffffff1660008054906101000a900473ffffffffffffffffffffffffffffffffffffffff1673ffffffffffffffffffffffffffffffffffffffff167f8be0079c531659141344cd1fd0a4f28419497f9722a3daafe3b4186f6b6457e060405160405180910390a3806000806101000a81548173ffffffffffffffffffffffffffffffffffffffff021916908373ffffffffffffffffffffffffffffffffffffffff16021790555050565b600080600860009054906101000a900473ffffffffffffffffffffffffffffffffffffffff1673ffffffffffffffffffffffffffffffffffffffff16631f06c859846040518263ffffffff1660e01b8152600401808281526020019150506101406040518083038186803b158015612d0d57600080fd5b505afa158015612d21573d6000803e3d6000fd5b505050506040513d610140811015612d3857600080fd5b8101908080519060200190929190805190602001909291908051906020019092919080519060200190929190805190602001909291908051906020019092919080519060200190929190805190602001909291908051906020019092919080519060200190929190505050505050509550505050925050600033604051602001808273ffffffffffffffffffffffffffffffffffffffff1660601b81526014019150506040516020818303038152906040528051906020012090506000818560405160200180838152602001828152602001925050506040516020818303038152906040528051906020012090508460016000848152602001908152602001600020600101541480612e5f5750846001600083815260200190815260200160002060010154145b612eb4576040517f08c379a0000000000000000000000000000000000000000000000000000000008152600401808060200182810382526031815260200180613d746031913960400191505060405180910390fd5b60008373ffffffffffffffffffffffffffffffffffffffff166370a08231600a60009054906101000a900473ffffffffffffffffffffffffffffffffffffffff166040518263ffffffff1660e01b8152600401808273ffffffffffffffffffffffffffffffffffffffff16815260200191505060206040518083038186803b158015612f3f57600080fd5b505afa158015612f53573d6000803e3d6000fd5b505050506040513d6020811015612f6957600080fd5b81019080805190602001909291905050509050600a60009054906101000a900473ffffffffffffffffffffffffffffffffffffffff1673ffffffffffffffffffffffffffffffffffffffff166345ac5e02876040518263ffffffff1660e01b815260040180828152602001915050600060405180830381600087803b158015612ff157600080fd5b505af1158015613005573d6000803e3d6000fd5b5050505060006130e1828673ffffffffffffffffffffffffffffffffffffffff166370a08231600a60009054906101000a900473ffffffffffffffffffffffffffffffffffffffff166040518263ffffffff1660e01b8152600401808273ffffffffffffffffffffffffffffffffffffffff16815260200191505060206040518083038186803b15801561309857600080fd5b505afa1580156130ac573d6000803e3d6000fd5b505050506040513d60208110156130c257600080fd5b810190808051906020019092919050505061324990919063ffffffff16565b905060008111156131da578573ffffffffffffffffffffffffffffffffffffffff166323b872dd600a60009054906101000a900473ffffffffffffffffffffffffffffffffffffffff1633846040518463ffffffff1660e01b8152600401808473ffffffffffffffffffffffffffffffffffffffff1681526020018373ffffffffffffffffffffffffffffffffffffffff1681526020018281526020019350505050602060405180830381600087803b15801561319d57600080fd5b505af11580156131b1573d6000803e3d6000fd5b505050506040513d60208110156131c757600080fd5b8101908080519060200190929190505050505b6131e688828933613269565b5050505050505050565b60008082840190508381101561320557600080fd5b8091505092915050565b6000808314156132225760009050613243565b600082840290508284828161323357fe5b041461323e57600080fd5b809150505b92915050565b60008282111561325857600080fd5b600082840390508091505092915050565b6000600b858154811061327857fe5b906000526020600020906009020190506000600c600087815260200190815260200160002060008581526020019081526020016000209050848160000154101561332a576040517f08c379a00000000000000000000000000000000000000000000000000000000081526004018080602001828103825260128152602001807f77697468647261773a206e6f7420676f6f64000000000000000000000000000081525060200191505060405180910390fd5b61333386611a4e565b600061337d826001015461336f64e8d4a510006133618760060154876000015461320f90919063ffffffff16565b61349290919063ffffffff16565b61324990919063ffffffff16565b905061338984826134b8565b6133a08684600801546131f090919063ffffffff16565b83600801819055506133bf86836000015461324990919063ffffffff16565b82600001819055506133f964e8d4a510006133eb8560060154856000015461320f90919063ffffffff16565b61349290919063ffffffff16565b826001018190555050505050505050565b600081604051602001808273ffffffffffffffffffffffffffffffffffffffff1660601b815260140191505060405160208183030381529060405280519060200120905060008184604051602001808381526020018281526020019250505060405160208183030381529060405280519060200120905061348c848383613892565b50505050565b60008082116134a057600080fd5b60008284816134ab57fe5b0490508091505092915050565b6000600760009054906101000a900473ffffffffffffffffffffffffffffffffffffffff1673ffffffffffffffffffffffffffffffffffffffff166370a08231306040518263ffffffff1660e01b8152600401808273ffffffffffffffffffffffffffffffffffffffff16815260200191505060206040518083038186803b15801561354357600080fd5b505afa158015613557573d6000803e3d6000fd5b505050506040513d602081101561356d57600080fd5b810190808051906020019092919050505090508082111561365c57600760009054906101000a900473ffffffffffffffffffffffffffffffffffffffff1673ffffffffffffffffffffffffffffffffffffffff1663a9059cbb84836040518363ffffffff1660e01b8152600401808373ffffffffffffffffffffffffffffffffffffffff16815260200182815260200192505050602060405180830381600087803b15801561361b57600080fd5b505af115801561362f573d6000803e3d6000fd5b505050506040513d602081101561364557600080fd5b81019080805190602001909291905050505061372c565b600760009054906101000a900473ffffffffffffffffffffffffffffffffffffffff1673ffffffffffffffffffffffffffffffffffffffff1663a9059cbb84846040518363ffffffff1660e01b8152600401808373ffffffffffffffffffffffffffffffffffffffff16815260200182815260200192505050602060405180830381600087803b1580156136ef57600080fd5b505af1158015613703573d6000803e3d6000fd5b505050506040513d602081101561371957600080fd5b8101908080519060200190929190505050505b505050565b8373ffffffffffffffffffffffffffffffffffffffff166323b872dd8484846040518463ffffffff1660e01b8152600401808473ffffffffffffffffffffffffffffffffffffffff1681526020018373ffffffffffffffffffffffffffffffffffffffff1681526020018281526020019350505050602060405180830381600087803b1580156137c057600080fd5b505af11580156137d4573d6000803e3d6000fd5b505050506040513d60208110156137ea57600080fd5b810190808051906020019092919050505061380457600080fd5b50505050565b600081604051602001808273ffffffffffffffffffffffffffffffffffffffff1660601b815260140191505060405160208183030381529060405280519060200120905060008184604051602001808381526020018281526020019250505060405160208183030381529060405280519060200120905061388c848383613b1c565b50505050565b826001600084815260200190815260200160002060010154141580156138cd5750826001600083815260200190815260200160002060010154145b15613a475760006001600083815260200190815260200160002060000154146139385760016000828152602001908152602001600020600201546001600060016000858152602001908152602001600020600001548152602001908152602001600020600201819055505b60006001600083815260200190815260200160002060020154146139e857600160008281526020019081526020016000206000015460016000600160008581526020019081526020016000206002015481526020019081526020016000206000018190555080600260008481526020019081526020016000205414156139e757600160008281526020019081526020016000206002015460026000848152602001908152602001600020819055505b5b600060016000838152602001908152602001600020600201819055506000600160008381526020019081526020016000206000018190555060016003600084815260200190815260200160002060008282540392505081905550613b17565b8260016000848152602001908152602001600020600101541415613b165760016000600160008581526020019081526020016000206000015481526020019081526020016000206001015460016000848152602001908152602001600020600101819055506001600060016000858152602001908152602001600020600001548152602001908152602001600020600001546001600084815260200190815260200160002060000181905550600160036000848152602001908152602001600020600082825403925050819055505b5b505050565b600060036000848152602001908152602001600020541115613bcc578060016000600260008681526020019081526020016000205481526020019081526020016000206000018190555082600160008381526020019081526020016000206001018190555060026000838152602001908152602001600020546001600083815260200190815260200160002060020181905550806002600084815260200190815260200160002081905550613c00565b8260016000848152602001908152602001600020600101819055508160026000848152602001908152602001600020819055505b60016003600084815260200190815260200160002060008282540192505081905550505050565b604051806101400160405280600073ffffffffffffffffffffffffffffffffffffffff168152602001600073ffffffffffffffffffffffffffffffffffffffff16815260200160006dffffffffffffffffffffffffffff16815260200160008152602001600015158152602001600073ffffffffffffffffffffffffffffffffffffffff16815260200160006dffffffffffffffffffffffffffff168152602001600081526020016000815260200160008152509056fe74686520726174696f206265747765656e2063726561746f7220616e64206a6f696e657220746f6b656e73206973206f7574206f662072616e67654f776e61626c653a206e6577206f776e657220697320746865207a65726f206164647265737363726561746f72206578656375746564207468652070726f6d69736520736f20697473206e6f74206c6f6e6765722076616c69644d6573736167652073656e646572206973206e6f74207468652063726561746f72206f6620746869732070726f6d697365a26469706673582212205886f3b1244e2a544a5b7f50cc651b36f4fb42f77138661b221f2817da52c0ca64736f6c63430007060033",
  "immutableReferences": {},
  "source": "// SPDX-License-Identifier: MIT\n\npragma solidity >=0.4.21 <0.8.0;\n\nimport {SafeMath} from \"../lib/math/SafeMath.sol\";\nimport {IERC20} from \"../interfaces/IERC20.sol\";\nimport {SafeERC20} from \"../lib/SafeERC20.sol\";\nimport {Ownable} from \"../lib/Ownable.sol\";\n\nimport {PromiseToken} from \"../token/PromiseToken.sol\";\nimport {PromiseCore} from \"../PromiseCore.sol\";\nimport {PromiseList} from \"../PromiseList.sol\";\nimport {IPromiseHolder} from \"../interfaces/IPromiseHolder.sol\";\n\ncontract PromiseChef is Ownable, PromiseList {\n    using SafeMath for uint256;\n    using SafeERC20 for IERC20;\n\n    struct ChefPromiseInfo {\n        uint256 amount;\n        uint256 rewardDebt;\n    }\n\n    struct PoolInfo {\n        IERC20 creatorToken;\n        address joinerToken;\n        uint256 minRatio;\n        uint256 maxRatio;\n        uint256 allocPoint; // How many allocation points assigned to this pool. PROMs to distribute per block.\n        uint256 lastRewardBlock; // Last block number that PROMs distribution occurs.\n        uint256 accPromPerShare; // Accumulated PROMs per share, times 1e12. See below.\n        uint256 expirationDate;\n        uint256 lpSupply;\n    }\n    struct PromiseCoreData {\n        address creator;\n        address creatorToken;\n        uint112 creatorAmount;\n        uint256 creatorDebt;\n        bool hasCreatorExecuted;\n        address joinerToken;\n        uint112 joinerAmount;\n        uint256 joinerDebt;\n        uint256 joinerPaidFull;\n        uint256 expirationTimestamp;\n    }\n\n    // The PROM TOKEN!\n    PromiseToken public prom;\n    // PromiseCore\n    PromiseCore public promiseCore;\n    // PROM tokens created per block.\n    uint256 public promPerBlock;\n    // Bonus muliplier for early prom makers.\n    uint256 public constant BONUS_MULTIPLIER = 1;\n\n    // Promise holder address;\n    address public promiseHolder;\n    // Info of each pool.\n    PoolInfo[] public poolInfo;\n    // Info of each promise that stakes LP tokens.\n    mapping(uint256 => mapping(uint256 => ChefPromiseInfo)) public chefPromiseInfo;\n    // The last prom rewards claim fo this user.\n    mapping(address => uint256) public lastClaim;\n    // Total allocation points. Must be the sum of all allocation points in all pools.\n    uint256 public totalAllocPoint = 0;\n    // The block number when PROM mining starts.\n    uint256 public startBlock;\n\n    constructor(\n        PromiseToken _prom,\n        PromiseCore _promiseCore,\n        uint256 _promPerBlock,\n        uint256 _startBlock\n    ) public Ownable(msg.sender) {\n        prom = _prom;\n        promiseCore = _promiseCore;\n        promPerBlock = _promPerBlock;\n        startBlock = block.number;\n    }\n\n    function poolLength() external view returns (uint256) {\n        return poolInfo.length;\n    }\n\n    // Add a new lp to the pool. Can only be called by the owner.\n    // XXX DO NOT add the same LP token more than once. Rewards will be messed up if you do.\n    function add(\n        uint256 _allocPoint,\n        IERC20 _creatorToken,\n        address _joinerToken,\n        uint256[2] memory _minUncalculatedRatio,\n        uint256[2] memory _maxUncalculatedRatio,\n        bool _withUpdate,\n        uint256 _expirationDate\n    ) public onlyOwner {\n        if (_withUpdate) {\n            massUpdatePools();\n        }\n        uint256 lastRewardBlock = block.number > startBlock ? block.number : startBlock;\n        totalAllocPoint = totalAllocPoint.add(_allocPoint);\n        poolInfo.push(\n            PoolInfo({\n                creatorToken: _creatorToken,\n                joinerToken: _joinerToken,\n                minRatio: calculateRatio(_minUncalculatedRatio[0], _minUncalculatedRatio[1]),\n                maxRatio: calculateRatio(_maxUncalculatedRatio[0], _maxUncalculatedRatio[1]),\n                expirationDate: _expirationDate,\n                allocPoint: _allocPoint,\n                lastRewardBlock: lastRewardBlock,\n                accPromPerShare: 0,\n                lpSupply: 0\n            })\n        );\n        IPromiseHolder(promiseHolder).approvePromiseChef(address(_creatorToken));\n        _creatorToken.approve(address(promiseCore), 2**256 - 1);\n    }\n\n    // Update the given pool's PROM allocation point and deposit fee. Can only be called by the owner.\n    function set(\n        uint256 _pid,\n        uint256 _allocPoint,\n        bool _withUpdate\n    ) public onlyOwner {\n        if (_withUpdate) {\n            massUpdatePools();\n        }\n        totalAllocPoint = totalAllocPoint.sub(poolInfo[_pid].allocPoint).add(_allocPoint);\n        poolInfo[_pid].allocPoint = _allocPoint;\n    }\n\n    // Return reward multiplier over the given _from to _to block.\n    function getMultiplier(uint256 _from, uint256 _to) public pure returns (uint256) {\n        return _to.sub(_from).mul(BONUS_MULTIPLIER);\n    }\n\n    // View function to see pending PROMs on frontend.\n    function pendingProm(\n        uint256 _pid,\n        address _user,\n        uint256 promiseId\n    ) external view returns (uint256) {\n        PoolInfo storage pool = poolInfo[_pid];\n        ChefPromiseInfo storage chefPromise = chefPromiseInfo[_pid][promiseId];\n        uint256 accPromPerShare = pool.accPromPerShare;\n        uint256 lpSupply = pool.lpSupply;\n        if (block.number > pool.lastRewardBlock && lpSupply != 0) {\n            uint256 multiplier = getMultiplier(pool.lastRewardBlock, block.number);\n            uint256 promReward = multiplier.mul(promPerBlock).mul(pool.allocPoint).div(totalAllocPoint);\n            accPromPerShare = accPromPerShare.add(promReward.mul(1e12).div(lpSupply));\n        }\n        return chefPromise.amount.mul(accPromPerShare).div(1e12).sub(chefPromise.rewardDebt);\n    }\n\n    // Update reward variables for all pools. Be careful of gas spending!\n    function massUpdatePools() public {\n        uint256 length = poolInfo.length;\n        for (uint256 pid = 0; pid < length; ++pid) {\n            updatePool(pid);\n        }\n    }\n\n    // Update reward variables of the given pool to be up-to-date.\n    function updatePool(uint256 _pid) public {\n        PoolInfo storage pool = poolInfo[_pid];\n        if (block.number <= pool.lastRewardBlock) {\n            return;\n        }\n        uint256 lpSupply = pool.lpSupply;\n        if (lpSupply == 0 || pool.allocPoint == 0) {\n            pool.lastRewardBlock = block.number;\n            return;\n        }\n        uint256 multiplier = getMultiplier(pool.lastRewardBlock, block.number);\n        uint256 promReward = multiplier.mul(promPerBlock).mul(pool.allocPoint).div(totalAllocPoint);\n\n        prom.mint(address(this), promReward);\n        pool.accPromPerShare = pool.accPromPerShare.add(promReward.mul(1e12).div(lpSupply));\n        pool.lastRewardBlock = block.number;\n    }\n\n    // Deposit LP tokens to MasterChef for PROM allocation.\n    function createPromise(\n        uint256 _pid,\n        uint256 _creatorAmount,\n        uint256 _joinerAmount\n    ) public {\n        PoolInfo storage pool = poolInfo[_pid];\n        ChefPromiseInfo storage chefPromise = chefPromiseInfo[_pid][promiseCore.lastId().add(1)];\n        uint256 creatorAmount = uint112(_creatorAmount.div(2).mul(2));\n        uint256 ratio = calculateRatio(_creatorAmount, _joinerAmount);\n        require(\n            ratio >= pool.minRatio && ratio <= pool.maxRatio,\n            \"the ratio between creator and joiner tokens is out of range\"\n        );\n        updatePool(_pid);\n        if (creatorAmount > 0) {\n            pool.creatorToken.safeTransferFrom(address(msg.sender), address(this), creatorAmount.div(2));\n            pool.lpSupply = pool.lpSupply.add(creatorAmount);\n            promiseCore.createPromise(\n                promiseHolder,\n                address(pool.creatorToken),\n                uint112(creatorAmount),\n                pool.joinerToken,\n                uint112(_joinerAmount),\n                pool.expirationDate\n            );\n            chefPromise.amount = chefPromise.amount.add(creatorAmount);\n            addToAccountList(promiseCore.lastId(), msg.sender);\n            chefPromise.rewardDebt = chefPromise.amount.mul(pool.accPromPerShare).div(1e12);\n        }\n    }\n\n    function payPromise(uint256 id) external {\n        (, address creatorToken, , uint256 creatorDebt, , , , , , ) = promiseCore.promises(id);\n        IERC20(creatorToken).transferFrom(msg.sender, address(this), creatorDebt);\n        promiseCore.payPromise(id, promiseHolder);\n    }\n\n    function executePromise(\n        uint256 _pid,\n        uint256 promiseId,\n        address account\n    ) external {\n        PromiseCoreData memory p;\n        (\n            ,\n            p.creatorToken,\n            p.creatorAmount,\n            p.creatorDebt,\n            p.hasCreatorExecuted,\n            p.joinerToken,\n            p.joinerAmount,\n            p.joinerDebt,\n            p.joinerPaidFull,\n\n        ) = promiseCore.promises(promiseId);\n        bytes32 listId = keccak256(abi.encodePacked(account));\n        bytes32 index = keccak256(abi.encodePacked(keccak256(abi.encodePacked(account)), promiseId));\n        require(\n            list[listId].id == promiseId || list[index].id == promiseId,\n            \"Message sender is not the creator of this promise\"\n        );\n        if (!p.hasCreatorExecuted) {\n            promiseCore.executePromise(promiseId, promiseHolder);\n        }\n        uint256 creatorTokenPayout =\n            uint256(p.creatorAmount).sub(p.creatorDebt.mul(2)).sub(\n                promiseCore.divMul(uint112(p.creatorAmount), uint112(p.joinerAmount), p.joinerPaidFull)\n            );\n        uint256 joinerTokenPayout = uint256(p.joinerDebt).add(p.joinerPaidFull);\n\n        if (creatorTokenPayout > 0) {\n            IERC20(p.creatorToken).transferFrom(promiseHolder, account, creatorTokenPayout);\n        }\n        if (joinerTokenPayout > 0) {\n            IERC20(p.joinerToken).transferFrom(promiseHolder, account, joinerTokenPayout);\n        }\n        withdrawFromPool(_pid, p.creatorAmount, promiseId, account);\n        deleteFromAccountList(promiseId, account);\n    }\n\n    function closePendingPromiseAmount(uint256 _pid, uint256 promiseId) external {\n        (, address creatorToken, , , , address joinerToken, , , , ) = promiseCore.promises(promiseId);\n        bytes32 listId = keccak256(abi.encodePacked(msg.sender));\n        bytes32 index = keccak256(abi.encodePacked(listId, promiseId));\n        require(\n            list[listId].id == promiseId || list[index].id == promiseId,\n            \"Message sender is not the creator of this promise\"\n        );\n        uint256 holderBalanceBeforeClose = IERC20(joinerToken).balanceOf(promiseHolder);\n        IPromiseHolder(promiseHolder).closePendingPromiseAmount(promiseId);\n        uint256 creatorTokenRefund = (IERC20(joinerToken).balanceOf(promiseHolder)).sub(holderBalanceBeforeClose);\n        if (creatorTokenRefund > 0) {\n            IERC20(creatorToken).transferFrom(promiseHolder, msg.sender, creatorTokenRefund);\n        }\n        withdrawFromPool(_pid, creatorTokenRefund, promiseId, msg.sender);\n    }\n\n    function claimReward(uint256 _pid, uint256 promiseId) external {\n        PoolInfo storage pool = poolInfo[_pid];\n        ChefPromiseInfo storage chefPromise = chefPromiseInfo[_pid][promiseId];\n        address creator;\n        bool creatorExectuted;\n        (creator, , , , creatorExectuted, , , , , ) = promiseCore.promises(promiseId);\n        bytes32 listId = keccak256(abi.encodePacked(msg.sender));\n        bytes32 index = keccak256(abi.encodePacked(listId, promiseId));\n        require(\n            list[listId].id == promiseId || list[index].id == promiseId,\n            \"Message sender is not the creator of this promise\"\n        );\n        require(creatorExectuted == false, \"creator executed the promise so its not longer valid\");\n        updatePool(_pid);\n        uint256 pending = chefPromise.amount.mul(pool.accPromPerShare).div(1e12).sub(chefPromise.rewardDebt);\n        if (pending > 0) {\n            safePromTransfer(msg.sender, pending);\n        }\n        chefPromise.rewardDebt = chefPromise.amount.mul(pool.accPromPerShare).div(1e12);\n    }\n\n    // Withdraw LP tokens from MasterChef.\n    function withdrawFromPool(\n        uint256 _pid,\n        uint256 _amount,\n        uint256 promiseId,\n        address account\n    ) internal {\n        PoolInfo storage pool = poolInfo[_pid];\n        ChefPromiseInfo storage chefPromise = chefPromiseInfo[_pid][promiseId];\n        require(chefPromise.amount >= _amount, \"withdraw: not good\");\n        updatePool(_pid);\n        uint256 pending = chefPromise.amount.mul(pool.accPromPerShare).div(1e12).sub(chefPromise.rewardDebt);\n        safePromTransfer(account, pending);\n        pool.lpSupply = pool.lpSupply.add(_amount);\n        chefPromise.amount = chefPromise.amount.sub(_amount);\n        chefPromise.rewardDebt = chefPromise.amount.mul(pool.accPromPerShare).div(1e12);\n    }\n\n    // Safe prom transfer function, just in case if rounding error causes pool to not have enough PROMs.\n    function safePromTransfer(address _to, uint256 _amount) internal {\n        uint256 promBal = prom.balanceOf(address(this));\n        if (_amount > promBal) {\n            prom.transfer(_to, promBal);\n        } else {\n            prom.transfer(_to, _amount);\n        }\n    }\n\n    function setPromiseHolder(address _promiseHolder) public onlyOwner {\n        promiseHolder = _promiseHolder;\n    }\n\n    //Pancake has to add hidden dummy pools inorder to alter the emission, here we make it simple and transparent to all.\n    function updateEmissionRate(uint256 _promPerBlock) public onlyOwner {\n        massUpdatePools();\n        promPerBlock = _promPerBlock;\n    }\n\n    function calculateRatio(uint256 creatorAmount, uint256 joinerAmount) public pure returns (uint256 z) {\n        z = creatorAmount.mul(1 ether).div(joinerAmount);\n    }\n\n    function max(uint256 a, uint256 b) internal pure returns (uint256 c) {\n        if (a > b) {\n            c = a;\n        } else {\n            c = b;\n        }\n    }\n}\n",
  "sourcePath": "/Users/nanoissuperior/promise-contracts/contracts/farms/PromiseChef.sol",
  "compiler": {
    "name": "solc",
    "version": "0.7.6+commit.7338295f.Emscripten.clang"
  },
  "schemaVersion": "3.2.4",
  "updatedAt": "2021-06-28T14:52:17.057Z",
  "networkType": "ethereum",
  "devdoc": {
    "kind": "dev",
    "methods": {},
    "version": 1
  },
  "userdoc": {
    "kind": "user",
    "methods": {},
    "version": 1
  }
}