{
  "contractName": "PromiseCore",
  "abi": [
    {
      "inputs": [
        {
          "internalType": "address",
          "name": "_feeAddress",
          "type": "address"
        }
      ],
      "stateMutability": "nonpayable",
      "type": "constructor"
    },
    {
      "anonymous": false,
      "inputs": [
        {
          "indexed": false,
          "internalType": "uint256",
          "name": "id",
          "type": "uint256"
        },
        {
          "indexed": false,
          "internalType": "address",
          "name": "creator",
          "type": "address"
        },
        {
          "indexed": false,
          "internalType": "address",
          "name": "creatorToken",
          "type": "address"
        },
        {
          "indexed": false,
          "internalType": "uint256",
          "name": "creatorAmount",
          "type": "uint256"
        },
        {
          "indexed": false,
          "internalType": "address",
          "name": "joinerToken",
          "type": "address"
        },
        {
          "indexed": false,
          "internalType": "uint256",
          "name": "joinerAmount",
          "type": "uint256"
        },
        {
          "indexed": false,
          "internalType": "uint256",
          "name": "expirationTimestamp",
          "type": "uint256"
        }
      ],
      "name": "PromiseCreated",
      "type": "event"
    },
    {
      "anonymous": false,
      "inputs": [
        {
          "indexed": false,
          "internalType": "uint256",
          "name": "id",
          "type": "uint256"
        },
        {
          "indexed": false,
          "internalType": "address",
          "name": "account",
          "type": "address"
        },
        {
          "indexed": false,
          "internalType": "uint256",
          "name": "creatorTokenAmount",
          "type": "uint256"
        },
        {
          "indexed": false,
          "internalType": "uint256",
          "name": "joinerTokenAmount",
          "type": "uint256"
        }
      ],
      "name": "PromiseExecuted",
      "type": "event"
    },
    {
      "anonymous": false,
      "inputs": [
        {
          "indexed": false,
          "internalType": "uint256",
          "name": "id",
          "type": "uint256"
        },
        {
          "indexed": false,
          "internalType": "address",
          "name": "joiner",
          "type": "address"
        },
        {
          "indexed": false,
          "internalType": "uint256",
          "name": "amount",
          "type": "uint256"
        }
      ],
      "name": "PromiseJoined",
      "type": "event"
    },
    {
      "anonymous": false,
      "inputs": [
        {
          "indexed": false,
          "internalType": "uint256",
          "name": "id",
          "type": "uint256"
        },
        {
          "indexed": false,
          "internalType": "address",
          "name": "account",
          "type": "address"
        },
        {
          "indexed": false,
          "internalType": "uint256",
          "name": "amount",
          "type": "uint256"
        }
      ],
      "name": "PromisePaid",
      "type": "event"
    },
    {
      "anonymous": false,
      "inputs": [
        {
          "indexed": false,
          "internalType": "uint256",
          "name": "id",
          "type": "uint256"
        },
        {
          "indexed": false,
          "internalType": "address",
          "name": "executor",
          "type": "address"
        },
        {
          "indexed": false,
          "internalType": "uint256",
          "name": "refund",
          "type": "uint256"
        }
      ],
      "name": "PromisePendingAmountClosed",
      "type": "event"
    },
    {
      "inputs": [],
      "name": "feeAddress",
      "outputs": [
        {
          "internalType": "address",
          "name": "",
          "type": "address"
        }
      ],
      "stateMutability": "view",
      "type": "function"
    },
    {
      "inputs": [],
      "name": "feeBP",
      "outputs": [
        {
          "internalType": "uint256",
          "name": "",
          "type": "uint256"
        }
      ],
      "stateMutability": "view",
      "type": "function"
    },
    {
      "inputs": [
        {
          "internalType": "uint256",
          "name": "",
          "type": "uint256"
        },
        {
          "internalType": "bytes32",
          "name": "",
          "type": "bytes32"
        }
      ],
      "name": "joiners",
      "outputs": [
        {
          "internalType": "uint256",
          "name": "amountPaid",
          "type": "uint256"
        },
        {
          "internalType": "uint256",
          "name": "outstandingDebt",
          "type": "uint256"
        },
        {
          "internalType": "bool",
          "name": "hasExecuted",
          "type": "bool"
        }
      ],
      "stateMutability": "view",
      "type": "function"
    },
    {
      "inputs": [
        {
          "internalType": "uint256",
          "name": "",
          "type": "uint256"
        }
      ],
      "name": "joinersLength",
      "outputs": [
        {
          "internalType": "uint256",
          "name": "",
          "type": "uint256"
        }
      ],
      "stateMutability": "view",
      "type": "function"
    },
    {
      "inputs": [],
      "name": "lastId",
      "outputs": [
        {
          "internalType": "uint256",
          "name": "",
          "type": "uint256"
        }
      ],
      "stateMutability": "view",
      "type": "function"
    },
    {
      "inputs": [
        {
          "internalType": "bytes32",
          "name": "",
          "type": "bytes32"
        }
      ],
      "name": "length",
      "outputs": [
        {
          "internalType": "uint256",
          "name": "",
          "type": "uint256"
        }
      ],
      "stateMutability": "view",
      "type": "function"
    },
    {
      "inputs": [
        {
          "internalType": "bytes32",
          "name": "",
          "type": "bytes32"
        }
      ],
      "name": "list",
      "outputs": [
        {
          "internalType": "bytes32",
          "name": "next",
          "type": "bytes32"
        },
        {
          "internalType": "uint256",
          "name": "id",
          "type": "uint256"
        },
        {
          "internalType": "bytes32",
          "name": "previous",
          "type": "bytes32"
        }
      ],
      "stateMutability": "view",
      "type": "function"
    },
    {
      "inputs": [
        {
          "internalType": "uint256",
          "name": "",
          "type": "uint256"
        }
      ],
      "name": "promises",
      "outputs": [
        {
          "internalType": "address",
          "name": "creator",
          "type": "address"
        },
        {
          "internalType": "address",
          "name": "creatorToken",
          "type": "address"
        },
        {
          "internalType": "uint112",
          "name": "creatorAmount",
          "type": "uint112"
        },
        {
          "internalType": "uint256",
          "name": "creatorDebt",
          "type": "uint256"
        },
        {
          "internalType": "bool",
          "name": "hasCreatorExecuted",
          "type": "bool"
        },
        {
          "internalType": "address",
          "name": "joinerToken",
          "type": "address"
        },
        {
          "internalType": "uint112",
          "name": "joinerAmount",
          "type": "uint112"
        },
        {
          "internalType": "uint256",
          "name": "joinerDebt",
          "type": "uint256"
        },
        {
          "internalType": "uint256",
          "name": "joinerPaidFull",
          "type": "uint256"
        },
        {
          "internalType": "uint256",
          "name": "expirationTimestamp",
          "type": "uint256"
        }
      ],
      "stateMutability": "view",
      "type": "function"
    },
    {
      "inputs": [
        {
          "internalType": "bytes32",
          "name": "",
          "type": "bytes32"
        }
      ],
      "name": "tail",
      "outputs": [
        {
          "internalType": "bytes32",
          "name": "",
          "type": "bytes32"
        }
      ],
      "stateMutability": "view",
      "type": "function"
    },
    {
      "inputs": [
        {
          "internalType": "address",
          "name": "account",
          "type": "address"
        },
        {
          "internalType": "address",
          "name": "creatorToken",
          "type": "address"
        },
        {
          "internalType": "uint112",
          "name": "creatorAmount",
          "type": "uint112"
        },
        {
          "internalType": "address",
          "name": "joinerToken",
          "type": "address"
        },
        {
          "internalType": "uint112",
          "name": "joinerAmount",
          "type": "uint112"
        },
        {
          "internalType": "uint256",
          "name": "expirationTimestamp",
          "type": "uint256"
        }
      ],
      "name": "createPromise",
      "outputs": [],
      "stateMutability": "nonpayable",
      "type": "function"
    },
    {
      "inputs": [
        {
          "internalType": "uint256",
          "name": "id",
          "type": "uint256"
        },
        {
          "internalType": "address",
          "name": "account",
          "type": "address"
        },
        {
          "internalType": "uint112",
          "name": "amount",
          "type": "uint112"
        }
      ],
      "name": "joinPromise",
      "outputs": [],
      "stateMutability": "nonpayable",
      "type": "function"
    },
    {
      "inputs": [
        {
          "internalType": "uint256",
          "name": "id",
          "type": "uint256"
        },
        {
          "internalType": "address",
          "name": "account",
          "type": "address"
        }
      ],
      "name": "payPromise",
      "outputs": [],
      "stateMutability": "nonpayable",
      "type": "function"
    },
    {
      "inputs": [
        {
          "internalType": "uint256",
          "name": "id",
          "type": "uint256"
        }
      ],
      "name": "closePendingPromiseAmount",
      "outputs": [],
      "stateMutability": "nonpayable",
      "type": "function"
    },
    {
      "inputs": [
        {
          "internalType": "uint256",
          "name": "id",
          "type": "uint256"
        },
        {
          "internalType": "address",
          "name": "account",
          "type": "address"
        }
      ],
      "name": "executePromise",
      "outputs": [],
      "stateMutability": "nonpayable",
      "type": "function"
    },
    {
      "inputs": [
        {
          "internalType": "uint112",
          "name": "a",
          "type": "uint112"
        },
        {
          "internalType": "uint112",
          "name": "b",
          "type": "uint112"
        },
        {
          "internalType": "uint256",
          "name": "c",
          "type": "uint256"
        }
      ],
      "name": "divMul",
      "outputs": [
        {
          "internalType": "uint256",
          "name": "result",
          "type": "uint256"
        }
      ],
      "stateMutability": "pure",
      "type": "function"
    }
  ],
  "bytecode": "0x6080604052603260095534801561001557600080fd5b506040516136093803806136098339818101604052602081101561003857600080fd5b8101908080519060200190929190505050600160008190555080600860006101000a81548173ffffffffffffffffffffffffffffffffffffffff021916908373ffffffffffffffffffffffffffffffffffffffff16021790555050613567806100a26000396000f3fe608060405234801561001057600080fd5b50600436106100f55760003560e01c8063627cf47411610097578063c13ce39211610066578063c13ce39214610471578063d61693ae146104d9578063e2d638d414610527578063f3f9fc74146105e9576100f5565b8063627cf4741461034d5780638ae996271461039b578063a9dbaf2514610411578063c1292cc314610453576100f5565b80632817b483116100d35780632817b4831461024d5780632ac00efb146102a957806341275358146102eb57806345ac5e021461031f576100f5565b8063017f6fae146100fa57806313d49a8b146101185780631f06c85914610168575b600080fd5b61010261062b565b6040518082815260200191505060405180910390f35b6101446004803603602081101561012e57600080fd5b8101908080359060200190929190505050610631565b60405180848152602001838152602001828152602001935050505060405180910390f35b6101946004803603602081101561017e57600080fd5b810190808035906020019092919050505061065b565b604051808b73ffffffffffffffffffffffffffffffffffffffff1681526020018a73ffffffffffffffffffffffffffffffffffffffff168152602001896dffffffffffffffffffffffffffff16815260200188815260200187151581526020018673ffffffffffffffffffffffffffffffffffffffff168152602001856dffffffffffffffffffffffffffff1681526020018481526020018381526020018281526020019a505050505050505050505060405180910390f35b6102836004803603604081101561026357600080fd5b810190808035906020019092919080359060200190929190505050610750565b604051808481526020018381526020018215158152602001935050505060405180910390f35b6102d5600480360360208110156102bf57600080fd5b8101908080359060200190929190505050610794565b6040518082815260200191505060405180910390f35b6102f36107ac565b604051808273ffffffffffffffffffffffffffffffffffffffff16815260200191505060405180910390f35b61034b6004803603602081101561033557600080fd5b81019080803590602001909291905050506107d2565b005b6103996004803603604081101561036357600080fd5b8101908080359060200190929190803573ffffffffffffffffffffffffffffffffffffffff169060200190929190505050610df3565b005b6103fb600480360360608110156103b157600080fd5b8101908080356dffffffffffffffffffffffffffff16906020019092919080356dffffffffffffffffffffffffffff16906020019092919080359060200190929190505050611635565b6040518082815260200191505060405180910390f35b61043d6004803603602081101561042757600080fd5b8101908080359060200190929190505050611718565b6040518082815260200191505060405180910390f35b61045b611730565b6040518082815260200191505060405180910390f35b6104d76004803603606081101561048757600080fd5b8101908080359060200190929190803573ffffffffffffffffffffffffffffffffffffffff16906020019092919080356dffffffffffffffffffffffffffff169060200190929190505050611736565b005b610525600480360360408110156104ef57600080fd5b8101908080359060200190929190803573ffffffffffffffffffffffffffffffffffffffff169060200190929190505050611a01565b005b6105e7600480360360c081101561053d57600080fd5b81019080803573ffffffffffffffffffffffffffffffffffffffff169060200190929190803573ffffffffffffffffffffffffffffffffffffffff16906020019092919080356dffffffffffffffffffffffffffff169060200190929190803573ffffffffffffffffffffffffffffffffffffffff16906020019092919080356dffffffffffffffffffffffffffff16906020019092919080359060200190929190505050612220565b005b610615600480360360208110156105ff57600080fd5b81019080803590602001909291905050506124f1565b6040518082815260200191505060405180910390f35b60095481565b60016020528060005260406000206000915090508060000154908060010154908060020154905083565b60046020528060005260406000206000915090508060000160009054906101000a900473ffffffffffffffffffffffffffffffffffffffff16908060010160009054906101000a900473ffffffffffffffffffffffffffffffffffffffff16908060020160009054906101000a90046dffffffffffffffffffffffffffff16908060030154908060040160009054906101000a900460ff16908060040160019054906101000a900473ffffffffffffffffffffffffffffffffffffffff16908060050160009054906101000a90046dffffffffffffffffffffffffffff1690806006015490806007015490806008015490508a565b6005602052816000526040600020602052806000526040600020600091509150508060000154908060010154908060020160009054906101000a900460ff16905083565b60026020528060005260406000206000915090505481565b600860009054906101000a900473ffffffffffffffffffffffffffffffffffffffff1681565b6002600054141561084b576040517f08c379a000000000000000000000000000000000000000000000000000000000815260040180806020018281038252601f8152602001807f5265656e7472616e637947756172643a207265656e7472616e742063616c6c0081525060200191505060405180910390fd5b60026000819055506004600082815260200190815260200160002060000160009054906101000a900473ffffffffffffffffffffffffffffffffffffffff1673ffffffffffffffffffffffffffffffffffffffff163373ffffffffffffffffffffffffffffffffffffffff161461092a576040517f08c379a000000000000000000000000000000000000000000000000000000000815260040180806020018281038252601a8152602001807f4f6e6c79207468652063726561746f722063616e20636c6f736500000000000081525060200191505060405180910390fd5b600060046000838152602001908152602001600020604051806101400160405290816000820160009054906101000a900473ffffffffffffffffffffffffffffffffffffffff1673ffffffffffffffffffffffffffffffffffffffff1673ffffffffffffffffffffffffffffffffffffffff1681526020016001820160009054906101000a900473ffffffffffffffffffffffffffffffffffffffff1673ffffffffffffffffffffffffffffffffffffffff1673ffffffffffffffffffffffffffffffffffffffff1681526020016002820160009054906101000a90046dffffffffffffffffffffffffffff166dffffffffffffffffffffffffffff166dffffffffffffffffffffffffffff168152602001600382015481526020016004820160009054906101000a900460ff161515151581526020016004820160019054906101000a900473ffffffffffffffffffffffffffffffffffffffff1673ffffffffffffffffffffffffffffffffffffffff1673ffffffffffffffffffffffffffffffffffffffff1681526020016005820160009054906101000a90046dffffffffffffffffffffffffffff166dffffffffffffffffffffffffffff166dffffffffffffffffffffffffffff168152602001600682015481526020016007820154815260200160088201548152505090506000610b4b610b3760028460e0015161250990919063ffffffff16565b83610100015161254390919063ffffffff16565b90506000610b9e610b6584604001518560c0015185611635565b610b90856060015186604001516dffffffffffffffffffffffffffff1661256290919063ffffffff16565b61256290919063ffffffff16565b905060008111610c16576040517f08c379a000000000000000000000000000000000000000000000000000000000815260040180806020018281038252601d8152602001807f43726561746f7220686173206e6f7468696e6720746f20726566756e6400000081525060200191505060405180910390fd5b610c5381610c45856060015186604001516dffffffffffffffffffffffffffff1661256290919063ffffffff16565b61256290919063ffffffff16565b6004600086815260200190815260200160002060020160006101000a8154816dffffffffffffffffffffffffffff02191690836dffffffffffffffffffffffffffff160217905550816004600086815260200190815260200160002060050160006101000a8154816dffffffffffffffffffffffffffff02191690836dffffffffffffffffffffffffffff16021790555060006004600086815260200190815260200160002060030181905550600060066000868152602001908152602001600020541415610d5657610d268433612582565b60016004600086815260200190815260200160002060040160006101000a81548160ff0219169083151502179055505b60006004600086815260200190815260200160002060030181905550610d888160003386602001518760a0015161260a565b7fc4025c9a28dd28da16f922c1f3a470295e763e78818f464f0737e24b886f5c0e843383604051808481526020018373ffffffffffffffffffffffffffffffffffffffff168152602001828152602001935050505060405180910390a1505050600160008190555050565b60026000541415610e6c576040517f08c379a000000000000000000000000000000000000000000000000000000000815260040180806020018281038252601f8152602001807f5265656e7472616e637947756172643a207265656e7472616e742063616c6c0081525060200191505060405180910390fd5b60026000819055506004600083815260200190815260200160002060000160009054906101000a900473ffffffffffffffffffffffffffffffffffffffff1673ffffffffffffffffffffffffffffffffffffffff168173ffffffffffffffffffffffffffffffffffffffff1614156111b257600015156004600084815260200190815260200160002060040160009054906101000a900460ff16151514610f7b576040517f08c379a00000000000000000000000000000000000000000000000000000000081526004018080602001828103825260108152602001807f416c72656164792065786563757465640000000000000000000000000000000081525060200191505060405180910390fd5b6000600460008481526020019081526020016000206003015411611007576040517f08c379a00000000000000000000000000000000000000000000000000000000081526004018080602001828103825260148152602001807f4f75747374616e64696e6744656274206973203000000000000000000000000081525060200191505060405180910390fd5b6004600083815260200190815260200160002060010160009054906101000a900473ffffffffffffffffffffffffffffffffffffffff1673ffffffffffffffffffffffffffffffffffffffff166323b872dd333060046000878152602001908152602001600020600301546040518463ffffffff1660e01b8152600401808473ffffffffffffffffffffffffffffffffffffffff1681526020018373ffffffffffffffffffffffffffffffffffffffff1681526020018281526020019350505050602060405180830381600087803b1580156110e257600080fd5b505af11580156110f6573d6000803e3d6000fd5b505050506040513d602081101561110c57600080fd5b8101908080519060200190929190505050507fa2df8ace4c2208ef02b823ca6123e300524f840d5375e29e6c6e1ced00a41b8582826004600086815260200190815260200160002060030154604051808481526020018373ffffffffffffffffffffffffffffffffffffffff168152602001828152602001935050505060405180910390a160006004600084815260200190815260200160002060030181905550611629565b60008282604051602001808381526020018273ffffffffffffffffffffffffffffffffffffffff1660601b8152601401925050506040516020818303038152906040528051906020012090506000600560008581526020019081526020016000206000838152602001908152602001600020600101541161129b576040517f08c379a00000000000000000000000000000000000000000000000000000000081526004018080602001828103825260148152602001807f4f75747374616e64696e6744656274206973203000000000000000000000000081525060200191505060405180910390fd5b6000151560056000858152602001908152602001600020600083815260200190815260200160002060020160009054906101000a900460ff16151514611349576040517f08c379a00000000000000000000000000000000000000000000000000000000081526004018080602001828103825260108152602001807f416c72656164792065786563757465640000000000000000000000000000000081525060200191505060405180910390fd5b6004600084815260200190815260200160002060040160019054906101000a900473ffffffffffffffffffffffffffffffffffffffff1673ffffffffffffffffffffffffffffffffffffffff166323b872dd3330600560008881526020019081526020016000206000868152602001908152602001600020600101546040518463ffffffff1660e01b8152600401808473ffffffffffffffffffffffffffffffffffffffff1681526020018373ffffffffffffffffffffffffffffffffffffffff1681526020018281526020019350505050602060405180830381600087803b15801561143557600080fd5b505af1158015611449573d6000803e3d6000fd5b505050506040513d602081101561145f57600080fd5b8101908080519060200190929190505050506005600084815260200190815260200160002060008281526020019081526020016000206001015460046000858152602001908152602001600020600601600082825403925050819055506114f760026005600086815260200190815260200160002060008481526020019081526020016000206001015461250990919063ffffffff16565b600460008581526020019081526020016000206007016000828254019250508190555060056000848152602001908152602001600020600082815260200190815260200160002060010154600560008581526020019081526020016000206000838152602001908152602001600020600001600082825401925050819055507fa2df8ace4c2208ef02b823ca6123e300524f840d5375e29e6c6e1ced00a41b85838360056000878152602001908152602001600020600085815260200190815260200160002060010154604051808481526020018373ffffffffffffffffffffffffffffffffffffffff168152602001828152602001935050505060405180910390a1600060056000858152602001908152602001600020600083815260200190815260200160002060010181905550505b60016000819055505050565b600073__ShareCalculator_______________________6334a31ce08585856040518463ffffffff1660e01b815260040180846dffffffffffffffffffffffffffff168152602001836dffffffffffffffffffffffffffff168152602001827bffffffffffffffffffffffffffffffffffffffffffffffffffffffff168152602001935050505060206040518083038186803b1580156116d457600080fd5b505af41580156116e8573d6000803e3d6000fd5b505050506040513d60208110156116fe57600080fd5b810190808051906020019092919050505090509392505050565b60036020528060005260406000206000915090505481565b60075481565b600260005414156117af576040517f08c379a000000000000000000000000000000000000000000000000000000000815260040180806020018281038252601f8152602001807f5265656e7472616e637947756172643a207265656e7472616e742063616c6c0081525060200191505060405180910390fd5b60026000819055508173ffffffffffffffffffffffffffffffffffffffff166004600085815260200190815260200160002060000160009054906101000a900473ffffffffffffffffffffffffffffffffffffffff1673ffffffffffffffffffffffffffffffffffffffff16141561188f576040517f08c379a000000000000000000000000000000000000000000000000000000000815260040180806020018281038252601b8152602001807f43616e2774206a6f696e20796f7572206f776e2070726f6d697365000000000081525060200191505060405180910390fd5b6004600084815260200190815260200160002060040160019054906101000a900473ffffffffffffffffffffffffffffffffffffffff1673ffffffffffffffffffffffffffffffffffffffff166323b872dd33306119076002866dffffffffffffffffffffffffffff1661299d90919063ffffffff16565b6040518463ffffffff1660e01b8152600401808473ffffffffffffffffffffffffffffffffffffffff1681526020018373ffffffffffffffffffffffffffffffffffffffff1681526020018281526020019350505050602060405180830381600087803b15801561197757600080fd5b505af115801561198b573d6000803e3d6000fd5b505050506040513d60208110156119a157600080fd5b8101908080519060200190929190505050506119f483836119ef60026119e16002876dffffffffffffffffffffffffffff1661299d90919063ffffffff16565b61250990919063ffffffff16565b6129c3565b6001600081905550505050565b60026000541415611a7a576040517f08c379a000000000000000000000000000000000000000000000000000000000815260040180806020018281038252601f8152602001807f5265656e7472616e637947756172643a207265656e7472616e742063616c6c0081525060200191505060405180910390fd5b6002600081905550600080600060046000868152602001908152602001600020604051806101400160405290816000820160009054906101000a900473ffffffffffffffffffffffffffffffffffffffff1673ffffffffffffffffffffffffffffffffffffffff1673ffffffffffffffffffffffffffffffffffffffff1681526020016001820160009054906101000a900473ffffffffffffffffffffffffffffffffffffffff1673ffffffffffffffffffffffffffffffffffffffff1673ffffffffffffffffffffffffffffffffffffffff1681526020016002820160009054906101000a90046dffffffffffffffffffffffffffff166dffffffffffffffffffffffffffff166dffffffffffffffffffffffffffff168152602001600382015481526020016004820160009054906101000a900460ff161515151581526020016004820160019054906101000a900473ffffffffffffffffffffffffffffffffffffffff1673ffffffffffffffffffffffffffffffffffffffff1673ffffffffffffffffffffffffffffffffffffffff1681526020016005820160009054906101000a90046dffffffffffffffffffffffffffff166dffffffffffffffffffffffffffff166dffffffffffffffffffffffffffff168152602001600682015481526020016007820154815260200160088201548152505090506004600086815260200190815260200160002060000160009054906101000a900473ffffffffffffffffffffffffffffffffffffffff1673ffffffffffffffffffffffffffffffffffffffff168473ffffffffffffffffffffffffffffffffffffffff161415611e2e57600015156004600087815260200190815260200160002060040160009054906101000a900460ff16151514611d7c576040517f08c379a00000000000000000000000000000000000000000000000000000000081526004018080602001828103825260108152602001807f416c72656164792065786563757465640000000000000000000000000000000081525060200191505060405180910390fd5b60016004600087815260200190815260200160002060040160006101000a81548160ff021916908315150217905550611dff611dc682604001518360c00151846101000151611635565b611df1836060015184604001516dffffffffffffffffffffffffffff1661256290919063ffffffff16565b61256290919063ffffffff16565b9250611e1d8161010001518260e0015161254390919063ffffffff16565b9150611e298585612582565b612197565b60008585604051602001808381526020018273ffffffffffffffffffffffffffffffffffffffff1660601b8152601401925050506040516020818303038152906040528051906020012090506000151560056000888152602001908152602001600020600083815260200190815260200160002060020160009054906101000a900460ff16151514611f28576040517f08c379a00000000000000000000000000000000000000000000000000000000081526004018080602001828103825260108152602001807f416c72656164792065786563757465640000000000000000000000000000000081525060200191505060405180910390fd5b60006005600088815260200190815260200160002060008381526020019081526020016000206001015414611fa8576040517f08c379a00000000000000000000000000000000000000000000000000000000081526004018080602001828103825260298152602001806135096029913960400191505060405180910390fd5b60006005600088815260200190815260200160002060008381526020019081526020016000206000015411612045576040517f08c379a000000000000000000000000000000000000000000000000000000000815260040180806020018281038252601d8152602001807f4a6f696e6572207761736e277420696e20746869732070726f6d69736500000081525060200191505060405180910390fd5b600160056000888152602001908152602001600020600083815260200190815260200160002060020160006101000a81548160ff021916908315150217905550600060056000888152602001908152602001600020600083815260200190815260200160002060405180606001604052908160008201548152602001600182015481526020016002820160009054906101000a900460ff161515151581525050905061213a612115846060015185604001516dffffffffffffffffffffffffffff1661256290919063ffffffff16565b8460c001516121358460200151856000015161256290919063ffffffff16565b611635565b945060008360600151111561218a576121776121646002836020015161250990919063ffffffff16565b826000015161256290919063ffffffff16565b6dffffffffffffffffffffffffffff1693505b6121948787612582565b50505b6121ac83838684602001518560a0015161260a565b7f59c224bd27fcad96a03c3ba94bf8eefdf86bb61624c3c684b52d58489cbe900285858585604051808581526020018473ffffffffffffffffffffffffffffffffffffffff16815260200183815260200182815260200194505050505060405180910390a150505060016000819055505050565b60026000541415612299576040517f08c379a000000000000000000000000000000000000000000000000000000000815260040180806020018281038252601f8152602001807f5265656e7472616e637947756172643a207265656e7472616e742063616c6c0081525060200191505060405180910390fd5b600260008190555060006002856dffffffffffffffffffffffffffff16816122bd57fe5b046dffffffffffffffffffffffffffff1614158015612307575060006002836dffffffffffffffffffffffffffff16816122f357fe5b046dffffffffffffffffffffffffffff1614155b612379576040517f08c379a00000000000000000000000000000000000000000000000000000000081526004018080602001828103825260108152602001807f416d6f756e7420746f6f20736d616c6c0000000000000000000000000000000081525060200191505060405180910390fd5b8473ffffffffffffffffffffffffffffffffffffffff166323b872dd33306123bb6002896dffffffffffffffffffffffffffff1661299d90919063ffffffff16565b6040518463ffffffff1660e01b8152600401808473ffffffffffffffffffffffffffffffffffffffff1681526020018373ffffffffffffffffffffffffffffffffffffffff1681526020018281526020019350505050602060405180830381600087803b15801561242b57600080fd5b505af115801561243f573d6000803e3d6000fd5b505050506040513d602081101561245557600080fd5b8101908080519060200190929190505050506124e186866124a3600261249560028a6dffffffffffffffffffffffffffff1661299d90919063ffffffff16565b61250990919063ffffffff16565b866124db60026124cd60028a6dffffffffffffffffffffffffffff1661299d90919063ffffffff16565b61250990919063ffffffff16565b86612d7e565b6001600081905550505050505050565b60066020528060005260406000206000915090505481565b60008083141561251c576000905061253d565b600082840290508284828161252d57fe5b041461253857600080fd5b809150505b92915050565b60008082840190508381101561255857600080fd5b8091505092915050565b60008282111561257157600080fd5b600082840390508091505092915050565b600081604051602001808273ffffffffffffffffffffffffffffffffffffffff1660601b81526014019150506040516020818303038152906040528051906020012090506000818460405160200180838152602001828152602001925050506040516020818303038152906040528051906020012090506126048483836130eb565b50505050565b60008511156127d057600061263e6127106126306009548961250990919063ffffffff16565b61299d90919063ffffffff16565b90508273ffffffffffffffffffffffffffffffffffffffff1663a9059cbb85612670848a61256290919063ffffffff16565b6040518363ffffffff1660e01b8152600401808373ffffffffffffffffffffffffffffffffffffffff16815260200182815260200192505050602060405180830381600087803b1580156126c357600080fd5b505af11580156126d7573d6000803e3d6000fd5b505050506040513d60208110156126ed57600080fd5b8101908080519060200190929190505050508273ffffffffffffffffffffffffffffffffffffffff1663a9059cbb600860009054906101000a900473ffffffffffffffffffffffffffffffffffffffff16836040518363ffffffff1660e01b8152600401808373ffffffffffffffffffffffffffffffffffffffff16815260200182815260200192505050602060405180830381600087803b15801561279257600080fd5b505af11580156127a6573d6000803e3d6000fd5b505050506040513d60208110156127bc57600080fd5b810190808051906020019092919050505050505b60008411156129965760006128046127106127f66009548861250990919063ffffffff16565b61299d90919063ffffffff16565b90508173ffffffffffffffffffffffffffffffffffffffff1663a9059cbb85612836848961256290919063ffffffff16565b6040518363ffffffff1660e01b8152600401808373ffffffffffffffffffffffffffffffffffffffff16815260200182815260200192505050602060405180830381600087803b15801561288957600080fd5b505af115801561289d573d6000803e3d6000fd5b505050506040513d60208110156128b357600080fd5b8101908080519060200190929190505050508173ffffffffffffffffffffffffffffffffffffffff1663a9059cbb600860009054906101000a900473ffffffffffffffffffffffffffffffffffffffff16836040518363ffffffff1660e01b8152600401808373ffffffffffffffffffffffffffffffffffffffff16815260200182815260200192505050602060405180830381600087803b15801561295857600080fd5b505af115801561296c573d6000803e3d6000fd5b505050506040513d602081101561298257600080fd5b810190808051906020019092919050505050505b5050505050565b60008082116129ab57600080fd5b60008284816129b657fe5b0490508091505092915050565b60006004600085815260200190815260200160002090506000612a4a612a0d6129fa6002856006015461250990919063ffffffff16565b846007015461254390919063ffffffff16565b8360050160009054906101000a90046dffffffffffffffffffffffffffff166dffffffffffffffffffffffffffff1661256290919063ffffffff16565b90506000612a726002856dffffffffffffffffffffffffffff1661299d90919063ffffffff16565b905081846dffffffffffffffffffffffffffff161115612afa576040517f08c379a00000000000000000000000000000000000000000000000000000000081526004018080602001828103825260208152602001807f416d6f756e7420746f6f206869676820666f7220746869732070726f6d69736581525060200191505060405180910390fd5b60008111612b70576040517f08c379a00000000000000000000000000000000000000000000000000000000081526004018080602001828103825260108152602001807f416d6f756e7420746f6f20736d616c6c0000000000000000000000000000000081525060200191505060405180910390fd5b60008686604051602001808381526020018273ffffffffffffffffffffffffffffffffffffffff1660601b8152601401925050506040516020818303038152906040528051906020012090506000600560008981526020019081526020016000206000838152602001908152602001600020600001541415612c1a57612bf68787613375565b60066000888152602001908152602001600020600081548092919060010191905055505b81600460008981526020019081526020016000206006016000828254019250508190555081600560008981526020019081526020016000206000838152602001908152602001600020600101600082825401925050819055508160056000898152602001908152602001600020600083815260200190815260200160002060000160008282540192505081905550612d16612cd9612cc66002876006015461250990919063ffffffff16565b866007015461254390919063ffffffff16565b8560050160009054906101000a90046dffffffffffffffffffffffffffff166dffffffffffffffffffffffffffff1661256290919063ffffffff16565b92507f88beed1106a2f3731016915495e8483fff2c199d32145d6c24c0595abffbd4e7878784604051808481526020018373ffffffffffffffffffffffffffffffffffffffff168152602001828152602001935050505060405180910390a150505050505050565b60016007600082825401925050819055506040518061014001604052808773ffffffffffffffffffffffffffffffffffffffff1681526020018673ffffffffffffffffffffffffffffffffffffffff168152602001856dffffffffffffffffffffffffffff168152602001612e0d6002876dffffffffffffffffffffffffffff1661299d90919063ffffffff16565b81526020016000151581526020018473ffffffffffffffffffffffffffffffffffffffff168152602001836dffffffffffffffffffffffffffff16815260200160008152602001600081526020018281525060046000600754815260200190815260200160002060008201518160000160006101000a81548173ffffffffffffffffffffffffffffffffffffffff021916908373ffffffffffffffffffffffffffffffffffffffff16021790555060208201518160010160006101000a81548173ffffffffffffffffffffffffffffffffffffffff021916908373ffffffffffffffffffffffffffffffffffffffff16021790555060408201518160020160006101000a8154816dffffffffffffffffffffffffffff02191690836dffffffffffffffffffffffffffff1602179055506060820151816003015560808201518160040160006101000a81548160ff02191690831515021790555060a08201518160040160016101000a81548173ffffffffffffffffffffffffffffffffffffffff021916908373ffffffffffffffffffffffffffffffffffffffff16021790555060c08201518160050160006101000a8154816dffffffffffffffffffffffffffff02191690836dffffffffffffffffffffffffffff16021790555060e082015181600601556101008201518160070155610120820151816008015590505061301860075487613375565b7fdc8203516f499093634e3af5b55399a773c8f965d706c0050c41121c3544201e600754878787878787604051808881526020018773ffffffffffffffffffffffffffffffffffffffff1681526020018673ffffffffffffffffffffffffffffffffffffffff168152602001856dffffffffffffffffffffffffffff1681526020018473ffffffffffffffffffffffffffffffffffffffff168152602001836dffffffffffffffffffffffffffff16815260200182815260200197505050505050505060405180910390a1505050505050565b826001600084815260200190815260200160002060010154141580156131265750826001600083815260200190815260200160002060010154145b156132a05760006001600083815260200190815260200160002060000154146131915760016000828152602001908152602001600020600201546001600060016000858152602001908152602001600020600001548152602001908152602001600020600201819055505b6000600160008381526020019081526020016000206002015414613241576001600082815260200190815260200160002060000154600160006001600085815260200190815260200160002060020154815260200190815260200160002060000181905550806002600084815260200190815260200160002054141561324057600160008281526020019081526020016000206002015460026000848152602001908152602001600020819055505b5b600060016000838152602001908152602001600020600201819055506000600160008381526020019081526020016000206000018190555060016003600084815260200190815260200160002060008282540392505081905550613370565b826001600084815260200190815260200160002060010154141561336f5760016000600160008581526020019081526020016000206000015481526020019081526020016000206001015460016000848152602001908152602001600020600101819055506001600060016000858152602001908152602001600020600001548152602001908152602001600020600001546001600084815260200190815260200160002060000181905550600160036000848152602001908152602001600020600082825403925050819055505b5b505050565b600081604051602001808273ffffffffffffffffffffffffffffffffffffffff1660601b81526014019150506040516020818303038152906040528051906020012090506000818460405160200180838152602001828152602001925050506040516020818303038152906040528051906020012090506133f78483836133fd565b50505050565b6000600360008481526020019081526020016000205411156134ad5780600160006002600086815260200190815260200160002054815260200190815260200160002060000181905550826001600083815260200190815260200160002060010181905550600260008381526020019081526020016000205460016000838152602001908152602001600020600201819055508060026000848152602001908152602001600020819055506134e1565b8260016000848152602001908152602001600020600101819055508160026000848152602001908152602001600020819055505b6001600360008481526020019081526020016000206000828254019250508190555050505056fe4a6f696e6572206469646e277420676f207468726f7567682077697468207468652070726f6d697365a2646970667358221220367327bd9bc018cee75ba933793e158f528bc2429c9b1c19af16723c0dfa5da564736f6c63430007060033",
  "immutableReferences": {},
  "source": "// SPDX-License-Identifier: BUSL-1.1\npragma solidity >=0.4.21 <0.8.0;\n\nimport {IERC20} from \"./interfaces/IERC20.sol\";\nimport {SafeMath} from \"./lib/math/SafeMath.sol\";\nimport {ReentrancyGuard} from \"./lib/ReentrancyGuard.sol\";\nimport {ShareCalculator} from \"./lib/math/ShareCalculator.sol\";\nimport {PromiseList} from \"./PromiseList.sol\";\n\ncontract PromiseCore is ReentrancyGuard, PromiseList {\n    using SafeMath for uint256;\n    using ShareCalculator for uint224;\n\n    mapping(uint256 => PromiseData) public promises;\n    mapping(uint256 => mapping(bytes32 => PromiseJoinerData)) public joiners;\n    mapping(uint256 => uint256) public joinersLength;\n\n    uint256 public lastId;\n\n    address public feeAddress;\n    uint256 public feeBP = 50;\n\n    struct PromiseData {\n        address creator;\n        address creatorToken;\n        uint112 creatorAmount;\n        uint256 creatorDebt;\n        bool hasCreatorExecuted;\n        address joinerToken;\n        uint112 joinerAmount;\n        uint256 joinerDebt;\n        uint256 joinerPaidFull;\n        uint256 expirationTimestamp;\n    }\n\n    struct PromiseJoinerData {\n        uint256 amountPaid;\n        uint256 outstandingDebt;\n        bool hasExecuted;\n    }\n\n    event PromiseCreated(\n        uint256 id,\n        address creator,\n        address creatorToken,\n        uint256 creatorAmount,\n        address joinerToken,\n        uint256 joinerAmount,\n        uint256 expirationTimestamp\n    );\n\n    event PromiseJoined(uint256 id, address joiner, uint256 amount);\n    event PromisePendingAmountClosed(uint256 id, address executor, uint256 refund);\n    event PromiseExecuted(uint256 id, address account, uint256 creatorTokenAmount, uint256 joinerTokenAmount);\n    event PromisePaid(uint256 id, address account, uint256 amount);\n\n    constructor(address _feeAddress) public {\n        feeAddress = _feeAddress;\n    }\n\n    function createPromise(\n        address account,\n        address creatorToken,\n        uint112 creatorAmount,\n        address joinerToken,\n        uint112 joinerAmount,\n        uint256 expirationTimestamp\n    ) external nonReentrant {\n        // Any odd amount entered will be converted to an even number so we need to check if the amount\n        // is equal to 0 when halved.\n        require(creatorAmount / 2 != 0 && joinerAmount / 2 != 0, \"Amount too small\");\n        // Takes the creator amount of the creator token from the message sender before\n        // the promise is created.\n        IERC20(creatorToken).transferFrom(msg.sender, address(this), uint256(creatorAmount).div(2));\n        _createPromise(\n            account,\n            creatorToken,\n            uint112(uint256(creatorAmount).div(2).mul(2)),\n            joinerToken,\n            uint112(uint256(joinerAmount).div(2).mul(2)),\n            expirationTimestamp\n        );\n    }\n\n    function joinPromise(\n        uint256 id,\n        address account,\n        uint112 amount\n    ) external nonReentrant {\n        require(promises[id].creator != account, \"Can't join your own promise\");\n        IERC20(promises[id].joinerToken).transferFrom(msg.sender, address(this), uint256(amount).div(2));\n        _joinPromise(id, account, uint112(uint256(amount).div(2).mul(2)));\n    }\n\n    function payPromise(uint256 id, address account) external nonReentrant {\n        // require(promises[id].expirationTimestamp > block.timestamp, \"Promise expired\");\n        if (account == promises[id].creator) {\n            require(promises[id].hasCreatorExecuted == false, \"Already executed\");\n            require(promises[id].creatorDebt > 0, \"OutstandingDebt is 0\");\n            IERC20(promises[id].creatorToken).transferFrom(msg.sender, address(this), promises[id].creatorDebt);\n            emit PromisePaid(id, account, promises[id].creatorDebt);\n            promises[id].creatorDebt = 0;\n        } else {\n            bytes32 joinerId = keccak256(abi.encodePacked(id, account));\n            require(joiners[id][joinerId].outstandingDebt > 0, \"OutstandingDebt is 0\");\n            require(joiners[id][joinerId].hasExecuted == false, \"Already executed\");\n            IERC20(promises[id].joinerToken).transferFrom(\n                msg.sender,\n                address(this),\n                joiners[id][joinerId].outstandingDebt\n            );\n            promises[id].joinerDebt -= joiners[id][joinerId].outstandingDebt;\n            promises[id].joinerPaidFull += joiners[id][joinerId].outstandingDebt.mul(2);\n            joiners[id][joinerId].amountPaid += joiners[id][joinerId].outstandingDebt;\n            emit PromisePaid(id, account, joiners[id][joinerId].outstandingDebt);\n            joiners[id][joinerId].outstandingDebt = 0;\n        }\n    }\n\n    function closePendingPromiseAmount(uint256 id) external nonReentrant {\n        require(msg.sender == promises[id].creator, \"Only the creator can close\");\n        PromiseData memory p = promises[id];\n        // totalJoinerCapital is the amount of the creator token which is set to be given out\n        // to all the joiners upon execution. This is removed from the creators refund and the account\n        // is sent the amount of creator tokens which is untilised by the joiners.\n        uint256 totalJoinerCapital = (p.joinerPaidFull).add(p.joinerDebt.mul(2));\n        uint256 refund =\n            (uint256(p.creatorAmount).sub(p.creatorDebt)).sub(\n                divMul(p.creatorAmount, p.joinerAmount, totalJoinerCapital)\n            );\n        require(refund > 0, \"Creator has nothing to refund\");\n        promises[id].creatorAmount = uint112(uint256(p.creatorAmount).sub(p.creatorDebt).sub(refund));\n        promises[id].joinerAmount = uint112(totalJoinerCapital);\n        promises[id].creatorDebt = 0;\n\n        if (joinersLength[id] == 0) {\n            deleteFromAccountList(id, msg.sender);\n            promises[id].hasCreatorExecuted = true;\n        }\n        promises[id].creatorDebt = 0;\n        payOut(refund, 0, msg.sender, p.creatorToken, p.joinerToken);\n        emit PromisePendingAmountClosed(id, msg.sender, refund);\n    }\n\n    function executePromise(uint256 id, address account) external nonReentrant {\n        // require(promises[id].expirationTimestamp <= block.timestamp, \"This promise has not expired yet\");\n        uint256 creatorTokenPayout;\n        uint256 joinerTokenPayout;\n        PromiseData memory p = promises[id];\n        if (account == promises[id].creator) {\n            require(promises[id].hasCreatorExecuted == false, \"Already executed\");\n            // If creator creates a promise, doesn't pay and nobody joins the promise.\n            // with this require those funds are just locked forever. This punishment isn't\n            // needed because the creator had no joiners.\n            // require(promises[id].creatorDebt == 0, \"Creator didn't go through with the promise\");\n            promises[id].hasCreatorExecuted = true;\n            creatorTokenPayout = uint256(p.creatorAmount).sub(p.creatorDebt).sub(\n                divMul(p.creatorAmount, p.joinerAmount, p.joinerPaidFull)\n            );\n            joinerTokenPayout = uint256(p.joinerDebt).add(p.joinerPaidFull);\n            deleteFromAccountList(id, account);\n        } else {\n            bytes32 joinerId = keccak256(abi.encodePacked(id, account));\n            require(joiners[id][joinerId].hasExecuted == false, \"Already executed\");\n            require(joiners[id][joinerId].outstandingDebt == 0, \"Joiner didn't go through with the promise\");\n            require(joiners[id][joinerId].amountPaid > 0, \"Joiner wasn't in this promise\");\n            joiners[id][joinerId].hasExecuted = true;\n            PromiseJoinerData memory j = joiners[id][joinerId];\n            creatorTokenPayout = divMul(\n                uint112(uint256(p.creatorAmount).sub(p.creatorDebt)),\n                p.joinerAmount,\n                (j.amountPaid).sub(j.outstandingDebt)\n            );\n            if (p.creatorDebt > 0) {\n                joinerTokenPayout = uint112((j.amountPaid).sub(j.outstandingDebt.mul(2)));\n            }\n            deleteFromAccountList(id, account);\n        }\n        payOut(creatorTokenPayout, joinerTokenPayout, account, p.creatorToken, p.joinerToken);\n        emit PromiseExecuted(id, account, creatorTokenPayout, joinerTokenPayout);\n    }\n\n    function _createPromise(\n        address account,\n        address creatorToken,\n        uint112 creatorAmount,\n        address joinerToken,\n        uint112 joinerAmount,\n        uint256 expirationTimestamp\n    ) internal {\n        //  require(expirationTimestamp > block.timestamp.add(10 minutes), \"expirationTimestamp date is in the past\");\n        lastId += 1;\n        promises[lastId] = PromiseData(\n            account,\n            creatorToken,\n            creatorAmount,\n            uint256(creatorAmount).div(2),\n            false,\n            joinerToken,\n            joinerAmount,\n            0,\n            0,\n            expirationTimestamp\n        );\n        addToAccountList(lastId, account);\n\n        emit PromiseCreated(\n            lastId,\n            account,\n            creatorToken,\n            creatorAmount,\n            joinerToken,\n            joinerAmount,\n            expirationTimestamp\n        );\n    }\n\n    function _joinPromise(\n        uint256 id,\n        address account,\n        uint112 joinerAmount\n    ) internal {\n        PromiseData storage p = promises[id];\n        uint256 remainingJoinableFunds = uint256(p.joinerAmount).sub((p.joinerPaidFull).add(p.joinerDebt.mul(2)));\n        uint256 payingNow = uint256(joinerAmount).div(2);\n        //  require(p.expirationTimestamp > block.timestamp, \"expirationTimestamp date is in the past and can't be joined\");\n        require(joinerAmount <= remainingJoinableFunds, \"Amount too high for this promise\");\n        require(payingNow > 0, \"Amount too small\");\n        bytes32 joinerId = keccak256(abi.encodePacked(id, account));\n        if (joiners[id][joinerId].amountPaid == 0) {\n            addToAccountList(id, account);\n            joinersLength[id]++;\n        }\n        promises[id].joinerDebt += payingNow;\n        joiners[id][joinerId].outstandingDebt += payingNow;\n        joiners[id][joinerId].amountPaid += payingNow;\n        remainingJoinableFunds = uint256(p.joinerAmount).sub((p.joinerPaidFull).add(p.joinerDebt.mul(2)));\n        // if the maximum amount of tokens have joined the promise, this removes the promise from the joinable linked list\n\n        emit PromiseJoined(id, account, payingNow);\n    }\n\n    function payOut(\n        uint256 creatorTokenAmount,\n        uint256 joinerTokenAmount,\n        address account,\n        address creatorAsset,\n        address joinerAsset\n    ) internal {\n        if (creatorTokenAmount > 0) {\n            uint256 feeA = creatorTokenAmount.mul(feeBP).div(10000);\n            IERC20(creatorAsset).transfer(account, creatorTokenAmount.sub(feeA));\n            IERC20(creatorAsset).transfer(feeAddress, feeA);\n        }\n        if (joinerTokenAmount > 0) {\n            uint256 feeB = joinerTokenAmount.mul(feeBP).div(10000);\n            IERC20(joinerAsset).transfer(account, joinerTokenAmount.sub(feeB));\n            IERC20(joinerAsset).transfer(feeAddress, feeB);\n        }\n    }\n\n    function divMul(\n        uint112 a,\n        uint112 b,\n        uint256 c\n    ) public pure returns (uint256 result) {\n        result = ShareCalculator.divMul(a, b, uint224(c));\n    }\n}\n",
  "sourcePath": "/Users/nanoissuperior/promise-contracts/contracts/PromiseCore.sol",
  "compiler": {
    "name": "solc",
    "version": "0.7.6+commit.7338295f.Emscripten.clang"
  },
  "schemaVersion": "3.2.4",
  "updatedAt": "2021-07-27T14:57:09.984Z",
  "devdoc": {
    "kind": "dev",
    "methods": {},
    "version": 1
  },
  "userdoc": {
    "kind": "user",
    "methods": {},
    "version": 1
  }
}