{
  "contractName": "PromiseHolder",
  "abi": [
    {
      "inputs": [
        {
          "internalType": "address",
          "name": "_promiseCore",
          "type": "address"
        },
        {
          "internalType": "address",
          "name": "promiseChef",
          "type": "address"
        }
      ],
      "stateMutability": "nonpayable",
      "type": "constructor"
    },
    {
      "anonymous": false,
      "inputs": [
        {
          "indexed": true,
          "internalType": "address",
          "name": "previousOwner",
          "type": "address"
        },
        {
          "indexed": true,
          "internalType": "address",
          "name": "newOwner",
          "type": "address"
        }
      ],
      "name": "OwnershipTransferred",
      "type": "event"
    },
    {
      "inputs": [],
      "name": "owner",
      "outputs": [
        {
          "internalType": "address",
          "name": "",
          "type": "address"
        }
      ],
      "stateMutability": "view",
      "type": "function",
      "constant": true
    },
    {
      "inputs": [],
      "name": "promiseCore",
      "outputs": [
        {
          "internalType": "address",
          "name": "",
          "type": "address"
        }
      ],
      "stateMutability": "view",
      "type": "function",
      "constant": true
    },
    {
      "inputs": [
        {
          "internalType": "address",
          "name": "newOwner",
          "type": "address"
        }
      ],
      "name": "transferOwnership",
      "outputs": [],
      "stateMutability": "nonpayable",
      "type": "function"
    },
    {
      "inputs": [
        {
          "internalType": "address",
          "name": "token",
          "type": "address"
        }
      ],
      "name": "approvePromiseChef",
      "outputs": [],
      "stateMutability": "nonpayable",
      "type": "function"
    },
    {
      "inputs": [
        {
          "internalType": "uint256",
          "name": "id",
          "type": "uint256"
        }
      ],
      "name": "closePendingPromiseAmount",
      "outputs": [],
      "stateMutability": "nonpayable",
      "type": "function"
    }
  ],
  "bytecode": "0x608060405234801561001057600080fd5b506040516107ae3803806107ae8339818101604052604081101561003357600080fd5b81019080805190602001909291908051906020019092919050505080806000806101000a81548173ffffffffffffffffffffffffffffffffffffffff021916908373ffffffffffffffffffffffffffffffffffffffff16021790555060008054906101000a900473ffffffffffffffffffffffffffffffffffffffff1673ffffffffffffffffffffffffffffffffffffffff16600073ffffffffffffffffffffffffffffffffffffffff167f8be0079c531659141344cd1fd0a4f28419497f9722a3daafe3b4186f6b6457e060405160405180910390a35081600160006101000a81548173ffffffffffffffffffffffffffffffffffffffff021916908373ffffffffffffffffffffffffffffffffffffffff16021790555050506106518061015d6000396000f3fe608060405234801561001057600080fd5b50600436106100575760003560e01c80630f5f4df31461005c5780633bb260bd146100a057806345ac5e02146100d45780638da5cb5b14610102578063f2fde38b14610136575b600080fd5b61009e6004803603602081101561007257600080fd5b81019080803573ffffffffffffffffffffffffffffffffffffffff16906020019092919050505061017a565b005b6100a8610251565b604051808273ffffffffffffffffffffffffffffffffffffffff16815260200191505060405180910390f35b610100600480360360208110156100ea57600080fd5b8101908080359060200190929190505050610277565b005b61010a6103c8565b604051808273ffffffffffffffffffffffffffffffffffffffff16815260200191505060405180910390f35b6101786004803603602081101561014c57600080fd5b81019080803573ffffffffffffffffffffffffffffffffffffffff1690602001909291905050506103f1565b005b8073ffffffffffffffffffffffffffffffffffffffff1663095ea7b361019e6103c8565b7fffffffffffffffffffffffffffffffffffffffffffffffffffffffffffffffff6040518363ffffffff1660e01b8152600401808373ffffffffffffffffffffffffffffffffffffffff16815260200182815260200192505050602060405180830381600087803b15801561021257600080fd5b505af1158015610226573d6000803e3d6000fd5b505050506040513d602081101561023c57600080fd5b81019080805190602001909291905050505050565b600160009054906101000a900473ffffffffffffffffffffffffffffffffffffffff1681565b3373ffffffffffffffffffffffffffffffffffffffff1660008054906101000a900473ffffffffffffffffffffffffffffffffffffffff1673ffffffffffffffffffffffffffffffffffffffff1614610338576040517f08c379a00000000000000000000000000000000000000000000000000000000081526004018080602001828103825260208152602001807f4f776e61626c653a2063616c6c6572206973206e6f7420746865206f776e657281525060200191505060405180910390fd5b600160009054906101000a900473ffffffffffffffffffffffffffffffffffffffff1673ffffffffffffffffffffffffffffffffffffffff166345ac5e02826040518263ffffffff1660e01b815260040180828152602001915050600060405180830381600087803b1580156103ad57600080fd5b505af11580156103c1573d6000803e3d6000fd5b5050505050565b60008060009054906101000a900473ffffffffffffffffffffffffffffffffffffffff16905090565b3373ffffffffffffffffffffffffffffffffffffffff1660008054906101000a900473ffffffffffffffffffffffffffffffffffffffff1673ffffffffffffffffffffffffffffffffffffffff16146104b2576040517f08c379a00000000000000000000000000000000000000000000000000000000081526004018080602001828103825260208152602001807f4f776e61626c653a2063616c6c6572206973206e6f7420746865206f776e657281525060200191505060405180910390fd5b600073ffffffffffffffffffffffffffffffffffffffff168173ffffffffffffffffffffffffffffffffffffffff161415610538576040517f08c379a00000000000000000000000000000000000000000000000000000000081526004018080602001828103825260268152602001806105f66026913960400191505060405180910390fd5b8073ffffffffffffffffffffffffffffffffffffffff1660008054906101000a900473ffffffffffffffffffffffffffffffffffffffff1673ffffffffffffffffffffffffffffffffffffffff167f8be0079c531659141344cd1fd0a4f28419497f9722a3daafe3b4186f6b6457e060405160405180910390a3806000806101000a81548173ffffffffffffffffffffffffffffffffffffffff021916908373ffffffffffffffffffffffffffffffffffffffff1602179055505056fe4f776e61626c653a206e6577206f776e657220697320746865207a65726f2061646472657373a26469706673582212201c7cd03007f2274e5e3c82472afb09a6cc6f7bc621421a831f952021ace4c7c564736f6c63430007060033",
  "immutableReferences": {},
  "source": "// SPDX-License-Identifier: MIT\n\npragma solidity >=0.4.21 <0.8.0;\n\nimport {IERC20} from \"../interfaces/IERC20.sol\";\nimport {Ownable} from \"../lib/Ownable.sol\";\nimport {IPromiseCore} from \"../interfaces/IPromiseCore.sol\";\n\ncontract PromiseHolder is Ownable {\n    address public promiseCore;\n\n    constructor(address _promiseCore, address promiseChef) public Ownable(promiseChef) {\n        promiseCore = _promiseCore;\n    }\n\n    function approvePromiseChef(address token) external {\n        IERC20(token).approve(owner(), 2**256 - 1);\n    }\n\n    function closePendingPromiseAmount(uint256 id) external onlyOwner {\n        IPromiseCore(promiseCore).closePendingPromiseAmount(id);\n    }\n}\n",
  "sourcePath": "/Users/nanoissuperior/promise-contracts/contracts/farms/PromiseHolder.sol",
  "compiler": {
    "name": "solc",
    "version": "0.7.6+commit.7338295f.Emscripten.clang"
  },
  "schemaVersion": "3.2.4",
  "updatedAt": "2021-06-28T14:52:17.067Z",
  "networkType": "ethereum",
  "devdoc": {
    "kind": "dev",
    "methods": {},
    "version": 1
  },
  "userdoc": {
    "kind": "user",
    "methods": {},
    "version": 1
  }
}