{
  "contractName": "PromController",
  "abi": [
    {
      "anonymous": false,
      "inputs": [
        {
          "indexed": false,
          "internalType": "address",
          "name": "addrA",
          "type": "address"
        },
        {
          "indexed": false,
          "internalType": "uint256",
          "name": "amountA",
          "type": "uint256"
        },
        {
          "indexed": false,
          "internalType": "address",
          "name": "assetA",
          "type": "address"
        },
        {
          "indexed": false,
          "internalType": "uint256",
          "name": "amountB",
          "type": "uint256"
        },
        {
          "indexed": false,
          "internalType": "address",
          "name": "assetB",
          "type": "address"
        },
        {
          "indexed": false,
          "internalType": "uint256",
          "name": "time",
          "type": "uint256"
        }
      ],
      "name": "PromiseCreated",
      "type": "event"
    },
    {
      "anonymous": false,
      "inputs": [
        {
          "indexed": false,
          "internalType": "address",
          "name": "executor",
          "type": "address"
        },
        {
          "indexed": false,
          "internalType": "uint256",
          "name": "id",
          "type": "uint256"
        }
      ],
      "name": "PromiseExecuted",
      "type": "event"
    },
    {
      "anonymous": false,
      "inputs": [
        {
          "indexed": false,
          "internalType": "address",
          "name": "addrB",
          "type": "address"
        },
        {
          "indexed": false,
          "internalType": "uint256",
          "name": "id",
          "type": "uint256"
        }
      ],
      "name": "PromiseJoined",
      "type": "event"
    },
    {
      "inputs": [],
      "name": "lastId",
      "outputs": [
        {
          "internalType": "uint256",
          "name": "",
          "type": "uint256"
        }
      ],
      "stateMutability": "view",
      "type": "function",
      "constant": true
    },
    {
      "inputs": [
        {
          "internalType": "uint256",
          "name": "amountA",
          "type": "uint256"
        },
        {
          "internalType": "address",
          "name": "assetA",
          "type": "address"
        },
        {
          "internalType": "uint256",
          "name": "amountB",
          "type": "uint256"
        },
        {
          "internalType": "address",
          "name": "assetB",
          "type": "address"
        },
        {
          "internalType": "uint256",
          "name": "time",
          "type": "uint256"
        }
      ],
      "name": "createPromise",
      "outputs": [],
      "stateMutability": "nonpayable",
      "type": "function"
    },
    {
      "inputs": [
        {
          "internalType": "uint256",
          "name": "id",
          "type": "uint256"
        }
      ],
      "name": "cancelPromise",
      "outputs": [],
      "stateMutability": "nonpayable",
      "type": "function"
    },
    {
      "inputs": [
        {
          "internalType": "uint256",
          "name": "id",
          "type": "uint256"
        }
      ],
      "name": "joinPromise",
      "outputs": [],
      "stateMutability": "nonpayable",
      "type": "function"
    },
    {
      "inputs": [
        {
          "internalType": "uint256",
          "name": "id",
          "type": "uint256"
        },
        {
          "internalType": "uint256",
          "name": "amount",
          "type": "uint256"
        }
      ],
      "name": "payPromise",
      "outputs": [],
      "stateMutability": "nonpayable",
      "type": "function"
    },
    {
      "inputs": [
        {
          "internalType": "uint256",
          "name": "id",
          "type": "uint256"
        }
      ],
      "name": "executePromise",
      "outputs": [],
      "stateMutability": "nonpayable",
      "type": "function"
    },
    {
      "inputs": [
        {
          "internalType": "address",
          "name": "assetA",
          "type": "address"
        },
        {
          "internalType": "address",
          "name": "assetB",
          "type": "address"
        }
      ],
      "name": "getPairID",
      "outputs": [
        {
          "internalType": "bytes32",
          "name": "",
          "type": "bytes32"
        }
      ],
      "stateMutability": "view",
      "type": "function",
      "constant": true
    },
    {
      "inputs": [
        {
          "internalType": "address",
          "name": "account",
          "type": "address"
        },
        {
          "internalType": "bool",
          "name": "accountPairSwitch",
          "type": "bool"
        },
        {
          "internalType": "address",
          "name": "_assetA",
          "type": "address"
        },
        {
          "internalType": "address",
          "name": "_assetB",
          "type": "address"
        }
      ],
      "name": "getPromises_Asset_Amount",
      "outputs": [
        {
          "internalType": "uint256[]",
          "name": "",
          "type": "uint256[]"
        },
        {
          "internalType": "uint256[]",
          "name": "",
          "type": "uint256[]"
        },
        {
          "internalType": "uint256[]",
          "name": "",
          "type": "uint256[]"
        },
        {
          "internalType": "address[]",
          "name": "",
          "type": "address[]"
        },
        {
          "internalType": "address[]",
          "name": "",
          "type": "address[]"
        }
      ],
      "stateMutability": "view",
      "type": "function",
      "constant": true
    },
    {
      "inputs": [
        {
          "internalType": "address",
          "name": "account",
          "type": "address"
        },
        {
          "internalType": "bool",
          "name": "accountPairSwitch",
          "type": "bool"
        },
        {
          "internalType": "address",
          "name": "_assetA",
          "type": "address"
        },
        {
          "internalType": "address",
          "name": "_assetB",
          "type": "address"
        }
      ],
      "name": "getPromises_Time_Executed_Addr",
      "outputs": [
        {
          "internalType": "uint256[]",
          "name": "",
          "type": "uint256[]"
        },
        {
          "internalType": "uint256[]",
          "name": "",
          "type": "uint256[]"
        },
        {
          "internalType": "bool[]",
          "name": "",
          "type": "bool[]"
        },
        {
          "internalType": "address[]",
          "name": "",
          "type": "address[]"
        },
        {
          "internalType": "address[]",
          "name": "",
          "type": "address[]"
        }
      ],
      "stateMutability": "view",
      "type": "function",
      "constant": true
    },
    {
      "inputs": [
        {
          "internalType": "address",
          "name": "account",
          "type": "address"
        },
        {
          "internalType": "bool",
          "name": "accountPairSwitch",
          "type": "bool"
        },
        {
          "internalType": "address",
          "name": "_assetA",
          "type": "address"
        },
        {
          "internalType": "address",
          "name": "_assetB",
          "type": "address"
        }
      ],
      "name": "getPromises_owed",
      "outputs": [
        {
          "internalType": "uint256[]",
          "name": "",
          "type": "uint256[]"
        },
        {
          "internalType": "uint256[]",
          "name": "",
          "type": "uint256[]"
        },
        {
          "internalType": "uint256[]",
          "name": "",
          "type": "uint256[]"
        }
      ],
      "stateMutability": "view",
      "type": "function",
      "constant": true
    },
    {
      "inputs": [
        {
          "internalType": "address",
          "name": "account",
          "type": "address"
        }
      ],
      "name": "getAccountPromisesIDs",
      "outputs": [
        {
          "internalType": "uint256[]",
          "name": "",
          "type": "uint256[]"
        }
      ],
      "stateMutability": "view",
      "type": "function",
      "constant": true
    },
    {
      "inputs": [
        {
          "internalType": "address",
          "name": "assetA",
          "type": "address"
        },
        {
          "internalType": "address",
          "name": "assetB",
          "type": "address"
        }
      ],
      "name": "getJoinablePromisesIDs",
      "outputs": [
        {
          "internalType": "uint256[]",
          "name": "",
          "type": "uint256[]"
        }
      ],
      "stateMutability": "view",
      "type": "function",
      "constant": true
    },
    {
      "inputs": [
        {
          "internalType": "uint256",
          "name": "id",
          "type": "uint256"
        }
      ],
      "name": "getPromiseData_Amount_Asset_Time_Executed",
      "outputs": [
        {
          "internalType": "uint256",
          "name": "",
          "type": "uint256"
        },
        {
          "internalType": "address",
          "name": "",
          "type": "address"
        },
        {
          "internalType": "uint256",
          "name": "",
          "type": "uint256"
        },
        {
          "internalType": "address",
          "name": "",
          "type": "address"
        },
        {
          "internalType": "uint256",
          "name": "",
          "type": "uint256"
        },
        {
          "internalType": "bool",
          "name": "",
          "type": "bool"
        }
      ],
      "stateMutability": "view",
      "type": "function",
      "constant": true
    },
    {
      "inputs": [
        {
          "internalType": "address",
          "name": "assetA",
          "type": "address"
        },
        {
          "internalType": "address",
          "name": "assetB",
          "type": "address"
        }
      ],
      "name": "getAssetData_Name_Decimals",
      "outputs": [
        {
          "internalType": "string",
          "name": "",
          "type": "string"
        },
        {
          "internalType": "string",
          "name": "",
          "type": "string"
        },
        {
          "internalType": "uint256",
          "name": "",
          "type": "uint256"
        },
        {
          "internalType": "uint256",
          "name": "",
          "type": "uint256"
        }
      ],
      "stateMutability": "view",
      "type": "function",
      "constant": true
    }
  ],
  "bytecode": "0x608060405234801561001057600080fd5b50613ff1806100206000396000f3fe608060405234801561001057600080fd5b50600436106100ea5760003560e01c8063c1292cc31161008c578063df3acc7e11610066578063df3acc7e146109f2578063e365a23214610a20578063fab95d6e14610a58578063fdd02d4714610aeb576100ea565b8063c1292cc3146107c4578063d34554fd146107e2578063d6fcce681461089b576100ea565b80637b94e235116100c85780637b94e23514610571578063864d2abd146105f35780638ed9e3dd14610768578063b3438e6514610796576100ea565b8063202491bc146100ef57806353f7d8c2146102f457806379bd4cd3146104f9575b600080fd5b61017d6004803603608081101561010557600080fd5b81019080803573ffffffffffffffffffffffffffffffffffffffff169060200190929190803515159060200190929190803573ffffffffffffffffffffffffffffffffffffffff169060200190929190803573ffffffffffffffffffffffffffffffffffffffff169060200190929190505050610b84565b60405180806020018060200180602001806020018060200186810386528b818151815260200191508051906020019060200280838360005b838110156101d05780820151818401526020810190506101b5565b5050505090500186810385528a818151815260200191508051906020019060200280838360005b838110156102125780820151818401526020810190506101f7565b50505050905001868103845289818151815260200191508051906020019060200280838360005b83811015610254578082015181840152602081019050610239565b50505050905001868103835288818151815260200191508051906020019060200280838360005b8381101561029657808201518184015260208101905061027b565b50505050905001868103825287818151815260200191508051906020019060200280838360005b838110156102d85780820151818401526020810190506102bd565b505050509050019a505050505050505050505060405180910390f35b6103826004803603608081101561030a57600080fd5b81019080803573ffffffffffffffffffffffffffffffffffffffff169060200190929190803515159060200190929190803573ffffffffffffffffffffffffffffffffffffffff169060200190929190803573ffffffffffffffffffffffffffffffffffffffff169060200190929190505050610fd5565b60405180806020018060200180602001806020018060200186810386528b818151815260200191508051906020019060200280838360005b838110156103d55780820151818401526020810190506103ba565b5050505090500186810385528a818151815260200191508051906020019060200280838360005b838110156104175780820151818401526020810190506103fc565b50505050905001868103845289818151815260200191508051906020019060200280838360005b8381101561045957808201518184015260208101905061043e565b50505050905001868103835288818151815260200191508051906020019060200280838360005b8381101561049b578082015181840152602081019050610480565b50505050905001868103825287818151815260200191508051906020019060200280838360005b838110156104dd5780820151818401526020810190506104c2565b505050509050019a505050505050505050505060405180910390f35b61055b6004803603604081101561050f57600080fd5b81019080803573ffffffffffffffffffffffffffffffffffffffff169060200190929190803573ffffffffffffffffffffffffffffffffffffffff16906020019092919050505061142e565b6040518082815260200191505060405180910390f35b6105f1600480360360a081101561058757600080fd5b8101908080359060200190929190803573ffffffffffffffffffffffffffffffffffffffff16906020019092919080359060200190929190803573ffffffffffffffffffffffffffffffffffffffff1690602001909291908035906020019092919050505061152f565b005b6106816004803603608081101561060957600080fd5b81019080803573ffffffffffffffffffffffffffffffffffffffff169060200190929190803515159060200190929190803573ffffffffffffffffffffffffffffffffffffffff169060200190929190803573ffffffffffffffffffffffffffffffffffffffff1690602001909291905050506119ab565b60405180806020018060200180602001848103845287818151815260200191508051906020019060200280838360005b838110156106cc5780820151818401526020810190506106b1565b50505050905001848103835286818151815260200191508051906020019060200280838360005b8381101561070e5780820151818401526020810190506106f3565b50505050905001848103825285818151815260200191508051906020019060200280838360005b83811015610750578082015181840152602081019050610735565b50505050905001965050505050505060405180910390f35b6107946004803603602081101561077e57600080fd5b8101908080359060200190929190505050611cc4565b005b6107c2600480360360208110156107ac57600080fd5b81019080803590602001909291905050506128d4565b005b6107cc612c9b565b6040518082815260200191505060405180910390f35b610844600480360360408110156107f857600080fd5b81019080803573ffffffffffffffffffffffffffffffffffffffff169060200190929190803573ffffffffffffffffffffffffffffffffffffffff169060200190929190505050612ca1565b6040518080602001828103825283818151815260200191508051906020019060200280838360005b8381101561088757808201518184015260208101905061086c565b505050509050019250505060405180910390f35b6108fd600480360360408110156108b157600080fd5b81019080803573ffffffffffffffffffffffffffffffffffffffff169060200190929190803573ffffffffffffffffffffffffffffffffffffffff169060200190929190505050612d16565b604051808060200180602001858152602001848152602001838103835287818151815260200191508051906020019080838360005b8381101561094d578082015181840152602081019050610932565b50505050905090810190601f16801561097a5780820380516001836020036101000a031916815260200191505b50838103825286818151815260200191508051906020019080838360005b838110156109b3578082015181840152602081019050610998565b50505050905090810190601f1680156109e05780820380516001836020036101000a031916815260200191505b50965050505050505060405180910390f35b610a1e60048036036020811015610a0857600080fd5b81019080803590602001909291905050506130c5565b005b610a5660048036036040811015610a3657600080fd5b81019080803590602001909291908035906020019092919050505061350e565b005b610a8460048036036020811015610a6e57600080fd5b8101908080359060200190929190505050613b4f565b604051808781526020018673ffffffffffffffffffffffffffffffffffffffff1681526020018581526020018473ffffffffffffffffffffffffffffffffffffffff1681526020018381526020018215158152602001965050505050505060405180910390f35b610b2d60048036036020811015610b0157600080fd5b81019080803573ffffffffffffffffffffffffffffffffffffffff169060200190929190505050613d5b565b6040518080602001828103825283818151815260200191508051906020019060200280838360005b83811015610b70578082015181840152602081019050610b55565b505050509050019250505060405180910390f35b6060806060806060808815610ba357610b9c8a613d5b565b9050610bb0565b610bad8888612ca1565b90505b60008151905060608167ffffffffffffffff81118015610bcf57600080fd5b50604051908082528060200260200182016040528015610bfe5781602001602082028036833780820191505090505b50905060608267ffffffffffffffff81118015610c1a57600080fd5b50604051908082528060200260200182016040528015610c495781602001602082028036833780820191505090505b50905060608367ffffffffffffffff81118015610c6557600080fd5b50604051908082528060200260200182016040528015610c945781602001602082028036833780820191505090505b50905060608467ffffffffffffffff81118015610cb057600080fd5b50604051908082528060200260200182016040528015610cdf5781602001602082028036833780820191505090505b50905060005b85811015610fb457610cf5613e77565b600080898481518110610d0457fe5b60200260200101518152602001908152602001600020604051806101400160405290816000820160009054906101000a900473ffffffffffffffffffffffffffffffffffffffff1673ffffffffffffffffffffffffffffffffffffffff1673ffffffffffffffffffffffffffffffffffffffff168152602001600182015481526020016002820160009054906101000a900473ffffffffffffffffffffffffffffffffffffffff1673ffffffffffffffffffffffffffffffffffffffff1673ffffffffffffffffffffffffffffffffffffffff168152602001600382015481526020016004820160009054906101000a900473ffffffffffffffffffffffffffffffffffffffff1673ffffffffffffffffffffffffffffffffffffffff1673ffffffffffffffffffffffffffffffffffffffff168152602001600582015481526020016006820160009054906101000a900473ffffffffffffffffffffffffffffffffffffffff1673ffffffffffffffffffffffffffffffffffffffff1673ffffffffffffffffffffffffffffffffffffffff16815260200160078201548152602001600882015481526020016009820160009054906101000a900460ff1615151515815250509050806101200151610fa8578060200151868381518110610ee857fe5b6020026020010181815250508060a00151858381518110610f0557fe5b6020026020010181815250508060400151848381518110610f2257fe5b602002602001019073ffffffffffffffffffffffffffffffffffffffff16908173ffffffffffffffffffffffffffffffffffffffff16815250508060c00151838381518110610f6d57fe5b602002602001019073ffffffffffffffffffffffffffffffffffffffff16908173ffffffffffffffffffffffffffffffffffffffff16815250505b50806001019050610ce5565b5085848484849a509a509a509a509a50505050505050945094509450945094565b6060806060806060808815610ff457610fed8a613d5b565b9050611001565b610ffe8888612ca1565b90505b60008151905060608167ffffffffffffffff8111801561102057600080fd5b5060405190808252806020026020018201604052801561104f5781602001602082028036833780820191505090505b50905060608267ffffffffffffffff8111801561106b57600080fd5b5060405190808252806020026020018201604052801561109a5781602001602082028036833780820191505090505b50905060608367ffffffffffffffff811180156110b657600080fd5b506040519080825280602002602001820160405280156110e55781602001602082028036833780820191505090505b50905060608467ffffffffffffffff8111801561110157600080fd5b506040519080825280602002602001820160405280156111305781602001602082028036833780820191505090505b50905060005b8581101561140d57611146613e77565b60008089848151811061115557fe5b60200260200101518152602001908152602001600020604051806101400160405290816000820160009054906101000a900473ffffffffffffffffffffffffffffffffffffffff1673ffffffffffffffffffffffffffffffffffffffff1673ffffffffffffffffffffffffffffffffffffffff168152602001600182015481526020016002820160009054906101000a900473ffffffffffffffffffffffffffffffffffffffff1673ffffffffffffffffffffffffffffffffffffffff1673ffffffffffffffffffffffffffffffffffffffff168152602001600382015481526020016004820160009054906101000a900473ffffffffffffffffffffffffffffffffffffffff1673ffffffffffffffffffffffffffffffffffffffff1673ffffffffffffffffffffffffffffffffffffffff168152602001600582015481526020016006820160009054906101000a900473ffffffffffffffffffffffffffffffffffffffff1673ffffffffffffffffffffffffffffffffffffffff1673ffffffffffffffffffffffffffffffffffffffff16815260200160078201548152602001600882015481526020016009820160009054906101000a900460ff16151515158152505090508061012001516114015780610100015186838151811061133a57fe5b60200260200101818152505080610120015185838151811061135857fe5b602002602001019015159081151581525050806000015184838151811061137b57fe5b602002602001019073ffffffffffffffffffffffffffffffffffffffff16908173ffffffffffffffffffffffffffffffffffffffff168152505080608001518383815181106113c657fe5b602002602001019073ffffffffffffffffffffffffffffffffffffffff16908173ffffffffffffffffffffffffffffffffffffffff16815250505b50806001019050611136565b5085848484849a509a509a509a509a50505050505050945094509450945094565b600060028383604051602001808373ffffffffffffffffffffffffffffffffffffffff1660601b81526014018273ffffffffffffffffffffffffffffffffffffffff1660601b8152601401925050506040516020818303038152906040526040518082805190602001908083835b602083106114bf578051825260208201915060208101905060208303925061149c565b6001836020036101000a038019825116818451168082178552505050505050905001915050602060405180830381855afa158015611501573d6000803e3d6000fd5b5050506040513d602081101561151657600080fd5b8101908080519060200190929190505050905092915050565b60008490506001600460008282540192505081905550600060045490506040518061014001604052803373ffffffffffffffffffffffffffffffffffffffff1681526020018881526020018773ffffffffffffffffffffffffffffffffffffffff168152602001600289816115a057fe5b048152602001600073ffffffffffffffffffffffffffffffffffffffff1681526020018681526020018573ffffffffffffffffffffffffffffffffffffffff1681526020018681526020018481526020016000151581525060008083815260200190815260200160002060008201518160000160006101000a81548173ffffffffffffffffffffffffffffffffffffffff021916908373ffffffffffffffffffffffffffffffffffffffff1602179055506020820151816001015560408201518160020160006101000a81548173ffffffffffffffffffffffffffffffffffffffff021916908373ffffffffffffffffffffffffffffffffffffffff1602179055506060820151816003015560808201518160040160006101000a81548173ffffffffffffffffffffffffffffffffffffffff021916908373ffffffffffffffffffffffffffffffffffffffff16021790555060a0820151816005015560c08201518160060160006101000a81548173ffffffffffffffffffffffffffffffffffffffff021916908373ffffffffffffffffffffffffffffffffffffffff16021790555060e0820151816007015561010082015181600801556101208201518160090160006101000a81548160ff0219169083151502179055509050508173ffffffffffffffffffffffffffffffffffffffff166323b872dd333060028b816117a557fe5b046040518463ffffffff1660e01b8152600401808473ffffffffffffffffffffffffffffffffffffffff1681526020018373ffffffffffffffffffffffffffffffffffffffff1681526020018281526020019350505050602060405180830381600087803b15801561181657600080fd5b505af115801561182a573d6000803e3d6000fd5b505050506040513d602081101561184057600080fd5b810190808051906020019092919050505050600061185e878661142e565b905060026000828152602001908152602001600020829080600181540180825580915050600190039060005260206000200160009091909190915055600160003373ffffffffffffffffffffffffffffffffffffffff1673ffffffffffffffffffffffffffffffffffffffff1681526020019081526020016000208290806001815401808255809150506001900390600052602060002001600090919091909150557f5fec947d044284504ac58455baabf3efd6b6cf22843ad8698d8154ce136dbb6e338989898989604051808773ffffffffffffffffffffffffffffffffffffffff1681526020018681526020018573ffffffffffffffffffffffffffffffffffffffff1681526020018481526020018373ffffffffffffffffffffffffffffffffffffffff168152602001828152602001965050505050505060405180910390a15050505050505050565b60608060608086156119c7576119c088613d5b565b90506119d4565b6119d18686612ca1565b90505b60008151905060608167ffffffffffffffff811180156119f357600080fd5b50604051908082528060200260200182016040528015611a225781602001602082028036833780820191505090505b50905060608267ffffffffffffffff81118015611a3e57600080fd5b50604051908082528060200260200182016040528015611a6d5781602001602082028036833780820191505090505b50905060005b83811015611cac57611a83613e77565b600080878481518110611a9257fe5b60200260200101518152602001908152602001600020604051806101400160405290816000820160009054906101000a900473ffffffffffffffffffffffffffffffffffffffff1673ffffffffffffffffffffffffffffffffffffffff1673ffffffffffffffffffffffffffffffffffffffff168152602001600182015481526020016002820160009054906101000a900473ffffffffffffffffffffffffffffffffffffffff1673ffffffffffffffffffffffffffffffffffffffff1673ffffffffffffffffffffffffffffffffffffffff168152602001600382015481526020016004820160009054906101000a900473ffffffffffffffffffffffffffffffffffffffff1673ffffffffffffffffffffffffffffffffffffffff1673ffffffffffffffffffffffffffffffffffffffff168152602001600582015481526020016006820160009054906101000a900473ffffffffffffffffffffffffffffffffffffffff1673ffffffffffffffffffffffffffffffffffffffff1673ffffffffffffffffffffffffffffffffffffffff16815260200160078201548152602001600882015481526020016009820160009054906101000a900460ff1615151515815250509050806101200151611ca0578060600151848381518110611c7657fe5b6020026020010181815250508060e00151838381518110611c9357fe5b6020026020010181815250505b50806001019050611a73565b50838282965096509650505050509450945094915050565b42600080838152602001908152602001600020600801541115611d4f576040517f08c379a00000000000000000000000000000000000000000000000000000000081526004018080602001828103825260208152602001807f546869732070726f6d69736520686173206e6f7420657870697265642079657481525060200191505060405180910390fd5b600080600083815260200190815260200160002060090160006101000a81548160ff0219169083151502179055611dee576040517f08c379a000000000000000000000000000000000000000000000000000000000815260040180806020018281038252601e8152602001807f546869732070726f6d69736520686173206265656e206578656375746564000081525060200191505060405180910390fd5b60008082815260200190815260200160002060000160009054906101000a900473ffffffffffffffffffffffffffffffffffffffff1673ffffffffffffffffffffffffffffffffffffffff163373ffffffffffffffffffffffffffffffffffffffff161480611ebd575060008082815260200190815260200160002060040160009054906101000a900473ffffffffffffffffffffffffffffffffffffffff1673ffffffffffffffffffffffffffffffffffffffff163373ffffffffffffffffffffffffffffffffffffffff16145b611f12576040517f08c379a000000000000000000000000000000000000000000000000000000000815260040180806020018281038252602c815260200180613f48602c913960400191505060405180910390fd5b600080600083815260200190815260200160002060020160009054906101000a900473ffffffffffffffffffffffffffffffffffffffff169050600080600084815260200190815260200160002060060160009054906101000a900473ffffffffffffffffffffffffffffffffffffffff169050600080600085815260200190815260200160002060030154148015611fc05750600080600085815260200190815260200160002060070154145b156121b8578173ffffffffffffffffffffffffffffffffffffffff1663a9059cbb60008086815260200190815260200160002060040160009054906101000a900473ffffffffffffffffffffffffffffffffffffffff16600080878152602001908152602001600020600101546040518363ffffffff1660e01b8152600401808373ffffffffffffffffffffffffffffffffffffffff16815260200182815260200192505050602060405180830381600087803b15801561208057600080fd5b505af1158015612094573d6000803e3d6000fd5b505050506040513d60208110156120aa57600080fd5b8101908080519060200190929190505050508073ffffffffffffffffffffffffffffffffffffffff1663a9059cbb60008086815260200190815260200160002060000160009054906101000a900473ffffffffffffffffffffffffffffffffffffffff16600080878152602001908152602001600020600501546040518363ffffffff1660e01b8152600401808373ffffffffffffffffffffffffffffffffffffffff16815260200182815260200192505050602060405180830381600087803b15801561217757600080fd5b505af115801561218b573d6000803e3d6000fd5b505050506040513d60208110156121a157600080fd5b81019080805190602001909291905050505061284c565b6000806000858152602001908152602001600020600301541480156121f25750600080600085815260200190815260200160002060070154115b156123ea578173ffffffffffffffffffffffffffffffffffffffff1663a9059cbb60008086815260200190815260200160002060000160009054906101000a900473ffffffffffffffffffffffffffffffffffffffff16600080878152602001908152602001600020600101546040518363ffffffff1660e01b8152600401808373ffffffffffffffffffffffffffffffffffffffff16815260200182815260200192505050602060405180830381600087803b1580156122b257600080fd5b505af11580156122c6573d6000803e3d6000fd5b505050506040513d60208110156122dc57600080fd5b8101908080519060200190929190505050508073ffffffffffffffffffffffffffffffffffffffff1663a9059cbb60008086815260200190815260200160002060000160009054906101000a900473ffffffffffffffffffffffffffffffffffffffff16600080878152602001908152602001600020600501546040518363ffffffff1660e01b8152600401808373ffffffffffffffffffffffffffffffffffffffff16815260200182815260200192505050602060405180830381600087803b1580156123a957600080fd5b505af11580156123bd573d6000803e3d6000fd5b505050506040513d60208110156123d357600080fd5b81019080805190602001909291905050505061284b565b6000806000858152602001908152602001600020600701541480156124245750600080600085815260200190815260200160002060030154115b1561261c578173ffffffffffffffffffffffffffffffffffffffff1663a9059cbb60008086815260200190815260200160002060040160009054906101000a900473ffffffffffffffffffffffffffffffffffffffff16600080878152602001908152602001600020600101546040518363ffffffff1660e01b8152600401808373ffffffffffffffffffffffffffffffffffffffff16815260200182815260200192505050602060405180830381600087803b1580156124e457600080fd5b505af11580156124f8573d6000803e3d6000fd5b505050506040513d602081101561250e57600080fd5b8101908080519060200190929190505050508073ffffffffffffffffffffffffffffffffffffffff1663a9059cbb60008086815260200190815260200160002060040160009054906101000a900473ffffffffffffffffffffffffffffffffffffffff16600080878152602001908152602001600020600501546040518363ffffffff1660e01b8152600401808373ffffffffffffffffffffffffffffffffffffffff16815260200182815260200192505050602060405180830381600087803b1580156125db57600080fd5b505af11580156125ef573d6000803e3d6000fd5b505050506040513d602081101561260557600080fd5b81019080805190602001909291905050505061284a565b60008060008581526020019081526020016000206003015414806126555750600080600085815260200190815260200160002060070154145b15612849578173ffffffffffffffffffffffffffffffffffffffff1663a9059cbb60008086815260200190815260200160002060000160009054906101000a900473ffffffffffffffffffffffffffffffffffffffff16600080878152602001908152602001600020600101546040518363ffffffff1660e01b8152600401808373ffffffffffffffffffffffffffffffffffffffff16815260200182815260200192505050602060405180830381600087803b15801561271557600080fd5b505af1158015612729573d6000803e3d6000fd5b505050506040513d602081101561273f57600080fd5b8101908080519060200190929190505050508073ffffffffffffffffffffffffffffffffffffffff1663a9059cbb60008086815260200190815260200160002060040160009054906101000a900473ffffffffffffffffffffffffffffffffffffffff16600080878152602001908152602001600020600501546040518363ffffffff1660e01b8152600401808373ffffffffffffffffffffffffffffffffffffffff16815260200182815260200192505050602060405180830381600087803b15801561280c57600080fd5b505af1158015612820573d6000803e3d6000fd5b505050506040513d602081101561283657600080fd5b8101908080519060200190929190505050505b5b5b5b600160008085815260200190815260200160002060090160006101000a81548160ff0219169083151502179055507f3e319fadde7b0042d7d8417b0da2a0455f07abd24dd5a61b802af16d37a5f0bb3384604051808373ffffffffffffffffffffffffffffffffffffffff1681526020018281526020019250505060405180910390a1505050565b60008082815260200190815260200160002060000160009054906101000a900473ffffffffffffffffffffffffffffffffffffffff1673ffffffffffffffffffffffffffffffffffffffff163373ffffffffffffffffffffffffffffffffffffffff161461298d576040517f08c379a000000000000000000000000000000000000000000000000000000000815260040180806020018281038252602c815260200180613f48602c913960400191505060405180910390fd5b600073ffffffffffffffffffffffffffffffffffffffff1660008083815260200190815260200160002060040160009054906101000a900473ffffffffffffffffffffffffffffffffffffffff1673ffffffffffffffffffffffffffffffffffffffff1614612a47576040517f08c379a0000000000000000000000000000000000000000000000000000000008152600401808060200182810382526024815260200180613f746024913960400191505060405180910390fd5b600080600083815260200190815260200160002060020160009054906101000a900473ffffffffffffffffffffffffffffffffffffffff1690508073ffffffffffffffffffffffffffffffffffffffff1663a9059cbb60008085815260200190815260200160002060000160009054906101000a900473ffffffffffffffffffffffffffffffffffffffff16600080868152602001908152602001600020600101546040518363ffffffff1660e01b8152600401808373ffffffffffffffffffffffffffffffffffffffff16815260200182815260200192505050602060405180830381600087803b158015612b3c57600080fd5b505af1158015612b50573d6000803e3d6000fd5b505050506040513d6020811015612b6657600080fd5b8101908080519060200190929190505050506000612bee60008085815260200190815260200160002060020160009054906101000a900473ffffffffffffffffffffffffffffffffffffffff1660008086815260200190815260200160002060060160009054906101000a900473ffffffffffffffffffffffffffffffffffffffff1661142e565b90506000612c678460008087815260200190815260200160002060020160009054906101000a900473ffffffffffffffffffffffffffffffffffffffff1660008088815260200190815260200160002060060160009054906101000a900473ffffffffffffffffffffffffffffffffffffffff16613df2565b9050600260008381526020019081526020016000208181548110612c8757fe5b906000526020600020016000905550505050565b60045481565b606060026000612cb1858561142e565b8152602001908152602001600020805480602002602001604051908101604052809291908181526020018280548015612d0957602002820191906000526020600020905b815481526020019060010190808311612cf5575b5050505050905092915050565b606080600080600086905060008690508173ffffffffffffffffffffffffffffffffffffffff166306fdde036040518163ffffffff1660e01b815260040160006040518083038186803b158015612d6c57600080fd5b505afa158015612d80573d6000803e3d6000fd5b505050506040513d6000823e3d601f19601f820116820180604052506020811015612daa57600080fd5b8101908080516040519392919084640100000000821115612dca57600080fd5b83820191506020820185811115612de057600080fd5b8251866001820283011164010000000082111715612dfd57600080fd5b8083526020830192505050908051906020019080838360005b83811015612e31578082015181840152602081019050612e16565b50505050905090810190601f168015612e5e5780820380516001836020036101000a031916815260200191505b506040525050508173ffffffffffffffffffffffffffffffffffffffff166306fdde036040518163ffffffff1660e01b815260040160006040518083038186803b158015612eab57600080fd5b505afa158015612ebf573d6000803e3d6000fd5b505050506040513d6000823e3d601f19601f820116820180604052506020811015612ee957600080fd5b8101908080516040519392919084640100000000821115612f0957600080fd5b83820191506020820185811115612f1f57600080fd5b8251866001820283011164010000000082111715612f3c57600080fd5b8083526020830192505050908051906020019080838360005b83811015612f70578082015181840152602081019050612f55565b50505050905090810190601f168015612f9d5780820380516001836020036101000a031916815260200191505b506040525050508373ffffffffffffffffffffffffffffffffffffffff1663313ce5676040518163ffffffff1660e01b815260040160206040518083038186803b158015612fea57600080fd5b505afa158015612ffe573d6000803e3d6000fd5b505050506040513d602081101561301457600080fd5b81019080805190602001909291905050508373ffffffffffffffffffffffffffffffffffffffff1663313ce5676040518163ffffffff1660e01b815260040160206040518083038186803b15801561306b57600080fd5b505afa15801561307f573d6000803e3d6000fd5b505050506040513d602081101561309557600080fd5b81019080805190602001909291905050508160ff1691508060ff1690509550955095509550505092959194509250565b600073ffffffffffffffffffffffffffffffffffffffff1660008083815260200190815260200160002060040160009054906101000a900473ffffffffffffffffffffffffffffffffffffffff1673ffffffffffffffffffffffffffffffffffffffff161461317f576040517f08c379a0000000000000000000000000000000000000000000000000000000008152600401808060200182810382526024815260200180613f986024913960400191505060405180910390fd5b600080600083815260200190815260200160002060060160009054906101000a900473ffffffffffffffffffffffffffffffffffffffff1690508073ffffffffffffffffffffffffffffffffffffffff166323b872dd3330600260008088815260200190815260200160002060050154816131f657fe5b046040518463ffffffff1660e01b8152600401808473ffffffffffffffffffffffffffffffffffffffff1681526020018373ffffffffffffffffffffffffffffffffffffffff1681526020018281526020019350505050602060405180830381600087803b15801561326757600080fd5b505af115801561327b573d6000803e3d6000fd5b505050506040513d602081101561329157600080fd5b810190808051906020019092919050505050600260008084815260200190815260200160002060050154816132c257fe5b04600080848152602001908152602001600020600701819055503360008084815260200190815260200160002060040160006101000a81548173ffffffffffffffffffffffffffffffffffffffff021916908373ffffffffffffffffffffffffffffffffffffffff16021790555060006133a660008085815260200190815260200160002060020160009054906101000a900473ffffffffffffffffffffffffffffffffffffffff1660008086815260200190815260200160002060060160009054906101000a900473ffffffffffffffffffffffffffffffffffffffff1661142e565b9050600061341f8460008087815260200190815260200160002060020160009054906101000a900473ffffffffffffffffffffffffffffffffffffffff1660008088815260200190815260200160002060060160009054906101000a900473ffffffffffffffffffffffffffffffffffffffff16613df2565b905060026000838152602001908152602001600020818154811061343f57fe5b9060005260206000200160009055600160003373ffffffffffffffffffffffffffffffffffffffff1673ffffffffffffffffffffffffffffffffffffffff1681526020019081526020016000208490806001815401808255809150506001900390600052602060002001600090919091909150557fc1c3b7c69be275ddb0bdf64680ac6a39876a37df0802ea2e4aa3bb52cac332683385604051808373ffffffffffffffffffffffffffffffffffffffff1681526020018281526020019250505060405180910390a150505050565b600073ffffffffffffffffffffffffffffffffffffffff1660008084815260200190815260200160002060040160009054906101000a900473ffffffffffffffffffffffffffffffffffffffff1673ffffffffffffffffffffffffffffffffffffffff1614156135c9576040517f08c379a0000000000000000000000000000000000000000000000000000000008152600401808060200182810382526023815260200180613f256023913960400191505060405180910390fd5b42600080848152602001908152602001600020600801541015613654576040517f08c379a00000000000000000000000000000000000000000000000000000000081526004018080602001828103825260208152602001807f546869732070726f6d697365206973206e6f206c6f6e6765722061637469766581525060200191505060405180910390fd5b60008083815260200190815260200160002060000160009054906101000a900473ffffffffffffffffffffffffffffffffffffffff1673ffffffffffffffffffffffffffffffffffffffff163373ffffffffffffffffffffffffffffffffffffffff161480613723575060008083815260200190815260200160002060040160009054906101000a900473ffffffffffffffffffffffffffffffffffffffff1673ffffffffffffffffffffffffffffffffffffffff163373ffffffffffffffffffffffffffffffffffffffff16145b613778576040517f08c379a000000000000000000000000000000000000000000000000000000000815260040180806020018281038252602c815260200180613f48602c913960400191505060405180910390fd5b600080600084815260200190815260200160002060000160009054906101000a900473ffffffffffffffffffffffffffffffffffffffff1673ffffffffffffffffffffffffffffffffffffffff163373ffffffffffffffffffffffffffffffffffffffff161415613962578160008085815260200190815260200160002060030154111561380557600080fd5b60008084815260200190815260200160002060020160009054906101000a900473ffffffffffffffffffffffffffffffffffffffff1690508073ffffffffffffffffffffffffffffffffffffffff1663a9059cbb60008086815260200190815260200160002060000160009054906101000a900473ffffffffffffffffffffffffffffffffffffffff16600260008088815260200190815260200160002060010154816138ae57fe5b046040518363ffffffff1660e01b8152600401808373ffffffffffffffffffffffffffffffffffffffff16815260200182815260200192505050602060405180830381600087803b15801561390257600080fd5b505af1158015613916573d6000803e3d6000fd5b505050506040513d602081101561392c57600080fd5b81019080805190602001909291905050505081600080858152602001908152602001600020600301600082825403925050819055505b60008084815260200190815260200160002060040160009054906101000a900473ffffffffffffffffffffffffffffffffffffffff1673ffffffffffffffffffffffffffffffffffffffff163373ffffffffffffffffffffffffffffffffffffffff161415613b4a57816000808581526020019081526020016000206007015411156139ed57600080fd5b60008084815260200190815260200160002060060160009054906101000a900473ffffffffffffffffffffffffffffffffffffffff1690508073ffffffffffffffffffffffffffffffffffffffff1663a9059cbb60008086815260200190815260200160002060040160009054906101000a900473ffffffffffffffffffffffffffffffffffffffff1660026000808881526020019081526020016000206005015481613a9657fe5b046040518363ffffffff1660e01b8152600401808373ffffffffffffffffffffffffffffffffffffffff16815260200182815260200192505050602060405180830381600087803b158015613aea57600080fd5b505af1158015613afe573d6000803e3d6000fd5b505050506040513d6020811015613b1457600080fd5b81019080805190602001909291905050505081600080858152602001908152602001600020600701600082825403925050819055505b505050565b600080600080600080613b60613e77565b600080898152602001908152602001600020604051806101400160405290816000820160009054906101000a900473ffffffffffffffffffffffffffffffffffffffff1673ffffffffffffffffffffffffffffffffffffffff1673ffffffffffffffffffffffffffffffffffffffff168152602001600182015481526020016002820160009054906101000a900473ffffffffffffffffffffffffffffffffffffffff1673ffffffffffffffffffffffffffffffffffffffff1673ffffffffffffffffffffffffffffffffffffffff168152602001600382015481526020016004820160009054906101000a900473ffffffffffffffffffffffffffffffffffffffff1673ffffffffffffffffffffffffffffffffffffffff1673ffffffffffffffffffffffffffffffffffffffff168152602001600582015481526020016006820160009054906101000a900473ffffffffffffffffffffffffffffffffffffffff1673ffffffffffffffffffffffffffffffffffffffff1673ffffffffffffffffffffffffffffffffffffffff16815260200160078201548152602001600882015481526020016009820160009054906101000a900460ff1615151515815250509050806020015181604001518260a001518360c001518461010001518561012001519650965096509650965096505091939550919395565b6060600160008373ffffffffffffffffffffffffffffffffffffffff1673ffffffffffffffffffffffffffffffffffffffff168152602001908152602001600020805480602002602001604051908101604052809291908181526020018280548015613de657602002820191906000526020600020905b815481526020019060010190808311613dd2575b50505050509050919050565b600080613dff848461142e565b9050600080600090505b6002600084815260200190815260200160002080549050811015613e6a5786600260008581526020019081526020016000208281548110613e4657fe5b90600052602060002001541415613e5f57809150613e6a565b806001019050613e09565b5080925050509392505050565b604051806101400160405280600073ffffffffffffffffffffffffffffffffffffffff16815260200160008152602001600073ffffffffffffffffffffffffffffffffffffffff16815260200160008152602001600073ffffffffffffffffffffffffffffffffffffffff16815260200160008152602001600073ffffffffffffffffffffffffffffffffffffffff1681526020016000815260200160008152602001600015158152509056fe546869732070726f6d697365206861736e2774206265656e206a6f696e65642079657454686973206163636f756e74206973206e6f7420696e766f6c76656420696e20746869732070726f6d69736550726f6d6973652063616e742062652063616e63656c6564206f6e636520616374697665546869732070726f6d6973652068617320616c7265616479206265656e206a6f696e6564a2646970667358221220d3872fb87223bc6fe1baa8b26f25bb0d08dcac8fdaf0905421e91abc9840ba1364736f6c634300060c0033",
  "immutableReferences": {},
  "source": "// SPDX-License-Identifier: MIT\npragma solidity >=0.4.21 <0.7.0;\n\nimport { IERC20 } from \"./Lib/IERC20.sol\";\n\n\ncontract PromController {\n\n    mapping(uint => PromData) promises;\n    mapping(address => uint[]) accountPromises;\n    mapping(bytes32 => uint[]) joinablePromises;\n    mapping(bytes32 => uint[]) joinablePromisesRatios;\n\n    uint public lastId;\n\n    struct JoinableProm {\n      uint id;\n      uint amountA;\n      uint amountB;\n      uint time;\n    }\n\n    struct PromData {    \n    /** ---------------------\n         a is the creator\n         b is the joiner\n         time is the minimum date it can be executed\n        --------------------- **/\n      address addrA;\n      uint amountA;\n      address assetA;\n      uint owedA;\n\n      address addrB;\n      uint amountB;\n      address assetB;\n      uint owedB;\n\n      uint time;\n      bool executed;\n    }\n    event PromiseCreated(address addrA, uint amountA, address assetA, uint amountB, address assetB, uint time);\n    event PromiseJoined(address addrB, uint id);\n    event PromiseExecuted(address executor, uint id);\n\n    function createPromise(uint amountA, address assetA, uint amountB, address assetB, uint time) external {\n      /* --------- REMOVE NOTATION BEFORE PRODUCTION ------------ */\n      /*       require(time > block.timestamp + 1 days, \"1 day is the minimum, as a fair timeframe is needed for both parties to pay in full\"); */\n      IERC20 token = IERC20(assetA);\n\n      lastId += 1;\n      uint id = lastId;\n\n      promises[id] = PromData(msg.sender, amountA, assetA, amountA / 2, address(0x0), amountB, assetB, amountB, time, false);\n      token.transferFrom(msg.sender, address(this), amountA / 2);\n\n      bytes32 pairID = getPairID(assetA,assetB);\n      joinablePromises[pairID].push(id);\n\n      accountPromises[msg.sender].push(id);\n      \n      emit PromiseCreated(msg.sender, amountA, assetA, amountB, assetB, time);\n    }\n\n    function cancelPromise(uint id) external {\n      require(msg.sender == promises[id].addrA, \"This account is not involved in this promise\");\n      require(promises[id].addrB == address(0x0), \"Promise cant be canceled once active\");\n\n      IERC20 tokenA = IERC20(promises[id].assetA);\n      tokenA.transfer(promises[id].addrA, promises[id].amountA);\n\n      bytes32 pairID = getPairID(promises[id].assetA, promises[id].assetB);\n      uint index = getIndexOfPromise(id, promises[id].assetA, promises[id].assetB);\n\n      delete joinablePromises[pairID][index];\n    }\n\n    function joinPromise(uint id) external {\n      require(promises[id].addrB == address(0x0), \"This promise has already been joined\");\n\n      IERC20 token = IERC20(promises[id].assetB);\n      token.transferFrom(msg.sender, address(this), promises[id].amountB / 2);\n      promises[id].owedB = promises[id].amountB / 2;\n\n      promises[id].addrB = msg.sender;\n\n      bytes32 pairID = getPairID(promises[id].assetA, promises[id].assetB);\n\n      uint index = getIndexOfPromise(id, promises[id].assetA, promises[id].assetB);\n      delete joinablePromises[pairID][index];\n\n      accountPromises[msg.sender].push(id);\n\n      emit PromiseJoined(msg.sender, id);\n    }\n\n    function payPromise(uint id, uint amount) external {\n      require(promises[id].addrB != address(0x0), \"This promise hasn't been joined yet\");\n      require(promises[id].time >= block.timestamp, \"This promise is no longer active\");\n      require(msg.sender == promises[id].addrA || msg.sender == promises[id].addrB, \"This account is not involved in this promise\");\n\n      IERC20 token;\n\n      if (msg.sender == promises[id].addrA) {\n        require(promises[id].owedA <= amount);\n        token = IERC20(promises[id].assetA);\n        token.transfer(promises[id].addrA, promises[id].amountA / 2);\n        promises[id].owedA -= amount;\n      }\n      \n      if (msg.sender == promises[id].addrB) {\n        require(promises[id].owedB <= amount);\n        token = IERC20(promises[id].assetB);\n        token.transfer(promises[id].addrB, promises[id].amountB / 2);\n        promises[id].owedB -= amount;\n      }\n\n    }\n\n    function executePromise(uint id) external {\n      require(promises[id].time <= block.timestamp, \"This promise has not expired yet\");\n      require(promises[id].executed = false, \"This promise has been executed\");\n      require(msg.sender == promises[id].addrA || msg.sender == promises[id].addrB, \"This account is not involved in this promise\");\n\n      IERC20 tokenA = IERC20(promises[id].assetA);\n      IERC20 tokenB = IERC20(promises[id].assetB);\n\n      if (promises[id].owedA == 0 && promises[id].owedB == 0) {\n        tokenA.transfer(promises[id].addrB, promises[id].amountA);\n        tokenB.transfer(promises[id].addrA, promises[id].amountB);\n        \n      } else if (promises[id].owedA == 0 && promises[id].owedB > 0) {\n        tokenA.transfer(promises[id].addrA, promises[id].amountA);\n        tokenB.transfer(promises[id].addrA, promises[id].amountB);\n\n      } else if (promises[id].owedB == 0 && promises[id].owedA > 0) {\n        tokenA.transfer(promises[id].addrB, promises[id].amountA);\n        tokenB.transfer(promises[id].addrB, promises[id].amountB);\n\n      } else if (promises[id].owedA == 0 || promises[id].owedB == 0) {\n        tokenA.transfer(promises[id].addrA, promises[id].amountA);\n        tokenB.transfer(promises[id].addrB, promises[id].amountB);\n\n      }\n\n      promises[id].executed = true;\n\n      emit PromiseExecuted(msg.sender, id);\n    }\n\n\n    function getPairID(address assetA, address assetB) public view returns (bytes32) {\n         return sha256(abi.encodePacked(assetA, assetB));\n    }\n\n    function getIndexOfPromise(uint id, address assetA, address assetB) internal view returns (uint) {\n      bytes32 pairId = getPairID(assetA, assetB);\n      uint index;\n        for (uint i = 0; i < joinablePromises[pairId].length; ++i) {\n          if (joinablePromises[pairId][i] == id) {\n            index = i;\n            break;\n            }\n          } \n      return index;\n    }\n\n       /** Get Promise Arrays\n\n       How to use: getPromises_Asset_Amount(), getPromises_Time_Executed_Addr(), getPromises_owed()\n       if you want promises specific to an account eg. a list of Promises 1 user is involved in\n       input the account and true for accountPairSwitch (Doesn't matter what you put for assetA and assetB)\n\n       if you want promises specific to a pair eg. a list of Promises for ETH/DAI \n       input false for accountPairSwitch and input the two token addresses as assetA & assetB\n       \n       **/\n\n\n    function getPromises_Asset_Amount(address account, bool accountPairSwitch, address _assetA, address _assetB) external view returns (uint[] memory, uint[] memory, uint[] memory, address[] memory, address[] memory) {\n         uint[] memory ids;\n         if (accountPairSwitch) {\n            ids = getAccountPromisesIDs(account);\n         } else {\n            ids = getJoinablePromisesIDs(_assetA, _assetB);\n         }\n         uint length = ids.length;\n         uint[] memory amountA = new uint[](length);\n         uint[] memory amountB = new uint[](length);\n         address[] memory assetA = new address[](length);\n         address[] memory assetB = new address[](length);\n\n        for (uint i = 0; i < length; ++i) { \n          PromData memory promData = promises[ids[i]];\n            if(!promData.executed) {\n               amountA[i] = promData.amountA;\n               amountB[i] = promData.amountB;\n               assetA[i] = promData.assetA;\n               assetB[i] = promData.assetB;\n            }\n          }\n       \n      return (ids, amountA, amountB, assetA, assetB);\n    }\n    function getPromises_Time_Executed_Addr(address account, bool accountPairSwitch, address _assetA, address _assetB) external view returns (uint[] memory, uint[] memory, bool[] memory, address[] memory, address[] memory) {\n        uint[] memory ids;\n        if (accountPairSwitch) {\n             ids = getAccountPromisesIDs(account);\n        } else {\n             ids = getJoinablePromisesIDs(_assetA, _assetB);\n           }\n         uint length = ids.length;\n         uint[] memory time = new uint[](length);\n         bool[] memory executed = new bool[](length);\n         address[] memory addrA = new address[](length);\n         address[] memory addrB = new address[](length);\n\n        for (uint i = 0; i < length; ++i) { \n          PromData memory promData = promises[ids[i]];\n            if(!promData.executed) {\n              time[i] = promData.time;\n              executed[i] = promData.executed;\n              addrA[i] = promData.addrA;\n              addrB[i] = promData.addrB;\n            }\n          }\n       \n      return (ids, time, executed, addrA, addrB);\n    }\n    function getPromises_owed(address account, bool accountPairSwitch, address _assetA, address _assetB) external view returns (uint[] memory, uint[] memory, uint[] memory) {\n        uint[] memory ids;\n        if (accountPairSwitch) {\n             ids = getAccountPromisesIDs(account);\n        } else {\n             ids = getJoinablePromisesIDs(_assetA, _assetB);\n           }\n         uint length = ids.length;\n         uint[] memory owedA = new uint[](length);\n         uint[] memory owedB = new uint[](length);\n\n        for (uint i = 0; i < length; ++i) { \n          PromData memory promData = promises[ids[i]];\n            if(!promData.executed) {\n              owedA[i] = promData.owedA;\n              owedB[i] = promData.owedB;\n            }\n          }\n       \n      return (ids, owedA, owedB);\n    }\n\n       /** ID Arrays **/\n\n    function getAccountPromisesIDs(address account) public view returns (uint[] memory) {\n      return accountPromises[account];\n    }\n\n    function getJoinablePromisesIDs(address assetA, address assetB) public view returns (uint[] memory) {\n      return joinablePromises[getPairID(assetA, assetB)];\n    }\n\n       /** Single Promise Data **/\n\n    function getPromiseData_Amount_Asset_Time_Executed(uint id) external view returns (uint, address, uint, address, uint, bool) {\n      PromData memory promData = promises[id];\n        return (promData.amountA, promData.assetA, promData.amountB, promData.assetB,\n                promData.time, promData.executed);\n    }\n\n    function getAssetData_Name_Decimals(address assetA, address assetB) external view returns (string memory, string memory, uint, uint) {\n      IERC20 tokenA = IERC20(assetA);\n      IERC20 tokenB = IERC20(assetB);\n        return (tokenA.name(), tokenB.name(), tokenA.decimals(), tokenB.decimals());\n    }\n   \n\n}",
  "sourcePath": "/Users/nanoissuperior/promise-contracts/contracts/PromController.sol",
  "compiler": {
    "name": "solc",
    "version": "0.6.12+commit.27d51765.Emscripten.clang"
  },
  "schemaVersion": "3.2.4",
  "updatedAt": "2021-04-12T12:55:57.247Z",
  "networkType": "ethereum",
  "devdoc": {
    "kind": "dev",
    "methods": {},
    "version": 1
  },
  "userdoc": {
    "kind": "user",
    "methods": {
      "getAccountPromisesIDs(address)": {
        "notice": "ID Arrays *"
      },
      "getPromiseData_Amount_Asset_Time_Executed(uint256)": {
        "notice": "Single Promise Data *"
      },
      "getPromises_Asset_Amount(address,bool,address,address)": {
        "notice": "Get Promise Arrays How to use: getPromises_Asset_Amount(), getPromises_Time_Executed_Addr(), getPromises_owed() if you want promises specific to an account eg. a list of Promises 1 user is involved in input the account and true for accountPairSwitch (Doesn't matter what you put for assetA and assetB) if you want promises specific to a pair eg. a list of Promises for ETH/DAI  input false for accountPairSwitch and input the two token addresses as assetA & assetB*"
      }
    },
    "version": 1
  }
}