{
  "contractName": "PromiseList",
  "abi": [
    {
      "inputs": [],
      "stateMutability": "nonpayable",
      "type": "constructor"
    },
    {
      "inputs": [],
      "name": "joinableListIdTimeInterval",
      "outputs": [
        {
          "internalType": "uint256",
          "name": "",
          "type": "uint256"
        }
      ],
      "stateMutability": "view",
      "type": "function"
    },
    {
      "inputs": [
        {
          "internalType": "bytes32",
          "name": "",
          "type": "bytes32"
        }
      ],
      "name": "length",
      "outputs": [
        {
          "internalType": "uint256",
          "name": "",
          "type": "uint256"
        }
      ],
      "stateMutability": "view",
      "type": "function"
    },
    {
      "inputs": [
        {
          "internalType": "bytes32",
          "name": "",
          "type": "bytes32"
        }
      ],
      "name": "list",
      "outputs": [
        {
          "internalType": "bytes32",
          "name": "next",
          "type": "bytes32"
        },
        {
          "internalType": "uint256",
          "name": "id",
          "type": "uint256"
        },
        {
          "internalType": "bytes32",
          "name": "previous",
          "type": "bytes32"
        }
      ],
      "stateMutability": "view",
      "type": "function"
    },
    {
      "inputs": [
        {
          "internalType": "bytes32",
          "name": "",
          "type": "bytes32"
        }
      ],
      "name": "numberOfPromisesInTimeInterval",
      "outputs": [
        {
          "internalType": "uint256",
          "name": "",
          "type": "uint256"
        }
      ],
      "stateMutability": "view",
      "type": "function"
    },
    {
      "inputs": [],
      "name": "startBlockTime",
      "outputs": [
        {
          "internalType": "uint256",
          "name": "",
          "type": "uint256"
        }
      ],
      "stateMutability": "view",
      "type": "function"
    },
    {
      "inputs": [
        {
          "internalType": "bytes32",
          "name": "",
          "type": "bytes32"
        }
      ],
      "name": "tail",
      "outputs": [
        {
          "internalType": "bytes32",
          "name": "",
          "type": "bytes32"
        }
      ],
      "stateMutability": "view",
      "type": "function"
    }
  ],
  "bytecode": "0x60806040526201518060045534801561001757600080fd5b504260058190555061026d8061002e6000396000f3fe608060405234801561001057600080fd5b50600436106100625760003560e01c80630c18d4ce1461006757806313d49a8b146100855780632ac00efb146100d55780632d4f843e1461011757806395bad7f114610159578063a9dbaf2514610177575b600080fd5b61006f6101b9565b6040518082815260200191505060405180910390f35b6100b16004803603602081101561009b57600080fd5b81019080803590602001909291905050506101bf565b60405180848152602001838152602001828152602001935050505060405180910390f35b610101600480360360208110156100eb57600080fd5b81019080803590602001909291905050506101e9565b6040518082815260200191505060405180910390f35b6101436004803603602081101561012d57600080fd5b8101908080359060200190929190505050610201565b6040518082815260200191505060405180910390f35b610161610219565b6040518082815260200191505060405180910390f35b6101a36004803603602081101561018d57600080fd5b810190808035906020019092919050505061021f565b6040518082815260200191505060405180910390f35b60055481565b60006020528060005260406000206000915090508060000154908060010154908060020154905083565b60016020528060005260406000206000915090505481565b60036020528060005260406000206000915090505481565b60045481565b6002602052806000526040600020600091509050548156fea2646970667358221220ec90dde2699cf618cd42438a614beab8bf84f413daa5cc01bf8f7f81faa471af64736f6c63430007060033",
  "immutableReferences": {},
  "source": "// SPDX-License-Identifier: BUSL-1.1\npragma solidity >=0.4.21 <0.8.0;\n\nimport {SafeMath} from \"./lib/math/SafeMath.sol\";\n\ncontract PromiseList {\n    using SafeMath for uint256;\n    mapping(bytes32 => LinkedList) public list;\n    mapping(bytes32 => bytes32) public tail;\n    mapping(bytes32 => uint256) public length;\n    mapping(bytes32 => uint256) public numberOfPromisesInTimeInterval;\n    uint256 public joinableListIdTimeInterval = 1 days;\n    uint256 public startBlockTime;\n\n    struct LinkedList {\n        bytes32 next;\n        uint256 id;\n        bytes32 previous;\n    }\n\n    constructor() public {\n        startBlockTime = block.timestamp;\n    }\n\n    function addEntry(\n        uint256 id,\n        bytes32 listId,\n        bytes32 entry\n    ) internal {\n        if (length[listId] > 0) {\n            list[tail[listId]].next = entry;\n            list[entry].id = id;\n            list[entry].previous = tail[listId];\n            tail[listId] = entry;\n        } else {\n            list[listId].id = id;\n            tail[listId] = listId;\n        }\n        length[listId] += 1;\n    }\n\n    function deleteEntry(\n        uint256 id,\n        bytes32 listId,\n        bytes32 index\n    ) internal {\n        if (list[listId].id != id && list[index].id == id) {\n            if (list[index].next != \"\") {\n                list[list[index].next].previous = list[index].previous;\n            }\n            if (list[index].previous != \"\") {\n                list[list[index].previous].next = list[index].next;\n                if (tail[listId] == index) {\n                    tail[listId] = list[index].previous;\n                }\n            }\n            list[index].previous = \"\";\n            list[index].next = \"\";\n            length[listId] -= 1;\n        } else if (list[listId].id == id) {\n            list[listId].id = list[list[listId].next].id;\n            list[listId].next = list[list[listId].next].next;\n            length[listId] -= 1;\n        }\n    }\n\n    function deleteFromAccountList(uint256 id, address account) internal {\n        bytes32 listId = keccak256(abi.encodePacked(account));\n        bytes32 index = keccak256(abi.encodePacked(listId, id));\n        deleteEntry(id, listId, index);\n    }\n\n    function addToAccountList(uint256 id, address account) internal {\n        bytes32 listId = keccak256(abi.encodePacked(account));\n        bytes32 entry = keccak256(abi.encodePacked(listId, id));\n        addEntry(id, listId, entry);\n    }\n\n    function deleteFromJoinableList(\n        uint256 id,\n        address creatorToken,\n        address joinerToken,\n        uint256 expirationTimestamp,\n        uint112 creatorAmount,\n        uint112 joinerAmount\n    ) internal {\n        numberOfPromisesInTimeInterval[\n            keccak256(abi.encodePacked(creatorToken, joinerToken, timeIntervalSinceDeployed(expirationTimestamp)))\n        ] -= creatorAmount;\n        bytes32 listId =\n            keccak256(\n                abi.encodePacked(\n                    creatorToken,\n                    joinerToken,\n                    timeIntervalSinceDeployed(expirationTimestamp),\n                    integarBytes(creatorAmount),\n                    integarBytes(joinerAmount)\n                )\n            );\n        bytes32 index = keccak256(abi.encodePacked(listId, id));\n        deleteEntry(id, listId, index);\n    }\n\n    function addToJoinableList(\n        address creatorToken,\n        address joinerToken,\n        uint256 expirationTimestamp,\n        uint112 creatorAmount,\n        uint112 joinerAmount,\n        uint256 lastId\n    ) internal {\n        numberOfPromisesInTimeInterval[\n            keccak256(abi.encodePacked(creatorToken, joinerToken, timeIntervalSinceDeployed(expirationTimestamp)))\n        ] += creatorAmount;\n        bytes32 listId =\n            keccak256(\n                abi.encodePacked(\n                    creatorToken,\n                    joinerToken,\n                    timeIntervalSinceDeployed(expirationTimestamp),\n                    integarBytes(creatorAmount),\n                    integarBytes(joinerAmount)\n                )\n            );\n        bytes32 entry = keccak256(abi.encodePacked(listId, lastId));\n        addEntry(lastId, listId, entry);\n    }\n\n    function timeIntervalSinceDeployed(uint256 expirationTimestamp) internal view returns (uint256 result) {\n        result = (expirationTimestamp.sub(startBlockTime)).div(joinableListIdTimeInterval);\n    }\n\n    function integarBytes(uint112 number) internal pure returns (uint256 _length) {\n        while (number != 0) {\n            number >>= 8;\n            _length++;\n        }\n    }\n}\n",
  "sourcePath": "/Users/nanoissuperior/promise-contracts/contracts/PromiseList.sol",
  "compiler": {
    "name": "solc",
    "version": "0.7.6+commit.7338295f.Emscripten.clang"
  },
  "schemaVersion": "3.2.4",
  "updatedAt": "2021-07-08T10:16:54.531Z",
  "devdoc": {
    "kind": "dev",
    "methods": {},
    "version": 1
  },
  "userdoc": {
    "kind": "user",
    "methods": {},
    "version": 1
  }
}