{
  "contractName": "PromiseCore",
  "abi": [
    {
      "inputs": [
        {
          "internalType": "address",
          "name": "_feeAddress",
          "type": "address"
        }
      ],
      "stateMutability": "nonpayable",
      "type": "constructor"
    },
    {
      "anonymous": false,
      "inputs": [
        {
          "indexed": false,
          "internalType": "address",
          "name": "creator",
          "type": "address"
        },
        {
          "indexed": false,
          "internalType": "address",
          "name": "creatorToken",
          "type": "address"
        },
        {
          "indexed": false,
          "internalType": "uint256",
          "name": "creatorAmount",
          "type": "uint256"
        },
        {
          "indexed": false,
          "internalType": "address",
          "name": "joinerToken",
          "type": "address"
        },
        {
          "indexed": false,
          "internalType": "uint256",
          "name": "joinerAmount",
          "type": "uint256"
        },
        {
          "indexed": false,
          "internalType": "uint256",
          "name": "expirationTimestamp",
          "type": "uint256"
        }
      ],
      "name": "PromiseCreated",
      "type": "event"
    },
    {
      "anonymous": false,
      "inputs": [
        {
          "indexed": false,
          "internalType": "address",
          "name": "executor",
          "type": "address"
        },
        {
          "indexed": false,
          "internalType": "uint256",
          "name": "id",
          "type": "uint256"
        }
      ],
      "name": "PromiseExecuted",
      "type": "event"
    },
    {
      "anonymous": false,
      "inputs": [
        {
          "indexed": false,
          "internalType": "address",
          "name": "addrB",
          "type": "address"
        },
        {
          "indexed": false,
          "internalType": "uint256",
          "name": "id",
          "type": "uint256"
        },
        {
          "indexed": false,
          "internalType": "uint256",
          "name": "amount",
          "type": "uint256"
        }
      ],
      "name": "PromiseJoined",
      "type": "event"
    },
    {
      "anonymous": false,
      "inputs": [
        {
          "indexed": false,
          "internalType": "address",
          "name": "Payee",
          "type": "address"
        },
        {
          "indexed": false,
          "internalType": "uint256",
          "name": "id",
          "type": "uint256"
        },
        {
          "indexed": false,
          "internalType": "uint256",
          "name": "remainingDebt",
          "type": "uint256"
        }
      ],
      "name": "PromisePaid",
      "type": "event"
    },
    {
      "anonymous": false,
      "inputs": [
        {
          "indexed": false,
          "internalType": "address",
          "name": "executor",
          "type": "address"
        },
        {
          "indexed": false,
          "internalType": "uint256",
          "name": "id",
          "type": "uint256"
        },
        {
          "indexed": false,
          "internalType": "uint256",
          "name": "refund",
          "type": "uint256"
        }
      ],
      "name": "PromisePendingAmountClosed",
      "type": "event"
    },
    {
      "inputs": [],
      "name": "feeAddress",
      "outputs": [
        {
          "internalType": "address",
          "name": "",
          "type": "address"
        }
      ],
      "stateMutability": "view",
      "type": "function"
    },
    {
      "inputs": [],
      "name": "feeBP",
      "outputs": [
        {
          "internalType": "uint256",
          "name": "",
          "type": "uint256"
        }
      ],
      "stateMutability": "view",
      "type": "function"
    },
    {
      "inputs": [],
      "name": "joinableListIdTimeInterval",
      "outputs": [
        {
          "internalType": "uint256",
          "name": "",
          "type": "uint256"
        }
      ],
      "stateMutability": "view",
      "type": "function"
    },
    {
      "inputs": [
        {
          "internalType": "uint256",
          "name": "",
          "type": "uint256"
        },
        {
          "internalType": "bytes32",
          "name": "",
          "type": "bytes32"
        }
      ],
      "name": "joiners",
      "outputs": [
        {
          "internalType": "uint256",
          "name": "amountPaid",
          "type": "uint256"
        },
        {
          "internalType": "uint256",
          "name": "outstandingDebt",
          "type": "uint256"
        },
        {
          "internalType": "bool",
          "name": "hasExecuted",
          "type": "bool"
        }
      ],
      "stateMutability": "view",
      "type": "function"
    },
    {
      "inputs": [
        {
          "internalType": "uint256",
          "name": "",
          "type": "uint256"
        }
      ],
      "name": "joinersLength",
      "outputs": [
        {
          "internalType": "uint256",
          "name": "",
          "type": "uint256"
        }
      ],
      "stateMutability": "view",
      "type": "function"
    },
    {
      "inputs": [],
      "name": "lastId",
      "outputs": [
        {
          "internalType": "uint256",
          "name": "",
          "type": "uint256"
        }
      ],
      "stateMutability": "view",
      "type": "function"
    },
    {
      "inputs": [
        {
          "internalType": "bytes32",
          "name": "",
          "type": "bytes32"
        }
      ],
      "name": "length",
      "outputs": [
        {
          "internalType": "uint256",
          "name": "",
          "type": "uint256"
        }
      ],
      "stateMutability": "view",
      "type": "function"
    },
    {
      "inputs": [
        {
          "internalType": "bytes32",
          "name": "",
          "type": "bytes32"
        }
      ],
      "name": "list",
      "outputs": [
        {
          "internalType": "bytes32",
          "name": "next",
          "type": "bytes32"
        },
        {
          "internalType": "uint256",
          "name": "id",
          "type": "uint256"
        },
        {
          "internalType": "bytes32",
          "name": "previous",
          "type": "bytes32"
        }
      ],
      "stateMutability": "view",
      "type": "function"
    },
    {
      "inputs": [
        {
          "internalType": "bytes32",
          "name": "",
          "type": "bytes32"
        }
      ],
      "name": "numberOfPromisesInTimeInterval",
      "outputs": [
        {
          "internalType": "uint256",
          "name": "",
          "type": "uint256"
        }
      ],
      "stateMutability": "view",
      "type": "function"
    },
    {
      "inputs": [
        {
          "internalType": "uint256",
          "name": "",
          "type": "uint256"
        }
      ],
      "name": "promises",
      "outputs": [
        {
          "internalType": "address",
          "name": "creator",
          "type": "address"
        },
        {
          "internalType": "address",
          "name": "creatorToken",
          "type": "address"
        },
        {
          "internalType": "uint112",
          "name": "creatorAmount",
          "type": "uint112"
        },
        {
          "internalType": "uint256",
          "name": "creatorDebt",
          "type": "uint256"
        },
        {
          "internalType": "bool",
          "name": "hasCreatorExecuted",
          "type": "bool"
        },
        {
          "internalType": "address",
          "name": "joinerToken",
          "type": "address"
        },
        {
          "internalType": "uint112",
          "name": "joinerAmount",
          "type": "uint112"
        },
        {
          "internalType": "uint256",
          "name": "joinerDebt",
          "type": "uint256"
        },
        {
          "internalType": "uint256",
          "name": "joinerPaidFull",
          "type": "uint256"
        },
        {
          "internalType": "uint256",
          "name": "expirationTimestamp",
          "type": "uint256"
        }
      ],
      "stateMutability": "view",
      "type": "function"
    },
    {
      "inputs": [],
      "name": "startBlockTime",
      "outputs": [
        {
          "internalType": "uint256",
          "name": "",
          "type": "uint256"
        }
      ],
      "stateMutability": "view",
      "type": "function"
    },
    {
      "inputs": [
        {
          "internalType": "bytes32",
          "name": "",
          "type": "bytes32"
        }
      ],
      "name": "tail",
      "outputs": [
        {
          "internalType": "bytes32",
          "name": "",
          "type": "bytes32"
        }
      ],
      "stateMutability": "view",
      "type": "function"
    },
    {
      "inputs": [
        {
          "internalType": "address",
          "name": "account",
          "type": "address"
        },
        {
          "internalType": "address",
          "name": "creatorToken",
          "type": "address"
        },
        {
          "internalType": "uint112",
          "name": "creatorAmount",
          "type": "uint112"
        },
        {
          "internalType": "address",
          "name": "joinerToken",
          "type": "address"
        },
        {
          "internalType": "uint112",
          "name": "joinerAmount",
          "type": "uint112"
        },
        {
          "internalType": "uint256",
          "name": "expirationTimestamp",
          "type": "uint256"
        }
      ],
      "name": "createPromise",
      "outputs": [],
      "stateMutability": "nonpayable",
      "type": "function"
    },
    {
      "inputs": [
        {
          "internalType": "uint256",
          "name": "id",
          "type": "uint256"
        },
        {
          "internalType": "address",
          "name": "account",
          "type": "address"
        },
        {
          "internalType": "uint112",
          "name": "amount",
          "type": "uint112"
        }
      ],
      "name": "joinPromise",
      "outputs": [],
      "stateMutability": "nonpayable",
      "type": "function"
    },
    {
      "inputs": [
        {
          "internalType": "uint256",
          "name": "id",
          "type": "uint256"
        },
        {
          "internalType": "address",
          "name": "account",
          "type": "address"
        }
      ],
      "name": "payPromise",
      "outputs": [],
      "stateMutability": "nonpayable",
      "type": "function"
    },
    {
      "inputs": [
        {
          "internalType": "uint256",
          "name": "id",
          "type": "uint256"
        }
      ],
      "name": "closePendingPromiseAmount",
      "outputs": [],
      "stateMutability": "nonpayable",
      "type": "function"
    },
    {
      "inputs": [
        {
          "internalType": "uint256",
          "name": "id",
          "type": "uint256"
        },
        {
          "internalType": "address",
          "name": "account",
          "type": "address"
        }
      ],
      "name": "executePromise",
      "outputs": [],
      "stateMutability": "nonpayable",
      "type": "function"
    },
    {
      "inputs": [
        {
          "internalType": "uint112",
          "name": "a",
          "type": "uint112"
        },
        {
          "internalType": "uint112",
          "name": "b",
          "type": "uint112"
        },
        {
          "internalType": "uint256",
          "name": "c",
          "type": "uint256"
        }
      ],
      "name": "divMul",
      "outputs": [
        {
          "internalType": "uint256",
          "name": "result",
          "type": "uint256"
        }
      ],
      "stateMutability": "view",
      "type": "function"
    }
  ],
  "bytecode": "0x6080604052620151806005556032600c5534801561001c57600080fd5b50604051613e36380380613e368339818101604052602081101561003f57600080fd5b810190808051906020019092919050505060016000819055504260068190555080600b60006101000a81548173ffffffffffffffffffffffffffffffffffffffff021916908373ffffffffffffffffffffffffffffffffffffffff16021790555050613d86806100b06000396000f3fe608060405234801561001057600080fd5b50600436106101165760003560e01c8063627cf474116100a2578063c1292cc311610071578063c1292cc3146104f2578063c13ce39214610510578063d61693ae14610578578063e2d638d4146105c6578063f3f9fc741461068857610116565b8063627cf474146103ce5780638ae996271461041c57806395bad7f114610492578063a9dbaf25146104b057610116565b80632817b483116100e95780632817b4831461028c5780632ac00efb146102e85780632d4f843e1461032a578063412753581461036c57806345ac5e02146103a057610116565b8063017f6fae1461011b5780630c18d4ce1461013957806313d49a8b146101575780631f06c859146101a7575b600080fd5b6101236106ca565b6040518082815260200191505060405180910390f35b6101416106d0565b6040518082815260200191505060405180910390f35b6101836004803603602081101561016d57600080fd5b81019080803590602001909291905050506106d6565b60405180848152602001838152602001828152602001935050505060405180910390f35b6101d3600480360360208110156101bd57600080fd5b8101908080359060200190929190505050610700565b604051808b73ffffffffffffffffffffffffffffffffffffffff1681526020018a73ffffffffffffffffffffffffffffffffffffffff168152602001896dffffffffffffffffffffffffffff16815260200188815260200187151581526020018673ffffffffffffffffffffffffffffffffffffffff168152602001856dffffffffffffffffffffffffffff1681526020018481526020018381526020018281526020019a505050505050505050505060405180910390f35b6102c2600480360360408110156102a257600080fd5b8101908080359060200190929190803590602001909291905050506107f5565b604051808481526020018381526020018215158152602001935050505060405180910390f35b610314600480360360208110156102fe57600080fd5b8101908080359060200190929190505050610839565b6040518082815260200191505060405180910390f35b6103566004803603602081101561034057600080fd5b8101908080359060200190929190505050610851565b6040518082815260200191505060405180910390f35b610374610869565b604051808273ffffffffffffffffffffffffffffffffffffffff16815260200191505060405180910390f35b6103cc600480360360208110156103b657600080fd5b810190808035906020019092919050505061088f565b005b61041a600480360360408110156103e457600080fd5b8101908080359060200190929190803573ffffffffffffffffffffffffffffffffffffffff169060200190929190505050610ed3565b005b61047c6004803603606081101561043257600080fd5b8101908080356dffffffffffffffffffffffffffff16906020019092919080356dffffffffffffffffffffffffffff1690602001909291908035906020019092919050505061179e565b6040518082815260200191505060405180910390f35b61049a611881565b6040518082815260200191505060405180910390f35b6104dc600480360360208110156104c657600080fd5b8101908080359060200190929190505050611887565b6040518082815260200191505060405180910390f35b6104fa61189f565b6040518082815260200191505060405180910390f35b6105766004803603606081101561052657600080fd5b8101908080359060200190929190803573ffffffffffffffffffffffffffffffffffffffff16906020019092919080356dffffffffffffffffffffffffffff1690602001909291905050506118a5565b005b6105c46004803603604081101561058e57600080fd5b8101908080359060200190929190803573ffffffffffffffffffffffffffffffffffffffff169060200190929190505050611b70565b005b610686600480360360c08110156105dc57600080fd5b81019080803573ffffffffffffffffffffffffffffffffffffffff169060200190929190803573ffffffffffffffffffffffffffffffffffffffff16906020019092919080356dffffffffffffffffffffffffffff169060200190929190803573ffffffffffffffffffffffffffffffffffffffff16906020019092919080356dffffffffffffffffffffffffffff169060200190929190803590602001909291905050506124d3565b005b6106b46004803603602081101561069e57600080fd5b81019080803590602001909291905050506127a4565b6040518082815260200191505060405180910390f35b600c5481565b60065481565b60016020528060005260406000206000915090508060000154908060010154908060020154905083565b60076020528060005260406000206000915090508060000160009054906101000a900473ffffffffffffffffffffffffffffffffffffffff16908060010160009054906101000a900473ffffffffffffffffffffffffffffffffffffffff16908060020160009054906101000a90046dffffffffffffffffffffffffffff16908060030154908060040160009054906101000a900460ff16908060040160019054906101000a900473ffffffffffffffffffffffffffffffffffffffff16908060050160009054906101000a90046dffffffffffffffffffffffffffff1690806006015490806007015490806008015490508a565b6008602052816000526040600020602052806000526040600020600091509150508060000154908060010154908060020160009054906101000a900460ff16905083565b60026020528060005260406000206000915090505481565b60046020528060005260406000206000915090505481565b600b60009054906101000a900473ffffffffffffffffffffffffffffffffffffffff1681565b60026000541415610908576040517f08c379a000000000000000000000000000000000000000000000000000000000815260040180806020018281038252601f8152602001807f5265656e7472616e637947756172643a207265656e7472616e742063616c6c0081525060200191505060405180910390fd5b60026000819055506007600082815260200190815260200160002060000160009054906101000a900473ffffffffffffffffffffffffffffffffffffffff1673ffffffffffffffffffffffffffffffffffffffff163373ffffffffffffffffffffffffffffffffffffffff16146109e7576040517f08c379a000000000000000000000000000000000000000000000000000000000815260040180806020018281038252601a8152602001807f4f6e6c79207468652063726561746f722063616e20636c6f736500000000000081525060200191505060405180910390fd5b600060076000838152602001908152602001600020604051806101400160405290816000820160009054906101000a900473ffffffffffffffffffffffffffffffffffffffff1673ffffffffffffffffffffffffffffffffffffffff1673ffffffffffffffffffffffffffffffffffffffff1681526020016001820160009054906101000a900473ffffffffffffffffffffffffffffffffffffffff1673ffffffffffffffffffffffffffffffffffffffff1673ffffffffffffffffffffffffffffffffffffffff1681526020016002820160009054906101000a90046dffffffffffffffffffffffffffff166dffffffffffffffffffffffffffff166dffffffffffffffffffffffffffff168152602001600382015481526020016004820160009054906101000a900460ff161515151581526020016004820160019054906101000a900473ffffffffffffffffffffffffffffffffffffffff1673ffffffffffffffffffffffffffffffffffffffff1673ffffffffffffffffffffffffffffffffffffffff1681526020016005820160009054906101000a90046dffffffffffffffffffffffffffff166dffffffffffffffffffffffffffff166dffffffffffffffffffffffffffff168152602001600682015481526020016007820154815260200160088201548152505090506000610c08610bf460028460e001516127bc90919063ffffffff16565b8361010001516127f690919063ffffffff16565b90506000610c5b610c2284604001518560c001518561179e565b610c4d856060015186604001516dffffffffffffffffffffffffffff1661281590919063ffffffff16565b61281590919063ffffffff16565b905060008111610cd3576040517f08c379a00000000000000000000000000000000000000000000000000000000081526004018080602001828103825260118152602001807f4e6f7468696e6720746f20726566756e6400000000000000000000000000000081525060200191505060405180910390fd5b610d1081610d02856060015186604001516dffffffffffffffffffffffffffff1661281590919063ffffffff16565b61281590919063ffffffff16565b6007600086815260200190815260200160002060020160006101000a8154816dffffffffffffffffffffffffffff02191690836dffffffffffffffffffffffffffff160217905550816007600086815260200190815260200160002060050160006101000a8154816dffffffffffffffffffffffffffff02191690836dffffffffffffffffffffffffffff16021790555060006007600086815260200190815260200160002060030181905550610de08484602001518560a0015186610120015187604001518860c00151612835565b600060096000868152602001908152602001600020541415610e3657610e0684336129b3565b60016007600086815260200190815260200160002060040160006101000a81548160ff0219169083151502179055505b60006007600086815260200190815260200160002060030181905550610e688160003386602001518760a00151612a3b565b7f58187c1a21e9c09993b035af85603b70e68b7d9dd87004e781643b01674890fe338583604051808473ffffffffffffffffffffffffffffffffffffffff168152602001838152602001828152602001935050505060405180910390a1505050600160008190555050565b60026000541415610f4c576040517f08c379a000000000000000000000000000000000000000000000000000000000815260040180806020018281038252601f8152602001807f5265656e7472616e637947756172643a207265656e7472616e742063616c6c0081525060200191505060405180910390fd5b600260008190555042600760008481526020019081526020016000206008015411610fdf576040517f08c379a000000000000000000000000000000000000000000000000000000000815260040180806020018281038252600f8152602001807f50726f6d6973652065787069726564000000000000000000000000000000000081525060200191505060405180910390fd5b6007600083815260200190815260200160002060000160009054906101000a900473ffffffffffffffffffffffffffffffffffffffff1673ffffffffffffffffffffffffffffffffffffffff168173ffffffffffffffffffffffffffffffffffffffff16141561131c57600015156007600084815260200190815260200160002060040160009054906101000a900460ff161515146110e6576040517f08c379a00000000000000000000000000000000000000000000000000000000081526004018080602001828103825260108152602001807f416c72656164792065786563757465640000000000000000000000000000000081525060200191505060405180910390fd5b6000600760008481526020019081526020016000206003015411611172576040517f08c379a00000000000000000000000000000000000000000000000000000000081526004018080602001828103825260148152602001807f4f75747374616e64696e6744656274206973203000000000000000000000000081525060200191505060405180910390fd5b6007600083815260200190815260200160002060010160009054906101000a900473ffffffffffffffffffffffffffffffffffffffff1673ffffffffffffffffffffffffffffffffffffffff166323b872dd333060076000878152602001908152602001600020600301546040518463ffffffff1660e01b8152600401808473ffffffffffffffffffffffffffffffffffffffff1681526020018373ffffffffffffffffffffffffffffffffffffffff1681526020018281526020019350505050602060405180830381600087803b15801561124d57600080fd5b505af1158015611261573d6000803e3d6000fd5b505050506040513d602081101561127757600080fd5b810190808051906020019092919050505050600060076000848152602001908152602001600020600301819055507ec4e1f6f809639700ca5760f6286c1d12b814737cecceeb925e22a7d3d09afd81836007600086815260200190815260200160002060030154604051808473ffffffffffffffffffffffffffffffffffffffff168152602001838152602001828152602001935050505060405180910390a1611792565b60008282604051602001808381526020018273ffffffffffffffffffffffffffffffffffffffff1660601b81526014019250505060405160208183030381529060405280519060200120905060006008600085815260200190815260200160002060008381526020019081526020016000206001015411611405576040517f08c379a00000000000000000000000000000000000000000000000000000000081526004018080602001828103825260148152602001807f4f75747374616e64696e6744656274206973203000000000000000000000000081525060200191505060405180910390fd5b6000151560086000858152602001908152602001600020600083815260200190815260200160002060020160009054906101000a900460ff161515146114b3576040517f08c379a00000000000000000000000000000000000000000000000000000000081526004018080602001828103825260108152602001807f416c72656164792065786563757465640000000000000000000000000000000081525060200191505060405180910390fd5b6007600084815260200190815260200160002060040160019054906101000a900473ffffffffffffffffffffffffffffffffffffffff1673ffffffffffffffffffffffffffffffffffffffff166323b872dd3330600860008881526020019081526020016000206000868152602001908152602001600020600101546040518463ffffffff1660e01b8152600401808473ffffffffffffffffffffffffffffffffffffffff1681526020018373ffffffffffffffffffffffffffffffffffffffff1681526020018281526020019350505050602060405180830381600087803b15801561159f57600080fd5b505af11580156115b3573d6000803e3d6000fd5b505050506040513d60208110156115c957600080fd5b8101908080519060200190929190505050506008600084815260200190815260200160002060008281526020019081526020016000206001015460076000858152602001908152602001600020600601600082825403925050819055506116616002600860008681526020019081526020016000206000848152602001908152602001600020600101546127bc90919063ffffffff16565b600760008581526020019081526020016000206007016000828254019250508190555060086000848152602001908152602001600020600082815260200190815260200160002060010154600860008581526020019081526020016000206000838152602001908152602001600020600001600082825401925050819055506000600860008581526020019081526020016000206000838152602001908152602001600020600101819055507ec4e1f6f809639700ca5760f6286c1d12b814737cecceeb925e22a7d3d09afd828460086000878152602001908152602001600020600085815260200190815260200160002060010154604051808473ffffffffffffffffffffffffffffffffffffffff168152602001838152602001828152602001935050505060405180910390a1505b60016000819055505050565b600073__ShareCalculator_______________________6334a31ce08585856040518463ffffffff1660e01b815260040180846dffffffffffffffffffffffffffff168152602001836dffffffffffffffffffffffffffff168152602001827bffffffffffffffffffffffffffffffffffffffffffffffffffffffff168152602001935050505060206040518083038186803b15801561183d57600080fd5b505af4158015611851573d6000803e3d6000fd5b505050506040513d602081101561186757600080fd5b810190808051906020019092919050505090509392505050565b60055481565b60036020528060005260406000206000915090505481565b600a5481565b6002600054141561191e576040517f08c379a000000000000000000000000000000000000000000000000000000000815260040180806020018281038252601f8152602001807f5265656e7472616e637947756172643a207265656e7472616e742063616c6c0081525060200191505060405180910390fd5b60026000819055508173ffffffffffffffffffffffffffffffffffffffff166007600085815260200190815260200160002060000160009054906101000a900473ffffffffffffffffffffffffffffffffffffffff1673ffffffffffffffffffffffffffffffffffffffff1614156119fe576040517f08c379a000000000000000000000000000000000000000000000000000000000815260040180806020018281038252601b8152602001807f43616e2774206a6f696e20796f7572206f776e2070726f6d697365000000000081525060200191505060405180910390fd5b6007600084815260200190815260200160002060040160019054906101000a900473ffffffffffffffffffffffffffffffffffffffff1673ffffffffffffffffffffffffffffffffffffffff166323b872dd3330611a766002866dffffffffffffffffffffffffffff16612dce90919063ffffffff16565b6040518463ffffffff1660e01b8152600401808473ffffffffffffffffffffffffffffffffffffffff1681526020018373ffffffffffffffffffffffffffffffffffffffff1681526020018281526020019350505050602060405180830381600087803b158015611ae657600080fd5b505af1158015611afa573d6000803e3d6000fd5b505050506040513d6020811015611b1057600080fd5b810190808051906020019092919050505050611b638383611b5e6002611b506002876dffffffffffffffffffffffffffff16612dce90919063ffffffff16565b6127bc90919063ffffffff16565b612df4565b6001600081905550505050565b60026000541415611be9576040517f08c379a000000000000000000000000000000000000000000000000000000000815260040180806020018281038252601f8152602001807f5265656e7472616e637947756172643a207265656e7472616e742063616c6c0081525060200191505060405180910390fd5b60026000819055504260076000848152602001908152602001600020600801541115611c7d576040517f08c379a00000000000000000000000000000000000000000000000000000000081526004018080602001828103825260208152602001807f546869732070726f6d69736520686173206e6f7420657870697265642079657481525060200191505060405180910390fd5b600080600060076000868152602001908152602001600020604051806101400160405290816000820160009054906101000a900473ffffffffffffffffffffffffffffffffffffffff1673ffffffffffffffffffffffffffffffffffffffff1673ffffffffffffffffffffffffffffffffffffffff1681526020016001820160009054906101000a900473ffffffffffffffffffffffffffffffffffffffff1673ffffffffffffffffffffffffffffffffffffffff1673ffffffffffffffffffffffffffffffffffffffff1681526020016002820160009054906101000a90046dffffffffffffffffffffffffffff166dffffffffffffffffffffffffffff166dffffffffffffffffffffffffffff168152602001600382015481526020016004820160009054906101000a900460ff161515151581526020016004820160019054906101000a900473ffffffffffffffffffffffffffffffffffffffff1673ffffffffffffffffffffffffffffffffffffffff1673ffffffffffffffffffffffffffffffffffffffff1681526020016005820160009054906101000a90046dffffffffffffffffffffffffffff166dffffffffffffffffffffffffffff166dffffffffffffffffffffffffffff168152602001600682015481526020016007820154815260200160088201548152505090506007600086815260200190815260200160002060000160009054906101000a900473ffffffffffffffffffffffffffffffffffffffff1673ffffffffffffffffffffffffffffffffffffffff168473ffffffffffffffffffffffffffffffffffffffff1614156120ce57600015156007600087815260200190815260200160002060040160009054906101000a900460ff16151514611f77576040517f08c379a00000000000000000000000000000000000000000000000000000000081526004018080602001828103825260108152602001807f416c72656164792065786563757465640000000000000000000000000000000081525060200191505060405180910390fd5b6000600760008781526020019081526020016000206003015414611fe6576040517f08c379a000000000000000000000000000000000000000000000000000000000815260040180806020018281038252602a815260200180613c9c602a913960400191505060405180910390fd5b60016007600087815260200190815260200160002060040160006101000a81548160ff02191690831515021790555061207c61203082604001518360c0015184610100015161179e565b61206e61204b600285606001516127bc90919063ffffffff16565b84604001516dffffffffffffffffffffffffffff1661281590919063ffffffff16565b61281590919063ffffffff16565b925061209a8161010001518260e001516127f690919063ffffffff16565b91506120a685856129b3565b6120c98582602001518360a0015184610120015185604001518660c00151612835565b61245a565b60008585604051602001808381526020018273ffffffffffffffffffffffffffffffffffffffff1660601b8152601401925050506040516020818303038152906040528051906020012090506000151560086000888152602001908152602001600020600083815260200190815260200160002060020160009054906101000a900460ff161515146121c8576040517f08c379a00000000000000000000000000000000000000000000000000000000081526004018080602001828103825260108152602001807f416c72656164792065786563757465640000000000000000000000000000000081525060200191505060405180910390fd5b60006008600088815260200190815260200160002060008381526020019081526020016000206001015414612248576040517f08c379a0000000000000000000000000000000000000000000000000000000008152600401808060200182810382526029815260200180613cc66029913960400191505060405180910390fd5b600060086000888152602001908152602001600020600083815260200190815260200160002060000154116122e5576040517f08c379a000000000000000000000000000000000000000000000000000000000815260040180806020018281038252601d8152602001807f4a6f696e6572207761736e277420696e20746869732070726f6d69736500000081525060200191505060405180910390fd5b600160086000888152602001908152602001600020600083815260200190815260200160002060020160006101000a81548160ff021916908315150217905550600060086000888152602001908152602001600020600083815260200190815260200160002060405180606001604052908160008201548152602001600182015481526020016002820160009054906101000a900460ff16151515158152505090506123da6123b5846060015185604001516dffffffffffffffffffffffffffff1661281590919063ffffffff16565b8460c001516123d58460200151856000015161281590919063ffffffff16565b61179e565b945060008360600151111561242a57612417612404600283602001516127bc90919063ffffffff16565b826000015161281590919063ffffffff16565b6dffffffffffffffffffffffffffff1693505b61243487876129b3565b6124578784602001518560a0015186610120015187604001518860c00151612835565b50505b61246f83838684602001518560a00151612a3b565b7f3e319fadde7b0042d7d8417b0da2a0455f07abd24dd5a61b802af16d37a5f0bb8486604051808373ffffffffffffffffffffffffffffffffffffffff1681526020018281526020019250505060405180910390a150505060016000819055505050565b6002600054141561254c576040517f08c379a000000000000000000000000000000000000000000000000000000000815260040180806020018281038252601f8152602001807f5265656e7472616e637947756172643a207265656e7472616e742063616c6c0081525060200191505060405180910390fd5b600260008190555060006002856dffffffffffffffffffffffffffff168161257057fe5b046dffffffffffffffffffffffffffff16141580156125ba575060006002836dffffffffffffffffffffffffffff16816125a657fe5b046dffffffffffffffffffffffffffff1614155b61262c576040517f08c379a00000000000000000000000000000000000000000000000000000000081526004018080602001828103825260108152602001807f416d6f756e7420746f6f20736d616c6c0000000000000000000000000000000081525060200191505060405180910390fd5b8473ffffffffffffffffffffffffffffffffffffffff166323b872dd333061266e6002896dffffffffffffffffffffffffffff16612dce90919063ffffffff16565b6040518463ffffffff1660e01b8152600401808473ffffffffffffffffffffffffffffffffffffffff1681526020018373ffffffffffffffffffffffffffffffffffffffff1681526020018281526020019350505050602060405180830381600087803b1580156126de57600080fd5b505af11580156126f2573d6000803e3d6000fd5b505050506040513d602081101561270857600080fd5b8101908080519060200190929190505050506127948686612756600261274860028a6dffffffffffffffffffffffffffff16612dce90919063ffffffff16565b6127bc90919063ffffffff16565b8661278e600261278060028a6dffffffffffffffffffffffffffff16612dce90919063ffffffff16565b6127bc90919063ffffffff16565b866132ab565b6001600081905550505050505050565b60096020528060005260406000206000915090505481565b6000808314156127cf57600090506127f0565b60008284029050828482816127e057fe5b04146127eb57600080fd5b809150505b92915050565b60008082840190508381101561280b57600080fd5b8091505092915050565b60008282111561282457600080fd5b600082840390508091505092915050565b816dffffffffffffffffffffffffffff166004600087876128558861368a565b604051602001808473ffffffffffffffffffffffffffffffffffffffff1660601b81526014018373ffffffffffffffffffffffffffffffffffffffff1660601b8152601401828152602001935050505060405160208183030381529060405280519060200120815260200190815260200160002060008282540392505081905550600085856128e38661368a565b6128ec866136bc565b6128f5866136bc565b604051602001808673ffffffffffffffffffffffffffffffffffffffff1660601b81526014018573ffffffffffffffffffffffffffffffffffffffff1660601b8152601401848152602001838152602001828152602001955050505050506040516020818303038152906040528051906020012090506000818860405160200180838152602001828152602001925050506040516020818303038152906040528051906020012090506129a9888383613700565b5050505050505050565b600081604051602001808273ffffffffffffffffffffffffffffffffffffffff1660601b8152601401915050604051602081830303815290604052805190602001209050600081846040516020018083815260200182815260200192505050604051602081830303815290604052805190602001209050612a35848383613700565b50505050565b6000851115612c01576000612a6f612710612a61600c54896127bc90919063ffffffff16565b612dce90919063ffffffff16565b90508273ffffffffffffffffffffffffffffffffffffffff1663a9059cbb85612aa1848a61281590919063ffffffff16565b6040518363ffffffff1660e01b8152600401808373ffffffffffffffffffffffffffffffffffffffff16815260200182815260200192505050602060405180830381600087803b158015612af457600080fd5b505af1158015612b08573d6000803e3d6000fd5b505050506040513d6020811015612b1e57600080fd5b8101908080519060200190929190505050508273ffffffffffffffffffffffffffffffffffffffff1663a9059cbb600b60009054906101000a900473ffffffffffffffffffffffffffffffffffffffff16836040518363ffffffff1660e01b8152600401808373ffffffffffffffffffffffffffffffffffffffff16815260200182815260200192505050602060405180830381600087803b158015612bc357600080fd5b505af1158015612bd7573d6000803e3d6000fd5b505050506040513d6020811015612bed57600080fd5b810190808051906020019092919050505050505b6000841115612dc7576000612c35612710612c27600c54886127bc90919063ffffffff16565b612dce90919063ffffffff16565b90508173ffffffffffffffffffffffffffffffffffffffff1663a9059cbb85612c67848961281590919063ffffffff16565b6040518363ffffffff1660e01b8152600401808373ffffffffffffffffffffffffffffffffffffffff16815260200182815260200192505050602060405180830381600087803b158015612cba57600080fd5b505af1158015612cce573d6000803e3d6000fd5b505050506040513d6020811015612ce457600080fd5b8101908080519060200190929190505050508173ffffffffffffffffffffffffffffffffffffffff1663a9059cbb600b60009054906101000a900473ffffffffffffffffffffffffffffffffffffffff16836040518363ffffffff1660e01b8152600401808373ffffffffffffffffffffffffffffffffffffffff16815260200182815260200192505050602060405180830381600087803b158015612d8957600080fd5b505af1158015612d9d573d6000803e3d6000fd5b505050506040513d6020811015612db357600080fd5b810190808051906020019092919050505050505b5050505050565b6000808211612ddc57600080fd5b6000828481612de757fe5b0490508091505092915050565b60006007600085815260200190815260200160002090506000612e7b612e3e612e2b600285600601546127bc90919063ffffffff16565b84600701546127f690919063ffffffff16565b8360050160009054906101000a90046dffffffffffffffffffffffffffff166dffffffffffffffffffffffffffff1661281590919063ffffffff16565b90506000612ea36002856dffffffffffffffffffffffffffff16612dce90919063ffffffff16565b905042836008015411612f01576040517f08c379a000000000000000000000000000000000000000000000000000000000815260040180806020018281038252603b815260200180613cef603b913960400191505060405180910390fd5b81846dffffffffffffffffffffffffffff161115612f87576040517f08c379a00000000000000000000000000000000000000000000000000000000081526004018080602001828103825260208152602001807f416d6f756e7420746f6f206869676820666f7220746869732070726f6d69736581525060200191505060405180910390fd5b60008111612ffd576040517f08c379a00000000000000000000000000000000000000000000000000000000081526004018080602001828103825260108152602001807f416d6f756e7420746f6f20736d616c6c0000000000000000000000000000000081525060200191505060405180910390fd5b60008686604051602001808381526020018273ffffffffffffffffffffffffffffffffffffffff1660601b81526014019250505060405160208183030381529060405280519060200120905060006008600089815260200190815260200160002060008381526020019081526020016000206000015414156130a757613083878761398a565b60096000888152602001908152602001600020600081548092919060010191905055505b816007600089815260200190815260200160002060060160008282540192505081905550816008600089815260200190815260200160002060008381526020019081526020016000206001016000828254019250508190555081600860008981526020019081526020016000206000838152602001908152602001600020600001600082825401925050819055506131a3613166613153600287600601546127bc90919063ffffffff16565b86600701546127f690919063ffffffff16565b8560050160009054906101000a90046dffffffffffffffffffffffffffff166dffffffffffffffffffffffffffff1661281590919063ffffffff16565b9250600083141561324557613244878560010160009054906101000a900473ffffffffffffffffffffffffffffffffffffffff168660040160019054906101000a900473ffffffffffffffffffffffffffffffffffffffff1687600801548860020160009054906101000a90046dffffffffffffffffffffffffffff168960050160009054906101000a90046dffffffffffffffffffffffffffff16612835565b5b7f299d5cc8227db3aa9d2041b67692a410443c32ad52defbd6741daf1a497f33f3868884604051808473ffffffffffffffffffffffffffffffffffffffff168152602001838152602001828152602001935050505060405180910390a150505050505050565b6132c0610258426127f690919063ffffffff16565b8111613317576040517f08c379a0000000000000000000000000000000000000000000000000000000008152600401808060200182810382526027815260200180613d2a6027913960400191505060405180910390fd5b6001600a600082825401925050819055506040518061014001604052808773ffffffffffffffffffffffffffffffffffffffff1681526020018673ffffffffffffffffffffffffffffffffffffffff168152602001856dffffffffffffffffffffffffffff1681526020016133a66002876dffffffffffffffffffffffffffff16612dce90919063ffffffff16565b81526020016000151581526020018473ffffffffffffffffffffffffffffffffffffffff168152602001836dffffffffffffffffffffffffffff16815260200160008152602001600081526020018281525060076000600a54815260200190815260200160002060008201518160000160006101000a81548173ffffffffffffffffffffffffffffffffffffffff021916908373ffffffffffffffffffffffffffffffffffffffff16021790555060208201518160010160006101000a81548173ffffffffffffffffffffffffffffffffffffffff021916908373ffffffffffffffffffffffffffffffffffffffff16021790555060408201518160020160006101000a8154816dffffffffffffffffffffffffffff02191690836dffffffffffffffffffffffffffff1602179055506060820151816003015560808201518160040160006101000a81548160ff02191690831515021790555060a08201518160040160016101000a81548173ffffffffffffffffffffffffffffffffffffffff021916908373ffffffffffffffffffffffffffffffffffffffff16021790555060c08201518160050160006101000a8154816dffffffffffffffffffffffffffff02191690836dffffffffffffffffffffffffffff16021790555060e08201518160060155610100820151816007015561012082015181600801559050506135b58584838786600a54613a12565b6135c1600a548761398a565b7faea3e870a2ce6dd409dced81e57fa8eb5dda85d01e61d895ac31699b3007e704868686868686604051808773ffffffffffffffffffffffffffffffffffffffff1681526020018673ffffffffffffffffffffffffffffffffffffffff168152602001856dffffffffffffffffffffffffffff1681526020018473ffffffffffffffffffffffffffffffffffffffff168152602001836dffffffffffffffffffffffffffff168152602001828152602001965050505050505060405180910390a1505050505050565b60006136b56005546136a76006548561281590919063ffffffff16565b612dce90919063ffffffff16565b9050919050565b60005b6000826dffffffffffffffffffffffffffff16146136fb576008826dffffffffffffffffffffffffffff16901c915080806001019150506136bf565b919050565b8260016000848152602001908152602001600020600101541415801561373b5750826001600083815260200190815260200160002060010154145b156138b55760006001600083815260200190815260200160002060000154146137a65760016000828152602001908152602001600020600201546001600060016000858152602001908152602001600020600001548152602001908152602001600020600201819055505b6000600160008381526020019081526020016000206002015414613856576001600082815260200190815260200160002060000154600160006001600085815260200190815260200160002060020154815260200190815260200160002060000181905550806002600084815260200190815260200160002054141561385557600160008281526020019081526020016000206002015460026000848152602001908152602001600020819055505b5b600060016000838152602001908152602001600020600201819055506000600160008381526020019081526020016000206000018190555060016003600084815260200190815260200160002060008282540392505081905550613985565b82600160008481526020019081526020016000206001015414156139845760016000600160008581526020019081526020016000206000015481526020019081526020016000206001015460016000848152602001908152602001600020600101819055506001600060016000858152602001908152602001600020600001548152602001908152602001600020600001546001600084815260200190815260200160002060000181905550600160036000848152602001908152602001600020600082825403925050819055505b5b505050565b600081604051602001808273ffffffffffffffffffffffffffffffffffffffff1660601b8152601401915050604051602081830303815290604052805190602001209050600081846040516020018083815260200182815260200192505050604051602081830303815290604052805190602001209050613a0c848383613b90565b50505050565b826dffffffffffffffffffffffffffff16600460008888613a328961368a565b604051602001808473ffffffffffffffffffffffffffffffffffffffff1660601b81526014018373ffffffffffffffffffffffffffffffffffffffff1660601b815260140182815260200193505050506040516020818303038152906040528051906020012081526020019081526020016000206000828254019250508190555060008686613ac08761368a565b613ac9876136bc565b613ad2876136bc565b604051602001808673ffffffffffffffffffffffffffffffffffffffff1660601b81526014018573ffffffffffffffffffffffffffffffffffffffff1660601b815260140184815260200183815260200182815260200195505050505050604051602081830303815290604052805190602001209050600081836040516020018083815260200182815260200192505050604051602081830303815290604052805190602001209050613b86838383613b90565b5050505050505050565b600060036000848152602001908152602001600020541115613c40578060016000600260008681526020019081526020016000205481526020019081526020016000206000018190555082600160008381526020019081526020016000206001018190555060026000838152602001908152602001600020546001600083815260200190815260200160002060020181905550806002600084815260200190815260200160002081905550613c74565b8260016000848152602001908152602001600020600101819055508160026000848152602001908152602001600020819055505b6001600360008481526020019081526020016000206000828254019250508190555050505056fe43726561746f72206469646e277420676f207468726f7567682077697468207468652070726f6d6973654a6f696e6572206469646e277420676f207468726f7567682077697468207468652070726f6d69736565787069726174696f6e54696d657374616d70206461746520697320696e20746865207061737420616e642063616e2774206265206a6f696e656465787069726174696f6e54696d657374616d70206461746520697320696e207468652070617374a2646970667358221220fa74aab44dd5f73636e4edcf06f1c6fa75dd675dd159b4ee18765e126466b7cc64736f6c63430007060033",
  "immutableReferences": {},
  "source": "// SPDX-License-Identifier: BUSL-1.1\npragma solidity >=0.4.21 <0.8.0;\n\nimport {IERC20} from \"./interfaces/IERC20.sol\";\nimport {SafeMath} from \"./lib/math/SafeMath.sol\";\nimport {ReentrancyGuard} from \"./lib/ReentrancyGuard.sol\";\nimport {ShareCalculator} from \"./lib/math/ShareCalculator.sol\";\nimport {PromiseList} from \"./PromiseList.sol\";\n\ncontract PromiseCore is ReentrancyGuard, PromiseList {\n    using SafeMath for uint256;\n    using ShareCalculator for uint224;\n\n    mapping(uint256 => PromiseData) public promises;\n    mapping(uint256 => mapping(bytes32 => PromiseJoinerData)) public joiners;\n    mapping(uint256 => uint256) public joinersLength;\n\n    uint256 public lastId;\n\n    address public feeAddress;\n    uint256 public feeBP = 50;\n\n    struct PromiseData {\n        address creator;\n        address creatorToken;\n        uint112 creatorAmount;\n        uint256 creatorDebt;\n        bool hasCreatorExecuted;\n        address joinerToken;\n        uint112 joinerAmount;\n        uint256 joinerDebt;\n        uint256 joinerPaidFull;\n        uint256 expirationTimestamp;\n    }\n\n    struct PromiseJoinerData {\n        uint256 amountPaid;\n        uint256 outstandingDebt;\n        bool hasExecuted;\n    }\n\n    event PromiseCreated(\n        address creator,\n        address creatorToken,\n        uint256 creatorAmount,\n        address joinerToken,\n        uint256 joinerAmount,\n        uint256 expirationTimestamp\n    );\n\n    event PromiseJoined(address addrB, uint256 id, uint256 amount);\n    event PromisePendingAmountClosed(address executor, uint256 id, uint256 refund);\n    event PromiseExecuted(address executor, uint256 id);\n    event PromisePaid(address Payee, uint256 id, uint256 remainingDebt);\n\n    constructor(address _feeAddress) public {\n        feeAddress = _feeAddress;\n    }\n\n    function createPromise(\n        address account,\n        address creatorToken,\n        uint112 creatorAmount,\n        address joinerToken,\n        uint112 joinerAmount,\n        uint256 expirationTimestamp\n    ) external nonReentrant {\n        // Any odd amount entered will be converted to an even number so we need to check if the amount\n        // is equal to 0 when halved.\n        require(creatorAmount / 2 != 0 && joinerAmount / 2 != 0, \"Amount too small\");\n        // Takes the creator amount of the creator token from the message sender before\n        // the promise is created.\n        IERC20(creatorToken).transferFrom(msg.sender, address(this), uint256(creatorAmount).div(2));\n        _createPromise(\n            account,\n            creatorToken,\n            uint112(uint256(creatorAmount).div(2).mul(2)),\n            joinerToken,\n            uint112(uint256(joinerAmount).div(2).mul(2)),\n            expirationTimestamp\n        );\n    }\n\n    function joinPromise(\n        uint256 id,\n        address account,\n        uint112 amount\n    ) external nonReentrant {\n        require(promises[id].creator != account, \"Can't join your own promise\");\n        IERC20(promises[id].joinerToken).transferFrom(msg.sender, address(this), uint256(amount).div(2));\n        _joinPromise(id, account, uint112(uint256(amount).div(2).mul(2)));\n    }\n\n    function payPromise(uint256 id, address account) external nonReentrant {\n        require(promises[id].expirationTimestamp > block.timestamp, \"Promise expired\");\n        if (account == promises[id].creator) {\n            require(promises[id].hasCreatorExecuted == false, \"Already executed\");\n            require(promises[id].creatorDebt > 0, \"OutstandingDebt is 0\");\n            IERC20(promises[id].creatorToken).transferFrom(msg.sender, address(this), promises[id].creatorDebt);\n            promises[id].creatorDebt = 0;\n            emit PromisePaid(account, id, promises[id].creatorDebt);\n        } else {\n            bytes32 joinerId = keccak256(abi.encodePacked(id, account));\n            require(joiners[id][joinerId].outstandingDebt > 0, \"OutstandingDebt is 0\");\n            require(joiners[id][joinerId].hasExecuted == false, \"Already executed\");\n            IERC20(promises[id].joinerToken).transferFrom(\n                msg.sender,\n                address(this),\n                joiners[id][joinerId].outstandingDebt\n            );\n            promises[id].joinerDebt -= joiners[id][joinerId].outstandingDebt;\n            promises[id].joinerPaidFull += joiners[id][joinerId].outstandingDebt.mul(2);\n            joiners[id][joinerId].amountPaid += joiners[id][joinerId].outstandingDebt;\n            joiners[id][joinerId].outstandingDebt = 0;\n            emit PromisePaid(account, id, joiners[id][joinerId].outstandingDebt);\n        }\n    }\n\n    function closePendingPromiseAmount(uint256 id) external nonReentrant {\n        require(msg.sender == promises[id].creator, \"Only the creator can close\");\n        PromiseData memory p = promises[id];\n        // totalJoinerCapital is the amount of the creator token which is set to be given out\n        // to all the joiners upon execution. This is removed from the creators refund and the account\n        // is sent the amount of creator tokens which is untilised by the joiners.\n        uint256 totalJoinerCapital = (p.joinerPaidFull).add(p.joinerDebt.mul(2));\n        uint256 refund =\n            (uint256(p.creatorAmount).sub(p.creatorDebt)).sub(\n                divMul(p.creatorAmount, p.joinerAmount, totalJoinerCapital)\n            );\n        require(refund > 0, \"Nothing to refund\");\n        promises[id].creatorAmount = uint112(uint256(p.creatorAmount).sub(p.creatorDebt).sub(refund));\n        promises[id].joinerAmount = uint112(totalJoinerCapital);\n        promises[id].creatorDebt = 0;\n        deleteFromJoinableList(\n            id,\n            p.creatorToken,\n            p.joinerToken,\n            p.expirationTimestamp,\n            p.creatorAmount,\n            p.joinerAmount\n        );\n        if (joinersLength[id] == 0) {\n            deleteFromAccountList(id, msg.sender);\n            promises[id].hasCreatorExecuted = true;\n        }\n        promises[id].creatorDebt = 0;\n        payOut(refund, 0, msg.sender, p.creatorToken, p.joinerToken);\n        emit PromisePendingAmountClosed(msg.sender, id, refund);\n    }\n\n    function executePromise(uint256 id, address account) external nonReentrant {\n        require(promises[id].expirationTimestamp <= block.timestamp, \"This promise has not expired yet\");\n        uint256 creatorAmount;\n        uint256 joinerAmount;\n        PromiseData memory p = promises[id];\n        if (account == promises[id].creator) {\n            require(promises[id].hasCreatorExecuted == false, \"Already executed\");\n            require(promises[id].creatorDebt == 0, \"Creator didn't go through with the promise\");\n            promises[id].hasCreatorExecuted = true;\n            creatorAmount = uint256(p.creatorAmount).sub(p.creatorDebt.mul(2)).sub(\n                divMul(p.creatorAmount, p.joinerAmount, p.joinerPaidFull)\n            );\n            joinerAmount = uint256(p.joinerDebt).add(p.joinerPaidFull);\n            deleteFromAccountList(id, account);\n            deleteFromJoinableList(\n                id,\n                p.creatorToken,\n                p.joinerToken,\n                p.expirationTimestamp,\n                p.creatorAmount,\n                p.joinerAmount\n            );\n        } else {\n            bytes32 joinerId = keccak256(abi.encodePacked(id, account));\n            require(joiners[id][joinerId].hasExecuted == false, \"Already executed\");\n            require(joiners[id][joinerId].outstandingDebt == 0, \"Joiner didn't go through with the promise\");\n            require(joiners[id][joinerId].amountPaid > 0, \"Joiner wasn't in this promise\");\n            joiners[id][joinerId].hasExecuted = true;\n            PromiseJoinerData memory j = joiners[id][joinerId];\n            creatorAmount = divMul(\n                uint112(uint256(p.creatorAmount).sub(p.creatorDebt)),\n                p.joinerAmount,\n                (j.amountPaid).sub(j.outstandingDebt)\n            );\n            if (p.creatorDebt > 0) {\n                joinerAmount = uint112((j.amountPaid).sub(j.outstandingDebt.mul(2)));\n            }\n            deleteFromAccountList(id, account);\n            deleteFromJoinableList(\n                id,\n                p.creatorToken,\n                p.joinerToken,\n                p.expirationTimestamp,\n                p.creatorAmount,\n                p.joinerAmount\n            );\n        }\n        payOut(creatorAmount, joinerAmount, account, p.creatorToken, p.joinerToken);\n        emit PromiseExecuted(account, id);\n    }\n\n    function _createPromise(\n        address account,\n        address creatorToken,\n        uint112 creatorAmount,\n        address joinerToken,\n        uint112 joinerAmount,\n        uint256 expirationTimestamp\n    ) internal {\n        require(expirationTimestamp > block.timestamp.add(10 minutes), \"expirationTimestamp date is in the past\");\n        lastId += 1;\n        promises[lastId] = PromiseData(\n            account,\n            creatorToken,\n            creatorAmount,\n            uint256(creatorAmount).div(2),\n            false,\n            joinerToken,\n            joinerAmount,\n            0,\n            0,\n            expirationTimestamp\n        );\n        addToJoinableList(creatorToken, joinerToken, expirationTimestamp, creatorAmount, joinerAmount, lastId);\n        addToAccountList(lastId, account);\n\n        emit PromiseCreated(account, creatorToken, creatorAmount, joinerToken, joinerAmount, expirationTimestamp);\n    }\n\n    function _joinPromise(\n        uint256 id,\n        address account,\n        uint112 joinerAmount\n    ) internal {\n        PromiseData storage p = promises[id];\n        uint256 remainingJoinableFunds = uint256(p.joinerAmount).sub((p.joinerPaidFull).add(p.joinerDebt.mul(2)));\n        uint256 payingNow = uint256(joinerAmount).div(2);\n        require(p.expirationTimestamp > block.timestamp, \"expirationTimestamp date is in the past and can't be joined\");\n        require(joinerAmount <= remainingJoinableFunds, \"Amount too high for this promise\");\n        require(payingNow > 0, \"Amount too small\");\n        bytes32 joinerId = keccak256(abi.encodePacked(id, account));\n        if (joiners[id][joinerId].amountPaid == 0) {\n            addToAccountList(id, account);\n            joinersLength[id]++;\n        }\n        promises[id].joinerDebt += payingNow;\n        joiners[id][joinerId].outstandingDebt += payingNow;\n        joiners[id][joinerId].amountPaid += payingNow;\n        remainingJoinableFunds = uint256(p.joinerAmount).sub((p.joinerPaidFull).add(p.joinerDebt.mul(2)));\n        // if the maximum amount of tokens have joined the promise, this removes the promise from the joinable linked list\n        if (remainingJoinableFunds == 0) {\n            deleteFromJoinableList(\n                id,\n                p.creatorToken,\n                p.joinerToken,\n                p.expirationTimestamp,\n                p.creatorAmount,\n                p.joinerAmount\n            );\n        }\n\n        emit PromiseJoined(account, id, payingNow);\n    }\n\n    function payOut(\n        uint256 creatorTokenAmount,\n        uint256 joinerTokenAmount,\n        address account,\n        address creatorAsset,\n        address joinerAsset\n    ) internal {\n        if (creatorTokenAmount > 0) {\n            uint256 feeA = creatorTokenAmount.mul(feeBP).div(10000);\n            IERC20(creatorAsset).transfer(account, creatorTokenAmount.sub(feeA));\n            IERC20(creatorAsset).transfer(feeAddress, feeA);\n        }\n        if (joinerTokenAmount > 0) {\n            uint256 feeB = joinerTokenAmount.mul(feeBP).div(10000);\n            IERC20(joinerAsset).transfer(account, joinerTokenAmount.sub(feeB));\n            IERC20(joinerAsset).transfer(feeAddress, feeB);\n        }\n    }\n\n    function divMul(\n        uint112 a,\n        uint112 b,\n        uint256 c\n    ) public view returns (uint256 result) {\n        result = ShareCalculator.divMul(a, b, uint224(c));\n    }\n}\n",
  "sourcePath": "/Users/nanoissuperior/promise-contracts/contracts/PromiseCore.sol",
  "compiler": {
    "name": "solc",
    "version": "0.7.6+commit.7338295f.Emscripten.clang"
  },
  "schemaVersion": "3.2.4",
  "updatedAt": "2021-07-08T10:18:44.690Z",
  "networkType": "ethereum",
  "devdoc": {
    "kind": "dev",
    "methods": {},
    "version": 1
  },
  "userdoc": {
    "kind": "user",
    "methods": {},
    "version": 1
  }
}