{
  "contractName": "PromiseChefFinder",
  "abi": [
    {
      "inputs": [
        {
          "internalType": "contract PromiseCore",
          "name": "_promiseCore",
          "type": "address"
        },
        {
          "internalType": "contract PromiseChef",
          "name": "_promiseChef",
          "type": "address"
        }
      ],
      "stateMutability": "nonpayable",
      "type": "constructor"
    },
    {
      "inputs": [],
      "name": "promiseChef",
      "outputs": [
        {
          "internalType": "contract PromiseChef",
          "name": "",
          "type": "address"
        }
      ],
      "stateMutability": "view",
      "type": "function",
      "constant": true
    },
    {
      "inputs": [],
      "name": "promiseCore",
      "outputs": [
        {
          "internalType": "contract PromiseCore",
          "name": "",
          "type": "address"
        }
      ],
      "stateMutability": "view",
      "type": "function",
      "constant": true
    },
    {
      "inputs": [
        {
          "internalType": "address",
          "name": "account",
          "type": "address"
        }
      ],
      "name": "accountPromises",
      "outputs": [
        {
          "internalType": "uint256[]",
          "name": "id",
          "type": "uint256[]"
        },
        {
          "internalType": "uint256[]",
          "name": "outstandingDebt",
          "type": "uint256[]"
        },
        {
          "internalType": "uint256[]",
          "name": "receiving",
          "type": "uint256[]"
        },
        {
          "internalType": "uint256[]",
          "name": "expirationTimestamp",
          "type": "uint256[]"
        },
        {
          "internalType": "address[]",
          "name": "tokens",
          "type": "address[]"
        }
      ],
      "stateMutability": "view",
      "type": "function",
      "constant": true
    },
    {
      "inputs": [
        {
          "internalType": "uint256",
          "name": "id",
          "type": "uint256"
        },
        {
          "internalType": "address",
          "name": "account",
          "type": "address"
        }
      ],
      "name": "_accountPromises",
      "outputs": [
        {
          "internalType": "uint256",
          "name": "outstandingDebt",
          "type": "uint256"
        },
        {
          "internalType": "uint256",
          "name": "receiving",
          "type": "uint256"
        },
        {
          "internalType": "address",
          "name": "creatorToken",
          "type": "address"
        },
        {
          "internalType": "address",
          "name": "joinerToken",
          "type": "address"
        },
        {
          "internalType": "uint256",
          "name": "expirationTimestamp",
          "type": "uint256"
        }
      ],
      "stateMutability": "view",
      "type": "function",
      "constant": true
    }
  ],
  "bytecode": "0x608060405234801561001057600080fd5b506040516111a63803806111a68339818101604052604081101561003357600080fd5b810190808051906020019092919080519060200190929190505050816000806101000a81548173ffffffffffffffffffffffffffffffffffffffff021916908373ffffffffffffffffffffffffffffffffffffffff16021790555080600160006101000a81548173ffffffffffffffffffffffffffffffffffffffff021916908373ffffffffffffffffffffffffffffffffffffffff16021790555050506110c6806100e06000396000f3fe608060405234801561001057600080fd5b506004361061004c5760003560e01c80633bb260bd146100515780637f45de7b146100855780638fba402e146100b9578063b9d4ac1a14610163575b600080fd5b61005961031c565b604051808273ffffffffffffffffffffffffffffffffffffffff16815260200191505060405180910390f35b61008d610340565b604051808273ffffffffffffffffffffffffffffffffffffffff16815260200191505060405180910390f35b610105600480360360408110156100cf57600080fd5b8101908080359060200190929190803573ffffffffffffffffffffffffffffffffffffffff169060200190929190505050610366565b604051808681526020018581526020018473ffffffffffffffffffffffffffffffffffffffff1681526020018373ffffffffffffffffffffffffffffffffffffffff1681526020018281526020019550505050505060405180910390f35b6101a56004803603602081101561017957600080fd5b81019080803573ffffffffffffffffffffffffffffffffffffffff169060200190929190505050610b2b565b60405180806020018060200180602001806020018060200186810386528b818151815260200191508051906020019060200280838360005b838110156101f85780820151818401526020810190506101dd565b5050505090500186810385528a818151815260200191508051906020019060200280838360005b8381101561023a57808201518184015260208101905061021f565b50505050905001868103845289818151815260200191508051906020019060200280838360005b8381101561027c578082015181840152602081019050610261565b50505050905001868103835288818151815260200191508051906020019060200280838360005b838110156102be5780820151818401526020810190506102a3565b50505050905001868103825287818151815260200191508051906020019060200280838360005b838110156103005780820151818401526020810190506102e5565b505050509050019a505050505050505050505060405180910390f35b60008054906101000a900473ffffffffffffffffffffffffffffffffffffffff1681565b600160009054906101000a900473ffffffffffffffffffffffffffffffffffffffff1681565b6000806000806000610376610fb6565b61037e61106d565b60008054906101000a900473ffffffffffffffffffffffffffffffffffffffff1673ffffffffffffffffffffffffffffffffffffffff16631f06c8598a6040518263ffffffff1660e01b8152600401808281526020019150506101406040518083038186803b1580156103f057600080fd5b505afa158015610404573d6000803e3d6000fd5b505050506040513d61014081101561041b57600080fd5b8101908080519060200190929190805190602001909291908051906020019092919080519060200190929190805190602001909291908051906020019092919080519060200190929190805190602001909291908051906020019092919080519060200190929190505050909192939495969750909192939495965090919293949550909192939450909192935090919250909150905050826000018173ffffffffffffffffffffffffffffffffffffffff1673ffffffffffffffffffffffffffffffffffffffff16815250508773ffffffffffffffffffffffffffffffffffffffff16826000015173ffffffffffffffffffffffffffffffffffffffff1614156106f35760008054906101000a900473ffffffffffffffffffffffffffffffffffffffff1673ffffffffffffffffffffffffffffffffffffffff16631f06c8598a6040518263ffffffff1660e01b8152600401808281526020019150506101406040518083038186803b15801561059257600080fd5b505afa1580156105a6573d6000803e3d6000fd5b505050506040513d6101408110156105bd57600080fd5b8101908080519060200190929190805190602001909291908051906020019092919080519060200190929190805190602001909291908051906020019092919080519060200190929190805190602001909291908051906020019092919080519060200190929190505050909192939495969798509091929394959650909192939450909192505086602001876060018860a0018960e0018a6101000185815250858152508573ffffffffffffffffffffffffffffffffffffffff1673ffffffffffffffffffffffffffffffffffffffff16815250858152508573ffffffffffffffffffffffffffffffffffffffff1673ffffffffffffffffffffffffffffffffffffffff168152505050505050816060015196508161010001518260e00151019550816020015194508160a001519350610b17565b60008989604051602001808381526020018273ffffffffffffffffffffffffffffffffffffffff1660601b81526014019250505060405160208183030381529060405280519060200120905060008054906101000a900473ffffffffffffffffffffffffffffffffffffffff1673ffffffffffffffffffffffffffffffffffffffff16632817b4838b836040518363ffffffff1660e01b8152600401808381526020018281526020019250505060606040518083038186803b1580156107b857600080fd5b505afa1580156107cc573d6000803e3d6000fd5b505050506040513d60608110156107e257600080fd5b810190808051906020019092919080519060200190929190805190602001909291905050508460000185602001866040018315151515815250838152508381525050505060008054906101000a900473ffffffffffffffffffffffffffffffffffffffff1673ffffffffffffffffffffffffffffffffffffffff16631f06c8598b6040518263ffffffff1660e01b8152600401808281526020019150506101406040518083038186803b15801561089857600080fd5b505afa1580156108ac573d6000803e3d6000fd5b505050506040513d6101408110156108c357600080fd5b81019080805190602001909291908051906020019092919080519060200190929190805190602001909291908051906020019092919080519060200190929190805190602001909291908051906020019092919080519060200190929190805190602001909291905050509091929394959697985090919293949550909192939450909150905087602001886040018960a0018a60c0018b6101200185815250856dffffffffffffffffffffffffffff166dffffffffffffffffffffffffffff168152508573ffffffffffffffffffffffffffffffffffffffff1673ffffffffffffffffffffffffffffffffffffffff16815250856dffffffffffffffffffffffffffff166dffffffffffffffffffffffffffff168152508573ffffffffffffffffffffffffffffffffffffffff1673ffffffffffffffffffffffffffffffffffffffff1681525050505050508160200151975060008054906101000a900473ffffffffffffffffffffffffffffffffffffffff1673ffffffffffffffffffffffffffffffffffffffff16638ae9962784604001518560c0015185602001518660000151016040518463ffffffff1660e01b815260040180846dffffffffffffffffffffffffffff168152602001836dffffffffffffffffffffffffffff168152602001828152602001935050505060206040518083038186803b158015610aca57600080fd5b505afa158015610ade573d6000803e3d6000fd5b505050506040513d6020811015610af457600080fd5b810190808051906020019092919050505096508260a00151955082602001519450505b816101200151925050509295509295909350565b6060806060806060600086604051602001808273ffffffffffffffffffffffffffffffffffffffff1660601b815260140191505060405160208183030381529060405280519060200120905060008060009054906101000a900473ffffffffffffffffffffffffffffffffffffffff1673ffffffffffffffffffffffffffffffffffffffff1663a9dbaf25836040518263ffffffff1660e01b81526004018082815260200191505060206040518083038186803b158015610beb57600080fd5b505afa158015610bff573d6000803e3d6000fd5b505050506040513d6020811015610c1557600080fd5b810190808051906020019092919050505090508067ffffffffffffffff81118015610c3f57600080fd5b50604051908082528060200260200182016040528015610c6e5781602001602082028036833780820191505090505b5096508067ffffffffffffffff81118015610c8857600080fd5b50604051908082528060200260200182016040528015610cb75781602001602082028036833780820191505090505b5095508067ffffffffffffffff81118015610cd157600080fd5b50604051908082528060200260200182016040528015610d005781602001602082028036833780820191505090505b5094508067ffffffffffffffff81118015610d1a57600080fd5b50604051908082528060200260200182016040528015610d495781602001602082028036833780820191505090505b5093506002810267ffffffffffffffff81118015610d6657600080fd5b50604051908082528060200260200182016040528015610d955781602001602082028036833780820191505090505b5092506000808390505b82821015610fa957600160009054906101000a900473ffffffffffffffffffffffffffffffffffffffff1673ffffffffffffffffffffffffffffffffffffffff166313d49a8b826040518263ffffffff1660e01b81526004018082815260200191505060606040518083038186803b158015610e1a57600080fd5b505afa158015610e2e573d6000803e3d6000fd5b505050506040513d6060811015610e4457600080fd5b81019080805190602001909291908051906020019092919080519060200190929190505050508a8481518110610e7657fe5b60200260200101818152508192505050610ea3898381518110610e9557fe5b60200260200101518b610366565b8c8781518110610eaf57fe5b602002602001018c8881518110610ec257fe5b602002602001018b60008a11610ed9576000610ede565b60028a025b81518110610ee857fe5b602002602001018c60008b11610eff576001610f07565b600160028c02015b81518110610f1157fe5b602002602001018e8b81518110610f2457fe5b60200260200101858152508573ffffffffffffffffffffffffffffffffffffffff1673ffffffffffffffffffffffffffffffffffffffff168152508573ffffffffffffffffffffffffffffffffffffffff1673ffffffffffffffffffffffffffffffffffffffff16815250858152508581525050505050508180600101925050610d9f565b5050505091939590929450565b604051806101400160405280600073ffffffffffffffffffffffffffffffffffffffff168152602001600073ffffffffffffffffffffffffffffffffffffffff16815260200160006dffffffffffffffffffffffffffff16815260200160008152602001600015158152602001600073ffffffffffffffffffffffffffffffffffffffff16815260200160006dffffffffffffffffffffffffffff1681526020016000815260200160008152602001600081525090565b60405180606001604052806000815260200160008152602001600015158152509056fea2646970667358221220dd8321194e053dfa6327e3a1257b2904ffab7bdc7078209b5a1736eede93e37964736f6c63430007060033",
  "immutableReferences": {},
  "source": "pragma solidity >=0.4.21 <0.8.0;\n\nimport {PromiseCore} from \"../PromiseCore.sol\";\nimport {PromiseChef} from \"./PromiseChef.sol\";\n\ncontract PromiseChefFinder {\n    PromiseCore public promiseCore;\n    PromiseChef public promiseChef;\n\n    struct PromData {\n        address creator;\n        address creatorToken;\n        uint112 creatorAmount;\n        uint256 creatorDebt;\n        bool hasCreatorExecuted;\n        address joinerToken;\n        uint112 joinerAmount;\n        uint256 joinerDebt;\n        uint256 joinerPaidFull;\n        uint256 expirationTimestamp;\n    }\n\n    struct Promjoiners {\n        uint256 amountPaid;\n        uint256 outstandingDebt;\n        bool hasExecuted;\n    }\n\n    struct LinkedList {\n        bytes32 next;\n        uint256 id;\n        bytes32 previous;\n    }\n\n    constructor(PromiseCore _promiseCore, PromiseChef _promiseChef) public {\n        promiseCore = _promiseCore;\n        promiseChef = _promiseChef;\n    }\n\n    function accountPromises(address account)\n        public\n        view\n        returns (\n            uint256[] memory id,\n            uint256[] memory outstandingDebt,\n            uint256[] memory receiving,\n            uint256[] memory expirationTimestamp,\n            address[] memory tokens\n        )\n    {\n        bytes32 listId = keccak256(abi.encodePacked(account));\n        uint256 _length = promiseCore.length(listId);\n\n        id = new uint256[](_length);\n        outstandingDebt = new uint256[](_length);\n        receiving = new uint256[](_length);\n        expirationTimestamp = new uint256[](_length);\n        // tokens array is twice the length because it has 2 entries added every loop\n        tokens = new address[](_length * 2);\n\n        uint256 i;\n        bytes32 index = listId;\n        while (i < _length) {\n            (index, id[i], ) = promiseChef.list(index);\n            (\n                outstandingDebt[i],\n                receiving[i],\n                tokens[i > 0 ? i * 2 : 0],\n                tokens[i > 0 ? (i * 2) + 1 : 1],\n                expirationTimestamp[i]\n            ) = _accountPromises(id[i], account);\n            i++;\n        }\n    }\n\n    function _accountPromises(uint256 id, address account)\n        public\n        view\n        returns (\n            uint256 outstandingDebt,\n            uint256 receiving,\n            address creatorToken,\n            address joinerToken,\n            uint256 expirationTimestamp\n        )\n    {\n        PromData memory p;\n        Promjoiners memory j;\n        (p.creator, , , , , , , , , ) = promiseCore.promises(id);\n        if (p.creator == account) {\n            (, p.creatorToken, , p.creatorDebt, , p.joinerToken, , p.joinerDebt, p.joinerPaidFull, ) = promiseCore\n                .promises(id);\n            outstandingDebt = p.creatorDebt;\n            receiving = p.joinerDebt + p.joinerPaidFull;\n            creatorToken = p.creatorToken;\n            joinerToken = p.joinerToken;\n        } else {\n            bytes32 joinerId = keccak256(abi.encodePacked(id, account));\n            (j.amountPaid, j.outstandingDebt, j.hasExecuted) = promiseCore.joiners(id, joinerId);\n            (\n                ,\n                p.creatorToken,\n                p.creatorAmount,\n                ,\n                ,\n                p.joinerToken,\n                p.joinerAmount,\n                ,\n                ,\n                p.expirationTimestamp\n            ) = promiseCore.promises(id);\n            outstandingDebt = j.outstandingDebt;\n            receiving = promiseCore.divMul(p.creatorAmount, p.joinerAmount, j.amountPaid + j.outstandingDebt);\n            creatorToken = p.joinerToken;\n            joinerToken = p.creatorToken;\n        }\n        expirationTimestamp = p.expirationTimestamp;\n    }\n}\n",
  "sourcePath": "/Users/nanoissuperior/promise-contracts/contracts/farms/PromiseChefFinder.sol",
  "compiler": {
    "name": "solc",
    "version": "0.7.6+commit.7338295f.Emscripten.clang"
  },
  "schemaVersion": "3.2.4",
  "updatedAt": "2021-06-28T14:52:17.070Z",
  "networkType": "ethereum",
  "devdoc": {
    "kind": "dev",
    "methods": {},
    "version": 1
  },
  "userdoc": {
    "kind": "user",
    "methods": {},
    "version": 1
  }
}