{
  "contractName": "PromTest",
  "abi": [
    {
      "inputs": [
        {
          "internalType": "contract IPromiseCore",
          "name": "_promiseCore",
          "type": "address"
        },
        {
          "internalType": "contract IPromiseFinder",
          "name": "_promiseFinder",
          "type": "address"
        },
        {
          "internalType": "address",
          "name": "_t1",
          "type": "address"
        },
        {
          "internalType": "address",
          "name": "_t2",
          "type": "address"
        }
      ],
      "stateMutability": "nonpayable",
      "type": "constructor"
    },
    {
      "anonymous": false,
      "inputs": [
        {
          "indexed": false,
          "internalType": "uint256",
          "name": "outstandingDebt",
          "type": "uint256"
        },
        {
          "indexed": false,
          "internalType": "uint256",
          "name": "projectedOutstandingDebt",
          "type": "uint256"
        }
      ],
      "name": "debtOwed",
      "type": "event"
    },
    {
      "anonymous": false,
      "inputs": [
        {
          "indexed": false,
          "internalType": "uint256",
          "name": "amountToJoin",
          "type": "uint256"
        },
        {
          "indexed": false,
          "internalType": "uint256",
          "name": "amountJoinedWith",
          "type": "uint256"
        }
      ],
      "name": "joinedWith",
      "type": "event"
    },
    {
      "anonymous": false,
      "inputs": [
        {
          "indexed": false,
          "internalType": "uint256",
          "name": "creatorTokenAmount",
          "type": "uint256"
        },
        {
          "indexed": false,
          "internalType": "uint256",
          "name": "joinerTokenAmount",
          "type": "uint256"
        }
      ],
      "name": "leftOver",
      "type": "event"
    },
    {
      "anonymous": false,
      "inputs": [
        {
          "indexed": false,
          "internalType": "uint256",
          "name": "shouldPaidThis",
          "type": "uint256"
        },
        {
          "indexed": false,
          "internalType": "uint256",
          "name": "wasPaidThis",
          "type": "uint256"
        }
      ],
      "name": "paid",
      "type": "event"
    },
    {
      "inputs": [],
      "name": "promiseCore",
      "outputs": [
        {
          "internalType": "contract IPromiseCore",
          "name": "",
          "type": "address"
        }
      ],
      "stateMutability": "view",
      "type": "function"
    },
    {
      "inputs": [],
      "name": "promiseFinder",
      "outputs": [
        {
          "internalType": "contract IPromiseFinder",
          "name": "",
          "type": "address"
        }
      ],
      "stateMutability": "view",
      "type": "function"
    },
    {
      "inputs": [],
      "name": "token1",
      "outputs": [
        {
          "internalType": "address",
          "name": "",
          "type": "address"
        }
      ],
      "stateMutability": "view",
      "type": "function"
    },
    {
      "inputs": [],
      "name": "token2",
      "outputs": [
        {
          "internalType": "address",
          "name": "",
          "type": "address"
        }
      ],
      "stateMutability": "view",
      "type": "function"
    },
    {
      "inputs": [],
      "name": "scenario1",
      "outputs": [],
      "stateMutability": "nonpayable",
      "type": "function"
    },
    {
      "inputs": [],
      "name": "scenario1Execution",
      "outputs": [],
      "stateMutability": "nonpayable",
      "type": "function"
    },
    {
      "inputs": [],
      "name": "scenario2",
      "outputs": [],
      "stateMutability": "nonpayable",
      "type": "function"
    },
    {
      "inputs": [],
      "name": "scenario2Execution",
      "outputs": [],
      "stateMutability": "nonpayable",
      "type": "function"
    },
    {
      "inputs": [],
      "name": "scenario3",
      "outputs": [],
      "stateMutability": "nonpayable",
      "type": "function"
    },
    {
      "inputs": [],
      "name": "scenario3Execution",
      "outputs": [],
      "stateMutability": "nonpayable",
      "type": "function"
    },
    {
      "inputs": [],
      "name": "scenario4",
      "outputs": [],
      "stateMutability": "nonpayable",
      "type": "function"
    },
    {
      "inputs": [],
      "name": "scenario4Execution",
      "outputs": [],
      "stateMutability": "nonpayable",
      "type": "function"
    },
    {
      "inputs": [],
      "name": "scenario5",
      "outputs": [],
      "stateMutability": "nonpayable",
      "type": "function"
    },
    {
      "inputs": [
        {
          "internalType": "address",
          "name": "account",
          "type": "address"
        }
      ],
      "name": "scenario5JoiningAndPaying",
      "outputs": [],
      "stateMutability": "nonpayable",
      "type": "function"
    },
    {
      "inputs": [],
      "name": "scenario5ClosePendingAmount",
      "outputs": [],
      "stateMutability": "nonpayable",
      "type": "function"
    },
    {
      "inputs": [
        {
          "internalType": "address",
          "name": "account",
          "type": "address"
        }
      ],
      "name": "scenario5Execution",
      "outputs": [],
      "stateMutability": "nonpayable",
      "type": "function"
    },
    {
      "inputs": [],
      "name": "scenario5ForCreator",
      "outputs": [],
      "stateMutability": "nonpayable",
      "type": "function"
    },
    {
      "inputs": [],
      "name": "createPromise",
      "outputs": [],
      "stateMutability": "nonpayable",
      "type": "function"
    },
    {
      "inputs": [],
      "name": "createPromise_2",
      "outputs": [],
      "stateMutability": "nonpayable",
      "type": "function"
    },
    {
      "inputs": [
        {
          "internalType": "uint256",
          "name": "id",
          "type": "uint256"
        },
        {
          "internalType": "address",
          "name": "account",
          "type": "address"
        },
        {
          "internalType": "uint112",
          "name": "_amount",
          "type": "uint112"
        }
      ],
      "name": "joinPromise",
      "outputs": [],
      "stateMutability": "nonpayable",
      "type": "function"
    },
    {
      "inputs": [
        {
          "internalType": "uint256",
          "name": "_id",
          "type": "uint256"
        },
        {
          "internalType": "address",
          "name": "account",
          "type": "address"
        }
      ],
      "name": "payPromise",
      "outputs": [],
      "stateMutability": "nonpayable",
      "type": "function"
    },
    {
      "inputs": [
        {
          "internalType": "uint256",
          "name": "_id",
          "type": "uint256"
        },
        {
          "internalType": "address",
          "name": "account",
          "type": "address"
        }
      ],
      "name": "executePromise",
      "outputs": [],
      "stateMutability": "nonpayable",
      "type": "function"
    },
    {
      "inputs": [
        {
          "internalType": "uint256",
          "name": "_id",
          "type": "uint256"
        },
        {
          "internalType": "address",
          "name": "account",
          "type": "address"
        },
        {
          "internalType": "uint256",
          "name": "_outstandingDebt",
          "type": "uint256"
        }
      ],
      "name": "checkAccountPromisesIsCorrect",
      "outputs": [],
      "stateMutability": "nonpayable",
      "type": "function"
    },
    {
      "inputs": [
        {
          "internalType": "uint256",
          "name": "_id",
          "type": "uint256"
        },
        {
          "internalType": "address",
          "name": "account",
          "type": "address"
        }
      ],
      "name": "checkRemovedFromAccountPromises",
      "outputs": [],
      "stateMutability": "view",
      "type": "function"
    },
    {
      "inputs": [
        {
          "internalType": "uint256",
          "name": "_id",
          "type": "uint256"
        }
      ],
      "name": "checkRemovedFromJoinablePromises",
      "outputs": [],
      "stateMutability": "view",
      "type": "function"
    },
    {
      "inputs": [
        {
          "internalType": "uint256",
          "name": "_id",
          "type": "uint256"
        },
        {
          "internalType": "address",
          "name": "account",
          "type": "address"
        }
      ],
      "name": "getReceivingAndOutstandingDebt",
      "outputs": [
        {
          "internalType": "uint256",
          "name": "a",
          "type": "uint256"
        },
        {
          "internalType": "uint256",
          "name": "b",
          "type": "uint256"
        }
      ],
      "stateMutability": "view",
      "type": "function"
    },
    {
      "inputs": [
        {
          "internalType": "uint256",
          "name": "_id",
          "type": "uint256"
        },
        {
          "internalType": "address",
          "name": "_token1",
          "type": "address"
        },
        {
          "internalType": "address",
          "name": "_token2",
          "type": "address"
        },
        {
          "internalType": "uint112",
          "name": "_creatorAmount",
          "type": "uint112"
        },
        {
          "internalType": "uint112",
          "name": "_joinerAmount",
          "type": "uint112"
        }
      ],
      "name": "checkJoinablePromisesIsCorrect",
      "outputs": [],
      "stateMutability": "nonpayable",
      "type": "function"
    },
    {
      "inputs": [
        {
          "internalType": "uint256",
          "name": "_id",
          "type": "uint256"
        },
        {
          "internalType": "address",
          "name": "_token1",
          "type": "address"
        },
        {
          "internalType": "address",
          "name": "_token2",
          "type": "address"
        }
      ],
      "name": "getJoinablePromisesAmounts",
      "outputs": [
        {
          "internalType": "uint256",
          "name": "a",
          "type": "uint256"
        },
        {
          "internalType": "uint256",
          "name": "b",
          "type": "uint256"
        }
      ],
      "stateMutability": "view",
      "type": "function"
    },
    {
      "inputs": [],
      "name": "getRandomNumber",
      "outputs": [
        {
          "internalType": "uint112",
          "name": "",
          "type": "uint112"
        }
      ],
      "stateMutability": "nonpayable",
      "type": "function"
    },
    {
      "inputs": [],
      "name": "randomNumber",
      "outputs": [
        {
          "internalType": "uint112",
          "name": "",
          "type": "uint112"
        }
      ],
      "stateMutability": "view",
      "type": "function"
    },
    {
      "inputs": [],
      "name": "approve",
      "outputs": [],
      "stateMutability": "nonpayable",
      "type": "function"
    },
    {
      "inputs": [
        {
          "internalType": "address",
          "name": "token",
          "type": "address"
        },
        {
          "internalType": "address",
          "name": "account",
          "type": "address"
        }
      ],
      "name": "checkBalance",
      "outputs": [
        {
          "internalType": "uint256",
          "name": "z",
          "type": "uint256"
        }
      ],
      "stateMutability": "view",
      "type": "function"
    },
    {
      "inputs": [],
      "name": "hasLeftOver",
      "outputs": [],
      "stateMutability": "nonpayable",
      "type": "function"
    }
  ],
  "bytecode": "0x6080604052730a098eda01ce92ff4a4ccb7a4fffb5a43ebc70dc600560006101000a81548173ffffffffffffffffffffffffffffffffffffffff021916908373ffffffffffffffffffffffffffffffffffffffff16021790555073ab8483f64d9c6d1ecf9b849ae677dd3315835cb2600660006101000a81548173ffffffffffffffffffffffffffffffffffffffff021916908373ffffffffffffffffffffffffffffffffffffffff1602179055503480156100ba57600080fd5b5060405162004f0538038062004f05833981810160405260808110156100df57600080fd5b810190808051906020019092919080519060200190929190805190602001909291908051906020019092919050505083600360006101000a81548173ffffffffffffffffffffffffffffffffffffffff021916908373ffffffffffffffffffffffffffffffffffffffff16021790555082600460006101000a81548173ffffffffffffffffffffffffffffffffffffffff021916908373ffffffffffffffffffffffffffffffffffffffff16021790555081600160006101000a81548173ffffffffffffffffffffffffffffffffffffffff021916908373ffffffffffffffffffffffffffffffffffffffff16021790555080600260006101000a81548173ffffffffffffffffffffffffffffffffffffffff021916908373ffffffffffffffffffffffffffffffffffffffff16021790555050505050614cdf80620002266000396000f3fe608060405234801561001057600080fd5b50600436106101fb5760003560e01c80636e73b2e81161011a578063ccbac9f5116100ad578063d61693ae1161007c578063d61693ae146106f1578063dbdff2c11461073f578063e6a91f9f1461076d578063ee7d1e1014610777578063f642ec5a146107a5576101fb565b8063ccbac9f514610641578063d1448b8c1461066f578063d21220a7146106b3578063d217e183146106e7576101fb565b80639ec7ed31116100e95780639ec7ed3114610591578063ada8b2a41461059b578063c13ce392146105cf578063c5dec70414610637576101fb565b80636e73b2e81461049c578063779c9604146104a657806377b76ec31461050f578063896c59fb14610587576101fb565b80633355477c116101925780635446eedf116101615780635446eedf146103f6578063551fdf9c14610400578063627cf4741461040a57806368626ad214610458576101fb565b80633355477c146103605780633bb260bd1461036a57806351c324f41461039e578063530222af146103a8576101fb565b806316e256b8116101ce57806316e256b8146102c057806318f33ab014610318578063193d2dfa1461032257806325be124e1461032c576101fb565b80630653fa911461020057806306633a91146102a257806312424e3f146102ac5780631400c773146102b6575b600080fd5b6102a0600480360360a081101561021657600080fd5b8101908080359060200190929190803573ffffffffffffffffffffffffffffffffffffffff169060200190929190803573ffffffffffffffffffffffffffffffffffffffff16906020019092919080356dffffffffffffffffffffffffffff16906020019092919080356dffffffffffffffffffffffffffff16906020019092919050505061082e565b005b6102aa610c8f565b005b6102b4610df5565b005b6102be611019565b005b610316600480360360608110156102d657600080fd5b8101908080359060200190929190803573ffffffffffffffffffffffffffffffffffffffff16906020019092919080359060200190929190505050611027565b005b61032061154b565b005b61032a611587565b005b6103346115f1565b604051808273ffffffffffffffffffffffffffffffffffffffff16815260200191505060405180910390f35b610368611617565b005b6103726116ec565b604051808273ffffffffffffffffffffffffffffffffffffffff16815260200191505060405180910390f35b6103a6611712565b005b6103f4600480360360408110156103be57600080fd5b8101908080359060200190929190803573ffffffffffffffffffffffffffffffffffffffff169060200190929190505050611c1a565b005b6103fe612065565b005b61040861256d565b005b6104566004803603604081101561042057600080fd5b8101908080359060200190929190803573ffffffffffffffffffffffffffffffffffffffff169060200190929190505050612577565b005b61049a6004803603602081101561046e57600080fd5b81019080803573ffffffffffffffffffffffffffffffffffffffff169060200190929190505050612b03565b005b6104a4612b12565b005b6104f2600480360360408110156104bc57600080fd5b8101908080359060200190929190803573ffffffffffffffffffffffffffffffffffffffff169060200190929190505050612b4e565b604051808381526020018281526020019250505060405180910390f35b6105716004803603604081101561052557600080fd5b81019080803573ffffffffffffffffffffffffffffffffffffffff169060200190929190803573ffffffffffffffffffffffffffffffffffffffff169060200190929190505050612fe6565b6040518082815260200191505060405180910390f35b61058f613092565b005b6105996130fc565b005b6105a361318d565b604051808273ffffffffffffffffffffffffffffffffffffffff16815260200191505060405180910390f35b610635600480360360608110156105e557600080fd5b8101908080359060200190929190803573ffffffffffffffffffffffffffffffffffffffff16906020019092919080356dffffffffffffffffffffffffffff1690602001909291905050506131b3565b005b61063f6134c6565b005b610649613643565b60405180826dffffffffffffffffffffffffffff16815260200191505060405180910390f35b6106b16004803603602081101561068557600080fd5b81019080803573ffffffffffffffffffffffffffffffffffffffff169060200190929190505050613757565b005b6106bb613850565b604051808273ffffffffffffffffffffffffffffffffffffffff16815260200191505060405180910390f35b6106ef613876565b005b61073d6004803603604081101561070757600080fd5b8101908080359060200190929190803573ffffffffffffffffffffffffffffffffffffffff1690602001909291905050506139ae565b005b610747614048565b60405180826dffffffffffffffffffffffffffff16815260200191505060405180910390f35b6107756140b5565b005b6107a36004803603602081101561078d57600080fd5b810190808035906020019092919050505061420f565b005b610811600480360360608110156107bb57600080fd5b8101908080359060200190929190803573ffffffffffffffffffffffffffffffffffffffff169060200190929190803573ffffffffffffffffffffffffffffffffffffffff169060200190929190505050614690565b604051808381526020018281526020019250505060405180910390f35b6060806060600460009054906101000a900473ffffffffffffffffffffffffffffffffffffffff1673ffffffffffffffffffffffffffffffffffffffff1663bda8335e8888600854600960009054906101000a90046dffffffffffffffffffffffffffff166009600e9054906101000a90046dffffffffffffffffffffffffffff166040518663ffffffff1660e01b8152600401808673ffffffffffffffffffffffffffffffffffffffff1681526020018573ffffffffffffffffffffffffffffffffffffffff168152602001848152602001836dffffffffffffffffffffffffffff168152602001826dffffffffffffffffffffffffffff1681526020019550505050505060006040518083038186803b15801561094c57600080fd5b505afa158015610960573d6000803e3d6000fd5b505050506040513d6000823e3d601f19601f82011682018060405250608081101561098a57600080fd5b81019080805160405193929190846401000000008211156109aa57600080fd5b838201915060208201858111156109c057600080fd5b82518660208202830111640100000000821117156109dd57600080fd5b8083526020830192505050908051906020019060200280838360005b83811015610a145780820151818401526020810190506109f9565b5050505090500160405260200180516040519392919084640100000000821115610a3d57600080fd5b83820191506020820185811115610a5357600080fd5b8251866020820283011164010000000082111715610a7057600080fd5b8083526020830192505050908051906020019060200280838360005b83811015610aa7578082015181840152602081019050610a8c565b5050505090500160405260200180516040519392919084640100000000821115610ad057600080fd5b83820191506020820185811115610ae657600080fd5b8251866020820283011164010000000082111715610b0357600080fd5b8083526020830192505050908051906020019060200280838360005b83811015610b3a578082015181840152602081019050610b1f565b5050505090500160405260200180516040519392919084640100000000821115610b6357600080fd5b83820191506020820185811115610b7957600080fd5b8251866020820283011164010000000082111715610b9657600080fd5b8083526020830192505050908051906020019060200280838360005b83811015610bcd578082015181840152602081019050610bb2565b505050509050016040525050509091509050508093505060005b838181518110610bf357fe5b60200260200101518914610c8457808060010191505060288110610c7f576040517f08c379a00000000000000000000000000000000000000000000000000000000081526004018080602001828103825260208152602001807f4944206e6f7420666f756e6420696e206163636f756e742070726f6d6973657381525060200191505060405180910390fd5b610be7565b505050505050505050565b610c97610df5565b610c9f612065565b6000610cf2600754600160009054906101000a900473ffffffffffffffffffffffffffffffffffffffff16600260009054906101000a900473ffffffffffffffffffffffffffffffffffffffff16614690565b905080915050610d41600754600560009054906101000a900473ffffffffffffffffffffffffffffffffffffffff166003846dffffffffffffffffffffffffffff1681610d3b57fe5b046131b3565b610d8a600754600660009054906101000a900473ffffffffffffffffffffffffffffffffffffffff166005846dffffffffffffffffffffffffffff1681610d8457fe5b046131b3565b610d9660075430612577565b610dc4600754600560009054906101000a900473ffffffffffffffffffffffffffffffffffffffff16612577565b610df2600754600660009054906101000a900473ffffffffffffffffffffffffffffffffffffffff16612577565b50565b600160009054906101000a900473ffffffffffffffffffffffffffffffffffffffff1673ffffffffffffffffffffffffffffffffffffffff1663095ea7b3600360009054906101000a900473ffffffffffffffffffffffffffffffffffffffff167fffffffffffffffffffffffffffffffffffffffffffffffffffffffffffffffff6040518363ffffffff1660e01b8152600401808373ffffffffffffffffffffffffffffffffffffffff16815260200182815260200192505050602060405180830381600087803b158015610eca57600080fd5b505af1158015610ede573d6000803e3d6000fd5b505050506040513d6020811015610ef457600080fd5b810190808051906020019092919050505050600260009054906101000a900473ffffffffffffffffffffffffffffffffffffffff1673ffffffffffffffffffffffffffffffffffffffff1663095ea7b3600360009054906101000a900473ffffffffffffffffffffffffffffffffffffffff167fffffffffffffffffffffffffffffffffffffffffffffffffffffffffffffffff6040518363ffffffff1660e01b8152600401808373ffffffffffffffffffffffffffffffffffffffff16815260200182815260200192505050602060405180830381600087803b158015610fdb57600080fd5b505af1158015610fef573d6000803e3d6000fd5b505050506040513d602081101561100557600080fd5b810190808051906020019092919050505050565b611025600754306139ae565b565b6060806060600460009054906101000a900473ffffffffffffffffffffffffffffffffffffffff1673ffffffffffffffffffffffffffffffffffffffff1663b9d4ac1a866040518263ffffffff1660e01b8152600401808273ffffffffffffffffffffffffffffffffffffffff16815260200191505060006040518083038186803b1580156110b557600080fd5b505afa1580156110c9573d6000803e3d6000fd5b505050506040513d6000823e3d601f19601f8201168201806040525060a08110156110f357600080fd5b810190808051604051939291908464010000000082111561111357600080fd5b8382019150602082018581111561112957600080fd5b825186602082028301116401000000008211171561114657600080fd5b8083526020830192505050908051906020019060200280838360005b8381101561117d578082015181840152602081019050611162565b50505050905001604052602001805160405193929190846401000000008211156111a657600080fd5b838201915060208201858111156111bc57600080fd5b82518660208202830111640100000000821117156111d957600080fd5b8083526020830192505050908051906020019060200280838360005b838110156112105780820151818401526020810190506111f5565b505050509050016040526020018051604051939291908464010000000082111561123957600080fd5b8382019150602082018581111561124f57600080fd5b825186602082028301116401000000008211171561126c57600080fd5b8083526020830192505050908051906020019060200280838360005b838110156112a3578082015181840152602081019050611288565b50505050905001604052602001805160405193929190846401000000008211156112cc57600080fd5b838201915060208201858111156112e257600080fd5b82518660208202830111640100000000821117156112ff57600080fd5b8083526020830192505050908051906020019060200280838360005b8381101561133657808201518184015260208101905061131b565b505050509050016040526020018051604051939291908464010000000082111561135f57600080fd5b8382019150602082018581111561137557600080fd5b825186602082028301116401000000008211171561139257600080fd5b8083526020830192505050908051906020019060200280838360005b838110156113c95780820151818401526020810190506113ae565b5050505090500160405250505090505080945081935082955050505060005b8381815181106113f457fe5b6020026020010151871461148557808060010191505060288110611480576040517f08c379a00000000000000000000000000000000000000000000000000000000081526004018080602001828103825260208152602001807f4944206e6f7420666f756e6420696e206163636f756e742070726f6d6973657381525060200191505060405180910390fd5b6113e8565b7ffcb3c0e863979bdadc5e0da967e37c1942eeb49219ace81573ec78dcf406bebf8282815181106114b257fe5b602002602001015186604051808381526020018281526020019250505060405180910390a1848282815181106114e457fe5b602002602001015114611542576040517f08c379a0000000000000000000000000000000000000000000000000000000008152600401808060200182810382526031815260200180614c2a6031913960400191505060405180910390fd5b50505050505050565b611557600754306139ae565b611585600754600660009054906101000a900473ffffffffffffffffffffffffffffffffffffffff166139ae565b565b611593600754306139ae565b6115c1600754600560009054906101000a900473ffffffffffffffffffffffffffffffffffffffff166139ae565b6115ef600754600660009054906101000a900473ffffffffffffffffffffffffffffffffffffffff166139ae565b565b600260009054906101000a900473ffffffffffffffffffffffffffffffffffffffff1681565b61161f610df5565b611627612065565b600061167a600754600160009054906101000a900473ffffffffffffffffffffffffffffffffffffffff16600260009054906101000a900473ffffffffffffffffffffffffffffffffffffffff16614690565b9050809150506116af600754600560009054906101000a900473ffffffffffffffffffffffffffffffffffffffff16836131b3565b6116bb60075430612577565b6116e9600754600560009054906101000a900473ffffffffffffffffffffffffffffffffffffffff16612577565b50565b600360009054906101000a900473ffffffffffffffffffffffffffffffffffffffff1681565b61171a610df5565b6000611724614048565b90506000611730614048565b90506000600160009054906101000a900473ffffffffffffffffffffffffffffffffffffffff1673ffffffffffffffffffffffffffffffffffffffff166370a08231306040518263ffffffff1660e01b8152600401808273ffffffffffffffffffffffffffffffffffffffff16815260200191505060206040518083038186803b1580156117bd57600080fd5b505afa1580156117d1573d6000803e3d6000fd5b505050506040513d60208110156117e757600080fd5b81019080805190602001909291905050509050600360009054906101000a900473ffffffffffffffffffffffffffffffffffffffff1673ffffffffffffffffffffffffffffffffffffffff1663e2d638d430600160009054906101000a900473ffffffffffffffffffffffffffffffffffffffff1686600260009054906101000a900473ffffffffffffffffffffffffffffffffffffffff16876207e90042016040518763ffffffff1660e01b8152600401808773ffffffffffffffffffffffffffffffffffffffff1681526020018673ffffffffffffffffffffffffffffffffffffffff168152602001856dffffffffffffffffffffffffffff1681526020018473ffffffffffffffffffffffffffffffffffffffff168152602001836dffffffffffffffffffffffffffff1681526020018281526020019650505050505050600060405180830381600087803b15801561194257600080fd5b505af1158015611956573d6000803e3d6000fd5b505050506000600160009054906101000a900473ffffffffffffffffffffffffffffffffffffffff1673ffffffffffffffffffffffffffffffffffffffff166370a08231306040518263ffffffff1660e01b8152600401808273ffffffffffffffffffffffffffffffffffffffff16815260200191505060206040518083038186803b1580156119e557600080fd5b505afa1580156119f9573d6000803e3d6000fd5b505050506040513d6020811015611a0f57600080fd5b810190808051906020019092919050505090506002846dffffffffffffffffffffffffffff1681611a3c57fe5b046dffffffffffffffffffffffffffff1681830314611aa6576040517f08c379a0000000000000000000000000000000000000000000000000000000008152600401808060200182810382526022815260200180614c086022913960400191505060405180910390fd5b6007600081548092919060010191905055506207e900420160088190555083600960006101000a8154816dffffffffffffffffffffffffffff02191690836dffffffffffffffffffffffffffff160217905550826009600e6101000a8154816dffffffffffffffffffffffffffff02191690836dffffffffffffffffffffffffffff160217905550600a6007549080600181540180825580915050600190039060005260206000200160009091909190915055611b90600754306002876dffffffffffffffffffffffffffff1681611b7a57fe5b046dffffffffffffffffffffffffffff16611027565b6002846dffffffffffffffffffffffffffff1681611baa57fe5b046dffffffffffffffffffffffffffff16600b81905550611c14600754600160009054906101000a900473ffffffffffffffffffffffffffffffffffffffff16600260009054906101000a900473ffffffffffffffffffffffffffffffffffffffff16878761082e565b50505050565b6060806060600460009054906101000a900473ffffffffffffffffffffffffffffffffffffffff1673ffffffffffffffffffffffffffffffffffffffff1663b9d4ac1a856040518263ffffffff1660e01b8152600401808273ffffffffffffffffffffffffffffffffffffffff16815260200191505060006040518083038186803b158015611ca857600080fd5b505afa158015611cbc573d6000803e3d6000fd5b505050506040513d6000823e3d601f19601f8201168201806040525060a0811015611ce657600080fd5b8101908080516040519392919084640100000000821115611d0657600080fd5b83820191506020820185811115611d1c57600080fd5b8251866020820283011164010000000082111715611d3957600080fd5b8083526020830192505050908051906020019060200280838360005b83811015611d70578082015181840152602081019050611d55565b5050505090500160405260200180516040519392919084640100000000821115611d9957600080fd5b83820191506020820185811115611daf57600080fd5b8251866020820283011164010000000082111715611dcc57600080fd5b8083526020830192505050908051906020019060200280838360005b83811015611e03578082015181840152602081019050611de8565b5050505090500160405260200180516040519392919084640100000000821115611e2c57600080fd5b83820191506020820185811115611e4257600080fd5b8251866020820283011164010000000082111715611e5f57600080fd5b8083526020830192505050908051906020019060200280838360005b83811015611e96578082015181840152602081019050611e7b565b5050505090500160405260200180516040519392919084640100000000821115611ebf57600080fd5b83820191506020820185811115611ed557600080fd5b8251866020820283011164010000000082111715611ef257600080fd5b8083526020830192505050908051906020019060200280838360005b83811015611f29578082015181840152602081019050611f0e565b5050505090500160405260200180516040519392919084640100000000821115611f5257600080fd5b83820191506020820185811115611f6857600080fd5b8251866020820283011164010000000082111715611f8557600080fd5b8083526020830192505050908051906020019060200280838360005b83811015611fbc578082015181840152602081019050611fa1565b5050505090500160405250505090505080945081935082955050505060005b835181101561205d57838181518110611ff057fe5b6020026020010151861415612050576040517f08c379a000000000000000000000000000000000000000000000000000000000815260040180806020018281038252602c815260200180614b25602c913960400191505060405180910390fd5b8080600101915050611fdb565b505050505050565b61206d610df5565b6000612077614048565b90506000612083614048565b90506000600160009054906101000a900473ffffffffffffffffffffffffffffffffffffffff1673ffffffffffffffffffffffffffffffffffffffff166370a08231306040518263ffffffff1660e01b8152600401808273ffffffffffffffffffffffffffffffffffffffff16815260200191505060206040518083038186803b15801561211057600080fd5b505afa158015612124573d6000803e3d6000fd5b505050506040513d602081101561213a57600080fd5b81019080805190602001909291905050509050600360009054906101000a900473ffffffffffffffffffffffffffffffffffffffff1673ffffffffffffffffffffffffffffffffffffffff1663e2d638d430600160009054906101000a900473ffffffffffffffffffffffffffffffffffffffff1686600260009054906101000a900473ffffffffffffffffffffffffffffffffffffffff16876206978042016040518763ffffffff1660e01b8152600401808773ffffffffffffffffffffffffffffffffffffffff1681526020018673ffffffffffffffffffffffffffffffffffffffff168152602001856dffffffffffffffffffffffffffff1681526020018473ffffffffffffffffffffffffffffffffffffffff168152602001836dffffffffffffffffffffffffffff1681526020018281526020019650505050505050600060405180830381600087803b15801561229557600080fd5b505af11580156122a9573d6000803e3d6000fd5b505050506000600160009054906101000a900473ffffffffffffffffffffffffffffffffffffffff1673ffffffffffffffffffffffffffffffffffffffff166370a08231306040518263ffffffff1660e01b8152600401808273ffffffffffffffffffffffffffffffffffffffff16815260200191505060206040518083038186803b15801561233857600080fd5b505afa15801561234c573d6000803e3d6000fd5b505050506040513d602081101561236257600080fd5b810190808051906020019092919050505090506002846dffffffffffffffffffffffffffff168161238f57fe5b046dffffffffffffffffffffffffffff16818303146123f9576040517f08c379a0000000000000000000000000000000000000000000000000000000008152600401808060200182810382526022815260200180614c086022913960400191505060405180910390fd5b60076000815480929190600101919050555062069780420160088190555083600960006101000a8154816dffffffffffffffffffffffffffff02191690836dffffffffffffffffffffffffffff160217905550826009600e6101000a8154816dffffffffffffffffffffffffffff02191690836dffffffffffffffffffffffffffff160217905550600a60075490806001815401808255809150506001900390600052602060002001600090919091909150556124e3600754306002876dffffffffffffffffffffffffffff16816124cd57fe5b046dffffffffffffffffffffffffffff16611027565b6002846dffffffffffffffffffffffffffff16816124fd57fe5b046dffffffffffffffffffffffffffff16600b81905550612567600754600160009054906101000a900473ffffffffffffffffffffffffffffffffffffffff16600260009054906101000a900473ffffffffffffffffffffffffffffffffffffffff16878761082e565b50505050565b612575612065565b565b60008060006125868585612b4e565b9050809150503073ffffffffffffffffffffffffffffffffffffffff168473ffffffffffffffffffffffffffffffffffffffff16141561285e57600160009054906101000a900473ffffffffffffffffffffffffffffffffffffffff1673ffffffffffffffffffffffffffffffffffffffff166370a08231306040518263ffffffff1660e01b8152600401808273ffffffffffffffffffffffffffffffffffffffff16815260200191505060206040518083038186803b15801561264957600080fd5b505afa15801561265d573d6000803e3d6000fd5b505050506040513d602081101561267357600080fd5b81019080805190602001909291905050509250600360009054906101000a900473ffffffffffffffffffffffffffffffffffffffff1673ffffffffffffffffffffffffffffffffffffffff1663627cf47486866040518363ffffffff1660e01b8152600401808381526020018273ffffffffffffffffffffffffffffffffffffffff16815260200192505050600060405180830381600087803b15801561271957600080fd5b505af115801561272d573d6000803e3d6000fd5b50505050600160009054906101000a900473ffffffffffffffffffffffffffffffffffffffff1673ffffffffffffffffffffffffffffffffffffffff166370a08231306040518263ffffffff1660e01b8152600401808273ffffffffffffffffffffffffffffffffffffffff16815260200191505060206040518083038186803b1580156127ba57600080fd5b505afa1580156127ce573d6000803e3d6000fd5b505050506040513d60208110156127e457600080fd5b810190808051906020019092919050505091508183038114612851576040517f08c379a000000000000000000000000000000000000000000000000000000000815260040180806020018281038252602f815260200180614b7e602f913960400191505060405180910390fd5b6000600b81905550612af0565b600260009054906101000a900473ffffffffffffffffffffffffffffffffffffffff1673ffffffffffffffffffffffffffffffffffffffff166370a08231306040518263ffffffff1660e01b8152600401808273ffffffffffffffffffffffffffffffffffffffff16815260200191505060206040518083038186803b1580156128e757600080fd5b505afa1580156128fb573d6000803e3d6000fd5b505050506040513d602081101561291157600080fd5b81019080805190602001909291905050509250600360009054906101000a900473ffffffffffffffffffffffffffffffffffffffff1673ffffffffffffffffffffffffffffffffffffffff1663627cf47486866040518363ffffffff1660e01b8152600401808381526020018273ffffffffffffffffffffffffffffffffffffffff16815260200192505050600060405180830381600087803b1580156129b757600080fd5b505af11580156129cb573d6000803e3d6000fd5b50505050600260009054906101000a900473ffffffffffffffffffffffffffffffffffffffff1673ffffffffffffffffffffffffffffffffffffffff166370a08231306040518263ffffffff1660e01b8152600401808273ffffffffffffffffffffffffffffffffffffffff16815260200191505060206040518083038186803b158015612a5857600080fd5b505afa158015612a6c573d6000803e3d6000fd5b505050506040513d6020811015612a8257600080fd5b810190808051906020019092919050505091508183038114612aef576040517f08c379a000000000000000000000000000000000000000000000000000000000815260040180806020018281038252602e815260200180614c5b602e913960400191505060405180910390fd5b5b612afc85856000611027565b5050505050565b612b0f600754826139ae565b50565b612b1e600754306139ae565b612b4c600754600560009054906101000a900473ffffffffffffffffffffffffffffffffffffffff166139ae565b565b6000806060806060600460009054906101000a900473ffffffffffffffffffffffffffffffffffffffff1673ffffffffffffffffffffffffffffffffffffffff1663b9d4ac1a876040518263ffffffff1660e01b8152600401808273ffffffffffffffffffffffffffffffffffffffff16815260200191505060006040518083038186803b158015612bdf57600080fd5b505afa158015612bf3573d6000803e3d6000fd5b505050506040513d6000823e3d601f19601f8201168201806040525060a0811015612c1d57600080fd5b8101908080516040519392919084640100000000821115612c3d57600080fd5b83820191506020820185811115612c5357600080fd5b8251866020820283011164010000000082111715612c7057600080fd5b8083526020830192505050908051906020019060200280838360005b83811015612ca7578082015181840152602081019050612c8c565b5050505090500160405260200180516040519392919084640100000000821115612cd057600080fd5b83820191506020820185811115612ce657600080fd5b8251866020820283011164010000000082111715612d0357600080fd5b8083526020830192505050908051906020019060200280838360005b83811015612d3a578082015181840152602081019050612d1f565b5050505090500160405260200180516040519392919084640100000000821115612d6357600080fd5b83820191506020820185811115612d7957600080fd5b8251866020820283011164010000000082111715612d9657600080fd5b8083526020830192505050908051906020019060200280838360005b83811015612dcd578082015181840152602081019050612db2565b5050505090500160405260200180516040519392919084640100000000821115612df657600080fd5b83820191506020820185811115612e0c57600080fd5b8251866020820283011164010000000082111715612e2957600080fd5b8083526020830192505050908051906020019060200280838360005b83811015612e60578082015181840152602081019050612e45565b5050505090500160405260200180516040519392919084640100000000821115612e8957600080fd5b83820191506020820185811115612e9f57600080fd5b8251866020820283011164010000000082111715612ebc57600080fd5b8083526020830192505050908051906020019060200280838360005b83811015612ef3578082015181840152602081019050612ed8565b5050505090500160405250505090505080945081935082955050505060005b838181518110612f1e57fe5b60200260200101518814612faf57808060010191505060288110612faa576040517f08c379a000000000000000000000000000000000000000000000000000000000815260040180806020018281038252601f8152602001807f50726f6d697365206e6f7420696e206163636f756e742070726f6d697365730081525060200191505060405180910390fd5b612f12565b828181518110612fbb57fe5b60200260200101519550818181518110612fd157fe5b60200260200101519450505050509250929050565b60008273ffffffffffffffffffffffffffffffffffffffff166370a08231836040518263ffffffff1660e01b8152600401808273ffffffffffffffffffffffffffffffffffffffff16815260200191505060206040518083038186803b15801561304f57600080fd5b505afa158015613063573d6000803e3d6000fd5b505050506040513d602081101561307957600080fd5b8101908080519060200190929190505050905092915050565b6130c0600754600560009054906101000a900473ffffffffffffffffffffffffffffffffffffffff166139ae565b6130ee600754600660009054906101000a900473ffffffffffffffffffffffffffffffffffffffff166139ae565b6130fa600754306139ae565b565b600360009054906101000a900473ffffffffffffffffffffffffffffffffffffffff1673ffffffffffffffffffffffffffffffffffffffff166345ac5e026007546040518263ffffffff1660e01b815260040180828152602001915050600060405180830381600087803b15801561317357600080fd5b505af1158015613187573d6000803e3d6000fd5b50505050565b600460009054906101000a900473ffffffffffffffffffffffffffffffffffffffff1681565b6000600260009054906101000a900473ffffffffffffffffffffffffffffffffffffffff1673ffffffffffffffffffffffffffffffffffffffff166370a08231306040518263ffffffff1660e01b8152600401808273ffffffffffffffffffffffffffffffffffffffff16815260200191505060206040518083038186803b15801561323e57600080fd5b505afa158015613252573d6000803e3d6000fd5b505050506040513d602081101561326857600080fd5b81019080805190602001909291905050509050600360009054906101000a900473ffffffffffffffffffffffffffffffffffffffff1673ffffffffffffffffffffffffffffffffffffffff1663c13ce3928585856040518463ffffffff1660e01b8152600401808481526020018373ffffffffffffffffffffffffffffffffffffffff168152602001826dffffffffffffffffffffffffffff1681526020019350505050600060405180830381600087803b15801561332657600080fd5b505af115801561333a573d6000803e3d6000fd5b505050506000600260009054906101000a900473ffffffffffffffffffffffffffffffffffffffff1673ffffffffffffffffffffffffffffffffffffffff166370a08231306040518263ffffffff1660e01b8152600401808273ffffffffffffffffffffffffffffffffffffffff16815260200191505060206040518083038186803b1580156133c957600080fd5b505afa1580156133dd573d6000803e3d6000fd5b505050506040513d60208110156133f357600080fd5b810190808051906020019092919050505090506002836dffffffffffffffffffffffffffff168161342057fe5b046dffffffffffffffffffffffffffff168183031461348a576040517f08c379a0000000000000000000000000000000000000000000000000000000008152600401808060200182810382526021815260200180614c896021913960400191505060405180910390fd5b6134bf85856002866dffffffffffffffffffffffffffff16816134a957fe5b046dffffffffffffffffffffffffffff16611027565b5050505050565b6000613516600260009054906101000a900473ffffffffffffffffffffffffffffffffffffffff16600360009054906101000a900473ffffffffffffffffffffffffffffffffffffffff16612fe6565b613564600160009054906101000a900473ffffffffffffffffffffffffffffffffffffffff16600360009054906101000a900473ffffffffffffffffffffffffffffffffffffffff16612fe6565b0190507f0c5fcf17127b1ca91c702f07c1dec069f7edd02cd987971498858486a04aab356135d6600160009054906101000a900473ffffffffffffffffffffffffffffffffffffffff16600360009054906101000a900473ffffffffffffffffffffffffffffffffffffffff16612fe6565b613624600260009054906101000a900473ffffffffffffffffffffffffffffffffffffffff16600360009054906101000a900473ffffffffffffffffffffffffffffffffffffffff16612fe6565b604051808381526020018281526020019250505060405180910390a150565b60008060214260008054906101000a90046dffffffffffffffffffffffffffff1660405160200180838152602001826dffffffffffffffffffffffffffff1660901b8152600e01925050506040516020818303038152906040528051906020012060001c816136ae57fe5b0690506000603c6002420260008054906101000a90046dffffffffffffffffffffffffffff1660405160200180838152602001826dffffffffffffffffffffffffffff1660901b8152600e01925050506040516020818303038152906040528051906020012060001c8161371e57fe5b06905060008183901b90506064816dffffffffffffffffffffffffffff16101561374e57670de0b6b3a764000090505b80935050505090565b60006137aa600754600160009054906101000a900473ffffffffffffffffffffffffffffffffffffffff16600260009054906101000a900473ffffffffffffffffffffffffffffffffffffffff16614690565b9050809150506137d7600754836064846dffffffffffffffffffffffffffff16816137d157fe5b046131b3565b7fae2deb3be965deb85c39cabced403ebee4f32bfceb531252447c7f705dc88491816064836dffffffffffffffffffffffffffff168161381357fe5b0460405180838152602001826dffffffffffffffffffffffffffff1681526020019250505060405180910390a161384c60075483612577565b5050565b600160009054906101000a900473ffffffffffffffffffffffffffffffffffffffff1681565b61387e610df5565b613886612065565b60006138d9600754600160009054906101000a900473ffffffffffffffffffffffffffffffffffffffff16600260009054906101000a900473ffffffffffffffffffffffffffffffffffffffff16614690565b905080915050613928600754600560009054906101000a900473ffffffffffffffffffffffffffffffffffffffff16600a846dffffffffffffffffffffffffffff168161392257fe5b046131b3565b613971600754600660009054906101000a900473ffffffffffffffffffffffffffffffffffffffff166007846dffffffffffffffffffffffffffff168161396b57fe5b046131b3565b61397d60075430612577565b6139ab600754600660009054906101000a900473ffffffffffffffffffffffffffffffffffffffff16612577565b50565b60008060006139bd8585612b4e565b50809150503073ffffffffffffffffffffffffffffffffffffffff168473ffffffffffffffffffffffffffffffffffffffff161415613d1457600260009054906101000a900473ffffffffffffffffffffffffffffffffffffffff1673ffffffffffffffffffffffffffffffffffffffff166370a08231856040518263ffffffff1660e01b8152600401808273ffffffffffffffffffffffffffffffffffffffff16815260200191505060206040518083038186803b158015613a7f57600080fd5b505afa158015613a93573d6000803e3d6000fd5b505050506040513d6020811015613aa957600080fd5b81019080805190602001909291905050509250600360009054906101000a900473ffffffffffffffffffffffffffffffffffffffff1673ffffffffffffffffffffffffffffffffffffffff1663d61693ae86866040518363ffffffff1660e01b8152600401808381526020018273ffffffffffffffffffffffffffffffffffffffff16815260200192505050600060405180830381600087803b158015613b4f57600080fd5b505af1158015613b63573d6000803e3d6000fd5b50505050600260009054906101000a900473ffffffffffffffffffffffffffffffffffffffff1673ffffffffffffffffffffffffffffffffffffffff166370a08231856040518263ffffffff1660e01b8152600401808273ffffffffffffffffffffffffffffffffffffffff16815260200191505060206040518083038186803b158015613bf057600080fd5b505afa158015613c04573d6000803e3d6000fd5b505050506040513d6020811015613c1a57600080fd5b8101908080519060200190929190505050915060008383036127106032840281613c4057fe5b04830311905060008484036127106032850281613c5957fe5b0484031090508115613cb6576040517f08c379a000000000000000000000000000000000000000000000000000000000815260040180806020018281038252602d815260200180614b51602d913960400191505060405180910390fd5b8015613d0d576040517f08c379a000000000000000000000000000000000000000000000000000000000815260040180806020018281038252602e815260200180614bad602e913960400191505060405180910390fd5b505061402e565b600160009054906101000a900473ffffffffffffffffffffffffffffffffffffffff1673ffffffffffffffffffffffffffffffffffffffff166370a08231856040518263ffffffff1660e01b8152600401808273ffffffffffffffffffffffffffffffffffffffff16815260200191505060206040518083038186803b158015613d9d57600080fd5b505afa158015613db1573d6000803e3d6000fd5b505050506040513d6020811015613dc757600080fd5b81019080805190602001909291905050509250600360009054906101000a900473ffffffffffffffffffffffffffffffffffffffff1673ffffffffffffffffffffffffffffffffffffffff1663d61693ae86866040518363ffffffff1660e01b8152600401808381526020018273ffffffffffffffffffffffffffffffffffffffff16815260200192505050600060405180830381600087803b158015613e6d57600080fd5b505af1158015613e81573d6000803e3d6000fd5b50505050600160009054906101000a900473ffffffffffffffffffffffffffffffffffffffff1673ffffffffffffffffffffffffffffffffffffffff166370a08231856040518263ffffffff1660e01b8152600401808273ffffffffffffffffffffffffffffffffffffffff16815260200191505060206040518083038186803b158015613f0e57600080fd5b505afa158015613f22573d6000803e3d6000fd5b505050506040513d6020811015613f3857600080fd5b8101908080519060200190929190505050915060008383036127106032840281613f5e57fe5b04830311905060008484036127106032850281613f7757fe5b0484031090508115613fd4576040517f08c379a000000000000000000000000000000000000000000000000000000000815260040180806020018281038252602d815260200180614b51602d913960400191505060405180910390fd5b801561402b576040517f08c379a000000000000000000000000000000000000000000000000000000000815260040180806020018281038252602e815260200180614bad602e913960400191505060405180910390fd5b50505b6140388585611c1a565b6140418561420f565b5050505050565b600080600081819054906101000a90046dffffffffffffffffffffffffffff168092919060010191906101000a8154816dffffffffffffffffffffffffffff02191690836dffffffffffffffffffffffffffff1602179055505060006140ac613643565b90508091505090565b6140bd610df5565b6140c5612065565b6000614118600754600160009054906101000a900473ffffffffffffffffffffffffffffffffffffffff16600260009054906101000a900473ffffffffffffffffffffffffffffffffffffffff16614690565b905080915050614167600754600560009054906101000a900473ffffffffffffffffffffffffffffffffffffffff16600a846dffffffffffffffffffffffffffff168161416157fe5b046131b3565b6141b0600754600660009054906101000a900473ffffffffffffffffffffffffffffffffffffffff16600a846dffffffffffffffffffffffffffff16816141aa57fe5b046131b3565b6141de600754600560009054906101000a900473ffffffffffffffffffffffffffffffffffffffff16612577565b61420c600754600660009054906101000a900473ffffffffffffffffffffffffffffffffffffffff16612577565b50565b6060600460009054906101000a900473ffffffffffffffffffffffffffffffffffffffff1673ffffffffffffffffffffffffffffffffffffffff1663bda8335e600160009054906101000a900473ffffffffffffffffffffffffffffffffffffffff16600260009054906101000a900473ffffffffffffffffffffffffffffffffffffffff16600854600960009054906101000a90046dffffffffffffffffffffffffffff166009600e9054906101000a90046dffffffffffffffffffffffffffff166040518663ffffffff1660e01b8152600401808673ffffffffffffffffffffffffffffffffffffffff1681526020018573ffffffffffffffffffffffffffffffffffffffff168152602001848152602001836dffffffffffffffffffffffffffff168152602001826dffffffffffffffffffffffffffff1681526020019550505050505060006040518083038186803b15801561436e57600080fd5b505afa158015614382573d6000803e3d6000fd5b505050506040513d6000823e3d601f19601f8201168201806040525060808110156143ac57600080fd5b81019080805160405193929190846401000000008211156143cc57600080fd5b838201915060208201858111156143e257600080fd5b82518660208202830111640100000000821117156143ff57600080fd5b8083526020830192505050908051906020019060200280838360005b8381101561443657808201518184015260208101905061441b565b505050509050016040526020018051604051939291908464010000000082111561445f57600080fd5b8382019150602082018581111561447557600080fd5b825186602082028301116401000000008211171561449257600080fd5b8083526020830192505050908051906020019060200280838360005b838110156144c95780820151818401526020810190506144ae565b50505050905001604052602001805160405193929190846401000000008211156144f257600080fd5b8382019150602082018581111561450857600080fd5b825186602082028301116401000000008211171561452557600080fd5b8083526020830192505050908051906020019060200280838360005b8381101561455c578082015181840152602081019050614541565b505050509050016040526020018051604051939291908464010000000082111561458557600080fd5b8382019150602082018581111561459b57600080fd5b82518660208202830111640100000000821117156145b857600080fd5b8083526020830192505050908051906020019060200280838360005b838110156145ef5780820151818401526020810190506145d4565b505050509050016040525050509091509050508091505060005b815181101561468b5781818151811061461e57fe5b602002602001015183141561467e576040517f08c379a000000000000000000000000000000000000000000000000000000000815260040180806020018281038252602d815260200180614bdb602d913960400191505060405180910390fd5b8080600101915050614609565b505050565b6000806060806060600460009054906101000a900473ffffffffffffffffffffffffffffffffffffffff1673ffffffffffffffffffffffffffffffffffffffff1663bda8335e8888600854600960009054906101000a90046dffffffffffffffffffffffffffff166009600e9054906101000a90046dffffffffffffffffffffffffffff166040518663ffffffff1660e01b8152600401808673ffffffffffffffffffffffffffffffffffffffff1681526020018573ffffffffffffffffffffffffffffffffffffffff168152602001848152602001836dffffffffffffffffffffffffffff168152602001826dffffffffffffffffffffffffffff1681526020019550505050505060006040518083038186803b1580156147b157600080fd5b505afa1580156147c5573d6000803e3d6000fd5b505050506040513d6000823e3d601f19601f8201168201806040525060808110156147ef57600080fd5b810190808051604051939291908464010000000082111561480f57600080fd5b8382019150602082018581111561482557600080fd5b825186602082028301116401000000008211171561484257600080fd5b8083526020830192505050908051906020019060200280838360005b8381101561487957808201518184015260208101905061485e565b50505050905001604052602001805160405193929190846401000000008211156148a257600080fd5b838201915060208201858111156148b857600080fd5b82518660208202830111640100000000821117156148d557600080fd5b8083526020830192505050908051906020019060200280838360005b8381101561490c5780820151818401526020810190506148f1565b505050509050016040526020018051604051939291908464010000000082111561493557600080fd5b8382019150602082018581111561494b57600080fd5b825186602082028301116401000000008211171561496857600080fd5b8083526020830192505050908051906020019060200280838360005b8381101561499f578082015181840152602081019050614984565b50505050905001604052602001805160405193929190846401000000008211156149c857600080fd5b838201915060208201858111156149de57600080fd5b82518660208202830111640100000000821117156149fb57600080fd5b8083526020830192505050908051906020019060200280838360005b83811015614a32578082015181840152602081019050614a17565b505050509050016040525050505080935081945082955050505060005b838181518110614a5b57fe5b60200260200101518914614aec57808060010191505060288110614ae7576040517f08c379a00000000000000000000000000000000000000000000000000000000081526004018080602001828103825260208152602001807f4944206e6f7420666f756e6420696e206163636f756e742070726f6d6973657381525060200191505060405180910390fd5b614a4f565b828181518110614af857fe5b60200260200101519550818181518110614b0e57fe5b602002602001015194505050505093509391505056fe50726f6d697365207761736e27742072656d6f7665642066726f6d206163636f756e742070726f6d697365736c6f77657220616d6f756e74207061696420746f207468652063726561746f7220617420657865637574696f6e696e636f727265637420616d6f756e74207061696420746f207468652070726f6d6973652062792063726561746f7268696768657220616d6f756e74207061696420746f207468652063726561746f7220617420657865637574696f6e50726f6d697365207761736e27742072656d6f7665642066726f6d206a6f696e61626c652070726f6d6973657377726f6e6720616d6f756e742074616b656e20647572696e67206372656174696f6e6f75747374616e64696e672064656274206f6e206163636f756e742070726f6d6973657320697320696e636f7272656374696e636f727265637420616d6f756e74207061696420746f207468652070726f6d697365206279206a6f696e657277726f6e6720616d6f756e742074616b656e20647572696e67206a6f696e696e67a2646970667358221220767e6aa282b88d527492520423c0a9e7a1aee6cd96974614a190c17c0e1cb92964736f6c63430007060033",
  "immutableReferences": {},
  "source": "// SPDX-License-Identifier: GPL-3.0\n\npragma solidity >=0.7.0 <0.9.0;\nimport {IPromiseCore} from \"../interfaces/IPromiseCore.sol\";\nimport {IPromiseFinder} from \"../interfaces/IPromiseFinder.sol\";\nimport {IERC20} from \"../interfaces/IERC20.sol\";\n\ncontract PromTest {\n    uint112 nonce;\n    address public token1;\n    address public token2;\n    IPromiseCore public promiseCore;\n    IPromiseFinder public promiseFinder;\n    address alice = address(0x0A098Eda01Ce92ff4A4CCb7A4fFFb5A43EBC70DC);\n    address bob = address(0xAb8483F64d9C6d1EcF9b849Ae677dD3315835cb2);\n    uint256 currentId;\n    uint256 currentExpiry;\n    uint112 currentCreatorAmount;\n    uint112 currentJoinerAmount;\n    uint256[] promiseIds;\n    uint256 creatorOutstandingDebt;\n\n    event debtOwed(uint256 outstandingDebt, uint256 projectedOutstandingDebt);\n    event paid(uint256 shouldPaidThis, uint256 wasPaidThis);\n    event leftOver(uint256 creatorTokenAmount, uint256 joinerTokenAmount);\n    event joinedWith(uint256 amountToJoin, uint256 amountJoinedWith);\n\n    constructor(\n        IPromiseCore _promiseCore,\n        IPromiseFinder _promiseFinder,\n        address _t1,\n        address _t2\n    ) {\n        promiseCore = _promiseCore;\n        promiseFinder = _promiseFinder;\n        token1 = _t1;\n        token2 = _t2;\n    }\n\n    /* creating a promise with contract as creator\n       joining promise with alice doing all of the joiner amount\n       paying promise for creator & alice */\n    function scenario1() public {\n        approve();\n        createPromise();\n        uint256 joinerAmount;\n        (, joinerAmount) = getJoinablePromisesAmounts(currentId, token1, token2);\n        joinPromise(currentId, alice, uint112(joinerAmount));\n        payPromise(currentId, address(this));\n        payPromise(currentId, alice);\n    }\n\n    // executes promises for creator & alice\n    function scenario1Execution() public {\n        executePromise(currentId, address(this));\n        executePromise(currentId, alice);\n    }\n\n    /* creating a promise with contract as creator\n    joining promise with alice and bob fragmented amounts each leaving an active amount left\n    paying promise for creator, alice and bob */\n    function scenario2() public {\n        approve();\n        createPromise();\n        uint256 joinerAmount;\n        (, joinerAmount) = getJoinablePromisesAmounts(currentId, token1, token2);\n        joinPromise(currentId, alice, uint112(joinerAmount) / 3);\n        joinPromise(currentId, bob, uint112(joinerAmount) / 5);\n        payPromise(currentId, address(this));\n        payPromise(currentId, alice);\n        payPromise(currentId, bob);\n    }\n\n    // executes promises for creatore, alice, bob\n    function scenario2Execution() public {\n        executePromise(currentId, address(this));\n        executePromise(currentId, alice);\n        executePromise(currentId, bob);\n    }\n\n    /* creating a promise with contract as creator\n    joining promise with alice and bob fragmented amounts each leaving an active amount left\n    paying promise for creator and bob */\n    function scenario3() public {\n        approve();\n        createPromise();\n        uint256 joinerAmount;\n        (, joinerAmount) = getJoinablePromisesAmounts(currentId, token1, token2);\n        joinPromise(currentId, alice, uint112(joinerAmount) / 10);\n        joinPromise(currentId, bob, uint112(joinerAmount) / 7);\n        payPromise(currentId, address(this));\n        payPromise(currentId, bob);\n    }\n\n    // executes promises for creatore, alice, bob\n    function scenario3Execution() public {\n        executePromise(currentId, address(this));\n        executePromise(currentId, bob);\n    }\n\n    /* creating a promise with contract as creator\n    joining promise with alice and bob fragmented amounts but bob joins twice\n    each leaving an active amount left\n    paying promise for alice and bob */\n    function scenario4() public {\n        approve();\n        createPromise();\n        uint256 joinerAmount;\n        (, joinerAmount) = getJoinablePromisesAmounts(currentId, token1, token2);\n        joinPromise(currentId, alice, uint112(joinerAmount) / 10);\n        joinPromise(currentId, bob, uint112(joinerAmount) / 10);\n        payPromise(currentId, alice);\n        payPromise(currentId, bob);\n    }\n\n    // executes promises for alice and bob\n    function scenario4Execution() public {\n        executePromise(currentId, alice);\n        executePromise(currentId, bob);\n        executePromise(currentId, address(this));\n    }\n\n    function scenario5() public {\n        createPromise();\n    }\n\n    function scenario5JoiningAndPaying(address account) public {\n        uint256 joinerAmount;\n        (, joinerAmount) = getJoinablePromisesAmounts(currentId, token1, token2);\n        joinPromise(currentId, account, uint112(joinerAmount) / 100);\n        emit joinedWith(joinerAmount, uint112(joinerAmount) / 100);\n\n        payPromise(currentId, account);\n    }\n\n    // creator closes pending amount\n    function scenario5ClosePendingAmount() public {\n        promiseCore.closePendingPromiseAmount(currentId);\n    }\n\n    // executes promises for alice and bob\n    function scenario5Execution(address account) public {\n        executePromise(currentId, account);\n    }\n\n    // executes promises for alice and bob\n    function scenario5ForCreator() public {\n        executePromise(currentId, address(this));\n    }\n\n    function createPromise() public {\n        approve();\n        uint112 amountIn = getRandomNumber();\n        uint112 amountOut = getRandomNumber();\n        uint256 balanceBefore = IERC20(token1).balanceOf(address(this));\n        promiseCore.createPromise(address(this), token1, amountIn, token2, amountOut, block.timestamp + 5 days);\n        uint256 balanceAfter = IERC20(token1).balanceOf(address(this));\n        require(balanceBefore - balanceAfter == amountIn / 2, \"wrong amount taken during creation\");\n        currentId++;\n        currentExpiry = block.timestamp + 5 days;\n        currentCreatorAmount = amountIn;\n        currentJoinerAmount = amountOut;\n        promiseIds.push(currentId);\n        checkAccountPromisesIsCorrect(currentId, address(this), amountIn / 2);\n        creatorOutstandingDebt = amountIn / 2;\n        checkJoinablePromisesIsCorrect(currentId, token1, token2, amountIn, amountOut);\n    }\n\n    function createPromise_2() public {\n        approve();\n        uint112 amountIn = getRandomNumber();\n        uint112 amountOut = getRandomNumber();\n        uint256 balanceBefore = IERC20(token1).balanceOf(address(this));\n        promiseCore.createPromise(address(this), token1, amountIn, token2, amountOut, block.timestamp + 6 days);\n        uint256 balanceAfter = IERC20(token1).balanceOf(address(this));\n        require(balanceBefore - balanceAfter == amountIn / 2, \"wrong amount taken during creation\");\n        currentId++;\n        currentExpiry = block.timestamp + 6 days;\n        currentCreatorAmount = amountIn;\n        currentJoinerAmount = amountOut;\n        promiseIds.push(currentId);\n        checkAccountPromisesIsCorrect(currentId, address(this), amountIn / 2);\n        creatorOutstandingDebt = amountIn / 2;\n        checkJoinablePromisesIsCorrect(currentId, token1, token2, amountIn, amountOut);\n    }\n\n    function joinPromise(\n        uint256 id,\n        address account,\n        uint112 _amount\n    ) public {\n        uint256 balanceBefore = IERC20(token2).balanceOf(address(this));\n        promiseCore.joinPromise(id, account, _amount);\n        uint256 balanceAfter = IERC20(token2).balanceOf(address(this));\n        require(balanceBefore - balanceAfter == _amount / 2, \"wrong amount taken during joining\");\n        checkAccountPromisesIsCorrect(id, account, _amount / 2);\n    }\n\n    function payPromise(uint256 _id, address account) public {\n        uint256 balanceBefore;\n        uint256 balanceAfter;\n        uint256 debt;\n        (, debt) = getReceivingAndOutstandingDebt(_id, account);\n        if (account == address(this)) {\n            balanceBefore = IERC20(token1).balanceOf(address(this));\n            promiseCore.payPromise(_id, account);\n            balanceAfter = IERC20(token1).balanceOf(address(this));\n            require(debt == balanceBefore - balanceAfter, \"incorrect amount paid to the promise by creator\");\n            creatorOutstandingDebt = 0;\n        } else {\n            balanceBefore = IERC20(token2).balanceOf(address(this));\n            promiseCore.payPromise(_id, account);\n            balanceAfter = IERC20(token2).balanceOf(address(this));\n            require(debt == balanceBefore - balanceAfter, \"incorrect amount paid to the promise by joiner\");\n        }\n        checkAccountPromisesIsCorrect(_id, account, 0);\n    }\n\n    function executePromise(uint256 _id, address account) public {\n        uint256 balanceBefore;\n        uint256 balanceAfter;\n        uint256 receiving;\n        (receiving, ) = getReceivingAndOutstandingDebt(_id, account);\n        if (account == address(this)) {\n            balanceBefore = IERC20(token2).balanceOf(account);\n            promiseCore.executePromise(_id, account);\n            balanceAfter = IERC20(token2).balanceOf(account);\n            bool greaterThan = (receiving - (((receiving) * 50) / 10000)) > (balanceAfter - balanceBefore);\n            bool lessThan = (receiving - (((receiving) * 50) / 10000)) < (balanceAfter - balanceBefore);\n            require(!greaterThan, \"lower amount paid to the creator at execution\");\n            require(!lessThan, \"higher amount paid to the creator at execution\");\n        } else {\n            balanceBefore = IERC20(token1).balanceOf(account);\n            promiseCore.executePromise(_id, account);\n            balanceAfter = IERC20(token1).balanceOf(account);\n            bool greaterThan = (receiving - (((receiving) * 50) / 10000)) > (balanceAfter - balanceBefore);\n            bool lessThan = (receiving - (((receiving) * 50) / 10000)) < (balanceAfter - balanceBefore);\n            require(!greaterThan, \"lower amount paid to the creator at execution\");\n            require(!lessThan, \"higher amount paid to the creator at execution\");\n        }\n\n        checkRemovedFromAccountPromises(_id, account);\n        checkRemovedFromJoinablePromises(_id);\n    }\n\n    function checkAccountPromisesIsCorrect(\n        uint256 _id,\n        address account,\n        uint256 _outstandingDebt\n    ) public {\n        uint256[] memory id;\n        uint256[] memory receiving;\n        uint256[] memory outstandingDebt;\n        (id, outstandingDebt, receiving, , ) = promiseFinder.accountPromises(account);\n        uint256 i;\n        while (_id != id[i]) {\n            i++;\n            require(i < 40, \"ID not found in account promises\");\n        }\n        emit debtOwed(outstandingDebt[i], _outstandingDebt);\n        require(outstandingDebt[i] == _outstandingDebt, \"outstanding debt on account promises is incorrect\");\n    }\n\n    function checkRemovedFromAccountPromises(uint256 _id, address account) public view {\n        uint256[] memory id;\n        uint256[] memory receiving;\n        uint256[] memory outstandingDebt;\n        (id, outstandingDebt, receiving, , ) = promiseFinder.accountPromises(account);\n        uint256 i;\n        while (i < id.length) {\n            require(_id != id[i], \"Promise wasn't removed from account promises\");\n            i++;\n        }\n    }\n\n    function checkRemovedFromJoinablePromises(uint256 _id) public view {\n        uint256[] memory id;\n        (id, , , ) = promiseFinder.joinablePromises(\n            token1,\n            token2,\n            currentExpiry,\n            currentCreatorAmount,\n            currentJoinerAmount\n        );\n        uint256 i;\n        while (i < id.length) {\n            require(_id != id[i], \"Promise wasn't removed from joinable promises\");\n            i++;\n        }\n    }\n\n    function getReceivingAndOutstandingDebt(uint256 _id, address account) public view returns (uint256 a, uint256 b) {\n        uint256[] memory id;\n        uint256[] memory receiving;\n        uint256[] memory outstandingDebt;\n        (id, outstandingDebt, receiving, , ) = promiseFinder.accountPromises(account);\n        uint256 i;\n        while (_id != id[i]) {\n            i++;\n            require(i < 40, \"Promise not in account promises\");\n        }\n        a = receiving[i];\n        b = outstandingDebt[i];\n    }\n\n    function checkJoinablePromisesIsCorrect(\n        uint256 _id,\n        address _token1,\n        address _token2,\n        uint112 _creatorAmount,\n        uint112 _joinerAmount\n    ) public {\n        uint256[] memory id;\n        uint256[] memory creatorAmount;\n        uint256[] memory joinerAmount;\n        (id, , , ) = promiseFinder.joinablePromises(\n            _token1,\n            _token2,\n            currentExpiry,\n            currentCreatorAmount,\n            currentJoinerAmount\n        );\n        uint256 i;\n        while (_id != id[i]) {\n            i++;\n            require(i < 40, \"ID not found in account promises\");\n        }\n    }\n\n    function getJoinablePromisesAmounts(\n        uint256 _id,\n        address _token1,\n        address _token2\n    ) public view returns (uint256 a, uint256 b) {\n        uint256[] memory id;\n        uint256[] memory creatorAmount;\n        uint256[] memory joinerAmount;\n        (id, creatorAmount, joinerAmount, ) = promiseFinder.joinablePromises(\n            _token1,\n            _token2,\n            currentExpiry,\n            currentCreatorAmount,\n            currentJoinerAmount\n        );\n        uint256 i;\n        while (_id != id[i]) {\n            i++;\n            require(i < 40, \"ID not found in account promises\");\n        }\n        a = creatorAmount[i];\n        b = joinerAmount[i];\n    }\n\n    function getRandomNumber() public returns (uint112) {\n        nonce++;\n        uint112 ranNum = randomNumber();\n        return ranNum;\n    }\n\n    function randomNumber() public view returns (uint112) {\n        uint256 a = (uint256(keccak256(abi.encodePacked(block.timestamp, nonce))) % 33);\n        uint256 b = (uint256(keccak256(abi.encodePacked(block.timestamp * 2, nonce))) % 60);\n        uint112 c = uint112(uint256(a << b));\n        if (c < 100) {\n            c = 10**18;\n        }\n        return c;\n    }\n\n    function approve() public {\n        IERC20(token1).approve(address(promiseCore), 2**256 - 1);\n        IERC20(token2).approve(address(promiseCore), 2**256 - 1);\n    }\n\n    function checkBalance(address token, address account) public view returns (uint256 z) {\n        z = IERC20(token).balanceOf(account);\n    }\n\n    function hasLeftOver() public {\n        uint256 bal = checkBalance(token1, address(promiseCore)) + checkBalance(token2, address(promiseCore));\n        emit leftOver(checkBalance(token1, address(promiseCore)), checkBalance(token2, address(promiseCore)));\n        //require(bal == 0, \"Promise contract was left with some tokens\");\n    }\n}\n",
  "sourcePath": "/Users/nanoissuperior/promise-contracts/contracts/test/PromTest.sol",
  "compiler": {
    "name": "solc",
    "version": "0.7.6+commit.7338295f.Emscripten.clang"
  },
  "schemaVersion": "3.2.4",
  "updatedAt": "2021-07-08T10:16:54.567Z",
  "devdoc": {
    "kind": "dev",
    "methods": {},
    "version": 1
  },
  "userdoc": {
    "kind": "user",
    "methods": {},
    "version": 1
  }
}