{
  "contractName": "PromiseFinder",
  "abi": [
    {
      "inputs": [
        {
          "internalType": "contract PromiseCore",
          "name": "_promiseCore",
          "type": "address"
        }
      ],
      "stateMutability": "nonpayable",
      "type": "constructor"
    },
    {
      "inputs": [],
      "name": "promiseCore",
      "outputs": [
        {
          "internalType": "contract PromiseCore",
          "name": "",
          "type": "address"
        }
      ],
      "stateMutability": "view",
      "type": "function",
      "constant": true
    },
    {
      "inputs": [
        {
          "internalType": "address",
          "name": "account",
          "type": "address"
        }
      ],
      "name": "accountPromises",
      "outputs": [
        {
          "internalType": "uint256[]",
          "name": "id",
          "type": "uint256[]"
        },
        {
          "internalType": "uint256[]",
          "name": "outstandingDebt",
          "type": "uint256[]"
        },
        {
          "internalType": "uint256[]",
          "name": "receiving",
          "type": "uint256[]"
        },
        {
          "internalType": "uint256[]",
          "name": "expirationTimestamp",
          "type": "uint256[]"
        },
        {
          "internalType": "address[]",
          "name": "tokens",
          "type": "address[]"
        }
      ],
      "stateMutability": "view",
      "type": "function",
      "constant": true
    },
    {
      "inputs": [
        {
          "internalType": "uint256",
          "name": "id",
          "type": "uint256"
        },
        {
          "internalType": "address",
          "name": "account",
          "type": "address"
        }
      ],
      "name": "_accountPromises",
      "outputs": [
        {
          "internalType": "uint256",
          "name": "outstandingDebt",
          "type": "uint256"
        },
        {
          "internalType": "uint256",
          "name": "receiving",
          "type": "uint256"
        },
        {
          "internalType": "address",
          "name": "creatorToken",
          "type": "address"
        },
        {
          "internalType": "address",
          "name": "joinerToken",
          "type": "address"
        },
        {
          "internalType": "uint256",
          "name": "expirationTimestamp",
          "type": "uint256"
        }
      ],
      "stateMutability": "view",
      "type": "function",
      "constant": true
    },
    {
      "inputs": [
        {
          "internalType": "address",
          "name": "_creatorToken",
          "type": "address"
        },
        {
          "internalType": "address",
          "name": "_joinerToken",
          "type": "address"
        },
        {
          "internalType": "uint256",
          "name": "preferedDateWithinMonth",
          "type": "uint256"
        },
        {
          "internalType": "uint112",
          "name": "preferedCreatorAmount",
          "type": "uint112"
        },
        {
          "internalType": "uint112",
          "name": "preferedJoinerAmount",
          "type": "uint112"
        }
      ],
      "name": "joinablePromises",
      "outputs": [
        {
          "internalType": "uint256[]",
          "name": "id",
          "type": "uint256[]"
        },
        {
          "internalType": "uint256[]",
          "name": "creatorAmount",
          "type": "uint256[]"
        },
        {
          "internalType": "uint256[]",
          "name": "joinerAmount",
          "type": "uint256[]"
        },
        {
          "internalType": "uint256[]",
          "name": "expirationTimestamp",
          "type": "uint256[]"
        }
      ],
      "stateMutability": "view",
      "type": "function",
      "constant": true
    },
    {
      "inputs": [
        {
          "internalType": "bytes32",
          "name": "_listId",
          "type": "bytes32"
        }
      ],
      "name": "_joinablePromises",
      "outputs": [
        {
          "internalType": "uint256[]",
          "name": "id",
          "type": "uint256[]"
        },
        {
          "internalType": "uint256[]",
          "name": "creatorAmount",
          "type": "uint256[]"
        },
        {
          "internalType": "uint256[]",
          "name": "joinerAmount",
          "type": "uint256[]"
        },
        {
          "internalType": "uint256[]",
          "name": "expirationTimestamp",
          "type": "uint256[]"
        }
      ],
      "stateMutability": "view",
      "type": "function",
      "constant": true
    },
    {
      "inputs": [
        {
          "internalType": "bytes32[]",
          "name": "_listId",
          "type": "bytes32[]"
        },
        {
          "internalType": "uint256",
          "name": "lengthOfData",
          "type": "uint256"
        }
      ],
      "name": "_joinablePromisesRaw",
      "outputs": [
        {
          "internalType": "uint256[]",
          "name": "id",
          "type": "uint256[]"
        },
        {
          "internalType": "uint256[]",
          "name": "creatorAmount",
          "type": "uint256[]"
        },
        {
          "internalType": "uint256[]",
          "name": "joinerAmount",
          "type": "uint256[]"
        },
        {
          "internalType": "uint256[]",
          "name": "expirationTimestamp",
          "type": "uint256[]"
        }
      ],
      "stateMutability": "view",
      "type": "function",
      "constant": true
    },
    {
      "inputs": [
        {
          "internalType": "address",
          "name": "creatorToken",
          "type": "address"
        },
        {
          "internalType": "address",
          "name": "joinerToken",
          "type": "address"
        },
        {
          "internalType": "uint256",
          "name": "minExpiryDate",
          "type": "uint256"
        },
        {
          "internalType": "uint256",
          "name": "maxExpiryDate",
          "type": "uint256"
        }
      ],
      "name": "getPopulatedJoinableTimeIntervals",
      "outputs": [
        {
          "internalType": "uint256[]",
          "name": "expirationTimestampWithinInterval",
          "type": "uint256[]"
        },
        {
          "internalType": "uint256[]",
          "name": "numOfPromisesInTimeInterval",
          "type": "uint256[]"
        }
      ],
      "stateMutability": "view",
      "type": "function",
      "constant": true
    },
    {
      "inputs": [
        {
          "internalType": "address",
          "name": "creatorToken",
          "type": "address"
        },
        {
          "internalType": "address",
          "name": "joinerToken",
          "type": "address"
        },
        {
          "internalType": "uint256[]",
          "name": "expirationTimestampsWithinIntervals",
          "type": "uint256[]"
        },
        {
          "internalType": "uint8",
          "name": "lengthOfReturn",
          "type": "uint8"
        }
      ],
      "name": "getPopulatedJoinableListIds",
      "outputs": [
        {
          "internalType": "bytes32[]",
          "name": "listIds",
          "type": "bytes32[]"
        },
        {
          "internalType": "uint256[]",
          "name": "lengths",
          "type": "uint256[]"
        }
      ],
      "stateMutability": "view",
      "type": "function",
      "constant": true
    }
  ],
  "bytecode": "0x608060405234801561001057600080fd5b50604051612e4f380380612e4f8339818101604052602081101561003357600080fd5b8101908080519060200190929190505050806000806101000a81548173ffffffffffffffffffffffffffffffffffffffff021916908373ffffffffffffffffffffffffffffffffffffffff16021790555050612dbb806100946000396000f3fe608060405234801561001057600080fd5b50600436106100885760003560e01c8063b9d4ac1a1161005b578063b9d4ac1a146104b5578063bda8335e1461066e578063d66521f61461083d578063e23087ab146109df57610088565b806325f9cbff1461008d57806335429311146101e85780633bb260bd146103d75780638fba402e1461040b575b600080fd5b6100b9600480360360208110156100a357600080fd5b8101908080359060200190929190505050610af4565b6040518080602001806020018060200180602001858103855289818151815260200191508051906020019060200280838360005b838110156101085780820151818401526020810190506100ed565b50505050905001858103845288818151815260200191508051906020019060200280838360005b8381101561014a57808201518184015260208101905061012f565b50505050905001858103835287818151815260200191508051906020019060200280838360005b8381101561018c578082015181840152602081019050610171565b50505050905001858103825286818151815260200191508051906020019060200280838360005b838110156101ce5780820151818401526020810190506101b3565b505050509050019850505050505050505060405180910390f35b6102a8600480360360408110156101fe57600080fd5b810190808035906020019064010000000081111561021b57600080fd5b82018360208201111561022d57600080fd5b8035906020019184602083028401116401000000008311171561024f57600080fd5b919080806020026020016040519081016040528093929190818152602001838360200280828437600081840152601f19601f8201169050808301925050505050505091929192908035906020019092919050505061110b565b6040518080602001806020018060200180602001858103855289818151815260200191508051906020019060200280838360005b838110156102f75780820151818401526020810190506102dc565b50505050905001858103845288818151815260200191508051906020019060200280838360005b8381101561033957808201518184015260208101905061031e565b50505050905001858103835287818151815260200191508051906020019060200280838360005b8381101561037b578082015181840152602081019050610360565b50505050905001858103825286818151815260200191508051906020019060200280838360005b838110156103bd5780820151818401526020810190506103a2565b505050509050019850505050505050505060405180910390f35b6103df611775565b604051808273ffffffffffffffffffffffffffffffffffffffff16815260200191505060405180910390f35b6104576004803603604081101561042157600080fd5b8101908080359060200190929190803573ffffffffffffffffffffffffffffffffffffffff169060200190929190505050611799565b604051808681526020018581526020018473ffffffffffffffffffffffffffffffffffffffff1681526020018373ffffffffffffffffffffffffffffffffffffffff1681526020018281526020019550505050505060405180910390f35b6104f7600480360360208110156104cb57600080fd5b81019080803573ffffffffffffffffffffffffffffffffffffffff169060200190929190505050611f5e565b60405180806020018060200180602001806020018060200186810386528b818151815260200191508051906020019060200280838360005b8381101561054a57808201518184015260208101905061052f565b5050505090500186810385528a818151815260200191508051906020019060200280838360005b8381101561058c578082015181840152602081019050610571565b50505050905001868103845289818151815260200191508051906020019060200280838360005b838110156105ce5780820151818401526020810190506105b3565b50505050905001868103835288818151815260200191508051906020019060200280838360005b838110156106105780820151818401526020810190506105f5565b50505050905001868103825287818151815260200191508051906020019060200280838360005b83811015610652578082015181840152602081019050610637565b505050509050019a505050505050505050505060405180910390f35b61070e600480360360a081101561068457600080fd5b81019080803573ffffffffffffffffffffffffffffffffffffffff169060200190929190803573ffffffffffffffffffffffffffffffffffffffff1690602001909291908035906020019092919080356dffffffffffffffffffffffffffff16906020019092919080356dffffffffffffffffffffffffffff1690602001909291905050506123e7565b6040518080602001806020018060200180602001858103855289818151815260200191508051906020019060200280838360005b8381101561075d578082015181840152602081019050610742565b50505050905001858103845288818151815260200191508051906020019060200280838360005b8381101561079f578082015181840152602081019050610784565b50505050905001858103835287818151815260200191508051906020019060200280838360005b838110156107e15780820151818401526020810190506107c6565b50505050905001858103825286818151815260200191508051906020019060200280838360005b83811015610823578082015181840152602081019050610808565b505050509050019850505050505050505060405180910390f35b6109406004803603608081101561085357600080fd5b81019080803573ffffffffffffffffffffffffffffffffffffffff169060200190929190803573ffffffffffffffffffffffffffffffffffffffff169060200190929190803590602001906401000000008111156108b057600080fd5b8201836020820111156108c257600080fd5b803590602001918460208302840111640100000000831117156108e457600080fd5b919080806020026020016040519081016040528093929190818152602001838360200280828437600081840152601f19601f820116905080830192505050505050509192919290803560ff1690602001909291905050506124a2565b604051808060200180602001838103835285818151815260200191508051906020019060200280838360005b8381101561098757808201518184015260208101905061096c565b50505050905001838103825284818151815260200191508051906020019060200280838360005b838110156109c95780820151818401526020810190506109ae565b5050505090500194505050505060405180910390f35b610a55600480360360808110156109f557600080fd5b81019080803573ffffffffffffffffffffffffffffffffffffffff169060200190929190803573ffffffffffffffffffffffffffffffffffffffff16906020019092919080359060200190929190803590602001909291905050506127d1565b604051808060200180602001838103835285818151815260200191508051906020019060200280838360005b83811015610a9c578082015181840152602081019050610a81565b50505050905001838103825284818151815260200191508051906020019060200280838360005b83811015610ade578082015181840152602081019050610ac3565b5050505090500194505050505060405180910390f35b606080606080600085905060008060009054906101000a900473ffffffffffffffffffffffffffffffffffffffff1673ffffffffffffffffffffffffffffffffffffffff1663a9dbaf25836040518263ffffffff1660e01b81526004018082815260200191505060206040518083038186803b158015610b7357600080fd5b505afa158015610b87573d6000803e3d6000fd5b505050506040513d6020811015610b9d57600080fd5b810190808051906020019092919050505090508067ffffffffffffffff81118015610bc757600080fd5b50604051908082528060200260200182016040528015610bf65781602001602082028036833780820191505090505b5095508067ffffffffffffffff81118015610c1057600080fd5b50604051908082528060200260200182016040528015610c3f5781602001602082028036833780820191505090505b5094508067ffffffffffffffff81118015610c5957600080fd5b50604051908082528060200260200182016040528015610c885781602001602082028036833780820191505090505b5093508067ffffffffffffffff81118015610ca257600080fd5b50604051908082528060200260200182016040528015610cd15781602001602082028036833780820191505090505b509250600080839050610ce2612cab565b5b838310156110ff5760008054906101000a900473ffffffffffffffffffffffffffffffffffffffff1673ffffffffffffffffffffffffffffffffffffffff166313d49a8b836040518263ffffffff1660e01b81526004018082815260200191505060606040518083038186803b158015610d5c57600080fd5b505afa158015610d70573d6000803e3d6000fd5b505050506040513d6060811015610d8657600080fd5b81019080805190602001909291908051906020019092919080519060200190929190505050508a8581518110610db857fe5b6020026020010181815250819350505060008054906101000a900473ffffffffffffffffffffffffffffffffffffffff1673ffffffffffffffffffffffffffffffffffffffff16631f06c8598a8581518110610e1057fe5b60200260200101516040518263ffffffff1660e01b8152600401808281526020019150506101406040518083038186803b158015610e4d57600080fd5b505afa158015610e61573d6000803e3d6000fd5b505050506040513d610140811015610e7857600080fd5b810190808051906020019092919080519060200190929190805190602001909291908051906020019092919080519060200190929190805190602001909291908051906020019092919080519060200190929190805190602001909291908051906020019092919050505090919293949596979850909192939495969750909192939495509091929394509091929350856040018660c0018760e00188610100018961012001858152508581525085815250856dffffffffffffffffffffffffffff166dffffffffffffffffffffffffffff16815250856dffffffffffffffffffffffffffff166dffffffffffffffffffffffffffff16815250505050505060008054906101000a900473ffffffffffffffffffffffffffffffffffffffff1673ffffffffffffffffffffffffffffffffffffffff16638ae9962782604001518360c0015160028560e0015102856101000151016040518463ffffffff1660e01b815260040180846dffffffffffffffffffffffffffff168152602001836dffffffffffffffffffffffffffff168152602001828152602001935050505060206040518083038186803b15801561102e57600080fd5b505afa158015611042573d6000803e3d6000fd5b505050506040513d602081101561105857600080fd5b810190808051906020019092919050505081604001516dffffffffffffffffffffffffffff160388848151811061108b57fe5b60200260200101818152505060028160e0015102816101000151018160c001516dffffffffffffffffffffffffffff16038784815181106110c857fe5b6020026020010181815250508061012001518684815181106110e657fe5b6020026020010181815250508280600101935050610ce3565b50505050509193509193565b6060806060808467ffffffffffffffff8111801561112857600080fd5b506040519080825280602002602001820160405280156111575781602001602082028036833780820191505090505b5093508467ffffffffffffffff8111801561117157600080fd5b506040519080825280602002602001820160405280156111a05781602001602082028036833780820191505090505b5092508467ffffffffffffffff811180156111ba57600080fd5b506040519080825280602002602001820160405280156111e95781602001602082028036833780820191505090505b5091508467ffffffffffffffff8111801561120357600080fd5b506040519080825280602002602001820160405280156112325781602001602082028036833780820191505090505b50905060008060005b60018951038110156117695788818151811061125357fe5b6020026020010151925060008054906101000a900473ffffffffffffffffffffffffffffffffffffffff1673ffffffffffffffffffffffffffffffffffffffff1663a9dbaf25846040518263ffffffff1660e01b81526004018082815260200191505060206040518083038186803b1580156112ce57600080fd5b505afa1580156112e2573d6000803e3d6000fd5b505050506040513d60208110156112f857600080fd5b81019080805190602001909291905050509150600080849050611319612cab565b5b848310156117465760008054906101000a900473ffffffffffffffffffffffffffffffffffffffff1673ffffffffffffffffffffffffffffffffffffffff166313d49a8b836040518263ffffffff1660e01b81526004018082815260200191505060606040518083038186803b15801561139357600080fd5b505afa1580156113a7573d6000803e3d6000fd5b505050506040513d60608110156113bd57600080fd5b81019080805190602001909291908051906020019092919080519060200190929190505050508b85815181106113ef57fe5b6020026020010181815250819350505060008054906101000a900473ffffffffffffffffffffffffffffffffffffffff1673ffffffffffffffffffffffffffffffffffffffff16631f06c8598b858151811061144757fe5b60200260200101516040518263ffffffff1660e01b8152600401808281526020019150506101406040518083038186803b15801561148457600080fd5b505afa158015611498573d6000803e3d6000fd5b505050506040513d6101408110156114af57600080fd5b810190808051906020019092919080519060200190929190805190602001909291908051906020019092919080519060200190929190805190602001909291908051906020019092919080519060200190929190805190602001909291908051906020019092919050505090919293949596979850909192939495969750909192939495509091929394509091929350856040018660c0018760e00188610100018961012001858152508581525085815250856dffffffffffffffffffffffffffff166dffffffffffffffffffffffffffff16815250856dffffffffffffffffffffffffffff166dffffffffffffffffffffffffffff16815250505050505060008054906101000a900473ffffffffffffffffffffffffffffffffffffffff1673ffffffffffffffffffffffffffffffffffffffff16638ae9962782604001518360c0015160028560e0015102856101000151016040518463ffffffff1660e01b815260040180846dffffffffffffffffffffffffffff168152602001836dffffffffffffffffffffffffffff168152602001828152602001935050505060206040518083038186803b15801561166557600080fd5b505afa158015611679573d6000803e3d6000fd5b505050506040513d602081101561168f57600080fd5b810190808051906020019092919050505081604001516dffffffffffffffffffffffffffff16038984815181106116c257fe5b60200260200101818152505060028160e0015102816101000151018160c001516dffffffffffffffffffffffffffff16038884815181106116ff57fe5b60200260200101818152505080610120015187848151811061171d57fe5b602002602001018181525050828060010193505060018b0383141561174157611746565b61131a565b838060010194505060018b0383141561176157505050611769565b50505061123b565b50505092959194509250565b60008054906101000a900473ffffffffffffffffffffffffffffffffffffffff1681565b60008060008060006117a9612cab565b6117b1612d62565b60008054906101000a900473ffffffffffffffffffffffffffffffffffffffff1673ffffffffffffffffffffffffffffffffffffffff16631f06c8598a6040518263ffffffff1660e01b8152600401808281526020019150506101406040518083038186803b15801561182357600080fd5b505afa158015611837573d6000803e3d6000fd5b505050506040513d61014081101561184e57600080fd5b8101908080519060200190929190805190602001909291908051906020019092919080519060200190929190805190602001909291908051906020019092919080519060200190929190805190602001909291908051906020019092919080519060200190929190505050909192939495969750909192939495965090919293949550909192939450909192935090919250909150905050826000018173ffffffffffffffffffffffffffffffffffffffff1673ffffffffffffffffffffffffffffffffffffffff16815250508773ffffffffffffffffffffffffffffffffffffffff16826000015173ffffffffffffffffffffffffffffffffffffffff161415611b265760008054906101000a900473ffffffffffffffffffffffffffffffffffffffff1673ffffffffffffffffffffffffffffffffffffffff16631f06c8598a6040518263ffffffff1660e01b8152600401808281526020019150506101406040518083038186803b1580156119c557600080fd5b505afa1580156119d9573d6000803e3d6000fd5b505050506040513d6101408110156119f057600080fd5b8101908080519060200190929190805190602001909291908051906020019092919080519060200190929190805190602001909291908051906020019092919080519060200190929190805190602001909291908051906020019092919080519060200190929190505050909192939495969798509091929394959650909192939450909192505086602001876060018860a0018960e0018a6101000185815250858152508573ffffffffffffffffffffffffffffffffffffffff1673ffffffffffffffffffffffffffffffffffffffff16815250858152508573ffffffffffffffffffffffffffffffffffffffff1673ffffffffffffffffffffffffffffffffffffffff168152505050505050816060015196508161010001518260e00151019550816020015194508160a001519350611f4a565b60008989604051602001808381526020018273ffffffffffffffffffffffffffffffffffffffff1660601b81526014019250505060405160208183030381529060405280519060200120905060008054906101000a900473ffffffffffffffffffffffffffffffffffffffff1673ffffffffffffffffffffffffffffffffffffffff16632817b4838b836040518363ffffffff1660e01b8152600401808381526020018281526020019250505060606040518083038186803b158015611beb57600080fd5b505afa158015611bff573d6000803e3d6000fd5b505050506040513d6060811015611c1557600080fd5b810190808051906020019092919080519060200190929190805190602001909291905050508460000185602001866040018315151515815250838152508381525050505060008054906101000a900473ffffffffffffffffffffffffffffffffffffffff1673ffffffffffffffffffffffffffffffffffffffff16631f06c8598b6040518263ffffffff1660e01b8152600401808281526020019150506101406040518083038186803b158015611ccb57600080fd5b505afa158015611cdf573d6000803e3d6000fd5b505050506040513d610140811015611cf657600080fd5b81019080805190602001909291908051906020019092919080519060200190929190805190602001909291908051906020019092919080519060200190929190805190602001909291908051906020019092919080519060200190929190805190602001909291905050509091929394959697985090919293949550909192939450909150905087602001886040018960a0018a60c0018b6101200185815250856dffffffffffffffffffffffffffff166dffffffffffffffffffffffffffff168152508573ffffffffffffffffffffffffffffffffffffffff1673ffffffffffffffffffffffffffffffffffffffff16815250856dffffffffffffffffffffffffffff166dffffffffffffffffffffffffffff168152508573ffffffffffffffffffffffffffffffffffffffff1673ffffffffffffffffffffffffffffffffffffffff1681525050505050508160200151975060008054906101000a900473ffffffffffffffffffffffffffffffffffffffff1673ffffffffffffffffffffffffffffffffffffffff16638ae9962784604001518560c0015185602001518660000151016040518463ffffffff1660e01b815260040180846dffffffffffffffffffffffffffff168152602001836dffffffffffffffffffffffffffff168152602001828152602001935050505060206040518083038186803b158015611efd57600080fd5b505afa158015611f11573d6000803e3d6000fd5b505050506040513d6020811015611f2757600080fd5b810190808051906020019092919050505096508260a00151955082602001519450505b816101200151925050509295509295909350565b6060806060806060600086604051602001808273ffffffffffffffffffffffffffffffffffffffff1660601b815260140191505060405160208183030381529060405280519060200120905060008060009054906101000a900473ffffffffffffffffffffffffffffffffffffffff1673ffffffffffffffffffffffffffffffffffffffff1663a9dbaf25836040518263ffffffff1660e01b81526004018082815260200191505060206040518083038186803b15801561201e57600080fd5b505afa158015612032573d6000803e3d6000fd5b505050506040513d602081101561204857600080fd5b810190808051906020019092919050505090508067ffffffffffffffff8111801561207257600080fd5b506040519080825280602002602001820160405280156120a15781602001602082028036833780820191505090505b5096508067ffffffffffffffff811180156120bb57600080fd5b506040519080825280602002602001820160405280156120ea5781602001602082028036833780820191505090505b5095508067ffffffffffffffff8111801561210457600080fd5b506040519080825280602002602001820160405280156121335781602001602082028036833780820191505090505b5094508067ffffffffffffffff8111801561214d57600080fd5b5060405190808252806020026020018201604052801561217c5781602001602082028036833780820191505090505b5093506002810267ffffffffffffffff8111801561219957600080fd5b506040519080825280602002602001820160405280156121c85781602001602082028036833780820191505090505b5092506000808390505b828210156123da5760008054906101000a900473ffffffffffffffffffffffffffffffffffffffff1673ffffffffffffffffffffffffffffffffffffffff166313d49a8b826040518263ffffffff1660e01b81526004018082815260200191505060606040518083038186803b15801561224b57600080fd5b505afa15801561225f573d6000803e3d6000fd5b505050506040513d606081101561227557600080fd5b81019080805190602001909291908051906020019092919080519060200190929190505050508a84815181106122a757fe5b602002602001018181525081925050506122d48983815181106122c657fe5b60200260200101518b611799565b8c87815181106122e057fe5b602002602001018c88815181106122f357fe5b602002602001018b60008a1161230a57600061230f565b60028a025b8151811061231957fe5b602002602001018c60008b11612330576001612338565b600160028c02015b8151811061234257fe5b602002602001018e8b8151811061235557fe5b60200260200101858152508573ffffffffffffffffffffffffffffffffffffffff1673ffffffffffffffffffffffffffffffffffffffff168152508573ffffffffffffffffffffffffffffffffffffffff1673ffffffffffffffffffffffffffffffffffffffff168152508581525085815250505050505081806001019250506121d2565b5050505091939590929450565b60608060608061248689896123fb8a612b11565b6124048a612c67565b61240d8a612c67565b604051602001808673ffffffffffffffffffffffffffffffffffffffff1660601b81526014018573ffffffffffffffffffffffffffffffffffffffff1660601b81526014018481526020018381526020018281526020019550505050505060405160208183030381529060405280519060200120610af4565b8094508195508296508397505050505095509550955095915050565b6060808260ff1667ffffffffffffffff811180156124bf57600080fd5b506040519080825280602002602001820160405280156124ee5781602001602082028036833780820191505090505b5091508260ff1667ffffffffffffffff8111801561250b57600080fd5b5060405190808252806020026020018201604052801561253a5781602001602082028036833780820191505090505b5090506000600e90506000806000805b88518110156127c3575b600e8410156127b6575b600085146127a5578a8a6125848b848151811061257757fe5b6020026020010151612b11565b8787604051602001808673ffffffffffffffffffffffffffffffffffffffff1660601b81526014018573ffffffffffffffffffffffffffffffffffffffff1660601b81526014018481526020018381526020018281526020019550505050505060405160208183030381529060405280519060200120925060008060009054906101000a900473ffffffffffffffffffffffffffffffffffffffff1673ffffffffffffffffffffffffffffffffffffffff1663a9dbaf25856040518263ffffffff1660e01b81526004018082815260200191505060206040518083038186803b15801561267057600080fd5b505afa158015612684573d6000803e3d6000fd5b505050506040513d602081101561269a57600080fd5b8101908080519060200190929190505050111561279757828783815181106126be57fe5b60200260200101818152505060008054906101000a900473ffffffffffffffffffffffffffffffffffffffff1673ffffffffffffffffffffffffffffffffffffffff1663a9dbaf25846040518263ffffffff1660e01b81526004018082815260200191505060206040518083038186803b15801561273b57600080fd5b505afa15801561274f573d6000803e3d6000fd5b505050506040513d602081101561276557600080fd5b810190808051906020019092919050505086838151811061278257fe5b60200260200101818152505081806001019250505b84806001900395505061255e565b600e94508380600101945050612554565b808060010191505061254a565b505050505094509492505050565b60608060008060009054906101000a900473ffffffffffffffffffffffffffffffffffffffff1673ffffffffffffffffffffffffffffffffffffffff166395bad7f16040518163ffffffff1660e01b815260040160206040518083038186803b15801561283d57600080fd5b505afa158015612851573d6000803e3d6000fd5b505050506040513d602081101561286757600080fd5b810190808051906020019092919050505090506000818686038161288757fe5b04905060c8811115612901576040517f08c379a000000000000000000000000000000000000000000000000000000000815260040180806020018281038252600e8152602001807f52616e676520746f6f207769646500000000000000000000000000000000000081525060200191505060405180910390fd5b8067ffffffffffffffff8111801561291857600080fd5b506040519080825280602002602001820160405280156129475781602001602082028036833780820191505090505b5093508067ffffffffffffffff8111801561296157600080fd5b506040519080825280602002602001820160405280156129905781602001602082028036833780820191505090505b509250600086905060005b838703821015612b0457818682815181106129b257fe5b60200260200101818152505060008054906101000a900473ffffffffffffffffffffffffffffffffffffffff1673ffffffffffffffffffffffffffffffffffffffff16632d4f843e8b8b612a0586612b11565b604051602001808473ffffffffffffffffffffffffffffffffffffffff1660601b81526014018373ffffffffffffffffffffffffffffffffffffffff1660601b81526014018281526020019350505050604051602081830303815290604052805190602001206040518263ffffffff1660e01b81526004018082815260200191505060206040518083038186803b158015612a9f57600080fd5b505afa158015612ab3573d6000803e3d6000fd5b505050506040513d6020811015612ac957600080fd5b8101908080519060200190929190505050858281518110612ae657fe5b6020026020010181815250508382019150808060010191505061299b565b5050505094509492505050565b60008060009054906101000a900473ffffffffffffffffffffffffffffffffffffffff1673ffffffffffffffffffffffffffffffffffffffff166395bad7f16040518163ffffffff1660e01b815260040160206040518083038186803b158015612b7a57600080fd5b505afa158015612b8e573d6000803e3d6000fd5b505050506040513d6020811015612ba457600080fd5b810190808051906020019092919050505060008054906101000a900473ffffffffffffffffffffffffffffffffffffffff1673ffffffffffffffffffffffffffffffffffffffff16630c18d4ce6040518163ffffffff1660e01b815260040160206040518083038186803b158015612c1b57600080fd5b505afa158015612c2f573d6000803e3d6000fd5b505050506040513d6020811015612c4557600080fd5b8101908080519060200190929190505050830381612c5f57fe5b049050919050565b60005b6000826dffffffffffffffffffffffffffff1614612ca6576008826dffffffffffffffffffffffffffff16901c91508080600101915050612c6a565b919050565b604051806101400160405280600073ffffffffffffffffffffffffffffffffffffffff168152602001600073ffffffffffffffffffffffffffffffffffffffff16815260200160006dffffffffffffffffffffffffffff16815260200160008152602001600015158152602001600073ffffffffffffffffffffffffffffffffffffffff16815260200160006dffffffffffffffffffffffffffff1681526020016000815260200160008152602001600081525090565b60405180606001604052806000815260200160008152602001600015158152509056fea26469706673582212207c126d7a56df10562424c80a945b6c4ab8bf2d091f88f1ae70ac87bcc84ca0db64736f6c63430007060033",
  "immutableReferences": {},
  "source": "pragma solidity >=0.4.21 <0.8.0;\n\nimport {PromiseCore} from \"./PromiseCore.sol\";\n\ncontract PromiseFinder {\n    PromiseCore public promiseCore;\n\n    struct PromData {\n        address creator;\n        address creatorToken;\n        uint112 creatorAmount;\n        uint256 creatorDebt;\n        bool hasCreatorExecuted;\n        address joinerToken;\n        uint112 joinerAmount;\n        uint256 joinerDebt;\n        uint256 joinerPaidFull;\n        uint256 expirationTimestamp;\n    }\n\n    struct Promjoiners {\n        uint256 amountPaid;\n        uint256 outstandingDebt;\n        bool hasExecuted;\n    }\n\n    struct LinkedList {\n        bytes32 next;\n        uint256 id;\n        bytes32 previous;\n    }\n\n    constructor(PromiseCore _promiseCore) public {\n        promiseCore = _promiseCore;\n    }\n\n    function accountPromises(address account)\n        public\n        view\n        returns (\n            uint256[] memory id,\n            uint256[] memory outstandingDebt,\n            uint256[] memory receiving,\n            uint256[] memory expirationTimestamp,\n            address[] memory tokens\n        )\n    {\n        bytes32 listId = keccak256(abi.encodePacked(account));\n        uint256 _length = promiseCore.length(listId);\n\n        id = new uint256[](_length);\n        outstandingDebt = new uint256[](_length);\n        receiving = new uint256[](_length);\n        expirationTimestamp = new uint256[](_length);\n        // tokens array is twice the length because it has 2 entries added every loop\n        tokens = new address[](_length * 2);\n\n        uint256 i;\n        bytes32 index = listId;\n        while (i < _length) {\n            (index, id[i], ) = promiseCore.list(index);\n            (\n                outstandingDebt[i],\n                receiving[i],\n                tokens[i > 0 ? i * 2 : 0],\n                tokens[i > 0 ? (i * 2) + 1 : 1],\n                expirationTimestamp[i]\n            ) = _accountPromises(id[i], account);\n            i++;\n        }\n    }\n\n    function _accountPromises(uint256 id, address account)\n        public\n        view\n        returns (\n            uint256 outstandingDebt,\n            uint256 receiving,\n            address creatorToken,\n            address joinerToken,\n            uint256 expirationTimestamp\n        )\n    {\n        PromData memory p;\n        Promjoiners memory j;\n        (p.creator, , , , , , , , , ) = promiseCore.promises(id);\n        if (p.creator == account) {\n            (, p.creatorToken, , p.creatorDebt, , p.joinerToken, , p.joinerDebt, p.joinerPaidFull, ) = promiseCore\n                .promises(id);\n            outstandingDebt = p.creatorDebt;\n            receiving = p.joinerDebt + p.joinerPaidFull;\n            creatorToken = p.creatorToken;\n            joinerToken = p.joinerToken;\n        } else {\n            bytes32 joinerId = keccak256(abi.encodePacked(id, account));\n            (j.amountPaid, j.outstandingDebt, j.hasExecuted) = promiseCore.joiners(id, joinerId);\n            (\n                ,\n                p.creatorToken,\n                p.creatorAmount,\n                ,\n                ,\n                p.joinerToken,\n                p.joinerAmount,\n                ,\n                ,\n                p.expirationTimestamp\n            ) = promiseCore.promises(id);\n            outstandingDebt = j.outstandingDebt;\n            receiving = promiseCore.divMul(p.creatorAmount, p.joinerAmount, j.amountPaid + j.outstandingDebt);\n            creatorToken = p.joinerToken;\n            joinerToken = p.creatorToken;\n        }\n        expirationTimestamp = p.expirationTimestamp;\n    }\n\n    function joinablePromises(\n        address _creatorToken,\n        address _joinerToken,\n        uint256 preferedDateWithinMonth,\n        uint112 preferedCreatorAmount,\n        uint112 preferedJoinerAmount\n    )\n        public\n        view\n        returns (\n            uint256[] memory id,\n            uint256[] memory creatorAmount,\n            uint256[] memory joinerAmount,\n            uint256[] memory expirationTimestamp\n        )\n    {\n        (id, creatorAmount, joinerAmount, expirationTimestamp) = _joinablePromises(\n            keccak256(\n                abi.encodePacked(\n                    _creatorToken,\n                    _joinerToken,\n                    numberOfTimeIntervalsSinceDeployed(preferedDateWithinMonth),\n                    integarNumberOfBytes(preferedCreatorAmount),\n                    integarNumberOfBytes(preferedJoinerAmount)\n                )\n            )\n        );\n    }\n\n    function _joinablePromises(bytes32 _listId)\n        public\n        view\n        returns (\n            uint256[] memory id,\n            uint256[] memory creatorAmount,\n            uint256[] memory joinerAmount,\n            uint256[] memory expirationTimestamp\n        )\n    {\n        bytes32 listId = _listId;\n        uint256 _length = promiseCore.length(listId);\n\n        id = new uint256[](_length);\n        creatorAmount = new uint256[](_length);\n        joinerAmount = new uint256[](_length);\n        expirationTimestamp = new uint256[](_length);\n\n        uint256 i;\n        bytes32 index = listId;\n        PromData memory p;\n        while (i < _length) {\n            (index, id[i], ) = promiseCore.list(index);\n            (\n                ,\n                ,\n                p.creatorAmount,\n                ,\n                ,\n                ,\n                p.joinerAmount,\n                p.joinerDebt,\n                p.joinerPaidFull,\n                p.expirationTimestamp\n            ) = promiseCore.promises(id[i]);\n            creatorAmount[i] =\n                uint256(p.creatorAmount) -\n                (promiseCore.divMul(p.creatorAmount, p.joinerAmount, (p.joinerPaidFull) + (p.joinerDebt * 2)));\n            joinerAmount[i] = uint256(p.joinerAmount) - ((p.joinerPaidFull) + (p.joinerDebt * 2));\n            expirationTimestamp[i] = p.expirationTimestamp;\n            i++;\n        }\n    }\n\n    function _joinablePromisesRaw(bytes32[] memory _listId, uint256 lengthOfData)\n        public\n        view\n        returns (\n            uint256[] memory id,\n            uint256[] memory creatorAmount,\n            uint256[] memory joinerAmount,\n            uint256[] memory expirationTimestamp\n        )\n    {\n        id = new uint256[](lengthOfData);\n        creatorAmount = new uint256[](lengthOfData);\n        joinerAmount = new uint256[](lengthOfData);\n        expirationTimestamp = new uint256[](lengthOfData);\n\n        bytes32 listId;\n        uint256 _length;\n        uint256 j;\n        while (j < _listId.length - 1) {\n            listId = _listId[j];\n            _length = promiseCore.length(listId);\n            uint256 i;\n            bytes32 index = listId;\n            PromData memory p;\n            while (i < _length) {\n                (index, id[i], ) = promiseCore.list(index);\n                (\n                    ,\n                    ,\n                    p.creatorAmount,\n                    ,\n                    ,\n                    ,\n                    p.joinerAmount,\n                    p.joinerDebt,\n                    p.joinerPaidFull,\n                    p.expirationTimestamp\n                ) = promiseCore.promises(id[i]);\n                creatorAmount[i] =\n                    uint256(p.creatorAmount) -\n                    (promiseCore.divMul(p.creatorAmount, p.joinerAmount, (p.joinerPaidFull) + (p.joinerDebt * 2)));\n                joinerAmount[i] = uint256(p.joinerAmount) - ((p.joinerPaidFull) + (p.joinerDebt * 2));\n                expirationTimestamp[i] = p.expirationTimestamp;\n                i++;\n                if (i == lengthOfData - 1) {\n                    break;\n                }\n            }\n            j++;\n            if (i == lengthOfData - 1) {\n                break;\n            }\n        }\n    }\n\n    function getPopulatedJoinableTimeIntervals(\n        address creatorToken,\n        address joinerToken,\n        uint256 minExpiryDate,\n        uint256 maxExpiryDate\n    )\n        public\n        view\n        returns (uint256[] memory expirationTimestampWithinInterval, uint256[] memory numOfPromisesInTimeInterval)\n    {\n        uint256 timeInterval = promiseCore.joinableListIdTimeInterval();\n        uint256 numberOfTimeIntervals = (maxExpiryDate - minExpiryDate) / timeInterval;\n        require(numberOfTimeIntervals <= 200, \"Range too wide\");\n        expirationTimestampWithinInterval = new uint256[](numberOfTimeIntervals);\n        numOfPromisesInTimeInterval = new uint256[](numberOfTimeIntervals);\n        uint256 expirationTimestamp = minExpiryDate;\n        uint256 i;\n        while (expirationTimestamp < maxExpiryDate - timeInterval) {\n            expirationTimestampWithinInterval[i] = expirationTimestamp;\n            numOfPromisesInTimeInterval[i] = promiseCore.numberOfPromisesInTimeInterval(\n                keccak256(\n                    abi.encodePacked(creatorToken, joinerToken, numberOfTimeIntervalsSinceDeployed(expirationTimestamp))\n                )\n            );\n            expirationTimestamp += timeInterval;\n            i++;\n        }\n    }\n\n    function getPopulatedJoinableListIds(\n        address creatorToken,\n        address joinerToken,\n        uint256[] memory expirationTimestampsWithinIntervals,\n        uint8 lengthOfReturn\n    ) public view returns (bytes32[] memory listIds, uint256[] memory lengths) {\n        listIds = new bytes32[](lengthOfReturn);\n        lengths = new uint256[](lengthOfReturn);\n        uint256 numberOfBytesInCreatorAmount = 14;\n        uint256 numberOfBytesInJoinerAmount;\n        bytes32 currentListId;\n        uint256 i;\n        uint256 x;\n        while (x < expirationTimestampsWithinIntervals.length) {\n            while (numberOfBytesInJoinerAmount < 14) {\n                while (numberOfBytesInCreatorAmount != 0) {\n                    currentListId = keccak256(\n                        abi.encodePacked(\n                            creatorToken,\n                            joinerToken,\n                            numberOfTimeIntervalsSinceDeployed(expirationTimestampsWithinIntervals[x]),\n                            numberOfBytesInCreatorAmount,\n                            numberOfBytesInJoinerAmount\n                        )\n                    );\n                    if (promiseCore.length(currentListId) > 0) {\n                        listIds[i] = currentListId;\n                        lengths[i] = promiseCore.length(currentListId);\n                        i++;\n                    }\n\n                    numberOfBytesInCreatorAmount--;\n                }\n                numberOfBytesInCreatorAmount = 14;\n                numberOfBytesInJoinerAmount++;\n            }\n            x++;\n        }\n    }\n\n    function numberOfTimeIntervalsSinceDeployed(uint256 expirationTimestamp) internal view returns (uint256 result) {\n        result = (expirationTimestamp - promiseCore.startBlockTime()) / promiseCore.joinableListIdTimeInterval();\n    }\n\n    function integarNumberOfBytes(uint112 number) internal pure returns (uint256 _length) {\n        while (number != 0) {\n            number >>= 8;\n            _length++;\n        }\n    }\n}\n",
  "sourcePath": "/Users/nanoissuperior/promise-contracts/contracts/PromiseFinder.sol",
  "compiler": {
    "name": "solc",
    "version": "0.7.6+commit.7338295f.Emscripten.clang"
  },
  "schemaVersion": "3.2.4",
  "updatedAt": "2021-06-28T14:52:17.041Z",
  "networkType": "ethereum",
  "devdoc": {
    "kind": "dev",
    "methods": {},
    "version": 1
  },
  "userdoc": {
    "kind": "user",
    "methods": {},
    "version": 1
  }
}