{
  "contractName": "PromiseChefFinder",
  "abi": [
    {
      "inputs": [
        {
          "internalType": "contract PromiseCore",
          "name": "_promiseCore",
          "type": "address"
        },
        {
          "internalType": "contract PromiseChef",
          "name": "_promiseChef",
          "type": "address"
        },
        {
          "internalType": "address",
          "name": "_promiseHolder",
          "type": "address"
        }
      ],
      "stateMutability": "nonpayable",
      "type": "constructor"
    },
    {
      "inputs": [],
      "name": "promiseChef",
      "outputs": [
        {
          "internalType": "contract PromiseChef",
          "name": "",
          "type": "address"
        }
      ],
      "stateMutability": "view",
      "type": "function",
      "constant": true
    },
    {
      "inputs": [],
      "name": "promiseCore",
      "outputs": [
        {
          "internalType": "contract PromiseCore",
          "name": "",
          "type": "address"
        }
      ],
      "stateMutability": "view",
      "type": "function",
      "constant": true
    },
    {
      "inputs": [],
      "name": "promiseHolder",
      "outputs": [
        {
          "internalType": "address",
          "name": "",
          "type": "address"
        }
      ],
      "stateMutability": "view",
      "type": "function",
      "constant": true
    },
    {
      "inputs": [
        {
          "internalType": "address",
          "name": "account",
          "type": "address"
        }
      ],
      "name": "accountPromises",
      "outputs": [
        {
          "internalType": "uint256[]",
          "name": "id",
          "type": "uint256[]"
        },
        {
          "internalType": "uint256[]",
          "name": "outstandingDebt",
          "type": "uint256[]"
        },
        {
          "internalType": "uint256[]",
          "name": "receiving",
          "type": "uint256[]"
        },
        {
          "internalType": "uint256[]",
          "name": "expirationTimestamp",
          "type": "uint256[]"
        },
        {
          "internalType": "address[]",
          "name": "tokens",
          "type": "address[]"
        }
      ],
      "stateMutability": "view",
      "type": "function",
      "constant": true
    },
    {
      "inputs": [
        {
          "internalType": "uint256",
          "name": "id",
          "type": "uint256"
        },
        {
          "internalType": "address",
          "name": "account",
          "type": "address"
        }
      ],
      "name": "_accountPromises",
      "outputs": [
        {
          "internalType": "uint256",
          "name": "outstandingDebt",
          "type": "uint256"
        },
        {
          "internalType": "uint256",
          "name": "receiving",
          "type": "uint256"
        },
        {
          "internalType": "address",
          "name": "creatorToken",
          "type": "address"
        },
        {
          "internalType": "address",
          "name": "joinerToken",
          "type": "address"
        },
        {
          "internalType": "uint256",
          "name": "expirationTimestamp",
          "type": "uint256"
        }
      ],
      "stateMutability": "view",
      "type": "function",
      "constant": true
    }
  ],
  "bytecode": "0x608060405234801561001057600080fd5b5060405161128b38038061128b8339818101604052606081101561003357600080fd5b81019080805190602001909291908051906020019092919080519060200190929190505050826000806101000a81548173ffffffffffffffffffffffffffffffffffffffff021916908373ffffffffffffffffffffffffffffffffffffffff16021790555081600160006101000a81548173ffffffffffffffffffffffffffffffffffffffff021916908373ffffffffffffffffffffffffffffffffffffffff16021790555080600260006101000a81548173ffffffffffffffffffffffffffffffffffffffff021916908373ffffffffffffffffffffffffffffffffffffffff16021790555050505061115f8061012c6000396000f3fe608060405234801561001057600080fd5b50600436106100575760003560e01c80633bb260bd1461005c57806346c3225e146100905780637f45de7b146100c45780638fba402e146100f8578063b9d4ac1a146101a2575b600080fd5b61006461035b565b604051808273ffffffffffffffffffffffffffffffffffffffff16815260200191505060405180910390f35b61009861037f565b604051808273ffffffffffffffffffffffffffffffffffffffff16815260200191505060405180910390f35b6100cc6103a5565b604051808273ffffffffffffffffffffffffffffffffffffffff16815260200191505060405180910390f35b6101446004803603604081101561010e57600080fd5b8101908080359060200190929190803573ffffffffffffffffffffffffffffffffffffffff1690602001909291905050506103cb565b604051808681526020018581526020018473ffffffffffffffffffffffffffffffffffffffff1681526020018373ffffffffffffffffffffffffffffffffffffffff1681526020018281526020019550505050505060405180910390f35b6101e4600480360360208110156101b857600080fd5b81019080803573ffffffffffffffffffffffffffffffffffffffff169060200190929190505050610bc3565b60405180806020018060200180602001806020018060200186810386528b818151815260200191508051906020019060200280838360005b8381101561023757808201518184015260208101905061021c565b5050505090500186810385528a818151815260200191508051906020019060200280838360005b8381101561027957808201518184015260208101905061025e565b50505050905001868103845289818151815260200191508051906020019060200280838360005b838110156102bb5780820151818401526020810190506102a0565b50505050905001868103835288818151815260200191508051906020019060200280838360005b838110156102fd5780820151818401526020810190506102e2565b50505050905001868103825287818151815260200191508051906020019060200280838360005b8381101561033f578082015181840152602081019050610324565b505050509050019a505050505050505050505060405180910390f35b60008054906101000a900473ffffffffffffffffffffffffffffffffffffffff1681565b600260009054906101000a900473ffffffffffffffffffffffffffffffffffffffff1681565b600160009054906101000a900473ffffffffffffffffffffffffffffffffffffffff1681565b60008060008060006103db61104f565b6103e3611106565b60008054906101000a900473ffffffffffffffffffffffffffffffffffffffff1673ffffffffffffffffffffffffffffffffffffffff16631f06c8598a6040518263ffffffff1660e01b8152600401808281526020019150506101406040518083038186803b15801561045557600080fd5b505afa158015610469573d6000803e3d6000fd5b505050506040513d61014081101561048057600080fd5b8101908080519060200190929190805190602001909291908051906020019092919080519060200190929190805190602001909291908051906020019092919080519060200190929190805190602001909291908051906020019092919080519060200190929190505050909192939495969750909192939495965090919293949550909192939450909192935090919250909150905050826000018173ffffffffffffffffffffffffffffffffffffffff1673ffffffffffffffffffffffffffffffffffffffff1681525050600260009054906101000a900473ffffffffffffffffffffffffffffffffffffffff1673ffffffffffffffffffffffffffffffffffffffff16826000015173ffffffffffffffffffffffffffffffffffffffff16141561078b5760008054906101000a900473ffffffffffffffffffffffffffffffffffffffff1673ffffffffffffffffffffffffffffffffffffffff16631f06c8598a6040518263ffffffff1660e01b8152600401808281526020019150506101406040518083038186803b15801561061957600080fd5b505afa15801561062d573d6000803e3d6000fd5b505050506040513d61014081101561064457600080fd5b81019080805190602001909291908051906020019092919080519060200190929190805190602001909291908051906020019092919080519060200190929190805190602001909291908051906020019092919080519060200190929190805190602001909291905050509091929394959697985090919293949596509091929394509091925087602001886060018960a0018a60e0018b610100018c610120018681525086815250868152508673ffffffffffffffffffffffffffffffffffffffff1673ffffffffffffffffffffffffffffffffffffffff16815250868152508673ffffffffffffffffffffffffffffffffffffffff1673ffffffffffffffffffffffffffffffffffffffff16815250505050505050816060015196508161010001518260e00151019550816020015194508160a0015193508161012001519250610bb7565b60008989604051602001808381526020018273ffffffffffffffffffffffffffffffffffffffff1660601b81526014019250505060405160208183030381529060405280519060200120905060008054906101000a900473ffffffffffffffffffffffffffffffffffffffff1673ffffffffffffffffffffffffffffffffffffffff16632817b4838b836040518363ffffffff1660e01b8152600401808381526020018281526020019250505060606040518083038186803b15801561085057600080fd5b505afa158015610864573d6000803e3d6000fd5b505050506040513d606081101561087a57600080fd5b810190808051906020019092919080519060200190929190805190602001909291905050508460000185602001866040018315151515815250838152508381525050505060008054906101000a900473ffffffffffffffffffffffffffffffffffffffff1673ffffffffffffffffffffffffffffffffffffffff16631f06c8598b6040518263ffffffff1660e01b8152600401808281526020019150506101406040518083038186803b15801561093057600080fd5b505afa158015610944573d6000803e3d6000fd5b505050506040513d61014081101561095b57600080fd5b81019080805190602001909291908051906020019092919080519060200190929190805190602001909291908051906020019092919080519060200190929190805190602001909291908051906020019092919080519060200190929190805190602001909291905050509091929394959697985090919293949550909192939450909150905087602001886040018960a0018a60c0018b6101200185815250856dffffffffffffffffffffffffffff166dffffffffffffffffffffffffffff168152508573ffffffffffffffffffffffffffffffffffffffff1673ffffffffffffffffffffffffffffffffffffffff16815250856dffffffffffffffffffffffffffff166dffffffffffffffffffffffffffff168152508573ffffffffffffffffffffffffffffffffffffffff1673ffffffffffffffffffffffffffffffffffffffff1681525050505050508160200151975060008054906101000a900473ffffffffffffffffffffffffffffffffffffffff1673ffffffffffffffffffffffffffffffffffffffff16638ae9962784604001518560c0015185602001518660000151016040518463ffffffff1660e01b815260040180846dffffffffffffffffffffffffffff168152602001836dffffffffffffffffffffffffffff168152602001828152602001935050505060206040518083038186803b158015610b6257600080fd5b505afa158015610b76573d6000803e3d6000fd5b505050506040513d6020811015610b8c57600080fd5b810190808051906020019092919050505096508260a001519550826020015194508261012001519350505b50509295509295909350565b6060806060806060600086604051602001808273ffffffffffffffffffffffffffffffffffffffff1660601b81526014019150506040516020818303038152906040528051906020012090506000600160009054906101000a900473ffffffffffffffffffffffffffffffffffffffff1673ffffffffffffffffffffffffffffffffffffffff1663a9dbaf25836040518263ffffffff1660e01b81526004018082815260200191505060206040518083038186803b158015610c8457600080fd5b505afa158015610c98573d6000803e3d6000fd5b505050506040513d6020811015610cae57600080fd5b810190808051906020019092919050505090508067ffffffffffffffff81118015610cd857600080fd5b50604051908082528060200260200182016040528015610d075781602001602082028036833780820191505090505b5096508067ffffffffffffffff81118015610d2157600080fd5b50604051908082528060200260200182016040528015610d505781602001602082028036833780820191505090505b5095508067ffffffffffffffff81118015610d6a57600080fd5b50604051908082528060200260200182016040528015610d995781602001602082028036833780820191505090505b5094508067ffffffffffffffff81118015610db357600080fd5b50604051908082528060200260200182016040528015610de25781602001602082028036833780820191505090505b5093506002810267ffffffffffffffff81118015610dff57600080fd5b50604051908082528060200260200182016040528015610e2e5781602001602082028036833780820191505090505b5092506000808390505b8282101561104257600160009054906101000a900473ffffffffffffffffffffffffffffffffffffffff1673ffffffffffffffffffffffffffffffffffffffff166313d49a8b826040518263ffffffff1660e01b81526004018082815260200191505060606040518083038186803b158015610eb357600080fd5b505afa158015610ec7573d6000803e3d6000fd5b505050506040513d6060811015610edd57600080fd5b81019080805190602001909291908051906020019092919080519060200190929190505050508a8481518110610f0f57fe5b60200260200101818152508192505050610f3c898381518110610f2e57fe5b60200260200101518b6103cb565b8c8781518110610f4857fe5b602002602001018c8881518110610f5b57fe5b602002602001018b60008a11610f72576000610f77565b60028a025b81518110610f8157fe5b602002602001018c60008b11610f98576001610fa0565b600160028c02015b81518110610faa57fe5b602002602001018e8b81518110610fbd57fe5b60200260200101858152508573ffffffffffffffffffffffffffffffffffffffff1673ffffffffffffffffffffffffffffffffffffffff168152508573ffffffffffffffffffffffffffffffffffffffff1673ffffffffffffffffffffffffffffffffffffffff16815250858152508581525050505050508180600101925050610e38565b5050505091939590929450565b604051806101400160405280600073ffffffffffffffffffffffffffffffffffffffff168152602001600073ffffffffffffffffffffffffffffffffffffffff16815260200160006dffffffffffffffffffffffffffff16815260200160008152602001600015158152602001600073ffffffffffffffffffffffffffffffffffffffff16815260200160006dffffffffffffffffffffffffffff1681526020016000815260200160008152602001600081525090565b60405180606001604052806000815260200160008152602001600015158152509056fea2646970667358221220c6e0d39485301489f164439e58124a2ca934c0221cb7b4dccdbf152dffb42f3164736f6c63430007060033",
  "immutableReferences": {},
  "source": "pragma solidity >=0.4.21 <0.8.0;\n\nimport {PromiseCore} from \"../PromiseCore.sol\";\nimport {PromiseChef} from \"./PromiseChef.sol\";\n\ncontract PromiseChefFinder {\n    PromiseCore public promiseCore;\n    PromiseChef public promiseChef;\n    address public promiseHolder;\n\n    struct PromData {\n        address creator;\n        address creatorToken;\n        uint112 creatorAmount;\n        uint256 creatorDebt;\n        bool hasCreatorExecuted;\n        address joinerToken;\n        uint112 joinerAmount;\n        uint256 joinerDebt;\n        uint256 joinerPaidFull;\n        uint256 expirationTimestamp;\n    }\n\n    struct Promjoiners {\n        uint256 amountPaid;\n        uint256 outstandingDebt;\n        bool hasExecuted;\n    }\n\n    struct LinkedList {\n        bytes32 next;\n        uint256 id;\n        bytes32 previous;\n    }\n\n    constructor(\n        PromiseCore _promiseCore,\n        PromiseChef _promiseChef,\n        address _promiseHolder\n    ) public {\n        promiseCore = _promiseCore;\n        promiseChef = _promiseChef;\n        promiseHolder = _promiseHolder;\n    }\n\n    function accountPromises(address account)\n        public\n        view\n        returns (\n            uint256[] memory id,\n            uint256[] memory outstandingDebt,\n            uint256[] memory receiving,\n            uint256[] memory expirationTimestamp,\n            address[] memory tokens\n        )\n    {\n        bytes32 listId = keccak256(abi.encodePacked(account));\n        uint256 _length = promiseChef.length(listId);\n\n        id = new uint256[](_length);\n        outstandingDebt = new uint256[](_length);\n        receiving = new uint256[](_length);\n        expirationTimestamp = new uint256[](_length);\n        // tokens array is twice the length because it has 2 entries added every loop\n        tokens = new address[](_length * 2);\n\n        uint256 i;\n        bytes32 index = listId;\n        while (i < _length) {\n            (index, id[i], ) = promiseChef.list(index);\n            (\n                outstandingDebt[i],\n                receiving[i],\n                tokens[i > 0 ? i * 2 : 0],\n                tokens[i > 0 ? (i * 2) + 1 : 1],\n                expirationTimestamp[i]\n            ) = _accountPromises(id[i], account);\n            i++;\n        }\n    }\n\n    function _accountPromises(uint256 id, address account)\n        public\n        view\n        returns (\n            uint256 outstandingDebt,\n            uint256 receiving,\n            address creatorToken,\n            address joinerToken,\n            uint256 expirationTimestamp\n        )\n    {\n        PromData memory p;\n        Promjoiners memory j;\n        (p.creator, , , , , , , , , ) = promiseCore.promises(id);\n        if (p.creator == promiseHolder) {\n            (\n                ,\n                p.creatorToken,\n                ,\n                p.creatorDebt,\n                ,\n                p.joinerToken,\n                ,\n                p.joinerDebt,\n                p.joinerPaidFull,\n                p.expirationTimestamp\n            ) = promiseCore.promises(id);\n            outstandingDebt = p.creatorDebt;\n            receiving = p.joinerDebt + p.joinerPaidFull;\n            creatorToken = p.creatorToken;\n            joinerToken = p.joinerToken;\n            expirationTimestamp = p.expirationTimestamp;\n        } else {\n            bytes32 joinerId = keccak256(abi.encodePacked(id, account));\n            (j.amountPaid, j.outstandingDebt, j.hasExecuted) = promiseCore.joiners(id, joinerId);\n            (\n                ,\n                p.creatorToken,\n                p.creatorAmount,\n                ,\n                ,\n                p.joinerToken,\n                p.joinerAmount,\n                ,\n                ,\n                p.expirationTimestamp\n            ) = promiseCore.promises(id);\n            outstandingDebt = j.outstandingDebt;\n            receiving = promiseCore.divMul(p.creatorAmount, p.joinerAmount, j.amountPaid + j.outstandingDebt);\n            creatorToken = p.joinerToken;\n            joinerToken = p.creatorToken;\n            expirationTimestamp = p.expirationTimestamp;\n        }\n    }\n}\n",
  "sourcePath": "/Users/nanoissuperior/promise-contracts/contracts/farms/PromiseChefFinder.sol",
  "compiler": {
    "name": "solc",
    "version": "0.7.6+commit.7338295f.Emscripten.clang"
  },
  "schemaVersion": "3.4.2",
  "updatedAt": "2021-08-18T13:30:49.923Z",
  "networkType": "ethereum",
  "devdoc": {
    "kind": "dev",
    "methods": {},
    "version": 1
  },
  "userdoc": {
    "kind": "user",
    "methods": {},
    "version": 1
  }
}