{
  "contractName": "PromTest",
  "abi": [
    {
      "inputs": [
        {
          "internalType": "contract IPromiseCore",
          "name": "_promiseCore",
          "type": "address"
        },
        {
          "internalType": "contract IPromiseFinder",
          "name": "_promiseFinder",
          "type": "address"
        },
        {
          "internalType": "address",
          "name": "_t1",
          "type": "address"
        },
        {
          "internalType": "address",
          "name": "_t2",
          "type": "address"
        }
      ],
      "stateMutability": "nonpayable",
      "type": "constructor"
    },
    {
      "anonymous": false,
      "inputs": [
        {
          "indexed": false,
          "internalType": "uint256",
          "name": "outstandingDebt",
          "type": "uint256"
        },
        {
          "indexed": false,
          "internalType": "uint256",
          "name": "projectedOutstandingDebt",
          "type": "uint256"
        }
      ],
      "name": "debtOwed",
      "type": "event"
    },
    {
      "anonymous": false,
      "inputs": [
        {
          "indexed": false,
          "internalType": "uint256",
          "name": "amountToJoin",
          "type": "uint256"
        },
        {
          "indexed": false,
          "internalType": "uint256",
          "name": "amountJoinedWith",
          "type": "uint256"
        }
      ],
      "name": "joinedWith",
      "type": "event"
    },
    {
      "anonymous": false,
      "inputs": [
        {
          "indexed": false,
          "internalType": "uint256",
          "name": "creatorTokenAmount",
          "type": "uint256"
        },
        {
          "indexed": false,
          "internalType": "uint256",
          "name": "joinerTokenAmount",
          "type": "uint256"
        }
      ],
      "name": "leftOver",
      "type": "event"
    },
    {
      "anonymous": false,
      "inputs": [
        {
          "indexed": false,
          "internalType": "uint256",
          "name": "shouldPaidThis",
          "type": "uint256"
        },
        {
          "indexed": false,
          "internalType": "uint256",
          "name": "wasPaidThis",
          "type": "uint256"
        }
      ],
      "name": "paid",
      "type": "event"
    },
    {
      "inputs": [],
      "name": "promiseCore",
      "outputs": [
        {
          "internalType": "contract IPromiseCore",
          "name": "",
          "type": "address"
        }
      ],
      "stateMutability": "view",
      "type": "function"
    },
    {
      "inputs": [],
      "name": "promiseFinder",
      "outputs": [
        {
          "internalType": "contract IPromiseFinder",
          "name": "",
          "type": "address"
        }
      ],
      "stateMutability": "view",
      "type": "function"
    },
    {
      "inputs": [],
      "name": "token1",
      "outputs": [
        {
          "internalType": "address",
          "name": "",
          "type": "address"
        }
      ],
      "stateMutability": "view",
      "type": "function"
    },
    {
      "inputs": [],
      "name": "token2",
      "outputs": [
        {
          "internalType": "address",
          "name": "",
          "type": "address"
        }
      ],
      "stateMutability": "view",
      "type": "function"
    },
    {
      "inputs": [],
      "name": "scenario1",
      "outputs": [],
      "stateMutability": "nonpayable",
      "type": "function"
    },
    {
      "inputs": [],
      "name": "scenario1Execution",
      "outputs": [],
      "stateMutability": "nonpayable",
      "type": "function"
    },
    {
      "inputs": [],
      "name": "scenario2",
      "outputs": [],
      "stateMutability": "nonpayable",
      "type": "function"
    },
    {
      "inputs": [],
      "name": "scenario2Execution",
      "outputs": [],
      "stateMutability": "nonpayable",
      "type": "function"
    },
    {
      "inputs": [],
      "name": "scenario3",
      "outputs": [],
      "stateMutability": "nonpayable",
      "type": "function"
    },
    {
      "inputs": [],
      "name": "scenario3Execution",
      "outputs": [],
      "stateMutability": "nonpayable",
      "type": "function"
    },
    {
      "inputs": [],
      "name": "scenario4",
      "outputs": [],
      "stateMutability": "nonpayable",
      "type": "function"
    },
    {
      "inputs": [],
      "name": "scenario4Execution",
      "outputs": [],
      "stateMutability": "nonpayable",
      "type": "function"
    },
    {
      "inputs": [],
      "name": "scenario5",
      "outputs": [],
      "stateMutability": "nonpayable",
      "type": "function"
    },
    {
      "inputs": [
        {
          "internalType": "address",
          "name": "account",
          "type": "address"
        }
      ],
      "name": "scenario5JoiningAndPaying",
      "outputs": [],
      "stateMutability": "nonpayable",
      "type": "function"
    },
    {
      "inputs": [],
      "name": "scenario5ClosePendingAmount",
      "outputs": [],
      "stateMutability": "nonpayable",
      "type": "function"
    },
    {
      "inputs": [
        {
          "internalType": "address",
          "name": "account",
          "type": "address"
        }
      ],
      "name": "scenario5Execution",
      "outputs": [],
      "stateMutability": "nonpayable",
      "type": "function"
    },
    {
      "inputs": [],
      "name": "scenario5ForCreator",
      "outputs": [],
      "stateMutability": "nonpayable",
      "type": "function"
    },
    {
      "inputs": [],
      "name": "createPromise",
      "outputs": [],
      "stateMutability": "nonpayable",
      "type": "function"
    },
    {
      "inputs": [
        {
          "internalType": "uint256",
          "name": "id",
          "type": "uint256"
        },
        {
          "internalType": "address",
          "name": "account",
          "type": "address"
        },
        {
          "internalType": "uint112",
          "name": "_amount",
          "type": "uint112"
        }
      ],
      "name": "joinPromise",
      "outputs": [],
      "stateMutability": "nonpayable",
      "type": "function"
    },
    {
      "inputs": [
        {
          "internalType": "uint256",
          "name": "_id",
          "type": "uint256"
        },
        {
          "internalType": "address",
          "name": "account",
          "type": "address"
        }
      ],
      "name": "payPromise",
      "outputs": [],
      "stateMutability": "nonpayable",
      "type": "function"
    },
    {
      "inputs": [
        {
          "internalType": "uint256",
          "name": "_id",
          "type": "uint256"
        },
        {
          "internalType": "address",
          "name": "account",
          "type": "address"
        }
      ],
      "name": "executePromise",
      "outputs": [],
      "stateMutability": "nonpayable",
      "type": "function"
    },
    {
      "inputs": [
        {
          "internalType": "uint256",
          "name": "_id",
          "type": "uint256"
        },
        {
          "internalType": "address",
          "name": "account",
          "type": "address"
        },
        {
          "internalType": "uint256",
          "name": "_outstandingDebt",
          "type": "uint256"
        }
      ],
      "name": "checkAccountPromisesIsCorrect",
      "outputs": [],
      "stateMutability": "nonpayable",
      "type": "function"
    },
    {
      "inputs": [
        {
          "internalType": "uint256",
          "name": "_id",
          "type": "uint256"
        },
        {
          "internalType": "address",
          "name": "account",
          "type": "address"
        }
      ],
      "name": "checkRemovedFromAccountPromises",
      "outputs": [],
      "stateMutability": "view",
      "type": "function"
    },
    {
      "inputs": [
        {
          "internalType": "uint256",
          "name": "_id",
          "type": "uint256"
        }
      ],
      "name": "checkRemovedFromJoinablePromises",
      "outputs": [],
      "stateMutability": "view",
      "type": "function"
    },
    {
      "inputs": [
        {
          "internalType": "uint256",
          "name": "_id",
          "type": "uint256"
        },
        {
          "internalType": "address",
          "name": "account",
          "type": "address"
        }
      ],
      "name": "getReceivingAndOutstandingDebt",
      "outputs": [
        {
          "internalType": "uint256",
          "name": "a",
          "type": "uint256"
        },
        {
          "internalType": "uint256",
          "name": "b",
          "type": "uint256"
        }
      ],
      "stateMutability": "view",
      "type": "function"
    },
    {
      "inputs": [
        {
          "internalType": "uint256",
          "name": "_id",
          "type": "uint256"
        },
        {
          "internalType": "address",
          "name": "_token1",
          "type": "address"
        },
        {
          "internalType": "address",
          "name": "_token2",
          "type": "address"
        },
        {
          "internalType": "uint112",
          "name": "_creatorAmount",
          "type": "uint112"
        },
        {
          "internalType": "uint112",
          "name": "_joinerAmount",
          "type": "uint112"
        }
      ],
      "name": "checkJoinablePromisesIsCorrect",
      "outputs": [],
      "stateMutability": "nonpayable",
      "type": "function"
    },
    {
      "inputs": [
        {
          "internalType": "uint256",
          "name": "_id",
          "type": "uint256"
        },
        {
          "internalType": "address",
          "name": "_token1",
          "type": "address"
        },
        {
          "internalType": "address",
          "name": "_token2",
          "type": "address"
        }
      ],
      "name": "getJoinablePromisesAmounts",
      "outputs": [
        {
          "internalType": "uint256",
          "name": "a",
          "type": "uint256"
        },
        {
          "internalType": "uint256",
          "name": "b",
          "type": "uint256"
        }
      ],
      "stateMutability": "view",
      "type": "function"
    },
    {
      "inputs": [],
      "name": "getRandomNumber",
      "outputs": [
        {
          "internalType": "uint112",
          "name": "",
          "type": "uint112"
        }
      ],
      "stateMutability": "nonpayable",
      "type": "function"
    },
    {
      "inputs": [],
      "name": "randomNumber",
      "outputs": [
        {
          "internalType": "uint112",
          "name": "",
          "type": "uint112"
        }
      ],
      "stateMutability": "view",
      "type": "function"
    },
    {
      "inputs": [],
      "name": "approve",
      "outputs": [],
      "stateMutability": "nonpayable",
      "type": "function"
    },
    {
      "inputs": [
        {
          "internalType": "address",
          "name": "token",
          "type": "address"
        },
        {
          "internalType": "address",
          "name": "account",
          "type": "address"
        }
      ],
      "name": "checkBalance",
      "outputs": [
        {
          "internalType": "uint256",
          "name": "z",
          "type": "uint256"
        }
      ],
      "stateMutability": "view",
      "type": "function"
    },
    {
      "inputs": [],
      "name": "hasLeftOver",
      "outputs": [],
      "stateMutability": "nonpayable",
      "type": "function"
    }
  ],
  "bytecode": "0x6080604052730a098eda01ce92ff4a4ccb7a4fffb5a43ebc70dc600560006101000a81548173ffffffffffffffffffffffffffffffffffffffff021916908373ffffffffffffffffffffffffffffffffffffffff16021790555073ab8483f64d9c6d1ecf9b849ae677dd3315835cb2600660006101000a81548173ffffffffffffffffffffffffffffffffffffffff021916908373ffffffffffffffffffffffffffffffffffffffff1602179055503480156100ba57600080fd5b50604051620049e8380380620049e8833981810160405260808110156100df57600080fd5b810190808051906020019092919080519060200190929190805190602001909291908051906020019092919050505083600360006101000a81548173ffffffffffffffffffffffffffffffffffffffff021916908373ffffffffffffffffffffffffffffffffffffffff16021790555082600460006101000a81548173ffffffffffffffffffffffffffffffffffffffff021916908373ffffffffffffffffffffffffffffffffffffffff16021790555081600160006101000a81548173ffffffffffffffffffffffffffffffffffffffff021916908373ffffffffffffffffffffffffffffffffffffffff16021790555080600260006101000a81548173ffffffffffffffffffffffffffffffffffffffff021916908373ffffffffffffffffffffffffffffffffffffffff160217905550505050506147c280620002266000396000f3fe608060405234801561001057600080fd5b50600436106101f05760003560e01c8063779c96041161010f578063d1448b8c116100a2578063dbdff2c111610071578063dbdff2c11461072a578063e6a91f9f14610758578063ee7d1e1014610762578063f642ec5a14610790576101f0565b8063d1448b8c1461065a578063d21220a71461069e578063d217e183146106d2578063d61693ae146106dc576101f0565b8063ada8b2a4116100de578063ada8b2a414610586578063c13ce392146105ba578063c5dec70414610622578063ccbac9f51461062c576101f0565b8063779c96041461049157806377b76ec3146104fa578063896c59fb146105725780639ec7ed311461057c576101f0565b80633355477c11610187578063551fdf9c11610156578063551fdf9c146103eb578063627cf474146103f557806368626ad2146104435780636e73b2e814610487576101f0565b80633355477c146103555780633bb260bd1461035f578063530222af146103935780635446eedf146103e1576101f0565b806316e256b8116101c357806316e256b8146102b557806318f33ab01461030d578063193d2dfa1461031757806325be124e14610321576101f0565b80630653fa91146101f557806306633a911461029757806312424e3f146102a15780631400c773146102ab575b600080fd5b610295600480360360a081101561020b57600080fd5b8101908080359060200190929190803573ffffffffffffffffffffffffffffffffffffffff169060200190929190803573ffffffffffffffffffffffffffffffffffffffff16906020019092919080356dffffffffffffffffffffffffffff16906020019092919080356dffffffffffffffffffffffffffff169060200190929190505050610819565b005b61029f610c7a565b005b6102a9610de0565b005b6102b3611004565b005b61030b600480360360608110156102cb57600080fd5b8101908080359060200190929190803573ffffffffffffffffffffffffffffffffffffffff16906020019092919080359060200190929190505050611012565b005b610315611536565b005b61031f611572565b005b6103296115dc565b604051808273ffffffffffffffffffffffffffffffffffffffff16815260200191505060405180910390f35b61035d611602565b005b6103676116d7565b604051808273ffffffffffffffffffffffffffffffffffffffff16815260200191505060405180910390f35b6103df600480360360408110156103a957600080fd5b8101908080359060200190929190803573ffffffffffffffffffffffffffffffffffffffff1690602001909291905050506116fd565b005b6103e9611b48565b005b6103f3612050565b005b6104416004803603604081101561040b57600080fd5b8101908080359060200190929190803573ffffffffffffffffffffffffffffffffffffffff16906020019092919050505061205a565b005b6104856004803603602081101561045957600080fd5b81019080803573ffffffffffffffffffffffffffffffffffffffff1690602001909291905050506125e6565b005b61048f6125f5565b005b6104dd600480360360408110156104a757600080fd5b8101908080359060200190929190803573ffffffffffffffffffffffffffffffffffffffff169060200190929190505050612631565b604051808381526020018281526020019250505060405180910390f35b61055c6004803603604081101561051057600080fd5b81019080803573ffffffffffffffffffffffffffffffffffffffff169060200190929190803573ffffffffffffffffffffffffffffffffffffffff169060200190929190505050612ac9565b6040518082815260200191505060405180910390f35b61057a612b75565b005b610584612bdf565b005b61058e612c70565b604051808273ffffffffffffffffffffffffffffffffffffffff16815260200191505060405180910390f35b610620600480360360608110156105d057600080fd5b8101908080359060200190929190803573ffffffffffffffffffffffffffffffffffffffff16906020019092919080356dffffffffffffffffffffffffffff169060200190929190505050612c96565b005b61062a612fa9565b005b610634613126565b60405180826dffffffffffffffffffffffffffff16815260200191505060405180910390f35b61069c6004803603602081101561067057600080fd5b81019080803573ffffffffffffffffffffffffffffffffffffffff16906020019092919050505061323a565b005b6106a6613333565b604051808273ffffffffffffffffffffffffffffffffffffffff16815260200191505060405180910390f35b6106da613359565b005b610728600480360360408110156106f257600080fd5b8101908080359060200190929190803573ffffffffffffffffffffffffffffffffffffffff169060200190929190505050613491565b005b610732613b2b565b60405180826dffffffffffffffffffffffffffff16815260200191505060405180910390f35b610760613b98565b005b61078e6004803603602081101561077857600080fd5b8101908080359060200190929190505050613cf2565b005b6107fc600480360360608110156107a657600080fd5b8101908080359060200190929190803573ffffffffffffffffffffffffffffffffffffffff169060200190929190803573ffffffffffffffffffffffffffffffffffffffff169060200190929190505050614173565b604051808381526020018281526020019250505060405180910390f35b6060806060600460009054906101000a900473ffffffffffffffffffffffffffffffffffffffff1673ffffffffffffffffffffffffffffffffffffffff1663bda8335e8888600854600960009054906101000a90046dffffffffffffffffffffffffffff166009600e9054906101000a90046dffffffffffffffffffffffffffff166040518663ffffffff1660e01b8152600401808673ffffffffffffffffffffffffffffffffffffffff1681526020018573ffffffffffffffffffffffffffffffffffffffff168152602001848152602001836dffffffffffffffffffffffffffff168152602001826dffffffffffffffffffffffffffff1681526020019550505050505060006040518083038186803b15801561093757600080fd5b505afa15801561094b573d6000803e3d6000fd5b505050506040513d6000823e3d601f19601f82011682018060405250608081101561097557600080fd5b810190808051604051939291908464010000000082111561099557600080fd5b838201915060208201858111156109ab57600080fd5b82518660208202830111640100000000821117156109c857600080fd5b8083526020830192505050908051906020019060200280838360005b838110156109ff5780820151818401526020810190506109e4565b5050505090500160405260200180516040519392919084640100000000821115610a2857600080fd5b83820191506020820185811115610a3e57600080fd5b8251866020820283011164010000000082111715610a5b57600080fd5b8083526020830192505050908051906020019060200280838360005b83811015610a92578082015181840152602081019050610a77565b5050505090500160405260200180516040519392919084640100000000821115610abb57600080fd5b83820191506020820185811115610ad157600080fd5b8251866020820283011164010000000082111715610aee57600080fd5b8083526020830192505050908051906020019060200280838360005b83811015610b25578082015181840152602081019050610b0a565b5050505090500160405260200180516040519392919084640100000000821115610b4e57600080fd5b83820191506020820185811115610b6457600080fd5b8251866020820283011164010000000082111715610b8157600080fd5b8083526020830192505050908051906020019060200280838360005b83811015610bb8578082015181840152602081019050610b9d565b505050509050016040525050509091509050508093505060005b838181518110610bde57fe5b60200260200101518914610c6f57808060010191505060288110610c6a576040517f08c379a00000000000000000000000000000000000000000000000000000000081526004018080602001828103825260208152602001807f4944206e6f7420666f756e6420696e206163636f756e742070726f6d6973657381525060200191505060405180910390fd5b610bd2565b505050505050505050565b610c82610de0565b610c8a611b48565b6000610cdd600754600160009054906101000a900473ffffffffffffffffffffffffffffffffffffffff16600260009054906101000a900473ffffffffffffffffffffffffffffffffffffffff16614173565b905080915050610d2c600754600560009054906101000a900473ffffffffffffffffffffffffffffffffffffffff166003846dffffffffffffffffffffffffffff1681610d2657fe5b04612c96565b610d75600754600660009054906101000a900473ffffffffffffffffffffffffffffffffffffffff166005846dffffffffffffffffffffffffffff1681610d6f57fe5b04612c96565b610d816007543061205a565b610daf600754600560009054906101000a900473ffffffffffffffffffffffffffffffffffffffff1661205a565b610ddd600754600660009054906101000a900473ffffffffffffffffffffffffffffffffffffffff1661205a565b50565b600160009054906101000a900473ffffffffffffffffffffffffffffffffffffffff1673ffffffffffffffffffffffffffffffffffffffff1663095ea7b3600360009054906101000a900473ffffffffffffffffffffffffffffffffffffffff167fffffffffffffffffffffffffffffffffffffffffffffffffffffffffffffffff6040518363ffffffff1660e01b8152600401808373ffffffffffffffffffffffffffffffffffffffff16815260200182815260200192505050602060405180830381600087803b158015610eb557600080fd5b505af1158015610ec9573d6000803e3d6000fd5b505050506040513d6020811015610edf57600080fd5b810190808051906020019092919050505050600260009054906101000a900473ffffffffffffffffffffffffffffffffffffffff1673ffffffffffffffffffffffffffffffffffffffff1663095ea7b3600360009054906101000a900473ffffffffffffffffffffffffffffffffffffffff167fffffffffffffffffffffffffffffffffffffffffffffffffffffffffffffffff6040518363ffffffff1660e01b8152600401808373ffffffffffffffffffffffffffffffffffffffff16815260200182815260200192505050602060405180830381600087803b158015610fc657600080fd5b505af1158015610fda573d6000803e3d6000fd5b505050506040513d6020811015610ff057600080fd5b810190808051906020019092919050505050565b61101060075430613491565b565b6060806060600460009054906101000a900473ffffffffffffffffffffffffffffffffffffffff1673ffffffffffffffffffffffffffffffffffffffff1663b9d4ac1a866040518263ffffffff1660e01b8152600401808273ffffffffffffffffffffffffffffffffffffffff16815260200191505060006040518083038186803b1580156110a057600080fd5b505afa1580156110b4573d6000803e3d6000fd5b505050506040513d6000823e3d601f19601f8201168201806040525060a08110156110de57600080fd5b81019080805160405193929190846401000000008211156110fe57600080fd5b8382019150602082018581111561111457600080fd5b825186602082028301116401000000008211171561113157600080fd5b8083526020830192505050908051906020019060200280838360005b8381101561116857808201518184015260208101905061114d565b505050509050016040526020018051604051939291908464010000000082111561119157600080fd5b838201915060208201858111156111a757600080fd5b82518660208202830111640100000000821117156111c457600080fd5b8083526020830192505050908051906020019060200280838360005b838110156111fb5780820151818401526020810190506111e0565b505050509050016040526020018051604051939291908464010000000082111561122457600080fd5b8382019150602082018581111561123a57600080fd5b825186602082028301116401000000008211171561125757600080fd5b8083526020830192505050908051906020019060200280838360005b8381101561128e578082015181840152602081019050611273565b50505050905001604052602001805160405193929190846401000000008211156112b757600080fd5b838201915060208201858111156112cd57600080fd5b82518660208202830111640100000000821117156112ea57600080fd5b8083526020830192505050908051906020019060200280838360005b83811015611321578082015181840152602081019050611306565b505050509050016040526020018051604051939291908464010000000082111561134a57600080fd5b8382019150602082018581111561136057600080fd5b825186602082028301116401000000008211171561137d57600080fd5b8083526020830192505050908051906020019060200280838360005b838110156113b4578082015181840152602081019050611399565b5050505090500160405250505090505080945081935082955050505060005b8381815181106113df57fe5b602002602001015187146114705780806001019150506028811061146b576040517f08c379a00000000000000000000000000000000000000000000000000000000081526004018080602001828103825260208152602001807f4944206e6f7420666f756e6420696e206163636f756e742070726f6d6973657381525060200191505060405180910390fd5b6113d3565b7ffcb3c0e863979bdadc5e0da967e37c1942eeb49219ace81573ec78dcf406bebf82828151811061149d57fe5b602002602001015186604051808381526020018281526020019250505060405180910390a1848282815181106114cf57fe5b60200260200101511461152d576040517f08c379a000000000000000000000000000000000000000000000000000000000815260040180806020018281038252603181526020018061470d6031913960400191505060405180910390fd5b50505050505050565b61154260075430613491565b611570600754600660009054906101000a900473ffffffffffffffffffffffffffffffffffffffff16613491565b565b61157e60075430613491565b6115ac600754600560009054906101000a900473ffffffffffffffffffffffffffffffffffffffff16613491565b6115da600754600660009054906101000a900473ffffffffffffffffffffffffffffffffffffffff16613491565b565b600260009054906101000a900473ffffffffffffffffffffffffffffffffffffffff1681565b61160a610de0565b611612611b48565b6000611665600754600160009054906101000a900473ffffffffffffffffffffffffffffffffffffffff16600260009054906101000a900473ffffffffffffffffffffffffffffffffffffffff16614173565b90508091505061169a600754600560009054906101000a900473ffffffffffffffffffffffffffffffffffffffff1683612c96565b6116a66007543061205a565b6116d4600754600560009054906101000a900473ffffffffffffffffffffffffffffffffffffffff1661205a565b50565b600360009054906101000a900473ffffffffffffffffffffffffffffffffffffffff1681565b6060806060600460009054906101000a900473ffffffffffffffffffffffffffffffffffffffff1673ffffffffffffffffffffffffffffffffffffffff1663b9d4ac1a856040518263ffffffff1660e01b8152600401808273ffffffffffffffffffffffffffffffffffffffff16815260200191505060006040518083038186803b15801561178b57600080fd5b505afa15801561179f573d6000803e3d6000fd5b505050506040513d6000823e3d601f19601f8201168201806040525060a08110156117c957600080fd5b81019080805160405193929190846401000000008211156117e957600080fd5b838201915060208201858111156117ff57600080fd5b825186602082028301116401000000008211171561181c57600080fd5b8083526020830192505050908051906020019060200280838360005b83811015611853578082015181840152602081019050611838565b505050509050016040526020018051604051939291908464010000000082111561187c57600080fd5b8382019150602082018581111561189257600080fd5b82518660208202830111640100000000821117156118af57600080fd5b8083526020830192505050908051906020019060200280838360005b838110156118e65780820151818401526020810190506118cb565b505050509050016040526020018051604051939291908464010000000082111561190f57600080fd5b8382019150602082018581111561192557600080fd5b825186602082028301116401000000008211171561194257600080fd5b8083526020830192505050908051906020019060200280838360005b8381101561197957808201518184015260208101905061195e565b50505050905001604052602001805160405193929190846401000000008211156119a257600080fd5b838201915060208201858111156119b857600080fd5b82518660208202830111640100000000821117156119d557600080fd5b8083526020830192505050908051906020019060200280838360005b83811015611a0c5780820151818401526020810190506119f1565b5050505090500160405260200180516040519392919084640100000000821115611a3557600080fd5b83820191506020820185811115611a4b57600080fd5b8251866020820283011164010000000082111715611a6857600080fd5b8083526020830192505050908051906020019060200280838360005b83811015611a9f578082015181840152602081019050611a84565b5050505090500160405250505090505080945081935082955050505060005b8351811015611b4057838181518110611ad357fe5b6020026020010151861415611b33576040517f08c379a000000000000000000000000000000000000000000000000000000000815260040180806020018281038252602c815260200180614608602c913960400191505060405180910390fd5b8080600101915050611abe565b505050505050565b611b50610de0565b6000611b5a613b2b565b90506000611b66613b2b565b90506000600160009054906101000a900473ffffffffffffffffffffffffffffffffffffffff1673ffffffffffffffffffffffffffffffffffffffff166370a08231306040518263ffffffff1660e01b8152600401808273ffffffffffffffffffffffffffffffffffffffff16815260200191505060206040518083038186803b158015611bf357600080fd5b505afa158015611c07573d6000803e3d6000fd5b505050506040513d6020811015611c1d57600080fd5b81019080805190602001909291905050509050600360009054906101000a900473ffffffffffffffffffffffffffffffffffffffff1673ffffffffffffffffffffffffffffffffffffffff1663e2d638d430600160009054906101000a900473ffffffffffffffffffffffffffffffffffffffff1686600260009054906101000a900473ffffffffffffffffffffffffffffffffffffffff16876206978042016040518763ffffffff1660e01b8152600401808773ffffffffffffffffffffffffffffffffffffffff1681526020018673ffffffffffffffffffffffffffffffffffffffff168152602001856dffffffffffffffffffffffffffff1681526020018473ffffffffffffffffffffffffffffffffffffffff168152602001836dffffffffffffffffffffffffffff1681526020018281526020019650505050505050600060405180830381600087803b158015611d7857600080fd5b505af1158015611d8c573d6000803e3d6000fd5b505050506000600160009054906101000a900473ffffffffffffffffffffffffffffffffffffffff1673ffffffffffffffffffffffffffffffffffffffff166370a08231306040518263ffffffff1660e01b8152600401808273ffffffffffffffffffffffffffffffffffffffff16815260200191505060206040518083038186803b158015611e1b57600080fd5b505afa158015611e2f573d6000803e3d6000fd5b505050506040513d6020811015611e4557600080fd5b810190808051906020019092919050505090506002846dffffffffffffffffffffffffffff1681611e7257fe5b046dffffffffffffffffffffffffffff1681830314611edc576040517f08c379a00000000000000000000000000000000000000000000000000000000081526004018080602001828103825260228152602001806146eb6022913960400191505060405180910390fd5b60076000815480929190600101919050555062069780420160088190555083600960006101000a8154816dffffffffffffffffffffffffffff02191690836dffffffffffffffffffffffffffff160217905550826009600e6101000a8154816dffffffffffffffffffffffffffff02191690836dffffffffffffffffffffffffffff160217905550600a6007549080600181540180825580915050600190039060005260206000200160009091909190915055611fc6600754306002876dffffffffffffffffffffffffffff1681611fb057fe5b046dffffffffffffffffffffffffffff16611012565b6002846dffffffffffffffffffffffffffff1681611fe057fe5b046dffffffffffffffffffffffffffff16600b8190555061204a600754600160009054906101000a900473ffffffffffffffffffffffffffffffffffffffff16600260009054906101000a900473ffffffffffffffffffffffffffffffffffffffff168787610819565b50505050565b612058611b48565b565b60008060006120698585612631565b9050809150503073ffffffffffffffffffffffffffffffffffffffff168473ffffffffffffffffffffffffffffffffffffffff16141561234157600160009054906101000a900473ffffffffffffffffffffffffffffffffffffffff1673ffffffffffffffffffffffffffffffffffffffff166370a08231306040518263ffffffff1660e01b8152600401808273ffffffffffffffffffffffffffffffffffffffff16815260200191505060206040518083038186803b15801561212c57600080fd5b505afa158015612140573d6000803e3d6000fd5b505050506040513d602081101561215657600080fd5b81019080805190602001909291905050509250600360009054906101000a900473ffffffffffffffffffffffffffffffffffffffff1673ffffffffffffffffffffffffffffffffffffffff1663627cf47486866040518363ffffffff1660e01b8152600401808381526020018273ffffffffffffffffffffffffffffffffffffffff16815260200192505050600060405180830381600087803b1580156121fc57600080fd5b505af1158015612210573d6000803e3d6000fd5b50505050600160009054906101000a900473ffffffffffffffffffffffffffffffffffffffff1673ffffffffffffffffffffffffffffffffffffffff166370a08231306040518263ffffffff1660e01b8152600401808273ffffffffffffffffffffffffffffffffffffffff16815260200191505060206040518083038186803b15801561229d57600080fd5b505afa1580156122b1573d6000803e3d6000fd5b505050506040513d60208110156122c757600080fd5b810190808051906020019092919050505091508183038114612334576040517f08c379a000000000000000000000000000000000000000000000000000000000815260040180806020018281038252602f815260200180614661602f913960400191505060405180910390fd5b6000600b819055506125d3565b600260009054906101000a900473ffffffffffffffffffffffffffffffffffffffff1673ffffffffffffffffffffffffffffffffffffffff166370a08231306040518263ffffffff1660e01b8152600401808273ffffffffffffffffffffffffffffffffffffffff16815260200191505060206040518083038186803b1580156123ca57600080fd5b505afa1580156123de573d6000803e3d6000fd5b505050506040513d60208110156123f457600080fd5b81019080805190602001909291905050509250600360009054906101000a900473ffffffffffffffffffffffffffffffffffffffff1673ffffffffffffffffffffffffffffffffffffffff1663627cf47486866040518363ffffffff1660e01b8152600401808381526020018273ffffffffffffffffffffffffffffffffffffffff16815260200192505050600060405180830381600087803b15801561249a57600080fd5b505af11580156124ae573d6000803e3d6000fd5b50505050600260009054906101000a900473ffffffffffffffffffffffffffffffffffffffff1673ffffffffffffffffffffffffffffffffffffffff166370a08231306040518263ffffffff1660e01b8152600401808273ffffffffffffffffffffffffffffffffffffffff16815260200191505060206040518083038186803b15801561253b57600080fd5b505afa15801561254f573d6000803e3d6000fd5b505050506040513d602081101561256557600080fd5b8101908080519060200190929190505050915081830381146125d2576040517f08c379a000000000000000000000000000000000000000000000000000000000815260040180806020018281038252602e81526020018061473e602e913960400191505060405180910390fd5b5b6125df85856000611012565b5050505050565b6125f260075482613491565b50565b61260160075430613491565b61262f600754600560009054906101000a900473ffffffffffffffffffffffffffffffffffffffff16613491565b565b6000806060806060600460009054906101000a900473ffffffffffffffffffffffffffffffffffffffff1673ffffffffffffffffffffffffffffffffffffffff1663b9d4ac1a876040518263ffffffff1660e01b8152600401808273ffffffffffffffffffffffffffffffffffffffff16815260200191505060006040518083038186803b1580156126c257600080fd5b505afa1580156126d6573d6000803e3d6000fd5b505050506040513d6000823e3d601f19601f8201168201806040525060a081101561270057600080fd5b810190808051604051939291908464010000000082111561272057600080fd5b8382019150602082018581111561273657600080fd5b825186602082028301116401000000008211171561275357600080fd5b8083526020830192505050908051906020019060200280838360005b8381101561278a57808201518184015260208101905061276f565b50505050905001604052602001805160405193929190846401000000008211156127b357600080fd5b838201915060208201858111156127c957600080fd5b82518660208202830111640100000000821117156127e657600080fd5b8083526020830192505050908051906020019060200280838360005b8381101561281d578082015181840152602081019050612802565b505050509050016040526020018051604051939291908464010000000082111561284657600080fd5b8382019150602082018581111561285c57600080fd5b825186602082028301116401000000008211171561287957600080fd5b8083526020830192505050908051906020019060200280838360005b838110156128b0578082015181840152602081019050612895565b50505050905001604052602001805160405193929190846401000000008211156128d957600080fd5b838201915060208201858111156128ef57600080fd5b825186602082028301116401000000008211171561290c57600080fd5b8083526020830192505050908051906020019060200280838360005b83811015612943578082015181840152602081019050612928565b505050509050016040526020018051604051939291908464010000000082111561296c57600080fd5b8382019150602082018581111561298257600080fd5b825186602082028301116401000000008211171561299f57600080fd5b8083526020830192505050908051906020019060200280838360005b838110156129d65780820151818401526020810190506129bb565b5050505090500160405250505090505080945081935082955050505060005b838181518110612a0157fe5b60200260200101518814612a9257808060010191505060288110612a8d576040517f08c379a000000000000000000000000000000000000000000000000000000000815260040180806020018281038252601f8152602001807f50726f6d697365206e6f7420696e206163636f756e742070726f6d697365730081525060200191505060405180910390fd5b6129f5565b828181518110612a9e57fe5b60200260200101519550818181518110612ab457fe5b60200260200101519450505050509250929050565b60008273ffffffffffffffffffffffffffffffffffffffff166370a08231836040518263ffffffff1660e01b8152600401808273ffffffffffffffffffffffffffffffffffffffff16815260200191505060206040518083038186803b158015612b3257600080fd5b505afa158015612b46573d6000803e3d6000fd5b505050506040513d6020811015612b5c57600080fd5b8101908080519060200190929190505050905092915050565b612ba3600754600560009054906101000a900473ffffffffffffffffffffffffffffffffffffffff16613491565b612bd1600754600660009054906101000a900473ffffffffffffffffffffffffffffffffffffffff16613491565b612bdd60075430613491565b565b600360009054906101000a900473ffffffffffffffffffffffffffffffffffffffff1673ffffffffffffffffffffffffffffffffffffffff166345ac5e026007546040518263ffffffff1660e01b815260040180828152602001915050600060405180830381600087803b158015612c5657600080fd5b505af1158015612c6a573d6000803e3d6000fd5b50505050565b600460009054906101000a900473ffffffffffffffffffffffffffffffffffffffff1681565b6000600260009054906101000a900473ffffffffffffffffffffffffffffffffffffffff1673ffffffffffffffffffffffffffffffffffffffff166370a08231306040518263ffffffff1660e01b8152600401808273ffffffffffffffffffffffffffffffffffffffff16815260200191505060206040518083038186803b158015612d2157600080fd5b505afa158015612d35573d6000803e3d6000fd5b505050506040513d6020811015612d4b57600080fd5b81019080805190602001909291905050509050600360009054906101000a900473ffffffffffffffffffffffffffffffffffffffff1673ffffffffffffffffffffffffffffffffffffffff1663c13ce3928585856040518463ffffffff1660e01b8152600401808481526020018373ffffffffffffffffffffffffffffffffffffffff168152602001826dffffffffffffffffffffffffffff1681526020019350505050600060405180830381600087803b158015612e0957600080fd5b505af1158015612e1d573d6000803e3d6000fd5b505050506000600260009054906101000a900473ffffffffffffffffffffffffffffffffffffffff1673ffffffffffffffffffffffffffffffffffffffff166370a08231306040518263ffffffff1660e01b8152600401808273ffffffffffffffffffffffffffffffffffffffff16815260200191505060206040518083038186803b158015612eac57600080fd5b505afa158015612ec0573d6000803e3d6000fd5b505050506040513d6020811015612ed657600080fd5b810190808051906020019092919050505090506002836dffffffffffffffffffffffffffff1681612f0357fe5b046dffffffffffffffffffffffffffff1681830314612f6d576040517f08c379a000000000000000000000000000000000000000000000000000000000815260040180806020018281038252602181526020018061476c6021913960400191505060405180910390fd5b612fa285856002866dffffffffffffffffffffffffffff1681612f8c57fe5b046dffffffffffffffffffffffffffff16611012565b5050505050565b6000612ff9600260009054906101000a900473ffffffffffffffffffffffffffffffffffffffff16600360009054906101000a900473ffffffffffffffffffffffffffffffffffffffff16612ac9565b613047600160009054906101000a900473ffffffffffffffffffffffffffffffffffffffff16600360009054906101000a900473ffffffffffffffffffffffffffffffffffffffff16612ac9565b0190507f0c5fcf17127b1ca91c702f07c1dec069f7edd02cd987971498858486a04aab356130b9600160009054906101000a900473ffffffffffffffffffffffffffffffffffffffff16600360009054906101000a900473ffffffffffffffffffffffffffffffffffffffff16612ac9565b613107600260009054906101000a900473ffffffffffffffffffffffffffffffffffffffff16600360009054906101000a900473ffffffffffffffffffffffffffffffffffffffff16612ac9565b604051808381526020018281526020019250505060405180910390a150565b60008060214260008054906101000a90046dffffffffffffffffffffffffffff1660405160200180838152602001826dffffffffffffffffffffffffffff1660901b8152600e01925050506040516020818303038152906040528051906020012060001c8161319157fe5b0690506000603c6002420260008054906101000a90046dffffffffffffffffffffffffffff1660405160200180838152602001826dffffffffffffffffffffffffffff1660901b8152600e01925050506040516020818303038152906040528051906020012060001c8161320157fe5b06905060008183901b90506064816dffffffffffffffffffffffffffff16101561323157670de0b6b3a764000090505b80935050505090565b600061328d600754600160009054906101000a900473ffffffffffffffffffffffffffffffffffffffff16600260009054906101000a900473ffffffffffffffffffffffffffffffffffffffff16614173565b9050809150506132ba600754836064846dffffffffffffffffffffffffffff16816132b457fe5b04612c96565b7fae2deb3be965deb85c39cabced403ebee4f32bfceb531252447c7f705dc88491816064836dffffffffffffffffffffffffffff16816132f657fe5b0460405180838152602001826dffffffffffffffffffffffffffff1681526020019250505060405180910390a161332f6007548361205a565b5050565b600160009054906101000a900473ffffffffffffffffffffffffffffffffffffffff1681565b613361610de0565b613369611b48565b60006133bc600754600160009054906101000a900473ffffffffffffffffffffffffffffffffffffffff16600260009054906101000a900473ffffffffffffffffffffffffffffffffffffffff16614173565b90508091505061340b600754600560009054906101000a900473ffffffffffffffffffffffffffffffffffffffff16600a846dffffffffffffffffffffffffffff168161340557fe5b04612c96565b613454600754600660009054906101000a900473ffffffffffffffffffffffffffffffffffffffff166007846dffffffffffffffffffffffffffff168161344e57fe5b04612c96565b6134606007543061205a565b61348e600754600660009054906101000a900473ffffffffffffffffffffffffffffffffffffffff1661205a565b50565b60008060006134a08585612631565b50809150503073ffffffffffffffffffffffffffffffffffffffff168473ffffffffffffffffffffffffffffffffffffffff1614156137f757600260009054906101000a900473ffffffffffffffffffffffffffffffffffffffff1673ffffffffffffffffffffffffffffffffffffffff166370a08231856040518263ffffffff1660e01b8152600401808273ffffffffffffffffffffffffffffffffffffffff16815260200191505060206040518083038186803b15801561356257600080fd5b505afa158015613576573d6000803e3d6000fd5b505050506040513d602081101561358c57600080fd5b81019080805190602001909291905050509250600360009054906101000a900473ffffffffffffffffffffffffffffffffffffffff1673ffffffffffffffffffffffffffffffffffffffff1663d61693ae86866040518363ffffffff1660e01b8152600401808381526020018273ffffffffffffffffffffffffffffffffffffffff16815260200192505050600060405180830381600087803b15801561363257600080fd5b505af1158015613646573d6000803e3d6000fd5b50505050600260009054906101000a900473ffffffffffffffffffffffffffffffffffffffff1673ffffffffffffffffffffffffffffffffffffffff166370a08231856040518263ffffffff1660e01b8152600401808273ffffffffffffffffffffffffffffffffffffffff16815260200191505060206040518083038186803b1580156136d357600080fd5b505afa1580156136e7573d6000803e3d6000fd5b505050506040513d60208110156136fd57600080fd5b810190808051906020019092919050505091506000838303612710603284028161372357fe5b0483031190506000848403612710603285028161373c57fe5b0484031090508115613799576040517f08c379a000000000000000000000000000000000000000000000000000000000815260040180806020018281038252602d815260200180614634602d913960400191505060405180910390fd5b80156137f0576040517f08c379a000000000000000000000000000000000000000000000000000000000815260040180806020018281038252602e815260200180614690602e913960400191505060405180910390fd5b5050613b11565b600160009054906101000a900473ffffffffffffffffffffffffffffffffffffffff1673ffffffffffffffffffffffffffffffffffffffff166370a08231856040518263ffffffff1660e01b8152600401808273ffffffffffffffffffffffffffffffffffffffff16815260200191505060206040518083038186803b15801561388057600080fd5b505afa158015613894573d6000803e3d6000fd5b505050506040513d60208110156138aa57600080fd5b81019080805190602001909291905050509250600360009054906101000a900473ffffffffffffffffffffffffffffffffffffffff1673ffffffffffffffffffffffffffffffffffffffff1663d61693ae86866040518363ffffffff1660e01b8152600401808381526020018273ffffffffffffffffffffffffffffffffffffffff16815260200192505050600060405180830381600087803b15801561395057600080fd5b505af1158015613964573d6000803e3d6000fd5b50505050600160009054906101000a900473ffffffffffffffffffffffffffffffffffffffff1673ffffffffffffffffffffffffffffffffffffffff166370a08231856040518263ffffffff1660e01b8152600401808273ffffffffffffffffffffffffffffffffffffffff16815260200191505060206040518083038186803b1580156139f157600080fd5b505afa158015613a05573d6000803e3d6000fd5b505050506040513d6020811015613a1b57600080fd5b8101908080519060200190929190505050915060008383036127106032840281613a4157fe5b04830311905060008484036127106032850281613a5a57fe5b0484031090508115613ab7576040517f08c379a000000000000000000000000000000000000000000000000000000000815260040180806020018281038252602d815260200180614634602d913960400191505060405180910390fd5b8015613b0e576040517f08c379a000000000000000000000000000000000000000000000000000000000815260040180806020018281038252602e815260200180614690602e913960400191505060405180910390fd5b50505b613b1b85856116fd565b613b2485613cf2565b5050505050565b600080600081819054906101000a90046dffffffffffffffffffffffffffff168092919060010191906101000a8154816dffffffffffffffffffffffffffff02191690836dffffffffffffffffffffffffffff160217905550506000613b8f613126565b90508091505090565b613ba0610de0565b613ba8611b48565b6000613bfb600754600160009054906101000a900473ffffffffffffffffffffffffffffffffffffffff16600260009054906101000a900473ffffffffffffffffffffffffffffffffffffffff16614173565b905080915050613c4a600754600560009054906101000a900473ffffffffffffffffffffffffffffffffffffffff16600a846dffffffffffffffffffffffffffff1681613c4457fe5b04612c96565b613c93600754600660009054906101000a900473ffffffffffffffffffffffffffffffffffffffff16600a846dffffffffffffffffffffffffffff1681613c8d57fe5b04612c96565b613cc1600754600560009054906101000a900473ffffffffffffffffffffffffffffffffffffffff1661205a565b613cef600754600660009054906101000a900473ffffffffffffffffffffffffffffffffffffffff1661205a565b50565b6060600460009054906101000a900473ffffffffffffffffffffffffffffffffffffffff1673ffffffffffffffffffffffffffffffffffffffff1663bda8335e600160009054906101000a900473ffffffffffffffffffffffffffffffffffffffff16600260009054906101000a900473ffffffffffffffffffffffffffffffffffffffff16600854600960009054906101000a90046dffffffffffffffffffffffffffff166009600e9054906101000a90046dffffffffffffffffffffffffffff166040518663ffffffff1660e01b8152600401808673ffffffffffffffffffffffffffffffffffffffff1681526020018573ffffffffffffffffffffffffffffffffffffffff168152602001848152602001836dffffffffffffffffffffffffffff168152602001826dffffffffffffffffffffffffffff1681526020019550505050505060006040518083038186803b158015613e5157600080fd5b505afa158015613e65573d6000803e3d6000fd5b505050506040513d6000823e3d601f19601f820116820180604052506080811015613e8f57600080fd5b8101908080516040519392919084640100000000821115613eaf57600080fd5b83820191506020820185811115613ec557600080fd5b8251866020820283011164010000000082111715613ee257600080fd5b8083526020830192505050908051906020019060200280838360005b83811015613f19578082015181840152602081019050613efe565b5050505090500160405260200180516040519392919084640100000000821115613f4257600080fd5b83820191506020820185811115613f5857600080fd5b8251866020820283011164010000000082111715613f7557600080fd5b8083526020830192505050908051906020019060200280838360005b83811015613fac578082015181840152602081019050613f91565b5050505090500160405260200180516040519392919084640100000000821115613fd557600080fd5b83820191506020820185811115613feb57600080fd5b825186602082028301116401000000008211171561400857600080fd5b8083526020830192505050908051906020019060200280838360005b8381101561403f578082015181840152602081019050614024565b505050509050016040526020018051604051939291908464010000000082111561406857600080fd5b8382019150602082018581111561407e57600080fd5b825186602082028301116401000000008211171561409b57600080fd5b8083526020830192505050908051906020019060200280838360005b838110156140d25780820151818401526020810190506140b7565b505050509050016040525050509091509050508091505060005b815181101561416e5781818151811061410157fe5b6020026020010151831415614161576040517f08c379a000000000000000000000000000000000000000000000000000000000815260040180806020018281038252602d8152602001806146be602d913960400191505060405180910390fd5b80806001019150506140ec565b505050565b6000806060806060600460009054906101000a900473ffffffffffffffffffffffffffffffffffffffff1673ffffffffffffffffffffffffffffffffffffffff1663bda8335e8888600854600960009054906101000a90046dffffffffffffffffffffffffffff166009600e9054906101000a90046dffffffffffffffffffffffffffff166040518663ffffffff1660e01b8152600401808673ffffffffffffffffffffffffffffffffffffffff1681526020018573ffffffffffffffffffffffffffffffffffffffff168152602001848152602001836dffffffffffffffffffffffffffff168152602001826dffffffffffffffffffffffffffff1681526020019550505050505060006040518083038186803b15801561429457600080fd5b505afa1580156142a8573d6000803e3d6000fd5b505050506040513d6000823e3d601f19601f8201168201806040525060808110156142d257600080fd5b81019080805160405193929190846401000000008211156142f257600080fd5b8382019150602082018581111561430857600080fd5b825186602082028301116401000000008211171561432557600080fd5b8083526020830192505050908051906020019060200280838360005b8381101561435c578082015181840152602081019050614341565b505050509050016040526020018051604051939291908464010000000082111561438557600080fd5b8382019150602082018581111561439b57600080fd5b82518660208202830111640100000000821117156143b857600080fd5b8083526020830192505050908051906020019060200280838360005b838110156143ef5780820151818401526020810190506143d4565b505050509050016040526020018051604051939291908464010000000082111561441857600080fd5b8382019150602082018581111561442e57600080fd5b825186602082028301116401000000008211171561444b57600080fd5b8083526020830192505050908051906020019060200280838360005b83811015614482578082015181840152602081019050614467565b50505050905001604052602001805160405193929190846401000000008211156144ab57600080fd5b838201915060208201858111156144c157600080fd5b82518660208202830111640100000000821117156144de57600080fd5b8083526020830192505050908051906020019060200280838360005b838110156145155780820151818401526020810190506144fa565b505050509050016040525050505080935081945082955050505060005b83818151811061453e57fe5b602002602001015189146145cf578080600101915050602881106145ca576040517f08c379a00000000000000000000000000000000000000000000000000000000081526004018080602001828103825260208152602001807f4944206e6f7420666f756e6420696e206163636f756e742070726f6d6973657381525060200191505060405180910390fd5b614532565b8281815181106145db57fe5b602002602001015195508181815181106145f157fe5b602002602001015194505050505093509391505056fe50726f6d697365207761736e27742072656d6f7665642066726f6d206163636f756e742070726f6d697365736c6f77657220616d6f756e74207061696420746f207468652063726561746f7220617420657865637574696f6e696e636f727265637420616d6f756e74207061696420746f207468652070726f6d6973652062792063726561746f7268696768657220616d6f756e74207061696420746f207468652063726561746f7220617420657865637574696f6e50726f6d697365207761736e27742072656d6f7665642066726f6d206a6f696e61626c652070726f6d6973657377726f6e6720616d6f756e742074616b656e20647572696e67206372656174696f6e6f75747374616e64696e672064656274206f6e206163636f756e742070726f6d6973657320697320696e636f7272656374696e636f727265637420616d6f756e74207061696420746f207468652070726f6d697365206279206a6f696e657277726f6e6720616d6f756e742074616b656e20647572696e67206a6f696e696e67a264697066735822122083f7fa57e89f9b6bc24c5893845cee5885f7540b93f4981add9c87d524adec3764736f6c63430007060033",
  "immutableReferences": {},
  "source": "// SPDX-License-Identifier: GPL-3.0\n\npragma solidity >=0.7.0 <0.9.0;\nimport {IPromiseCore} from \"../interfaces/IPromiseCore.sol\";\nimport {IPromiseFinder} from \"../interfaces/IPromiseFinder.sol\";\nimport {IERC20} from \"../interfaces/IERC20.sol\";\n\ncontract PromTest {\n    uint112 nonce;\n    address public token1;\n    address public token2;\n    IPromiseCore public promiseCore;\n    IPromiseFinder public promiseFinder;\n    address alice = address(0x0A098Eda01Ce92ff4A4CCb7A4fFFb5A43EBC70DC);\n    address bob = address(0xAb8483F64d9C6d1EcF9b849Ae677dD3315835cb2);\n    uint256 currentId;\n    uint256 currentExpiry;\n    uint112 currentCreatorAmount;\n    uint112 currentJoinerAmount;\n    uint256[] promiseIds;\n    uint256 creatorOutstandingDebt;\n\n    event debtOwed(uint256 outstandingDebt, uint256 projectedOutstandingDebt);\n    event paid(uint256 shouldPaidThis, uint256 wasPaidThis);\n    event leftOver(uint256 creatorTokenAmount, uint256 joinerTokenAmount);\n    event joinedWith(uint256 amountToJoin, uint256 amountJoinedWith);\n\n    constructor(\n        IPromiseCore _promiseCore,\n        IPromiseFinder _promiseFinder,\n        address _t1,\n        address _t2\n    ) {\n        promiseCore = _promiseCore;\n        promiseFinder = _promiseFinder;\n        token1 = _t1;\n        token2 = _t2;\n    }\n\n    /* creating a promise with contract as creator\n       joining promise with alice doing all of the joiner amount\n       paying promise for creator & alice */\n    function scenario1() public {\n        approve();\n        createPromise();\n        uint256 joinerAmount;\n        (, joinerAmount) = getJoinablePromisesAmounts(currentId, token1, token2);\n        joinPromise(currentId, alice, uint112(joinerAmount));\n        payPromise(currentId, address(this));\n        payPromise(currentId, alice);\n    }\n\n    // executes promises for creator & alice\n    function scenario1Execution() public {\n        executePromise(currentId, address(this));\n        executePromise(currentId, alice);\n    }\n\n    /* creating a promise with contract as creator\n    joining promise with alice and bob fragmented amounts each leaving an active amount left\n    paying promise for creator, alice and bob */\n    function scenario2() public {\n        approve();\n        createPromise();\n        uint256 joinerAmount;\n        (, joinerAmount) = getJoinablePromisesAmounts(currentId, token1, token2);\n        joinPromise(currentId, alice, uint112(joinerAmount) / 3);\n        joinPromise(currentId, bob, uint112(joinerAmount) / 5);\n        payPromise(currentId, address(this));\n        payPromise(currentId, alice);\n        payPromise(currentId, bob);\n    }\n\n    // executes promises for creatore, alice, bob\n    function scenario2Execution() public {\n        executePromise(currentId, address(this));\n        executePromise(currentId, alice);\n        executePromise(currentId, bob);\n    }\n\n    /* creating a promise with contract as creator\n    joining promise with alice and bob fragmented amounts each leaving an active amount left\n    paying promise for creator and bob */\n    function scenario3() public {\n        approve();\n        createPromise();\n        uint256 joinerAmount;\n        (, joinerAmount) = getJoinablePromisesAmounts(currentId, token1, token2);\n        joinPromise(currentId, alice, uint112(joinerAmount) / 10);\n        joinPromise(currentId, bob, uint112(joinerAmount) / 7);\n        payPromise(currentId, address(this));\n        payPromise(currentId, bob);\n    }\n\n    // executes promises for creatore, alice, bob\n    function scenario3Execution() public {\n        executePromise(currentId, address(this));\n        executePromise(currentId, bob);\n    }\n\n    /* creating a promise with contract as creator\n    joining promise with alice and bob fragmented amounts but bob joins twice\n    each leaving an active amount left\n    paying promise for alice and bob */\n    function scenario4() public {\n        approve();\n        createPromise();\n        uint256 joinerAmount;\n        (, joinerAmount) = getJoinablePromisesAmounts(currentId, token1, token2);\n        joinPromise(currentId, alice, uint112(joinerAmount) / 10);\n        joinPromise(currentId, bob, uint112(joinerAmount) / 10);\n        payPromise(currentId, alice);\n        payPromise(currentId, bob);\n    }\n\n    // executes promises for alice and bob\n    function scenario4Execution() public {\n        executePromise(currentId, alice);\n        executePromise(currentId, bob);\n        executePromise(currentId, address(this));\n    }\n\n    function scenario5() public {\n        createPromise();\n    }\n\n    function scenario5JoiningAndPaying(address account) public {\n        uint256 joinerAmount;\n        (, joinerAmount) = getJoinablePromisesAmounts(currentId, token1, token2);\n        joinPromise(currentId, account, uint112(joinerAmount) / 100);\n        emit joinedWith(joinerAmount, uint112(joinerAmount) / 100);\n\n        payPromise(currentId, account);\n    }\n\n    // creator closes pending amount\n    function scenario5ClosePendingAmount() public {\n        promiseCore.closePendingPromiseAmount(currentId);\n    }\n\n    // executes promises for alice and bob\n    function scenario5Execution(address account) public {\n        executePromise(currentId, account);\n    }\n\n    // executes promises for alice and bob\n    function scenario5ForCreator() public {\n        executePromise(currentId, address(this));\n    }\n\n    function createPromise() public {\n        approve();\n        uint112 amountIn = getRandomNumber();\n        uint112 amountOut = getRandomNumber();\n        uint256 balanceBefore = IERC20(token1).balanceOf(address(this));\n        promiseCore.createPromise(address(this), token1, amountIn, token2, amountOut, block.timestamp + 5 days);\n        uint256 balanceAfter = IERC20(token1).balanceOf(address(this));\n        require(balanceBefore - balanceAfter == amountIn / 2, \"wrong amount taken during creation\");\n        currentId++;\n        currentExpiry = block.timestamp + 5 days;\n        currentCreatorAmount = amountIn;\n        currentJoinerAmount = amountOut;\n        promiseIds.push(currentId);\n        checkAccountPromisesIsCorrect(currentId, address(this), amountIn / 2);\n        creatorOutstandingDebt = amountIn / 2;\n        checkJoinablePromisesIsCorrect(currentId, token1, token2, amountIn, amountOut);\n    }\n\n    function joinPromise(\n        uint256 id,\n        address account,\n        uint112 _amount\n    ) public {\n        uint256 balanceBefore = IERC20(token2).balanceOf(address(this));\n        promiseCore.joinPromise(id, account, _amount);\n        uint256 balanceAfter = IERC20(token2).balanceOf(address(this));\n        require(balanceBefore - balanceAfter == _amount / 2, \"wrong amount taken during joining\");\n        checkAccountPromisesIsCorrect(id, account, _amount / 2);\n    }\n\n    function payPromise(uint256 _id, address account) public {\n        uint256 balanceBefore;\n        uint256 balanceAfter;\n        uint256 debt;\n        (, debt) = getReceivingAndOutstandingDebt(_id, account);\n        if (account == address(this)) {\n            balanceBefore = IERC20(token1).balanceOf(address(this));\n            promiseCore.payPromise(_id, account);\n            balanceAfter = IERC20(token1).balanceOf(address(this));\n            require(debt == balanceBefore - balanceAfter, \"incorrect amount paid to the promise by creator\");\n            creatorOutstandingDebt = 0;\n        } else {\n            balanceBefore = IERC20(token2).balanceOf(address(this));\n            promiseCore.payPromise(_id, account);\n            balanceAfter = IERC20(token2).balanceOf(address(this));\n            require(debt == balanceBefore - balanceAfter, \"incorrect amount paid to the promise by joiner\");\n        }\n        checkAccountPromisesIsCorrect(_id, account, 0);\n    }\n\n    function executePromise(uint256 _id, address account) public {\n        uint256 balanceBefore;\n        uint256 balanceAfter;\n        uint256 receiving;\n        (receiving, ) = getReceivingAndOutstandingDebt(_id, account);\n        if (account == address(this)) {\n            balanceBefore = IERC20(token2).balanceOf(account);\n            promiseCore.executePromise(_id, account);\n            balanceAfter = IERC20(token2).balanceOf(account);\n            bool greaterThan = (receiving - (((receiving) * 50) / 10000)) > (balanceAfter - balanceBefore);\n            bool lessThan = (receiving - (((receiving) * 50) / 10000)) < (balanceAfter - balanceBefore);\n            require(!greaterThan, \"lower amount paid to the creator at execution\");\n            require(!lessThan, \"higher amount paid to the creator at execution\");\n        } else {\n            balanceBefore = IERC20(token1).balanceOf(account);\n            promiseCore.executePromise(_id, account);\n            balanceAfter = IERC20(token1).balanceOf(account);\n            bool greaterThan = (receiving - (((receiving) * 50) / 10000)) > (balanceAfter - balanceBefore);\n            bool lessThan = (receiving - (((receiving) * 50) / 10000)) < (balanceAfter - balanceBefore);\n            require(!greaterThan, \"lower amount paid to the creator at execution\");\n            require(!lessThan, \"higher amount paid to the creator at execution\");\n        }\n\n        checkRemovedFromAccountPromises(_id, account);\n        checkRemovedFromJoinablePromises(_id);\n    }\n\n    function checkAccountPromisesIsCorrect(\n        uint256 _id,\n        address account,\n        uint256 _outstandingDebt\n    ) public {\n        uint256[] memory id;\n        uint256[] memory receiving;\n        uint256[] memory outstandingDebt;\n        (id, outstandingDebt, receiving, , ) = promiseFinder.accountPromises(account);\n        uint256 i;\n        while (_id != id[i]) {\n            i++;\n            require(i < 40, \"ID not found in account promises\");\n        }\n        emit debtOwed(outstandingDebt[i], _outstandingDebt);\n        require(outstandingDebt[i] == _outstandingDebt, \"outstanding debt on account promises is incorrect\");\n    }\n\n    function checkRemovedFromAccountPromises(uint256 _id, address account) public view {\n        uint256[] memory id;\n        uint256[] memory receiving;\n        uint256[] memory outstandingDebt;\n        (id, outstandingDebt, receiving, , ) = promiseFinder.accountPromises(account);\n        uint256 i;\n        while (i < id.length) {\n            require(_id != id[i], \"Promise wasn't removed from account promises\");\n            i++;\n        }\n    }\n\n    function checkRemovedFromJoinablePromises(uint256 _id) public view {\n        uint256[] memory id;\n        (id, , , ) = promiseFinder.joinablePromises(\n            token1,\n            token2,\n            currentExpiry,\n            currentCreatorAmount,\n            currentJoinerAmount\n        );\n        uint256 i;\n        while (i < id.length) {\n            require(_id != id[i], \"Promise wasn't removed from joinable promises\");\n            i++;\n        }\n    }\n\n    function getReceivingAndOutstandingDebt(uint256 _id, address account) public view returns (uint256 a, uint256 b) {\n        uint256[] memory id;\n        uint256[] memory receiving;\n        uint256[] memory outstandingDebt;\n        (id, outstandingDebt, receiving, , ) = promiseFinder.accountPromises(account);\n        uint256 i;\n        while (_id != id[i]) {\n            i++;\n            require(i < 40, \"Promise not in account promises\");\n        }\n        a = receiving[i];\n        b = outstandingDebt[i];\n    }\n\n    function checkJoinablePromisesIsCorrect(\n        uint256 _id,\n        address _token1,\n        address _token2,\n        uint112 _creatorAmount,\n        uint112 _joinerAmount\n    ) public {\n        uint256[] memory id;\n        uint256[] memory creatorAmount;\n        uint256[] memory joinerAmount;\n        (id, , , ) = promiseFinder.joinablePromises(\n            _token1,\n            _token2,\n            currentExpiry,\n            currentCreatorAmount,\n            currentJoinerAmount\n        );\n        uint256 i;\n        while (_id != id[i]) {\n            i++;\n            require(i < 40, \"ID not found in account promises\");\n        }\n    }\n\n    function getJoinablePromisesAmounts(\n        uint256 _id,\n        address _token1,\n        address _token2\n    ) public view returns (uint256 a, uint256 b) {\n        uint256[] memory id;\n        uint256[] memory creatorAmount;\n        uint256[] memory joinerAmount;\n        (id, creatorAmount, joinerAmount, ) = promiseFinder.joinablePromises(\n            _token1,\n            _token2,\n            currentExpiry,\n            currentCreatorAmount,\n            currentJoinerAmount\n        );\n        uint256 i;\n        while (_id != id[i]) {\n            i++;\n            require(i < 40, \"ID not found in account promises\");\n        }\n        a = creatorAmount[i];\n        b = joinerAmount[i];\n    }\n\n    function getRandomNumber() public returns (uint112) {\n        nonce++;\n        uint112 ranNum = randomNumber();\n        return ranNum;\n    }\n\n    function randomNumber() public view returns (uint112) {\n        uint256 a = (uint256(keccak256(abi.encodePacked(block.timestamp, nonce))) % 33);\n        uint256 b = (uint256(keccak256(abi.encodePacked(block.timestamp * 2, nonce))) % 60);\n        uint112 c = uint112(uint256(a << b));\n        if (c < 100) {\n            c = 10**18;\n        }\n        return c;\n    }\n\n    function approve() public {\n        IERC20(token1).approve(address(promiseCore), 2**256 - 1);\n        IERC20(token2).approve(address(promiseCore), 2**256 - 1);\n    }\n\n    function checkBalance(address token, address account) public view returns (uint256 z) {\n        z = IERC20(token).balanceOf(account);\n    }\n\n    function hasLeftOver() public {\n        uint256 bal = checkBalance(token1, address(promiseCore)) + checkBalance(token2, address(promiseCore));\n        emit leftOver(checkBalance(token1, address(promiseCore)), checkBalance(token2, address(promiseCore)));\n        //require(bal == 0, \"Promise contract was left with some tokens\");\n    }\n}\n",
  "sourcePath": "/Users/nanoissuperior/promise-contracts/contracts/test/PromTest.sol",
  "compiler": {
    "name": "solc",
    "version": "0.7.6+commit.7338295f.Emscripten.clang"
  },
  "schemaVersion": "3.2.4",
  "updatedAt": "2021-06-28T14:44:18.027Z",
  "devdoc": {
    "kind": "dev",
    "methods": {},
    "version": 1
  },
  "userdoc": {
    "kind": "user",
    "methods": {},
    "version": 1
  }
}