{
  "contractName": "PromiseChef",
  "abi": [
    {
      "inputs": [
        {
          "internalType": "contract PromiseToken",
          "name": "_prom",
          "type": "address"
        },
        {
          "internalType": "contract PromiseCore",
          "name": "_promiseCore",
          "type": "address"
        },
        {
          "internalType": "uint256",
          "name": "_promPerBlock",
          "type": "uint256"
        },
        {
          "internalType": "uint256",
          "name": "_startBlock",
          "type": "uint256"
        },
        {
          "internalType": "uint256",
          "name": "_endBlock",
          "type": "uint256"
        }
      ],
      "stateMutability": "nonpayable",
      "type": "constructor"
    },
    {
      "anonymous": false,
      "inputs": [
        {
          "indexed": true,
          "internalType": "address",
          "name": "previousOwner",
          "type": "address"
        },
        {
          "indexed": true,
          "internalType": "address",
          "name": "newOwner",
          "type": "address"
        }
      ],
      "name": "OwnershipTransferred",
      "type": "event"
    },
    {
      "inputs": [],
      "name": "BONUS_MULTIPLIER",
      "outputs": [
        {
          "internalType": "uint256",
          "name": "",
          "type": "uint256"
        }
      ],
      "stateMutability": "view",
      "type": "function"
    },
    {
      "inputs": [],
      "name": "endBlock",
      "outputs": [
        {
          "internalType": "uint256",
          "name": "",
          "type": "uint256"
        }
      ],
      "stateMutability": "view",
      "type": "function"
    },
    {
      "inputs": [],
      "name": "joinableListIdTimeInterval",
      "outputs": [
        {
          "internalType": "uint256",
          "name": "",
          "type": "uint256"
        }
      ],
      "stateMutability": "view",
      "type": "function"
    },
    {
      "inputs": [
        {
          "internalType": "address",
          "name": "",
          "type": "address"
        }
      ],
      "name": "lastClaim",
      "outputs": [
        {
          "internalType": "uint256",
          "name": "",
          "type": "uint256"
        }
      ],
      "stateMutability": "view",
      "type": "function"
    },
    {
      "inputs": [
        {
          "internalType": "bytes32",
          "name": "",
          "type": "bytes32"
        }
      ],
      "name": "length",
      "outputs": [
        {
          "internalType": "uint256",
          "name": "",
          "type": "uint256"
        }
      ],
      "stateMutability": "view",
      "type": "function"
    },
    {
      "inputs": [
        {
          "internalType": "bytes32",
          "name": "",
          "type": "bytes32"
        }
      ],
      "name": "list",
      "outputs": [
        {
          "internalType": "bytes32",
          "name": "next",
          "type": "bytes32"
        },
        {
          "internalType": "uint256",
          "name": "id",
          "type": "uint256"
        },
        {
          "internalType": "bytes32",
          "name": "previous",
          "type": "bytes32"
        }
      ],
      "stateMutability": "view",
      "type": "function"
    },
    {
      "inputs": [
        {
          "internalType": "bytes32",
          "name": "",
          "type": "bytes32"
        }
      ],
      "name": "numberOfPromisesInTimeInterval",
      "outputs": [
        {
          "internalType": "uint256",
          "name": "",
          "type": "uint256"
        }
      ],
      "stateMutability": "view",
      "type": "function"
    },
    {
      "inputs": [],
      "name": "owner",
      "outputs": [
        {
          "internalType": "address",
          "name": "",
          "type": "address"
        }
      ],
      "stateMutability": "view",
      "type": "function"
    },
    {
      "inputs": [
        {
          "internalType": "uint256",
          "name": "",
          "type": "uint256"
        }
      ],
      "name": "poolInfo",
      "outputs": [
        {
          "internalType": "contract IERC20",
          "name": "creatorToken",
          "type": "address"
        },
        {
          "internalType": "address",
          "name": "joinerToken",
          "type": "address"
        },
        {
          "internalType": "uint256",
          "name": "minRatio",
          "type": "uint256"
        },
        {
          "internalType": "uint256",
          "name": "maxRatio",
          "type": "uint256"
        },
        {
          "internalType": "uint256",
          "name": "allocPoint",
          "type": "uint256"
        },
        {
          "internalType": "uint256",
          "name": "lastRewardBlock",
          "type": "uint256"
        },
        {
          "internalType": "uint256",
          "name": "accPromPerShare",
          "type": "uint256"
        },
        {
          "internalType": "uint256",
          "name": "expirationDate",
          "type": "uint256"
        },
        {
          "internalType": "uint256",
          "name": "lpSupply",
          "type": "uint256"
        }
      ],
      "stateMutability": "view",
      "type": "function"
    },
    {
      "inputs": [],
      "name": "prom",
      "outputs": [
        {
          "internalType": "contract PromiseToken",
          "name": "",
          "type": "address"
        }
      ],
      "stateMutability": "view",
      "type": "function"
    },
    {
      "inputs": [],
      "name": "promPerBlock",
      "outputs": [
        {
          "internalType": "uint256",
          "name": "",
          "type": "uint256"
        }
      ],
      "stateMutability": "view",
      "type": "function"
    },
    {
      "inputs": [],
      "name": "promiseCore",
      "outputs": [
        {
          "internalType": "contract PromiseCore",
          "name": "",
          "type": "address"
        }
      ],
      "stateMutability": "view",
      "type": "function"
    },
    {
      "inputs": [],
      "name": "promiseHolder",
      "outputs": [
        {
          "internalType": "address",
          "name": "",
          "type": "address"
        }
      ],
      "stateMutability": "view",
      "type": "function"
    },
    {
      "inputs": [],
      "name": "startBlock",
      "outputs": [
        {
          "internalType": "uint256",
          "name": "",
          "type": "uint256"
        }
      ],
      "stateMutability": "view",
      "type": "function"
    },
    {
      "inputs": [],
      "name": "startBlockTime",
      "outputs": [
        {
          "internalType": "uint256",
          "name": "",
          "type": "uint256"
        }
      ],
      "stateMutability": "view",
      "type": "function"
    },
    {
      "inputs": [
        {
          "internalType": "bytes32",
          "name": "",
          "type": "bytes32"
        }
      ],
      "name": "tail",
      "outputs": [
        {
          "internalType": "bytes32",
          "name": "",
          "type": "bytes32"
        }
      ],
      "stateMutability": "view",
      "type": "function"
    },
    {
      "inputs": [],
      "name": "totalAllocPoint",
      "outputs": [
        {
          "internalType": "uint256",
          "name": "",
          "type": "uint256"
        }
      ],
      "stateMutability": "view",
      "type": "function"
    },
    {
      "inputs": [
        {
          "internalType": "address",
          "name": "newOwner",
          "type": "address"
        }
      ],
      "name": "transferOwnership",
      "outputs": [],
      "stateMutability": "nonpayable",
      "type": "function"
    },
    {
      "inputs": [
        {
          "internalType": "uint256",
          "name": "",
          "type": "uint256"
        },
        {
          "internalType": "address",
          "name": "",
          "type": "address"
        }
      ],
      "name": "userInfo",
      "outputs": [
        {
          "internalType": "uint256",
          "name": "amount",
          "type": "uint256"
        },
        {
          "internalType": "uint256",
          "name": "rewardDebt",
          "type": "uint256"
        }
      ],
      "stateMutability": "view",
      "type": "function"
    },
    {
      "inputs": [],
      "name": "poolLength",
      "outputs": [
        {
          "internalType": "uint256",
          "name": "",
          "type": "uint256"
        }
      ],
      "stateMutability": "view",
      "type": "function"
    },
    {
      "inputs": [
        {
          "internalType": "uint256",
          "name": "_allocPoint",
          "type": "uint256"
        },
        {
          "internalType": "contract IERC20",
          "name": "_creatorToken",
          "type": "address"
        },
        {
          "internalType": "address",
          "name": "_joinerToken",
          "type": "address"
        },
        {
          "internalType": "uint256[2]",
          "name": "_minUncalculatedRatio",
          "type": "uint256[2]"
        },
        {
          "internalType": "uint256[2]",
          "name": "_maxUncalculatedRatio",
          "type": "uint256[2]"
        },
        {
          "internalType": "bool",
          "name": "_withUpdate",
          "type": "bool"
        },
        {
          "internalType": "uint256",
          "name": "_expirationDate",
          "type": "uint256"
        }
      ],
      "name": "add",
      "outputs": [],
      "stateMutability": "nonpayable",
      "type": "function"
    },
    {
      "inputs": [
        {
          "internalType": "uint256",
          "name": "_pid",
          "type": "uint256"
        },
        {
          "internalType": "uint256",
          "name": "_allocPoint",
          "type": "uint256"
        },
        {
          "internalType": "bool",
          "name": "_withUpdate",
          "type": "bool"
        }
      ],
      "name": "set",
      "outputs": [],
      "stateMutability": "nonpayable",
      "type": "function"
    },
    {
      "inputs": [
        {
          "internalType": "uint256",
          "name": "_from",
          "type": "uint256"
        },
        {
          "internalType": "uint256",
          "name": "_to",
          "type": "uint256"
        }
      ],
      "name": "getMultiplier",
      "outputs": [
        {
          "internalType": "uint256",
          "name": "",
          "type": "uint256"
        }
      ],
      "stateMutability": "pure",
      "type": "function"
    },
    {
      "inputs": [
        {
          "internalType": "uint256",
          "name": "_pid",
          "type": "uint256"
        },
        {
          "internalType": "address",
          "name": "_user",
          "type": "address"
        }
      ],
      "name": "pendingProm",
      "outputs": [
        {
          "internalType": "uint256",
          "name": "",
          "type": "uint256"
        }
      ],
      "stateMutability": "view",
      "type": "function"
    },
    {
      "inputs": [],
      "name": "massUpdatePools",
      "outputs": [],
      "stateMutability": "nonpayable",
      "type": "function"
    },
    {
      "inputs": [
        {
          "internalType": "uint256",
          "name": "_pid",
          "type": "uint256"
        }
      ],
      "name": "updatePool",
      "outputs": [],
      "stateMutability": "nonpayable",
      "type": "function"
    },
    {
      "inputs": [
        {
          "internalType": "uint256",
          "name": "_pid",
          "type": "uint256"
        },
        {
          "internalType": "uint256",
          "name": "_creatorAmount",
          "type": "uint256"
        },
        {
          "internalType": "uint256",
          "name": "_joinerAmount",
          "type": "uint256"
        }
      ],
      "name": "createPromise",
      "outputs": [],
      "stateMutability": "nonpayable",
      "type": "function"
    },
    {
      "inputs": [
        {
          "internalType": "uint256",
          "name": "id",
          "type": "uint256"
        }
      ],
      "name": "payPromise",
      "outputs": [],
      "stateMutability": "nonpayable",
      "type": "function"
    },
    {
      "inputs": [
        {
          "internalType": "uint256",
          "name": "_pid",
          "type": "uint256"
        },
        {
          "internalType": "uint256",
          "name": "promiseId",
          "type": "uint256"
        },
        {
          "internalType": "address",
          "name": "account",
          "type": "address"
        }
      ],
      "name": "executePromise",
      "outputs": [],
      "stateMutability": "nonpayable",
      "type": "function"
    },
    {
      "inputs": [
        {
          "internalType": "uint256",
          "name": "_pid",
          "type": "uint256"
        },
        {
          "internalType": "uint256",
          "name": "promiseId",
          "type": "uint256"
        }
      ],
      "name": "closePendingPromiseAmount",
      "outputs": [],
      "stateMutability": "nonpayable",
      "type": "function"
    },
    {
      "inputs": [
        {
          "internalType": "uint256",
          "name": "_pid",
          "type": "uint256"
        }
      ],
      "name": "claimReward",
      "outputs": [],
      "stateMutability": "nonpayable",
      "type": "function"
    },
    {
      "inputs": [
        {
          "internalType": "address",
          "name": "_promiseHolder",
          "type": "address"
        }
      ],
      "name": "setPromiseHolder",
      "outputs": [],
      "stateMutability": "nonpayable",
      "type": "function"
    },
    {
      "inputs": [
        {
          "internalType": "uint256",
          "name": "_promPerBlock",
          "type": "uint256"
        }
      ],
      "name": "updateEmissionRate",
      "outputs": [],
      "stateMutability": "nonpayable",
      "type": "function"
    },
    {
      "inputs": [
        {
          "internalType": "uint256",
          "name": "creatorAmount",
          "type": "uint256"
        },
        {
          "internalType": "uint256",
          "name": "joinerAmount",
          "type": "uint256"
        }
      ],
      "name": "calculateRatio",
      "outputs": [
        {
          "internalType": "uint256",
          "name": "z",
          "type": "uint256"
        }
      ],
      "stateMutability": "pure",
      "type": "function"
    }
  ],
  "bytecode": "0x6080604052620151806005556000600e5534801561001c57600080fd5b50604051613c7e380380613c7e833981810160405260a081101561003f57600080fd5b81019080805190602001909291908051906020019092919080519060200190929190805190602001909291908051906020019092919050505033806000806101000a81548173ffffffffffffffffffffffffffffffffffffffff021916908373ffffffffffffffffffffffffffffffffffffffff16021790555060008054906101000a900473ffffffffffffffffffffffffffffffffffffffff1673ffffffffffffffffffffffffffffffffffffffff16600073ffffffffffffffffffffffffffffffffffffffff167f8be0079c531659141344cd1fd0a4f28419497f9722a3daafe3b4186f6b6457e060405160405180910390a3504260068190555084600760006101000a81548173ffffffffffffffffffffffffffffffffffffffff021916908373ffffffffffffffffffffffffffffffffffffffff16021790555083600860006101000a81548173ffffffffffffffffffffffffffffffffffffffff021916908373ffffffffffffffffffffffffffffffffffffffff1602179055508260098190555043600f81905550806010819055505050505050613a97806101e76000396000f3fe608060405234801561001057600080fd5b50600436106102065760003560e01c8063630b5ba11161011a578063a9dbaf25116100ad578063dde0bc141161007c578063dde0bc1414610973578063e571826b146109a7578063ea545f7e146109eb578063f2fde38b14610a2d578063fda1c15014610a7157610206565b8063a9dbaf2514610855578063ada0b0ed14610897578063ae169a50146108e3578063d721fb961461091157610206565b80638da5cb5b116100e95780638da5cb5b1461074e5780638dbb1e3a1461078257806393f1a40b146107ce57806395bad7f11461083757610206565b8063630b5ba1146106b457806364482f79146106be5780638aa28550146107025780638c97d7111461072057610206565b80632ac00efb1161019d5780633bb260bd1161016c5780633bb260bd146105a857806346c3225e146105dc57806348cd4cb11461061057806351eb05a61461062e5780635c16e15e1461065c57610206565b80632ac00efb146104ae5780632afd0560146104f05780632d4f843e1461050e57806338d24c871461055057610206565b806313d49a8b116101d957806313d49a8b146102935780631526fe27146102e357806317caf6f1146103895780631ebb4c10146103a757610206565b8063081e3eda1461020b578063083c6323146102295780630ba84cd2146102475780630c18d4ce14610275575b600080fd5b610213610aa9565b6040518082815260200191505060405180910390f35b610231610ab6565b6040518082815260200191505060405180910390f35b6102736004803603602081101561025d57600080fd5b8101908080359060200190929190505050610abc565b005b61027d610b8f565b6040518082815260200191505060405180910390f35b6102bf600480360360208110156102a957600080fd5b8101908080359060200190929190505050610b95565b60405180848152602001838152602001828152602001935050505060405180910390f35b61030f600480360360208110156102f957600080fd5b8101908080359060200190929190505050610bbf565b604051808a73ffffffffffffffffffffffffffffffffffffffff1681526020018973ffffffffffffffffffffffffffffffffffffffff168152602001888152602001878152602001868152602001858152602001848152602001838152602001828152602001995050505050505050505060405180910390f35b610391610c5d565b6040518082815260200191505060405180910390f35b6104ac60048036036101208110156103be57600080fd5b8101908080359060200190929190803573ffffffffffffffffffffffffffffffffffffffff169060200190929190803573ffffffffffffffffffffffffffffffffffffffff16906020019092919080604001906002806020026040519081016040528092919082600260200280828437600081840152601f19601f820116905080830192505050505050919291929080604001906002806020026040519081016040528092919082600260200280828437600081840152601f19601f820116905080830192505050505050919291929080351515906020019092919080359060200190929190505050610c63565b005b6104da600480360360208110156104c457600080fd5b81019080803590602001909291905050506110c7565b6040518082815260200191505060405180910390f35b6104f86110df565b6040518082815260200191505060405180910390f35b61053a6004803603602081101561052457600080fd5b81019080803590602001909291905050506110e5565b6040518082815260200191505060405180910390f35b6105a66004803603606081101561056657600080fd5b810190808035906020019092919080359060200190929190803573ffffffffffffffffffffffffffffffffffffffff1690602001909291905050506110fd565b005b6105b06118a1565b604051808273ffffffffffffffffffffffffffffffffffffffff16815260200191505060405180910390f35b6105e46118c7565b604051808273ffffffffffffffffffffffffffffffffffffffff16815260200191505060405180910390f35b6106186118ed565b6040518082815260200191505060405180910390f35b61065a6004803603602081101561064457600080fd5b81019080803590602001909291905050506118f3565b005b61069e6004803603602081101561067257600080fd5b81019080803573ffffffffffffffffffffffffffffffffffffffff169060200190929190505050611a1c565b6040518082815260200191505060405180910390f35b6106bc611a34565b005b610700600480360360608110156106d457600080fd5b810190808035906020019092919080359060200190929190803515159060200190929190505050611a61565b005b61070a611ba4565b6040518082815260200191505060405180910390f35b61074c6004803603602081101561073657600080fd5b8101908080359060200190929190505050611ba9565b005b610756611e5f565b604051808273ffffffffffffffffffffffffffffffffffffffff16815260200191505060405180910390f35b6107b86004803603604081101561079857600080fd5b810190808035906020019092919080359060200190929190505050611e88565b6040518082815260200191505060405180910390f35b61081a600480360360408110156107e457600080fd5b8101908080359060200190929190803573ffffffffffffffffffffffffffffffffffffffff169060200190929190505050611eb8565b604051808381526020018281526020019250505060405180910390f35b61083f611ee9565b6040518082815260200191505060405180910390f35b6108816004803603602081101561086b57600080fd5b8101908080359060200190929190505050611eef565b6040518082815260200191505060405180910390f35b6108cd600480360360408110156108ad57600080fd5b810190808035906020019092919080359060200190929190505050611f07565b6040518082815260200191505060405180910390f35b61090f600480360360208110156108f957600080fd5b8101908080359060200190929190505050611f3e565b005b61095d6004803603604081101561092757600080fd5b8101908080359060200190929190803573ffffffffffffffffffffffffffffffffffffffff16906020019092919050505061205a565b6040518082815260200191505060405180910390f35b61097b6121df565b604051808273ffffffffffffffffffffffffffffffffffffffff16815260200191505060405180910390f35b6109e9600480360360208110156109bd57600080fd5b81019080803573ffffffffffffffffffffffffffffffffffffffff169060200190929190505050612205565b005b610a2b60048036036060811015610a0157600080fd5b8101908080359060200190929190803590602001909291908035906020019092919050505061230a565b005b610a6f60048036036020811015610a4357600080fd5b81019080803573ffffffffffffffffffffffffffffffffffffffff16906020019092919050505061275c565b005b610aa760048036036040811015610a8757600080fd5b810190808035906020019092919080359060200190929190505050612960565b005b6000600b80549050905090565b60105481565b3373ffffffffffffffffffffffffffffffffffffffff1660008054906101000a900473ffffffffffffffffffffffffffffffffffffffff1673ffffffffffffffffffffffffffffffffffffffff1614610b7d576040517f08c379a00000000000000000000000000000000000000000000000000000000081526004018080602001828103825260208152602001807f4f776e61626c653a2063616c6c6572206973206e6f7420746865206f776e657281525060200191505060405180910390fd5b610b85611a34565b8060098190555050565b60065481565b60016020528060005260406000206000915090508060000154908060010154908060020154905083565b600b8181548110610bcf57600080fd5b90600052602060002090600902016000915090508060000160009054906101000a900473ffffffffffffffffffffffffffffffffffffffff16908060010160009054906101000a900473ffffffffffffffffffffffffffffffffffffffff16908060020154908060030154908060040154908060050154908060060154908060070154908060080154905089565b600e5481565b3373ffffffffffffffffffffffffffffffffffffffff1660008054906101000a900473ffffffffffffffffffffffffffffffffffffffff1673ffffffffffffffffffffffffffffffffffffffff1614610d24576040517f08c379a00000000000000000000000000000000000000000000000000000000081526004018080602001828103825260208152602001807f4f776e61626c653a2063616c6c6572206973206e6f7420746865206f776e657281525060200191505060405180910390fd5b8115610d3357610d32611a34565b5b6000600f544311610d4657600f54610d48565b435b9050610d5f88600e54612eb690919063ffffffff16565b600e81905550600b6040518061012001604052808973ffffffffffffffffffffffffffffffffffffffff1681526020018873ffffffffffffffffffffffffffffffffffffffff168152602001610dd788600060028110610dbb57fe5b602002015189600160028110610dcd57fe5b6020020151611f07565b8152602001610e0887600060028110610dec57fe5b602002015188600160028110610dfe57fe5b6020020151611f07565b81526020018a8152602001838152602001600081526020018481526020016000815250908060018154018082558091505060019003906000526020600020906009020160009091909190915060008201518160000160006101000a81548173ffffffffffffffffffffffffffffffffffffffff021916908373ffffffffffffffffffffffffffffffffffffffff16021790555060208201518160010160006101000a81548173ffffffffffffffffffffffffffffffffffffffff021916908373ffffffffffffffffffffffffffffffffffffffff16021790555060408201518160020155606082015181600301556080820151816004015560a0820151816005015560c0820151816006015560e0820151816007015561010082015181600801555050600a60009054906101000a900473ffffffffffffffffffffffffffffffffffffffff1673ffffffffffffffffffffffffffffffffffffffff16630f5f4df3886040518263ffffffff1660e01b8152600401808273ffffffffffffffffffffffffffffffffffffffff168152602001915050600060405180830381600087803b158015610fb657600080fd5b505af1158015610fca573d6000803e3d6000fd5b505050508673ffffffffffffffffffffffffffffffffffffffff1663095ea7b3600860009054906101000a900473ffffffffffffffffffffffffffffffffffffffff167fffffffffffffffffffffffffffffffffffffffffffffffffffffffffffffffff6040518363ffffffff1660e01b8152600401808373ffffffffffffffffffffffffffffffffffffffff16815260200182815260200192505050602060405180830381600087803b15801561108157600080fd5b505af1158015611095573d6000803e3d6000fd5b505050506040513d60208110156110ab57600080fd5b8101908080519060200190929190505050505050505050505050565b60026020528060005260406000206000915090505481565b60095481565b60046020528060005260406000206000915090505481565b611105613918565b600860009054906101000a900473ffffffffffffffffffffffffffffffffffffffff1673ffffffffffffffffffffffffffffffffffffffff16631f06c859846040518263ffffffff1660e01b8152600401808281526020019150506101406040518083038186803b15801561117957600080fd5b505afa15801561118d573d6000803e3d6000fd5b505050506040513d6101408110156111a457600080fd5b8101908080519060200190929190805190602001909291908051906020019092919080519060200190929190805190602001909291908051906020019092919080519060200190929190805190602001909291908051906020019092919080519060200190929190505050909192939495969798505088602001896040018a6060018b6080018c60a0018d60c0018e60e0018f610100018881525088815250886dffffffffffffffffffffffffffff166dffffffffffffffffffffffffffff168152508873ffffffffffffffffffffffffffffffffffffffff1673ffffffffffffffffffffffffffffffffffffffff16815250881515151581525088815250886dffffffffffffffffffffffffffff166dffffffffffffffffffffffffffff168152508873ffffffffffffffffffffffffffffffffffffffff1673ffffffffffffffffffffffffffffffffffffffff168152505050505050505050600082604051602001808273ffffffffffffffffffffffffffffffffffffffff1660601b8152601401915050604051602081830303815290604052805190602001209050600083604051602001808273ffffffffffffffffffffffffffffffffffffffff1660601b81526014019150506040516020818303038152906040528051906020012085604051602001808381526020018281526020019250505060405160208183030381529060405280519060200120905084600160008481526020019081526020016000206001015414806113ee5750846001600083815260200190815260200160002060010154145b611443576040517f08c379a0000000000000000000000000000000000000000000000000000000008152600401808060200182810382526031815260200180613a316031913960400191505060405180910390fd5b826080015161151a57600860009054906101000a900473ffffffffffffffffffffffffffffffffffffffff1673ffffffffffffffffffffffffffffffffffffffff1663d61693ae86600a60009054906101000a900473ffffffffffffffffffffffffffffffffffffffff166040518363ffffffff1660e01b8152600401808381526020018273ffffffffffffffffffffffffffffffffffffffff16815260200192505050600060405180830381600087803b15801561150157600080fd5b505af1158015611515573d6000803e3d6000fd5b505050505b6000611656600860009054906101000a900473ffffffffffffffffffffffffffffffffffffffff1673ffffffffffffffffffffffffffffffffffffffff16638ae9962786604001518760c001518861010001516040518463ffffffff1660e01b815260040180846dffffffffffffffffffffffffffff168152602001836dffffffffffffffffffffffffffff168152602001828152602001935050505060206040518083038186803b1580156115cf57600080fd5b505afa1580156115e3573d6000803e3d6000fd5b505050506040513d60208110156115f957600080fd5b810190808051906020019092919050505061164861162560028860600151612ed590919063ffffffff16565b87604001516dffffffffffffffffffffffffffff16612f0f90919063ffffffff16565b612f0f90919063ffffffff16565b905060006116768561010001518660e00151612eb690919063ffffffff16565b9050600082111561177357846020015173ffffffffffffffffffffffffffffffffffffffff166323b872dd600a60009054906101000a900473ffffffffffffffffffffffffffffffffffffffff1688856040518463ffffffff1660e01b8152600401808473ffffffffffffffffffffffffffffffffffffffff1681526020018373ffffffffffffffffffffffffffffffffffffffff1681526020018281526020019350505050602060405180830381600087803b15801561173657600080fd5b505af115801561174a573d6000803e3d6000fd5b505050506040513d602081101561176057600080fd5b8101908080519060200190929190505050505b600081111561186e578460a0015173ffffffffffffffffffffffffffffffffffffffff166323b872dd600a60009054906101000a900473ffffffffffffffffffffffffffffffffffffffff1688846040518463ffffffff1660e01b8152600401808473ffffffffffffffffffffffffffffffffffffffff1681526020018373ffffffffffffffffffffffffffffffffffffffff1681526020018281526020019350505050602060405180830381600087803b15801561183157600080fd5b505af1158015611845573d6000803e3d6000fd5b505050506040513d602081101561185b57600080fd5b8101908080519060200190929190505050505b61188d8886604001516dffffffffffffffffffffffffffff1688612f2f565b61189787876130fb565b5050505050505050565b600860009054906101000a900473ffffffffffffffffffffffffffffffffffffffff1681565b600a60009054906101000a900473ffffffffffffffffffffffffffffffffffffffff1681565b600f5481565b6000600b828154811061190257fe5b906000526020600020906009020190506000601054431061192557601054611927565b435b90508160050154811161193b575050611a19565b6000826008015490506000811480611957575060008360040154145b1561196d57818360050181905550505050611a19565b600061197d846005015484611e88565b905060006119c0600e546119b287600401546119a460095487612ed590919063ffffffff16565b612ed590919063ffffffff16565b61318390919063ffffffff16565b9050611a026119ef846119e164e8d4a5100085612ed590919063ffffffff16565b61318390919063ffffffff16565b8660060154612eb690919063ffffffff16565b856006018190555083856005018190555050505050505b50565b600d6020528060005260406000206000915090505481565b6000600b80549050905060005b81811015611a5d57611a52816118f3565b806001019050611a41565b5050565b3373ffffffffffffffffffffffffffffffffffffffff1660008054906101000a900473ffffffffffffffffffffffffffffffffffffffff1673ffffffffffffffffffffffffffffffffffffffff1614611b22576040517f08c379a00000000000000000000000000000000000000000000000000000000081526004018080602001828103825260208152602001807f4f776e61626c653a2063616c6c6572206973206e6f7420746865206f776e657281525060200191505060405180910390fd5b8015611b3157611b30611a34565b5b611b7682611b68600b8681548110611b4557fe5b906000526020600020906009020160040154600e54612f0f90919063ffffffff16565b612eb690919063ffffffff16565b600e8190555081600b8481548110611b8a57fe5b906000526020600020906009020160040181905550505050565b600181565b600080600860009054906101000a900473ffffffffffffffffffffffffffffffffffffffff1673ffffffffffffffffffffffffffffffffffffffff16631f06c859846040518263ffffffff1660e01b8152600401808281526020019150506101406040518083038186803b158015611c2057600080fd5b505afa158015611c34573d6000803e3d6000fd5b505050506040513d610140811015611c4b57600080fd5b81019080805190602001909291908051906020019092919080519060200190929190805190602001909291908051906020019092919080519060200190929190805190602001909291908051906020019092919080519060200190929190805190602001909291905050505050505050509350509250508173ffffffffffffffffffffffffffffffffffffffff166323b872dd3330846040518463ffffffff1660e01b8152600401808473ffffffffffffffffffffffffffffffffffffffff1681526020018373ffffffffffffffffffffffffffffffffffffffff1681526020018281526020019350505050602060405180830381600087803b158015611d5157600080fd5b505af1158015611d65573d6000803e3d6000fd5b505050506040513d6020811015611d7b57600080fd5b810190808051906020019092919050505050600860009054906101000a900473ffffffffffffffffffffffffffffffffffffffff1673ffffffffffffffffffffffffffffffffffffffff1663627cf47484600a60009054906101000a900473ffffffffffffffffffffffffffffffffffffffff166040518363ffffffff1660e01b8152600401808381526020018273ffffffffffffffffffffffffffffffffffffffff16815260200192505050600060405180830381600087803b158015611e4257600080fd5b505af1158015611e56573d6000803e3d6000fd5b50505050505050565b60008060009054906101000a900473ffffffffffffffffffffffffffffffffffffffff16905090565b6000611eb06001611ea28585612f0f90919063ffffffff16565b612ed590919063ffffffff16565b905092915050565b600c602052816000526040600020602052806000526040600020600091509150508060000154908060010154905082565b60055481565b60036020528060005260406000206000915090505481565b6000611f3682611f28670de0b6b3a764000086612ed590919063ffffffff16565b61318390919063ffffffff16565b905092915050565b6000600b8281548110611f4d57fe5b906000526020600020906009020190506000600c600084815260200190815260200160002060003373ffffffffffffffffffffffffffffffffffffffff1673ffffffffffffffffffffffffffffffffffffffff1681526020019081526020016000209050611fba836118f3565b60006120048260010154611ff664e8d4a51000611fe887600601548760000154612ed590919063ffffffff16565b61318390919063ffffffff16565b612f0f90919063ffffffff16565b9050600081111561201a5761201933826131a9565b5b61204c64e8d4a5100061203e85600601548560000154612ed590919063ffffffff16565b61318390919063ffffffff16565b826001018190555050505050565b600080600b848154811061206a57fe5b906000526020600020906009020190506000600c600086815260200190815260200160002060008573ffffffffffffffffffffffffffffffffffffffff1673ffffffffffffffffffffffffffffffffffffffff16815260200190815260200160002090506000826006015490506000836008015490508360050154431180156120f4575060008114155b1561218f576000612109856005015443611e88565b9050600061214c600e5461213e886004015461213060095487612ed590919063ffffffff16565b612ed590919063ffffffff16565b61318390919063ffffffff16565b905061218a61217b8461216d64e8d4a5100085612ed590919063ffffffff16565b61318390919063ffffffff16565b85612eb690919063ffffffff16565b935050505b6121d383600101546121c564e8d4a510006121b7868860000154612ed590919063ffffffff16565b61318390919063ffffffff16565b612f0f90919063ffffffff16565b94505050505092915050565b600760009054906101000a900473ffffffffffffffffffffffffffffffffffffffff1681565b3373ffffffffffffffffffffffffffffffffffffffff1660008054906101000a900473ffffffffffffffffffffffffffffffffffffffff1673ffffffffffffffffffffffffffffffffffffffff16146122c6576040517f08c379a00000000000000000000000000000000000000000000000000000000081526004018080602001828103825260208152602001807f4f776e61626c653a2063616c6c6572206973206e6f7420746865206f776e657281525060200191505060405180910390fd5b80600a60006101000a81548173ffffffffffffffffffffffffffffffffffffffff021916908373ffffffffffffffffffffffffffffffffffffffff16021790555050565b6000600b848154811061231957fe5b906000526020600020906009020190506000600c600086815260200190815260200160002060003373ffffffffffffffffffffffffffffffffffffffff1673ffffffffffffffffffffffffffffffffffffffff168152602001908152602001600020905060006123a6600261239860028861318390919063ffffffff16565b612ed590919063ffffffff16565b6dffffffffffffffffffffffffffff16905060006123c48686611f07565b9050836002015481101580156123de575083600301548111155b612433576040517f08c379a000000000000000000000000000000000000000000000000000000000815260040180806020018281038252603b8152602001806139d0603b913960400191505060405180910390fd5b61243c876118f3565b6000821115612753576124a9333061245e60028661318390919063ffffffff16565b8760000160009054906101000a900473ffffffffffffffffffffffffffffffffffffffff1673ffffffffffffffffffffffffffffffffffffffff16613422909392919063ffffffff16565b6124c0828560080154612eb690919063ffffffff16565b8460080181905550600860009054906101000a900473ffffffffffffffffffffffffffffffffffffffff1673ffffffffffffffffffffffffffffffffffffffff1663e2d638d4600a60009054906101000a900473ffffffffffffffffffffffffffffffffffffffff168660000160009054906101000a900473ffffffffffffffffffffffffffffffffffffffff16858860010160009054906101000a900473ffffffffffffffffffffffffffffffffffffffff168a8a600701546040518763ffffffff1660e01b8152600401808773ffffffffffffffffffffffffffffffffffffffff1681526020018673ffffffffffffffffffffffffffffffffffffffff168152602001856dffffffffffffffffffffffffffff1681526020018473ffffffffffffffffffffffffffffffffffffffff168152602001836dffffffffffffffffffffffffffff1681526020018281526020019650505050505050600060405180830381600087803b15801561263557600080fd5b505af1158015612649573d6000803e3d6000fd5b50505050612664828460000154612eb690919063ffffffff16565b8360000181905550612718600860009054906101000a900473ffffffffffffffffffffffffffffffffffffffff1673ffffffffffffffffffffffffffffffffffffffff1663c1292cc36040518163ffffffff1660e01b815260040160206040518083038186803b1580156126d757600080fd5b505afa1580156126eb573d6000803e3d6000fd5b505050506040513d602081101561270157600080fd5b8101908080519060200190929190505050336134fb565b61274a64e8d4a5100061273c86600601548660000154612ed590919063ffffffff16565b61318390919063ffffffff16565b83600101819055505b50505050505050565b3373ffffffffffffffffffffffffffffffffffffffff1660008054906101000a900473ffffffffffffffffffffffffffffffffffffffff1673ffffffffffffffffffffffffffffffffffffffff161461281d576040517f08c379a00000000000000000000000000000000000000000000000000000000081526004018080602001828103825260208152602001807f4f776e61626c653a2063616c6c6572206973206e6f7420746865206f776e657281525060200191505060405180910390fd5b600073ffffffffffffffffffffffffffffffffffffffff168173ffffffffffffffffffffffffffffffffffffffff1614156128a3576040517f08c379a0000000000000000000000000000000000000000000000000000000008152600401808060200182810382526026815260200180613a0b6026913960400191505060405180910390fd5b8073ffffffffffffffffffffffffffffffffffffffff1660008054906101000a900473ffffffffffffffffffffffffffffffffffffffff1673ffffffffffffffffffffffffffffffffffffffff167f8be0079c531659141344cd1fd0a4f28419497f9722a3daafe3b4186f6b6457e060405160405180910390a3806000806101000a81548173ffffffffffffffffffffffffffffffffffffffff021916908373ffffffffffffffffffffffffffffffffffffffff16021790555050565b6000600860009054906101000a900473ffffffffffffffffffffffffffffffffffffffff1673ffffffffffffffffffffffffffffffffffffffff16631f06c859836040518263ffffffff1660e01b8152600401808281526020019150506101406040518083038186803b1580156129d657600080fd5b505afa1580156129ea573d6000803e3d6000fd5b505050506040513d610140811015612a0157600080fd5b81019080805190602001909291908051906020019092919080519060200190929190805190602001909291908051906020019092919080519060200190929190805190602001909291908051906020019092919080519060200190929190805190602001909291905050505050505050505050915050600033604051602001808273ffffffffffffffffffffffffffffffffffffffff1660601b81526014019150506040516020818303038152906040528051906020012090506000818460405160200180838152602001828152602001925050506040516020818303038152906040528051906020012090508360016000848152602001908152602001600020600101541480612b275750836001600083815260200190815260200160002060010154145b612b7c576040517f08c379a0000000000000000000000000000000000000000000000000000000008152600401808060200182810382526031815260200180613a316031913960400191505060405180910390fd5b60008373ffffffffffffffffffffffffffffffffffffffff166370a08231600a60009054906101000a900473ffffffffffffffffffffffffffffffffffffffff166040518263ffffffff1660e01b8152600401808273ffffffffffffffffffffffffffffffffffffffff16815260200191505060206040518083038186803b158015612c0757600080fd5b505afa158015612c1b573d6000803e3d6000fd5b505050506040513d6020811015612c3157600080fd5b81019080805190602001909291905050509050600a60009054906101000a900473ffffffffffffffffffffffffffffffffffffffff1673ffffffffffffffffffffffffffffffffffffffff166345ac5e02866040518263ffffffff1660e01b815260040180828152602001915050600060405180830381600087803b158015612cb957600080fd5b505af1158015612ccd573d6000803e3d6000fd5b505050506000612da9828673ffffffffffffffffffffffffffffffffffffffff166370a08231600a60009054906101000a900473ffffffffffffffffffffffffffffffffffffffff166040518263ffffffff1660e01b8152600401808273ffffffffffffffffffffffffffffffffffffffff16815260200191505060206040518083038186803b158015612d6057600080fd5b505afa158015612d74573d6000803e3d6000fd5b505050506040513d6020811015612d8a57600080fd5b8101908080519060200190929190505050612f0f90919063ffffffff16565b90506000811115612ea2578473ffffffffffffffffffffffffffffffffffffffff166323b872dd600a60009054906101000a900473ffffffffffffffffffffffffffffffffffffffff1633846040518463ffffffff1660e01b8152600401808473ffffffffffffffffffffffffffffffffffffffff1681526020018373ffffffffffffffffffffffffffffffffffffffff1681526020018281526020019350505050602060405180830381600087803b158015612e6557600080fd5b505af1158015612e79573d6000803e3d6000fd5b505050506040513d6020811015612e8f57600080fd5b8101908080519060200190929190505050505b612ead878233612f2f565b50505050505050565b600080828401905083811015612ecb57600080fd5b8091505092915050565b600080831415612ee85760009050612f09565b6000828402905082848281612ef957fe5b0414612f0457600080fd5b809150505b92915050565b600082821115612f1e57600080fd5b600082840390508091505092915050565b6000600b8481548110612f3e57fe5b906000526020600020906009020190506000600c600086815260200190815260200160002060008473ffffffffffffffffffffffffffffffffffffffff1673ffffffffffffffffffffffffffffffffffffffff1681526020019081526020016000209050838160000154101561301c576040517f08c379a00000000000000000000000000000000000000000000000000000000081526004018080602001828103825260128152602001807f77697468647261773a206e6f7420676f6f64000000000000000000000000000081525060200191505060405180910390fd5b613025856118f3565b600061306f826001015461306164e8d4a5100061305387600601548760000154612ed590919063ffffffff16565b61318390919063ffffffff16565b612f0f90919063ffffffff16565b905061307b84826131a9565b613092858460080154612eb690919063ffffffff16565b83600801819055506130b1858360000154612f0f90919063ffffffff16565b82600001819055506130eb64e8d4a510006130dd85600601548560000154612ed590919063ffffffff16565b61318390919063ffffffff16565b8260010181905550505050505050565b600081604051602001808273ffffffffffffffffffffffffffffffffffffffff1660601b815260140191505060405160208183030381529060405280519060200120905060008184604051602001808381526020018281526020019250505060405160208183030381529060405280519060200120905061317d848383613583565b50505050565b600080821161319157600080fd5b600082848161319c57fe5b0490508091505092915050565b6000600760009054906101000a900473ffffffffffffffffffffffffffffffffffffffff1673ffffffffffffffffffffffffffffffffffffffff166370a08231306040518263ffffffff1660e01b8152600401808273ffffffffffffffffffffffffffffffffffffffff16815260200191505060206040518083038186803b15801561323457600080fd5b505afa158015613248573d6000803e3d6000fd5b505050506040513d602081101561325e57600080fd5b810190808051906020019092919050505090508082111561334d57600760009054906101000a900473ffffffffffffffffffffffffffffffffffffffff1673ffffffffffffffffffffffffffffffffffffffff1663a9059cbb84836040518363ffffffff1660e01b8152600401808373ffffffffffffffffffffffffffffffffffffffff16815260200182815260200192505050602060405180830381600087803b15801561330c57600080fd5b505af1158015613320573d6000803e3d6000fd5b505050506040513d602081101561333657600080fd5b81019080805190602001909291905050505061341d565b600760009054906101000a900473ffffffffffffffffffffffffffffffffffffffff1673ffffffffffffffffffffffffffffffffffffffff1663a9059cbb84846040518363ffffffff1660e01b8152600401808373ffffffffffffffffffffffffffffffffffffffff16815260200182815260200192505050602060405180830381600087803b1580156133e057600080fd5b505af11580156133f4573d6000803e3d6000fd5b505050506040513d602081101561340a57600080fd5b8101908080519060200190929190505050505b505050565b8373ffffffffffffffffffffffffffffffffffffffff166323b872dd8484846040518463ffffffff1660e01b8152600401808473ffffffffffffffffffffffffffffffffffffffff1681526020018373ffffffffffffffffffffffffffffffffffffffff1681526020018281526020019350505050602060405180830381600087803b1580156134b157600080fd5b505af11580156134c5573d6000803e3d6000fd5b505050506040513d60208110156134db57600080fd5b81019080805190602001909291905050506134f557600080fd5b50505050565b600081604051602001808273ffffffffffffffffffffffffffffffffffffffff1660601b815260140191505060405160208183030381529060405280519060200120905060008184604051602001808381526020018281526020019250505060405160208183030381529060405280519060200120905061357d84838361380d565b50505050565b826001600084815260200190815260200160002060010154141580156135be5750826001600083815260200190815260200160002060010154145b156137385760006001600083815260200190815260200160002060000154146136295760016000828152602001908152602001600020600201546001600060016000858152602001908152602001600020600001548152602001908152602001600020600201819055505b60006001600083815260200190815260200160002060020154146136d957600160008281526020019081526020016000206000015460016000600160008581526020019081526020016000206002015481526020019081526020016000206000018190555080600260008481526020019081526020016000205414156136d857600160008281526020019081526020016000206002015460026000848152602001908152602001600020819055505b5b600060016000838152602001908152602001600020600201819055506000600160008381526020019081526020016000206000018190555060016003600084815260200190815260200160002060008282540392505081905550613808565b82600160008481526020019081526020016000206001015414156138075760016000600160008581526020019081526020016000206000015481526020019081526020016000206001015460016000848152602001908152602001600020600101819055506001600060016000858152602001908152602001600020600001548152602001908152602001600020600001546001600084815260200190815260200160002060000181905550600160036000848152602001908152602001600020600082825403925050819055505b5b505050565b6000600360008481526020019081526020016000205411156138bd5780600160006002600086815260200190815260200160002054815260200190815260200160002060000181905550826001600083815260200190815260200160002060010181905550600260008381526020019081526020016000205460016000838152602001908152602001600020600201819055508060026000848152602001908152602001600020819055506138f1565b8260016000848152602001908152602001600020600101819055508160026000848152602001908152602001600020819055505b60016003600084815260200190815260200160002060008282540192505081905550505050565b604051806101400160405280600073ffffffffffffffffffffffffffffffffffffffff168152602001600073ffffffffffffffffffffffffffffffffffffffff16815260200160006dffffffffffffffffffffffffffff16815260200160008152602001600015158152602001600073ffffffffffffffffffffffffffffffffffffffff16815260200160006dffffffffffffffffffffffffffff168152602001600081526020016000815260200160008152509056fe74686520726174696f206265747765656e2063726561746f7220616e64206a6f696e657220746f6b656e73206973206f7574206f662072616e67654f776e61626c653a206e6577206f776e657220697320746865207a65726f20616464726573734d6573736167652073656e646572206973206e6f74207468652063726561746f72206f6620746869732070726f6d697365a2646970667358221220d27f080e9b08e2f4b3b14c1879f30e8dfa23cf3b38138081458785a63678bfda64736f6c63430007060033",
  "immutableReferences": {},
  "source": "// SPDX-License-Identifier: MIT\n\npragma solidity >=0.4.21 <0.8.0;\n\nimport {SafeMath} from \"../lib/math/SafeMath.sol\";\nimport {IERC20} from \"../interfaces/IERC20.sol\";\nimport {SafeERC20} from \"../lib/SafeERC20.sol\";\nimport {Ownable} from \"../lib/Ownable.sol\";\n\nimport {PromiseToken} from \"../token/PromiseToken.sol\";\nimport {PromiseCore} from \"../PromiseCore.sol\";\nimport {PromiseList} from \"../PromiseList.sol\";\nimport {IPromiseHolder} from \"../interfaces/IPromiseHolder.sol\";\n\ncontract PromiseChef is Ownable, PromiseList {\n    using SafeMath for uint256;\n    using SafeERC20 for IERC20;\n\n    struct UserInfo {\n        uint256 amount;\n        uint256 rewardDebt;\n    }\n\n    struct PoolInfo {\n        IERC20 creatorToken;\n        address joinerToken;\n        uint256 minRatio;\n        uint256 maxRatio;\n        uint256 allocPoint; // How many allocation points assigned to this pool. PROMs to distribute per block.\n        uint256 lastRewardBlock; // Last block number that PROMs distribution occurs.\n        uint256 accPromPerShare; // Accumulated PROMs per share, times 1e12. See below.\n        uint256 expirationDate;\n        uint256 lpSupply;\n    }\n    struct PromiseCoreData {\n        address creator;\n        address creatorToken;\n        uint112 creatorAmount;\n        uint256 creatorDebt;\n        bool hasCreatorExecuted;\n        address joinerToken;\n        uint112 joinerAmount;\n        uint256 joinerDebt;\n        uint256 joinerPaidFull;\n        uint256 expirationTimestamp;\n    }\n\n    // The PROM TOKEN!\n    PromiseToken public prom;\n    // PromiseCore\n    PromiseCore public promiseCore;\n    // PROM tokens created per block.\n    uint256 public promPerBlock;\n    // Bonus muliplier for early prom makers.\n    uint256 public constant BONUS_MULTIPLIER = 1;\n\n    // Promise holder address;\n    address public promiseHolder;\n    // Info of each pool.\n    PoolInfo[] public poolInfo;\n    // Info of each promise that stakes LP tokens.\n    mapping(uint256 => mapping(address => UserInfo)) public userInfo;\n    // The last prom rewards claim fo this user.\n    mapping(address => uint256) public lastClaim;\n    // Total allocation points. Must be the sum of all allocation points in all pools.\n    uint256 public totalAllocPoint = 0;\n    // The block number when PROM mining starts.\n    uint256 public startBlock;\n    // The block when PROM mining stops.\n    uint256 public endBlock;\n\n    constructor(\n        PromiseToken _prom,\n        PromiseCore _promiseCore,\n        uint256 _promPerBlock,\n        uint256 _startBlock,\n        uint256 _endBlock\n    ) public Ownable(msg.sender) {\n        prom = _prom;\n        promiseCore = _promiseCore;\n        promPerBlock = _promPerBlock;\n        startBlock = block.number;\n        endBlock = _endBlock;\n    }\n\n    function poolLength() external view returns (uint256) {\n        return poolInfo.length;\n    }\n\n    // Add a new lp to the pool. Can only be called by the owner.\n    // XXX DO NOT add the same LP token more than once. Rewards will be messed up if you do.\n    function add(\n        uint256 _allocPoint,\n        IERC20 _creatorToken,\n        address _joinerToken,\n        uint256[2] memory _minUncalculatedRatio,\n        uint256[2] memory _maxUncalculatedRatio,\n        bool _withUpdate,\n        uint256 _expirationDate\n    ) public onlyOwner {\n        if (_withUpdate) {\n            massUpdatePools();\n        }\n        uint256 lastRewardBlock = block.number > startBlock ? block.number : startBlock;\n        totalAllocPoint = totalAllocPoint.add(_allocPoint);\n        poolInfo.push(\n            PoolInfo({\n                creatorToken: _creatorToken,\n                joinerToken: _joinerToken,\n                minRatio: calculateRatio(_minUncalculatedRatio[0], _minUncalculatedRatio[1]),\n                maxRatio: calculateRatio(_maxUncalculatedRatio[0], _maxUncalculatedRatio[1]),\n                expirationDate: _expirationDate,\n                allocPoint: _allocPoint,\n                lastRewardBlock: lastRewardBlock,\n                accPromPerShare: 0,\n                lpSupply: 0\n            })\n        );\n        IPromiseHolder(promiseHolder).approvePromiseChef(address(_creatorToken));\n        _creatorToken.approve(address(promiseCore), 2**256 - 1);\n    }\n\n    // Update the given pool's PROM allocation point and deposit fee. Can only be called by the owner.\n    function set(\n        uint256 _pid,\n        uint256 _allocPoint,\n        bool _withUpdate\n    ) public onlyOwner {\n        if (_withUpdate) {\n            massUpdatePools();\n        }\n        totalAllocPoint = totalAllocPoint.sub(poolInfo[_pid].allocPoint).add(_allocPoint);\n        poolInfo[_pid].allocPoint = _allocPoint;\n    }\n\n    // Return reward multiplier over the given _from to _to block.\n    function getMultiplier(uint256 _from, uint256 _to) public pure returns (uint256) {\n        return _to.sub(_from).mul(BONUS_MULTIPLIER);\n    }\n\n    // View function to see pending PROMs on frontend.\n    function pendingProm(uint256 _pid, address _user) external view returns (uint256) {\n        PoolInfo storage pool = poolInfo[_pid];\n        UserInfo storage user = userInfo[_pid][_user];\n        uint256 accPromPerShare = pool.accPromPerShare;\n        uint256 lpSupply = pool.lpSupply;\n        if (block.number > pool.lastRewardBlock && lpSupply != 0) {\n            uint256 multiplier = getMultiplier(pool.lastRewardBlock, block.number);\n            uint256 promReward = multiplier.mul(promPerBlock).mul(pool.allocPoint).div(totalAllocPoint);\n            accPromPerShare = accPromPerShare.add(promReward.mul(1e12).div(lpSupply));\n        }\n        return user.amount.mul(accPromPerShare).div(1e12).sub(user.rewardDebt);\n    }\n\n    // Update reward variables for all pools. Be careful of gas spending!\n    function massUpdatePools() public {\n        uint256 length = poolInfo.length;\n        for (uint256 pid = 0; pid < length; ++pid) {\n            updatePool(pid);\n        }\n    }\n\n    // Update reward variables of the given pool to be up-to-date.\n    function updatePool(uint256 _pid) public {\n        PoolInfo storage pool = poolInfo[_pid];\n        uint256 lastBlock = block.number < endBlock ? block.number : endBlock;\n        if (lastBlock <= pool.lastRewardBlock) {\n            return;\n        }\n        uint256 lpSupply = pool.lpSupply;\n\n        if (lpSupply == 0 || pool.allocPoint == 0) {\n            pool.lastRewardBlock = lastBlock;\n            return;\n        }\n        uint256 multiplier = getMultiplier(pool.lastRewardBlock, lastBlock);\n        uint256 promReward = multiplier.mul(promPerBlock).mul(pool.allocPoint).div(totalAllocPoint);\n\n        pool.accPromPerShare = pool.accPromPerShare.add(promReward.mul(1e12).div(lpSupply));\n        pool.lastRewardBlock = lastBlock;\n    }\n\n    // Deposit LP tokens to MasterChef for PROM allocation.\n    function createPromise(\n        uint256 _pid,\n        uint256 _creatorAmount,\n        uint256 _joinerAmount\n    ) public {\n        PoolInfo storage pool = poolInfo[_pid];\n        UserInfo storage user = userInfo[_pid][msg.sender];\n        uint256 creatorAmount = uint112(_creatorAmount.div(2).mul(2));\n        uint256 ratio = calculateRatio(_creatorAmount, _joinerAmount);\n        require(\n            ratio >= pool.minRatio && ratio <= pool.maxRatio,\n            \"the ratio between creator and joiner tokens is out of range\"\n        );\n        updatePool(_pid);\n        if (creatorAmount > 0) {\n            pool.creatorToken.safeTransferFrom(address(msg.sender), address(this), creatorAmount.div(2));\n            pool.lpSupply = pool.lpSupply.add(creatorAmount);\n            promiseCore.createPromise(\n                promiseHolder,\n                address(pool.creatorToken),\n                uint112(creatorAmount),\n                pool.joinerToken,\n                uint112(_joinerAmount),\n                pool.expirationDate\n            );\n            user.amount = user.amount.add(creatorAmount);\n            addToAccountList(promiseCore.lastId(), msg.sender);\n            user.rewardDebt = user.amount.mul(pool.accPromPerShare).div(1e12);\n        }\n    }\n\n    function payPromise(uint256 id) external {\n        (, address creatorToken, , uint256 creatorDebt, , , , , , ) = promiseCore.promises(id);\n        IERC20(creatorToken).transferFrom(msg.sender, address(this), creatorDebt);\n        promiseCore.payPromise(id, promiseHolder);\n    }\n\n    function executePromise(\n        uint256 _pid,\n        uint256 promiseId,\n        address account\n    ) external {\n        PromiseCoreData memory p;\n        (\n            ,\n            p.creatorToken,\n            p.creatorAmount,\n            p.creatorDebt,\n            p.hasCreatorExecuted,\n            p.joinerToken,\n            p.joinerAmount,\n            p.joinerDebt,\n            p.joinerPaidFull,\n\n        ) = promiseCore.promises(promiseId);\n        bytes32 listId = keccak256(abi.encodePacked(account));\n        bytes32 index = keccak256(abi.encodePacked(keccak256(abi.encodePacked(account)), promiseId));\n        require(\n            list[listId].id == promiseId || list[index].id == promiseId,\n            \"Message sender is not the creator of this promise\"\n        );\n        if (!p.hasCreatorExecuted) {\n            promiseCore.executePromise(promiseId, promiseHolder);\n        }\n        uint256 creatorTokenPayout =\n            uint256(p.creatorAmount).sub(p.creatorDebt.mul(2)).sub(\n                promiseCore.divMul(uint112(p.creatorAmount), uint112(p.joinerAmount), p.joinerPaidFull)\n            );\n        uint256 joinerTokenPayout = uint256(p.joinerDebt).add(p.joinerPaidFull);\n\n        if (creatorTokenPayout > 0) {\n            IERC20(p.creatorToken).transferFrom(promiseHolder, account, creatorTokenPayout);\n        }\n        if (joinerTokenPayout > 0) {\n            IERC20(p.joinerToken).transferFrom(promiseHolder, account, joinerTokenPayout);\n        }\n        withdrawFromPool(_pid, p.creatorAmount, account);\n        deleteFromAccountList(promiseId, account);\n    }\n\n    function closePendingPromiseAmount(uint256 _pid, uint256 promiseId) external {\n        (, address creatorToken, , , , , , , , ) = promiseCore.promises(promiseId);\n        bytes32 listId = keccak256(abi.encodePacked(msg.sender));\n        bytes32 index = keccak256(abi.encodePacked(listId, promiseId));\n        require(\n            list[listId].id == promiseId || list[index].id == promiseId,\n            \"Message sender is not the creator of this promise\"\n        );\n        uint256 promiseHolderBalance = IERC20(creatorToken).balanceOf(promiseHolder);\n        IPromiseHolder(promiseHolder).closePendingPromiseAmount(promiseId);\n        uint256 creatorTokenRefund = (IERC20(creatorToken).balanceOf(promiseHolder)).sub(promiseHolderBalance);\n        if (creatorTokenRefund > 0) {\n            IERC20(creatorToken).transferFrom(promiseHolder, msg.sender, creatorTokenRefund);\n        }\n        withdrawFromPool(_pid, creatorTokenRefund, msg.sender);\n    }\n\n    function claimReward(uint256 _pid) external {\n        PoolInfo storage pool = poolInfo[_pid];\n        UserInfo storage user = userInfo[_pid][msg.sender];\n        updatePool(_pid);\n        uint256 pending = user.amount.mul(pool.accPromPerShare).div(1e12).sub(user.rewardDebt);\n        if (pending > 0) {\n            safePromTransfer(msg.sender, pending);\n        }\n        user.rewardDebt = user.amount.mul(pool.accPromPerShare).div(1e12);\n    }\n\n    // Withdraw LP tokens from MasterChef.\n    function withdrawFromPool(\n        uint256 _pid,\n        uint256 _amount,\n        address account\n    ) internal {\n        PoolInfo storage pool = poolInfo[_pid];\n        UserInfo storage user = userInfo[_pid][account];\n        require(user.amount >= _amount, \"withdraw: not good\");\n        updatePool(_pid);\n        uint256 pending = user.amount.mul(pool.accPromPerShare).div(1e12).sub(user.rewardDebt);\n        safePromTransfer(account, pending);\n        pool.lpSupply = pool.lpSupply.add(_amount);\n        user.amount = user.amount.sub(_amount);\n        user.rewardDebt = user.amount.mul(pool.accPromPerShare).div(1e12);\n    }\n\n    // Safe prom transfer function, just in case if rounding error causes pool to not have enough PROMs.\n    function safePromTransfer(address _to, uint256 _amount) internal {\n        uint256 promBal = prom.balanceOf(address(this));\n        if (_amount > promBal) {\n            prom.transfer(_to, promBal);\n        } else {\n            prom.transfer(_to, _amount);\n        }\n    }\n\n    function setPromiseHolder(address _promiseHolder) public onlyOwner {\n        promiseHolder = _promiseHolder;\n    }\n\n    //Pancake has to add hidden dummy pools inorder to alter the emission, here we make it simple and transparent to all.\n    function updateEmissionRate(uint256 _promPerBlock) public onlyOwner {\n        massUpdatePools();\n        promPerBlock = _promPerBlock;\n    }\n\n    function calculateRatio(uint256 creatorAmount, uint256 joinerAmount) public pure returns (uint256 z) {\n        z = creatorAmount.mul(1 ether).div(joinerAmount);\n    }\n\n    function max(uint256 a, uint256 b) internal pure returns (uint256 c) {\n        if (a > b) {\n            c = a;\n        } else {\n            c = b;\n        }\n    }\n}\n",
  "sourcePath": "/Users/nanoissuperior/promise-contracts/contracts/farms/PromiseChef.sol",
  "compiler": {
    "name": "solc",
    "version": "0.7.6+commit.7338295f.Emscripten.clang"
  },
  "schemaVersion": "3.2.4",
  "updatedAt": "2021-07-08T10:18:44.727Z",
  "networkType": "ethereum",
  "devdoc": {
    "kind": "dev",
    "methods": {},
    "version": 1
  },
  "userdoc": {
    "kind": "user",
    "methods": {},
    "version": 1
  }
}