{
  "contractName": "PromiseChef",
  "abi": [
    {
      "inputs": [
        {
          "internalType": "contract PromiseToken",
          "name": "_prom",
          "type": "address"
        },
        {
          "internalType": "contract PromiseCore",
          "name": "_promiseCore",
          "type": "address"
        },
        {
          "internalType": "uint256",
          "name": "_promPerBlock",
          "type": "uint256"
        },
        {
          "internalType": "uint256",
          "name": "_startBlock",
          "type": "uint256"
        },
        {
          "internalType": "uint256",
          "name": "_endBlock",
          "type": "uint256"
        }
      ],
      "stateMutability": "nonpayable",
      "type": "constructor"
    },
    {
      "anonymous": false,
      "inputs": [
        {
          "indexed": true,
          "internalType": "address",
          "name": "previousOwner",
          "type": "address"
        },
        {
          "indexed": true,
          "internalType": "address",
          "name": "newOwner",
          "type": "address"
        }
      ],
      "name": "OwnershipTransferred",
      "type": "event"
    },
    {
      "inputs": [],
      "name": "BONUS_MULTIPLIER",
      "outputs": [
        {
          "internalType": "uint256",
          "name": "",
          "type": "uint256"
        }
      ],
      "stateMutability": "view",
      "type": "function"
    },
    {
      "inputs": [],
      "name": "endBlock",
      "outputs": [
        {
          "internalType": "uint256",
          "name": "",
          "type": "uint256"
        }
      ],
      "stateMutability": "view",
      "type": "function"
    },
    {
      "inputs": [
        {
          "internalType": "address",
          "name": "",
          "type": "address"
        }
      ],
      "name": "lastClaim",
      "outputs": [
        {
          "internalType": "uint256",
          "name": "",
          "type": "uint256"
        }
      ],
      "stateMutability": "view",
      "type": "function"
    },
    {
      "inputs": [
        {
          "internalType": "bytes32",
          "name": "",
          "type": "bytes32"
        }
      ],
      "name": "length",
      "outputs": [
        {
          "internalType": "uint256",
          "name": "",
          "type": "uint256"
        }
      ],
      "stateMutability": "view",
      "type": "function"
    },
    {
      "inputs": [
        {
          "internalType": "bytes32",
          "name": "",
          "type": "bytes32"
        }
      ],
      "name": "list",
      "outputs": [
        {
          "internalType": "bytes32",
          "name": "next",
          "type": "bytes32"
        },
        {
          "internalType": "uint256",
          "name": "id",
          "type": "uint256"
        },
        {
          "internalType": "bytes32",
          "name": "previous",
          "type": "bytes32"
        }
      ],
      "stateMutability": "view",
      "type": "function"
    },
    {
      "inputs": [],
      "name": "owner",
      "outputs": [
        {
          "internalType": "address",
          "name": "",
          "type": "address"
        }
      ],
      "stateMutability": "view",
      "type": "function"
    },
    {
      "inputs": [
        {
          "internalType": "uint256",
          "name": "",
          "type": "uint256"
        }
      ],
      "name": "poolInfo",
      "outputs": [
        {
          "internalType": "contract IERC20",
          "name": "creatorToken",
          "type": "address"
        },
        {
          "internalType": "address",
          "name": "joinerToken",
          "type": "address"
        },
        {
          "internalType": "uint256",
          "name": "minRatio",
          "type": "uint256"
        },
        {
          "internalType": "uint256",
          "name": "maxRatio",
          "type": "uint256"
        },
        {
          "internalType": "uint256",
          "name": "allocPoint",
          "type": "uint256"
        },
        {
          "internalType": "uint256",
          "name": "lastRewardBlock",
          "type": "uint256"
        },
        {
          "internalType": "uint256",
          "name": "accPromPerShare",
          "type": "uint256"
        },
        {
          "internalType": "uint256",
          "name": "expirationDate",
          "type": "uint256"
        },
        {
          "internalType": "uint256",
          "name": "lpSupply",
          "type": "uint256"
        }
      ],
      "stateMutability": "view",
      "type": "function"
    },
    {
      "inputs": [],
      "name": "prom",
      "outputs": [
        {
          "internalType": "contract PromiseToken",
          "name": "",
          "type": "address"
        }
      ],
      "stateMutability": "view",
      "type": "function"
    },
    {
      "inputs": [],
      "name": "promPerBlock",
      "outputs": [
        {
          "internalType": "uint256",
          "name": "",
          "type": "uint256"
        }
      ],
      "stateMutability": "view",
      "type": "function"
    },
    {
      "inputs": [],
      "name": "promiseCore",
      "outputs": [
        {
          "internalType": "contract PromiseCore",
          "name": "",
          "type": "address"
        }
      ],
      "stateMutability": "view",
      "type": "function"
    },
    {
      "inputs": [],
      "name": "promiseHolder",
      "outputs": [
        {
          "internalType": "address",
          "name": "",
          "type": "address"
        }
      ],
      "stateMutability": "view",
      "type": "function"
    },
    {
      "inputs": [],
      "name": "startBlock",
      "outputs": [
        {
          "internalType": "uint256",
          "name": "",
          "type": "uint256"
        }
      ],
      "stateMutability": "view",
      "type": "function"
    },
    {
      "inputs": [
        {
          "internalType": "bytes32",
          "name": "",
          "type": "bytes32"
        }
      ],
      "name": "tail",
      "outputs": [
        {
          "internalType": "bytes32",
          "name": "",
          "type": "bytes32"
        }
      ],
      "stateMutability": "view",
      "type": "function"
    },
    {
      "inputs": [],
      "name": "totalAllocPoint",
      "outputs": [
        {
          "internalType": "uint256",
          "name": "",
          "type": "uint256"
        }
      ],
      "stateMutability": "view",
      "type": "function"
    },
    {
      "inputs": [
        {
          "internalType": "address",
          "name": "newOwner",
          "type": "address"
        }
      ],
      "name": "transferOwnership",
      "outputs": [],
      "stateMutability": "nonpayable",
      "type": "function"
    },
    {
      "inputs": [
        {
          "internalType": "uint256",
          "name": "",
          "type": "uint256"
        },
        {
          "internalType": "address",
          "name": "",
          "type": "address"
        }
      ],
      "name": "userInfo",
      "outputs": [
        {
          "internalType": "uint256",
          "name": "amount",
          "type": "uint256"
        },
        {
          "internalType": "uint256",
          "name": "rewardDebt",
          "type": "uint256"
        }
      ],
      "stateMutability": "view",
      "type": "function"
    },
    {
      "inputs": [],
      "name": "poolLength",
      "outputs": [
        {
          "internalType": "uint256",
          "name": "",
          "type": "uint256"
        }
      ],
      "stateMutability": "view",
      "type": "function"
    },
    {
      "inputs": [
        {
          "internalType": "uint256",
          "name": "_allocPoint",
          "type": "uint256"
        },
        {
          "internalType": "contract IERC20",
          "name": "_creatorToken",
          "type": "address"
        },
        {
          "internalType": "address",
          "name": "_joinerToken",
          "type": "address"
        },
        {
          "internalType": "uint256[2]",
          "name": "_minUncalculatedRatio",
          "type": "uint256[2]"
        },
        {
          "internalType": "uint256[2]",
          "name": "_maxUncalculatedRatio",
          "type": "uint256[2]"
        },
        {
          "internalType": "bool",
          "name": "_withUpdate",
          "type": "bool"
        },
        {
          "internalType": "uint256",
          "name": "_expirationDate",
          "type": "uint256"
        }
      ],
      "name": "add",
      "outputs": [],
      "stateMutability": "nonpayable",
      "type": "function"
    },
    {
      "inputs": [
        {
          "internalType": "uint256",
          "name": "_pid",
          "type": "uint256"
        },
        {
          "internalType": "uint256",
          "name": "_allocPoint",
          "type": "uint256"
        },
        {
          "internalType": "bool",
          "name": "_withUpdate",
          "type": "bool"
        }
      ],
      "name": "set",
      "outputs": [],
      "stateMutability": "nonpayable",
      "type": "function"
    },
    {
      "inputs": [
        {
          "internalType": "uint256",
          "name": "_from",
          "type": "uint256"
        },
        {
          "internalType": "uint256",
          "name": "_to",
          "type": "uint256"
        }
      ],
      "name": "getMultiplier",
      "outputs": [
        {
          "internalType": "uint256",
          "name": "",
          "type": "uint256"
        }
      ],
      "stateMutability": "pure",
      "type": "function"
    },
    {
      "inputs": [
        {
          "internalType": "uint256",
          "name": "_pid",
          "type": "uint256"
        },
        {
          "internalType": "address",
          "name": "_user",
          "type": "address"
        }
      ],
      "name": "pendingProm",
      "outputs": [
        {
          "internalType": "uint256",
          "name": "",
          "type": "uint256"
        }
      ],
      "stateMutability": "view",
      "type": "function"
    },
    {
      "inputs": [],
      "name": "massUpdatePools",
      "outputs": [],
      "stateMutability": "nonpayable",
      "type": "function"
    },
    {
      "inputs": [
        {
          "internalType": "uint256",
          "name": "_pid",
          "type": "uint256"
        }
      ],
      "name": "updatePool",
      "outputs": [],
      "stateMutability": "nonpayable",
      "type": "function"
    },
    {
      "inputs": [
        {
          "internalType": "uint256",
          "name": "_pid",
          "type": "uint256"
        },
        {
          "internalType": "uint256",
          "name": "_creatorAmount",
          "type": "uint256"
        },
        {
          "internalType": "uint256",
          "name": "_joinerAmount",
          "type": "uint256"
        }
      ],
      "name": "createPromise",
      "outputs": [],
      "stateMutability": "nonpayable",
      "type": "function"
    },
    {
      "inputs": [
        {
          "internalType": "uint256",
          "name": "id",
          "type": "uint256"
        }
      ],
      "name": "payPromise",
      "outputs": [],
      "stateMutability": "nonpayable",
      "type": "function"
    },
    {
      "inputs": [
        {
          "internalType": "uint256",
          "name": "_pid",
          "type": "uint256"
        },
        {
          "internalType": "uint256",
          "name": "promiseId",
          "type": "uint256"
        },
        {
          "internalType": "address",
          "name": "account",
          "type": "address"
        }
      ],
      "name": "executePromise",
      "outputs": [],
      "stateMutability": "nonpayable",
      "type": "function"
    },
    {
      "inputs": [
        {
          "internalType": "uint256",
          "name": "_pid",
          "type": "uint256"
        },
        {
          "internalType": "uint256",
          "name": "promiseId",
          "type": "uint256"
        }
      ],
      "name": "closePendingPromiseAmount",
      "outputs": [],
      "stateMutability": "nonpayable",
      "type": "function"
    },
    {
      "inputs": [
        {
          "internalType": "uint256",
          "name": "_pid",
          "type": "uint256"
        }
      ],
      "name": "claimReward",
      "outputs": [],
      "stateMutability": "nonpayable",
      "type": "function"
    },
    {
      "inputs": [
        {
          "internalType": "address",
          "name": "_promiseHolder",
          "type": "address"
        }
      ],
      "name": "setPromiseHolder",
      "outputs": [],
      "stateMutability": "nonpayable",
      "type": "function"
    },
    {
      "inputs": [
        {
          "internalType": "uint256",
          "name": "_promPerBlock",
          "type": "uint256"
        }
      ],
      "name": "updateEmissionRate",
      "outputs": [],
      "stateMutability": "nonpayable",
      "type": "function"
    },
    {
      "inputs": [
        {
          "internalType": "uint256",
          "name": "creatorAmount",
          "type": "uint256"
        },
        {
          "internalType": "uint256",
          "name": "joinerAmount",
          "type": "uint256"
        }
      ],
      "name": "calculateRatio",
      "outputs": [
        {
          "internalType": "uint256",
          "name": "z",
          "type": "uint256"
        }
      ],
      "stateMutability": "pure",
      "type": "function"
    }
  ],
  "bytecode": "0x60806040526000600b5534801561001557600080fd5b50604051613f2f380380613f2f833981810160405260a081101561003857600080fd5b81019080805190602001909291908051906020019092919080519060200190929190805190602001909291908051906020019092919050505033806000806101000a81548173ffffffffffffffffffffffffffffffffffffffff021916908373ffffffffffffffffffffffffffffffffffffffff16021790555060008054906101000a900473ffffffffffffffffffffffffffffffffffffffff1673ffffffffffffffffffffffffffffffffffffffff16600073ffffffffffffffffffffffffffffffffffffffff167f8be0079c531659141344cd1fd0a4f28419497f9722a3daafe3b4186f6b6457e060405160405180910390a35084600460006101000a81548173ffffffffffffffffffffffffffffffffffffffff021916908373ffffffffffffffffffffffffffffffffffffffff16021790555083600560006101000a81548173ffffffffffffffffffffffffffffffffffffffff021916908373ffffffffffffffffffffffffffffffffffffffff1602179055508260068190555043600c8190555080600d819055505050505050613d56806101d96000396000f3fe608060405234801561001057600080fd5b50600436106101e55760003560e01c8063630b5ba11161010f578063ada0b0ed116100a2578063e571826b11610071578063e571826b14610908578063ea545f7e1461094c578063f2fde38b1461098e578063fda1c150146109d2576101e5565b8063ada0b0ed146107f8578063ae169a5014610844578063d721fb9614610872578063dde0bc14146108d4576101e5565b80638da5cb5b116100de5780638da5cb5b146106cd5780638dbb1e3a1461070157806393f1a40b1461074d578063a9dbaf25146107b6576101e5565b8063630b5ba11461063357806364482f791461063d5780638aa28550146106815780638c97d7111461069f576101e5565b80632ac00efb1161018757806346c3225e1161015657806346c3225e1461055b57806348cd4cb11461058f57806351eb05a6146105ad5780635c16e15e146105db576101e5565b80632ac00efb1461046f5780632afd0560146104b157806338d24c87146104cf5780633bb260bd14610527576101e5565b806313d49a8b116101c357806313d49a8b146102545780631526fe27146102a457806317caf6f11461034a5780631ebb4c1014610368576101e5565b8063081e3eda146101ea578063083c6323146102085780630ba84cd214610226575b600080fd5b6101f2610a0a565b6040518082815260200191505060405180910390f35b610210610a17565b6040518082815260200191505060405180910390f35b6102526004803603602081101561023c57600080fd5b8101908080359060200190929190505050610a1d565b005b6102806004803603602081101561026a57600080fd5b8101908080359060200190929190505050610af0565b60405180848152602001838152602001828152602001935050505060405180910390f35b6102d0600480360360208110156102ba57600080fd5b8101908080359060200190929190505050610b1a565b604051808a73ffffffffffffffffffffffffffffffffffffffff1681526020018973ffffffffffffffffffffffffffffffffffffffff168152602001888152602001878152602001868152602001858152602001848152602001838152602001828152602001995050505050505050505060405180910390f35b610352610bb8565b6040518082815260200191505060405180910390f35b61046d600480360361012081101561037f57600080fd5b8101908080359060200190929190803573ffffffffffffffffffffffffffffffffffffffff169060200190929190803573ffffffffffffffffffffffffffffffffffffffff16906020019092919080604001906002806020026040519081016040528092919082600260200280828437600081840152601f19601f820116905080830192505050505050919291929080604001906002806020026040519081016040528092919082600260200280828437600081840152601f19601f820116905080830192505050505050919291929080351515906020019092919080359060200190929190505050610bbe565b005b61049b6004803603602081101561048557600080fd5b8101908080359060200190929190505050611022565b6040518082815260200191505060405180910390f35b6104b961103a565b6040518082815260200191505060405180910390f35b610525600480360360608110156104e557600080fd5b810190808035906020019092919080359060200190929190803573ffffffffffffffffffffffffffffffffffffffff169060200190929190505050611040565b005b61052f61198b565b604051808273ffffffffffffffffffffffffffffffffffffffff16815260200191505060405180910390f35b6105636119b1565b604051808273ffffffffffffffffffffffffffffffffffffffff16815260200191505060405180910390f35b6105976119d7565b6040518082815260200191505060405180910390f35b6105d9600480360360208110156105c357600080fd5b81019080803590602001909291905050506119dd565b005b61061d600480360360208110156105f157600080fd5b81019080803573ffffffffffffffffffffffffffffffffffffffff169060200190929190505050611b06565b6040518082815260200191505060405180910390f35b61063b611b1e565b005b61067f6004803603606081101561065357600080fd5b810190808035906020019092919080359060200190929190803515159060200190929190505050611b4b565b005b610689611c8e565b6040518082815260200191505060405180910390f35b6106cb600480360360208110156106b557600080fd5b8101908080359060200190929190505050611c93565b005b6106d5611f49565b604051808273ffffffffffffffffffffffffffffffffffffffff16815260200191505060405180910390f35b6107376004803603604081101561071757600080fd5b810190808035906020019092919080359060200190929190505050611f72565b6040518082815260200191505060405180910390f35b6107996004803603604081101561076357600080fd5b8101908080359060200190929190803573ffffffffffffffffffffffffffffffffffffffff169060200190929190505050611fa2565b604051808381526020018281526020019250505060405180910390f35b6107e2600480360360208110156107cc57600080fd5b8101908080359060200190929190505050611fd3565b6040518082815260200191505060405180910390f35b61082e6004803603604081101561080e57600080fd5b810190808035906020019092919080359060200190929190505050611feb565b6040518082815260200191505060405180910390f35b6108706004803603602081101561085a57600080fd5b8101908080359060200190929190505050612022565b005b6108be6004803603604081101561088857600080fd5b8101908080359060200190929190803573ffffffffffffffffffffffffffffffffffffffff16906020019092919050505061213e565b6040518082815260200191505060405180910390f35b6108dc6122c3565b604051808273ffffffffffffffffffffffffffffffffffffffff16815260200191505060405180910390f35b61094a6004803603602081101561091e57600080fd5b81019080803573ffffffffffffffffffffffffffffffffffffffff1690602001909291905050506122e9565b005b61098c6004803603606081101561096257600080fd5b810190808035906020019092919080359060200190929190803590602001909291905050506123ee565b005b6109d0600480360360208110156109a457600080fd5b81019080803573ffffffffffffffffffffffffffffffffffffffff169060200190929190505050612840565b005b610a08600480360360408110156109e857600080fd5b810190808035906020019092919080359060200190929190505050612a44565b005b6000600880549050905090565b600d5481565b3373ffffffffffffffffffffffffffffffffffffffff1660008054906101000a900473ffffffffffffffffffffffffffffffffffffffff1673ffffffffffffffffffffffffffffffffffffffff1614610ade576040517f08c379a00000000000000000000000000000000000000000000000000000000081526004018080602001828103825260208152602001807f4f776e61626c653a2063616c6c6572206973206e6f7420746865206f776e657281525060200191505060405180910390fd5b610ae6611b1e565b8060068190555050565b60016020528060005260406000206000915090508060000154908060010154908060020154905083565b60088181548110610b2a57600080fd5b90600052602060002090600902016000915090508060000160009054906101000a900473ffffffffffffffffffffffffffffffffffffffff16908060010160009054906101000a900473ffffffffffffffffffffffffffffffffffffffff16908060020154908060030154908060040154908060050154908060060154908060070154908060080154905089565b600b5481565b3373ffffffffffffffffffffffffffffffffffffffff1660008054906101000a900473ffffffffffffffffffffffffffffffffffffffff1673ffffffffffffffffffffffffffffffffffffffff1614610c7f576040517f08c379a00000000000000000000000000000000000000000000000000000000081526004018080602001828103825260208152602001807f4f776e61626c653a2063616c6c6572206973206e6f7420746865206f776e657281525060200191505060405180910390fd5b8115610c8e57610c8d611b1e565b5b6000600c544311610ca157600c54610ca3565b435b9050610cba88600b5461314a90919063ffffffff16565b600b8190555060086040518061012001604052808973ffffffffffffffffffffffffffffffffffffffff1681526020018873ffffffffffffffffffffffffffffffffffffffff168152602001610d3288600060028110610d1657fe5b602002015189600160028110610d2857fe5b6020020151611feb565b8152602001610d6387600060028110610d4757fe5b602002015188600160028110610d5957fe5b6020020151611feb565b81526020018a8152602001838152602001600081526020018481526020016000815250908060018154018082558091505060019003906000526020600020906009020160009091909190915060008201518160000160006101000a81548173ffffffffffffffffffffffffffffffffffffffff021916908373ffffffffffffffffffffffffffffffffffffffff16021790555060208201518160010160006101000a81548173ffffffffffffffffffffffffffffffffffffffff021916908373ffffffffffffffffffffffffffffffffffffffff16021790555060408201518160020155606082015181600301556080820151816004015560a0820151816005015560c0820151816006015560e0820151816007015561010082015181600801555050600760009054906101000a900473ffffffffffffffffffffffffffffffffffffffff1673ffffffffffffffffffffffffffffffffffffffff16630f5f4df3886040518263ffffffff1660e01b8152600401808273ffffffffffffffffffffffffffffffffffffffff168152602001915050600060405180830381600087803b158015610f1157600080fd5b505af1158015610f25573d6000803e3d6000fd5b505050508673ffffffffffffffffffffffffffffffffffffffff1663095ea7b3600560009054906101000a900473ffffffffffffffffffffffffffffffffffffffff167fffffffffffffffffffffffffffffffffffffffffffffffffffffffffffffffff6040518363ffffffff1660e01b8152600401808373ffffffffffffffffffffffffffffffffffffffff16815260200182815260200192505050602060405180830381600087803b158015610fdc57600080fd5b505af1158015610ff0573d6000803e3d6000fd5b505050506040513d602081101561100657600080fd5b8101908080519060200190929190505050505050505050505050565b60026020528060005260406000206000915090505481565b60065481565b611048613bac565b600560009054906101000a900473ffffffffffffffffffffffffffffffffffffffff1673ffffffffffffffffffffffffffffffffffffffff16631f06c859846040518263ffffffff1660e01b8152600401808281526020019150506101406040518083038186803b1580156110bc57600080fd5b505afa1580156110d0573d6000803e3d6000fd5b505050506040513d6101408110156110e757600080fd5b8101908080519060200190929190805190602001909291908051906020019092919080519060200190929190805190602001909291908051906020019092919080519060200190929190805190602001909291908051906020019092919080519060200190929190505050909192939495969798505088602001896040018a6060018b6080018c60a0018d60c0018e60e0018f610100018881525088815250886dffffffffffffffffffffffffffff166dffffffffffffffffffffffffffff168152508873ffffffffffffffffffffffffffffffffffffffff1673ffffffffffffffffffffffffffffffffffffffff16815250881515151581525088815250886dffffffffffffffffffffffffffff166dffffffffffffffffffffffffffff168152508873ffffffffffffffffffffffffffffffffffffffff1673ffffffffffffffffffffffffffffffffffffffff168152505050505050505050600082604051602001808273ffffffffffffffffffffffffffffffffffffffff1660601b8152601401915050604051602081830303815290604052805190602001209050600083604051602001808273ffffffffffffffffffffffffffffffffffffffff1660601b81526014019150506040516020818303038152906040528051906020012085604051602001808381526020018281526020019250505060405160208183030381529060405280519060200120905084600160008481526020019081526020016000206001015414806113315750846001600083815260200190815260200160002060010154145b611386576040517f08c379a0000000000000000000000000000000000000000000000000000000008152600401808060200182810382526031815260200180613cf06031913960400191505060405180910390fd5b6113908585613169565b826080015161146757600560009054906101000a900473ffffffffffffffffffffffffffffffffffffffff1673ffffffffffffffffffffffffffffffffffffffff1663d61693ae86600760009054906101000a900473ffffffffffffffffffffffffffffffffffffffff166040518363ffffffff1660e01b8152600401808381526020018273ffffffffffffffffffffffffffffffffffffffff16815260200192505050600060405180830381600087803b15801561144e57600080fd5b505af1158015611462573d6000803e3d6000fd5b505050505b6000611590600560009054906101000a900473ffffffffffffffffffffffffffffffffffffffff1673ffffffffffffffffffffffffffffffffffffffff16638ae9962786604001518760c001518861010001516040518463ffffffff1660e01b815260040180846dffffffffffffffffffffffffffff168152602001836dffffffffffffffffffffffffffff168152602001828152602001935050505060206040518083038186803b15801561151c57600080fd5b505afa158015611530573d6000803e3d6000fd5b505050506040513d602081101561154657600080fd5b8101908080519060200190929190505050611582866060015187604001516dffffffffffffffffffffffffffff166131f190919063ffffffff16565b6131f190919063ffffffff16565b905060006115b08561010001518660e0015161314a90919063ffffffff16565b90506115d18886604001516dffffffffffffffffffffffffffff1688613211565b60008211156117a9576116b56116a6612710611698600560009054906101000a900473ffffffffffffffffffffffffffffffffffffffff1673ffffffffffffffffffffffffffffffffffffffff1663017f6fae6040518163ffffffff1660e01b815260040160206040518083038186803b15801561164e57600080fd5b505afa158015611662573d6000803e3d6000fd5b505050506040513d602081101561167857600080fd5b8101908080519060200190929190505050866133dd90919063ffffffff16565b61341790919063ffffffff16565b836131f190919063ffffffff16565b9150846020015173ffffffffffffffffffffffffffffffffffffffff166323b872dd600760009054906101000a900473ffffffffffffffffffffffffffffffffffffffff1688856040518463ffffffff1660e01b8152600401808473ffffffffffffffffffffffffffffffffffffffff1681526020018373ffffffffffffffffffffffffffffffffffffffff1681526020018281526020019350505050602060405180830381600087803b15801561176c57600080fd5b505af1158015611780573d6000803e3d6000fd5b505050506040513d602081101561179657600080fd5b8101908080519060200190929190505050505b60008111156119815761188d61187e612710611870600560009054906101000a900473ffffffffffffffffffffffffffffffffffffffff1673ffffffffffffffffffffffffffffffffffffffff1663017f6fae6040518163ffffffff1660e01b815260040160206040518083038186803b15801561182657600080fd5b505afa15801561183a573d6000803e3d6000fd5b505050506040513d602081101561185057600080fd5b8101908080519060200190929190505050856133dd90919063ffffffff16565b61341790919063ffffffff16565b826131f190919063ffffffff16565b90508460a0015173ffffffffffffffffffffffffffffffffffffffff166323b872dd600760009054906101000a900473ffffffffffffffffffffffffffffffffffffffff1688846040518463ffffffff1660e01b8152600401808473ffffffffffffffffffffffffffffffffffffffff1681526020018373ffffffffffffffffffffffffffffffffffffffff1681526020018281526020019350505050602060405180830381600087803b15801561194457600080fd5b505af1158015611958573d6000803e3d6000fd5b505050506040513d602081101561196e57600080fd5b8101908080519060200190929190505050505b5050505050505050565b600560009054906101000a900473ffffffffffffffffffffffffffffffffffffffff1681565b600760009054906101000a900473ffffffffffffffffffffffffffffffffffffffff1681565b600c5481565b6000600882815481106119ec57fe5b906000526020600020906009020190506000600d544310611a0f57600d54611a11565b435b905081600501548111611a25575050611b03565b6000826008015490506000811480611a41575060008360040154145b15611a5757818360050181905550505050611b03565b6000611a67846005015484611f72565b90506000611aaa600b54611a9c8760040154611a8e600654876133dd90919063ffffffff16565b6133dd90919063ffffffff16565b61341790919063ffffffff16565b9050611aec611ad984611acb64e8d4a51000856133dd90919063ffffffff16565b61341790919063ffffffff16565b866006015461314a90919063ffffffff16565b856006018190555083856005018190555050505050505b50565b600a6020528060005260406000206000915090505481565b6000600880549050905060005b81811015611b4757611b3c816119dd565b806001019050611b2b565b5050565b3373ffffffffffffffffffffffffffffffffffffffff1660008054906101000a900473ffffffffffffffffffffffffffffffffffffffff1673ffffffffffffffffffffffffffffffffffffffff1614611c0c576040517f08c379a00000000000000000000000000000000000000000000000000000000081526004018080602001828103825260208152602001807f4f776e61626c653a2063616c6c6572206973206e6f7420746865206f776e657281525060200191505060405180910390fd5b8015611c1b57611c1a611b1e565b5b611c6082611c5260088681548110611c2f57fe5b906000526020600020906009020160040154600b546131f190919063ffffffff16565b61314a90919063ffffffff16565b600b819055508160088481548110611c7457fe5b906000526020600020906009020160040181905550505050565b600181565b600080600560009054906101000a900473ffffffffffffffffffffffffffffffffffffffff1673ffffffffffffffffffffffffffffffffffffffff16631f06c859846040518263ffffffff1660e01b8152600401808281526020019150506101406040518083038186803b158015611d0a57600080fd5b505afa158015611d1e573d6000803e3d6000fd5b505050506040513d610140811015611d3557600080fd5b81019080805190602001909291908051906020019092919080519060200190929190805190602001909291908051906020019092919080519060200190929190805190602001909291908051906020019092919080519060200190929190805190602001909291905050505050505050509350509250508173ffffffffffffffffffffffffffffffffffffffff166323b872dd3330846040518463ffffffff1660e01b8152600401808473ffffffffffffffffffffffffffffffffffffffff1681526020018373ffffffffffffffffffffffffffffffffffffffff1681526020018281526020019350505050602060405180830381600087803b158015611e3b57600080fd5b505af1158015611e4f573d6000803e3d6000fd5b505050506040513d6020811015611e6557600080fd5b810190808051906020019092919050505050600560009054906101000a900473ffffffffffffffffffffffffffffffffffffffff1673ffffffffffffffffffffffffffffffffffffffff1663627cf47484600760009054906101000a900473ffffffffffffffffffffffffffffffffffffffff166040518363ffffffff1660e01b8152600401808381526020018273ffffffffffffffffffffffffffffffffffffffff16815260200192505050600060405180830381600087803b158015611f2c57600080fd5b505af1158015611f40573d6000803e3d6000fd5b50505050505050565b60008060009054906101000a900473ffffffffffffffffffffffffffffffffffffffff16905090565b6000611f9a6001611f8c85856131f190919063ffffffff16565b6133dd90919063ffffffff16565b905092915050565b6009602052816000526040600020602052806000526040600020600091509150508060000154908060010154905082565b60036020528060005260406000206000915090505481565b600061201a8261200c670de0b6b3a7640000866133dd90919063ffffffff16565b61341790919063ffffffff16565b905092915050565b60006008828154811061203157fe5b9060005260206000209060090201905060006009600084815260200190815260200160002060003373ffffffffffffffffffffffffffffffffffffffff1673ffffffffffffffffffffffffffffffffffffffff168152602001908152602001600020905061209e836119dd565b60006120e882600101546120da64e8d4a510006120cc876006015487600001546133dd90919063ffffffff16565b61341790919063ffffffff16565b6131f190919063ffffffff16565b905060008111156120fe576120fd338261343d565b5b61213064e8d4a51000612122856006015485600001546133dd90919063ffffffff16565b61341790919063ffffffff16565b826001018190555050505050565b6000806008848154811061214e57fe5b9060005260206000209060090201905060006009600086815260200190815260200160002060008573ffffffffffffffffffffffffffffffffffffffff1673ffffffffffffffffffffffffffffffffffffffff16815260200190815260200160002090506000826006015490506000836008015490508360050154431180156121d8575060008114155b156122735760006121ed856005015443611f72565b90506000612230600b546122228860040154612214600654876133dd90919063ffffffff16565b6133dd90919063ffffffff16565b61341790919063ffffffff16565b905061226e61225f8461225164e8d4a51000856133dd90919063ffffffff16565b61341790919063ffffffff16565b8561314a90919063ffffffff16565b935050505b6122b783600101546122a964e8d4a5100061229b8688600001546133dd90919063ffffffff16565b61341790919063ffffffff16565b6131f190919063ffffffff16565b94505050505092915050565b600460009054906101000a900473ffffffffffffffffffffffffffffffffffffffff1681565b3373ffffffffffffffffffffffffffffffffffffffff1660008054906101000a900473ffffffffffffffffffffffffffffffffffffffff1673ffffffffffffffffffffffffffffffffffffffff16146123aa576040517f08c379a00000000000000000000000000000000000000000000000000000000081526004018080602001828103825260208152602001807f4f776e61626c653a2063616c6c6572206973206e6f7420746865206f776e657281525060200191505060405180910390fd5b80600760006101000a81548173ffffffffffffffffffffffffffffffffffffffff021916908373ffffffffffffffffffffffffffffffffffffffff16021790555050565b6000600884815481106123fd57fe5b9060005260206000209060090201905060006009600086815260200190815260200160002060003373ffffffffffffffffffffffffffffffffffffffff1673ffffffffffffffffffffffffffffffffffffffff1681526020019081526020016000209050600061248a600261247c60028861341790919063ffffffff16565b6133dd90919063ffffffff16565b6dffffffffffffffffffffffffffff16905060006124a88686611feb565b9050836002015481101580156124c2575083600301548111155b612517576040517f08c379a000000000000000000000000000000000000000000000000000000000815260040180806020018281038252603b815260200180613c64603b913960400191505060405180910390fd5b612520876119dd565b60008211156128375761258d333061254260028661341790919063ffffffff16565b8760000160009054906101000a900473ffffffffffffffffffffffffffffffffffffffff1673ffffffffffffffffffffffffffffffffffffffff166136b6909392919063ffffffff16565b6125a482856008015461314a90919063ffffffff16565b8460080181905550600560009054906101000a900473ffffffffffffffffffffffffffffffffffffffff1673ffffffffffffffffffffffffffffffffffffffff1663e2d638d4600760009054906101000a900473ffffffffffffffffffffffffffffffffffffffff168660000160009054906101000a900473ffffffffffffffffffffffffffffffffffffffff16858860010160009054906101000a900473ffffffffffffffffffffffffffffffffffffffff168a8a600701546040518763ffffffff1660e01b8152600401808773ffffffffffffffffffffffffffffffffffffffff1681526020018673ffffffffffffffffffffffffffffffffffffffff168152602001856dffffffffffffffffffffffffffff1681526020018473ffffffffffffffffffffffffffffffffffffffff168152602001836dffffffffffffffffffffffffffff1681526020018281526020019650505050505050600060405180830381600087803b15801561271957600080fd5b505af115801561272d573d6000803e3d6000fd5b5050505061274882846000015461314a90919063ffffffff16565b83600001819055506127fc600560009054906101000a900473ffffffffffffffffffffffffffffffffffffffff1673ffffffffffffffffffffffffffffffffffffffff1663c1292cc36040518163ffffffff1660e01b815260040160206040518083038186803b1580156127bb57600080fd5b505afa1580156127cf573d6000803e3d6000fd5b505050506040513d60208110156127e557600080fd5b81019080805190602001909291905050503361378f565b61282e64e8d4a51000612820866006015486600001546133dd90919063ffffffff16565b61341790919063ffffffff16565b83600101819055505b50505050505050565b3373ffffffffffffffffffffffffffffffffffffffff1660008054906101000a900473ffffffffffffffffffffffffffffffffffffffff1673ffffffffffffffffffffffffffffffffffffffff1614612901576040517f08c379a00000000000000000000000000000000000000000000000000000000081526004018080602001828103825260208152602001807f4f776e61626c653a2063616c6c6572206973206e6f7420746865206f776e657281525060200191505060405180910390fd5b600073ffffffffffffffffffffffffffffffffffffffff168173ffffffffffffffffffffffffffffffffffffffff161415612987576040517f08c379a0000000000000000000000000000000000000000000000000000000008152600401808060200182810382526026815260200180613c9f6026913960400191505060405180910390fd5b8073ffffffffffffffffffffffffffffffffffffffff1660008054906101000a900473ffffffffffffffffffffffffffffffffffffffff1673ffffffffffffffffffffffffffffffffffffffff167f8be0079c531659141344cd1fd0a4f28419497f9722a3daafe3b4186f6b6457e060405160405180910390a3806000806101000a81548173ffffffffffffffffffffffffffffffffffffffff021916908373ffffffffffffffffffffffffffffffffffffffff16021790555050565b600060088381548110612a5357fe5b90600052602060002090600902019050600033604051602001808273ffffffffffffffffffffffffffffffffffffffff1660601b81526014019150506040516020818303038152906040528051906020012090506000818460405160200180838152602001828152602001925050506040516020818303038152906040528051906020012090508360016000848152602001908152602001600020600101541480612b135750836001600083815260200190815260200160002060010154145b612b68576040517f08c379a0000000000000000000000000000000000000000000000000000000008152600401808060200182810382526031815260200180613cf06031913960400191505060405180910390fd5b60008360000160009054906101000a900473ffffffffffffffffffffffffffffffffffffffff1673ffffffffffffffffffffffffffffffffffffffff166370a08231600760009054906101000a900473ffffffffffffffffffffffffffffffffffffffff166040518263ffffffff1660e01b8152600401808273ffffffffffffffffffffffffffffffffffffffff16815260200191505060206040518083038186803b158015612c1757600080fd5b505afa158015612c2b573d6000803e3d6000fd5b505050506040513d6020811015612c4157600080fd5b81019080805190602001909291905050509050600760009054906101000a900473ffffffffffffffffffffffffffffffffffffffff1673ffffffffffffffffffffffffffffffffffffffff166345ac5e02866040518263ffffffff1660e01b815260040180828152602001915050600060405180830381600087803b158015612cc957600080fd5b505af1158015612cdd573d6000803e3d6000fd5b505050506000612ddd828660000160009054906101000a900473ffffffffffffffffffffffffffffffffffffffff1673ffffffffffffffffffffffffffffffffffffffff166370a08231600760009054906101000a900473ffffffffffffffffffffffffffffffffffffffff166040518263ffffffff1660e01b8152600401808273ffffffffffffffffffffffffffffffffffffffff16815260200191505060206040518083038186803b158015612d9457600080fd5b505afa158015612da8573d6000803e3d6000fd5b505050506040513d6020811015612dbe57600080fd5b81019080805190602001909291905050506131f190919063ffffffff16565b90506000806000600560009054906101000a900473ffffffffffffffffffffffffffffffffffffffff1673ffffffffffffffffffffffffffffffffffffffff16631f06c8598a6040518263ffffffff1660e01b8152600401808281526020019150506101406040518083038186803b158015612e5857600080fd5b505afa158015612e6c573d6000803e3d6000fd5b505050506040513d610140811015612e8357600080fd5b810190808051906020019092919080519060200190929190805190602001909291908051906020019092919080519060200190929190805190602001909291908051906020019092919080519060200190929190805190602001909291908051906020019092919050505050505050955050506dffffffffffffffffffffffffffff1693509350508760000160009054906101000a900473ffffffffffffffffffffffffffffffffffffffff1673ffffffffffffffffffffffffffffffffffffffff168373ffffffffffffffffffffffffffffffffffffffff16148015612fb957508760010160009054906101000a900473ffffffffffffffffffffffffffffffffffffffff1673ffffffffffffffffffffffffffffffffffffffff168173ffffffffffffffffffffffffffffffffffffffff16145b61300e576040517f08c379a000000000000000000000000000000000000000000000000000000000815260040180806020018281038252602b815260200180613cc5602b913960400191505060405180910390fd5b6000821415613022576130218933613169565b5b61302d8a8533613211565b8760000160009054906101000a900473ffffffffffffffffffffffffffffffffffffffff1673ffffffffffffffffffffffffffffffffffffffff166323b872dd600760009054906101000a900473ffffffffffffffffffffffffffffffffffffffff1633876040518463ffffffff1660e01b8152600401808473ffffffffffffffffffffffffffffffffffffffff1681526020018373ffffffffffffffffffffffffffffffffffffffff1681526020018281526020019350505050602060405180830381600087803b15801561310257600080fd5b505af1158015613116573d6000803e3d6000fd5b505050506040513d602081101561312c57600080fd5b81019080805190602001909291905050505050505050505050505050565b60008082840190508381101561315f57600080fd5b8091505092915050565b600081604051602001808273ffffffffffffffffffffffffffffffffffffffff1660601b81526014019150506040516020818303038152906040528051906020012090506000818460405160200180838152602001828152602001925050506040516020818303038152906040528051906020012090506131eb848383613817565b50505050565b60008282111561320057600080fd5b600082840390508091505092915050565b60006008848154811061322057fe5b9060005260206000209060090201905060006009600086815260200190815260200160002060008473ffffffffffffffffffffffffffffffffffffffff1673ffffffffffffffffffffffffffffffffffffffff168152602001908152602001600020905083816000015410156132fe576040517f08c379a00000000000000000000000000000000000000000000000000000000081526004018080602001828103825260128152602001807f77697468647261773a206e6f7420676f6f64000000000000000000000000000081525060200191505060405180910390fd5b613307856119dd565b6000613351826001015461334364e8d4a51000613335876006015487600001546133dd90919063ffffffff16565b61341790919063ffffffff16565b6131f190919063ffffffff16565b905061335d848261343d565b61337485846008015461314a90919063ffffffff16565b83600801819055506133938583600001546131f190919063ffffffff16565b82600001819055506133cd64e8d4a510006133bf856006015485600001546133dd90919063ffffffff16565b61341790919063ffffffff16565b8260010181905550505050505050565b6000808314156133f05760009050613411565b600082840290508284828161340157fe5b041461340c57600080fd5b809150505b92915050565b600080821161342557600080fd5b600082848161343057fe5b0490508091505092915050565b6000600460009054906101000a900473ffffffffffffffffffffffffffffffffffffffff1673ffffffffffffffffffffffffffffffffffffffff166370a08231306040518263ffffffff1660e01b8152600401808273ffffffffffffffffffffffffffffffffffffffff16815260200191505060206040518083038186803b1580156134c857600080fd5b505afa1580156134dc573d6000803e3d6000fd5b505050506040513d60208110156134f257600080fd5b81019080805190602001909291905050509050808211156135e157600460009054906101000a900473ffffffffffffffffffffffffffffffffffffffff1673ffffffffffffffffffffffffffffffffffffffff1663a9059cbb84836040518363ffffffff1660e01b8152600401808373ffffffffffffffffffffffffffffffffffffffff16815260200182815260200192505050602060405180830381600087803b1580156135a057600080fd5b505af11580156135b4573d6000803e3d6000fd5b505050506040513d60208110156135ca57600080fd5b8101908080519060200190929190505050506136b1565b600460009054906101000a900473ffffffffffffffffffffffffffffffffffffffff1673ffffffffffffffffffffffffffffffffffffffff1663a9059cbb84846040518363ffffffff1660e01b8152600401808373ffffffffffffffffffffffffffffffffffffffff16815260200182815260200192505050602060405180830381600087803b15801561367457600080fd5b505af1158015613688573d6000803e3d6000fd5b505050506040513d602081101561369e57600080fd5b8101908080519060200190929190505050505b505050565b8373ffffffffffffffffffffffffffffffffffffffff166323b872dd8484846040518463ffffffff1660e01b8152600401808473ffffffffffffffffffffffffffffffffffffffff1681526020018373ffffffffffffffffffffffffffffffffffffffff1681526020018281526020019350505050602060405180830381600087803b15801561374557600080fd5b505af1158015613759573d6000803e3d6000fd5b505050506040513d602081101561376f57600080fd5b810190808051906020019092919050505061378957600080fd5b50505050565b600081604051602001808273ffffffffffffffffffffffffffffffffffffffff1660601b8152601401915050604051602081830303815290604052805190602001209050600081846040516020018083815260200182815260200192505050604051602081830303815290604052805190602001209050613811848383613aa1565b50505050565b826001600084815260200190815260200160002060010154141580156138525750826001600083815260200190815260200160002060010154145b156139cc5760006001600083815260200190815260200160002060000154146138bd5760016000828152602001908152602001600020600201546001600060016000858152602001908152602001600020600001548152602001908152602001600020600201819055505b600060016000838152602001908152602001600020600201541461396d576001600082815260200190815260200160002060000154600160006001600085815260200190815260200160002060020154815260200190815260200160002060000181905550806002600084815260200190815260200160002054141561396c57600160008281526020019081526020016000206002015460026000848152602001908152602001600020819055505b5b600060016000838152602001908152602001600020600201819055506000600160008381526020019081526020016000206000018190555060016003600084815260200190815260200160002060008282540392505081905550613a9c565b8260016000848152602001908152602001600020600101541415613a9b5760016000600160008581526020019081526020016000206000015481526020019081526020016000206001015460016000848152602001908152602001600020600101819055506001600060016000858152602001908152602001600020600001548152602001908152602001600020600001546001600084815260200190815260200160002060000181905550600160036000848152602001908152602001600020600082825403925050819055505b5b505050565b600060036000848152602001908152602001600020541115613b51578060016000600260008681526020019081526020016000205481526020019081526020016000206000018190555082600160008381526020019081526020016000206001018190555060026000838152602001908152602001600020546001600083815260200190815260200160002060020181905550806002600084815260200190815260200160002081905550613b85565b8260016000848152602001908152602001600020600101819055508160026000848152602001908152602001600020819055505b60016003600084815260200190815260200160002060008282540192505081905550505050565b604051806101400160405280600073ffffffffffffffffffffffffffffffffffffffff168152602001600073ffffffffffffffffffffffffffffffffffffffff16815260200160006dffffffffffffffffffffffffffff16815260200160008152602001600015158152602001600073ffffffffffffffffffffffffffffffffffffffff16815260200160006dffffffffffffffffffffffffffff168152602001600081526020016000815260200160008152509056fe74686520726174696f206265747765656e2063726561746f7220616e64206a6f696e657220746f6b656e73206973206f7574206f662072616e67654f776e61626c653a206e6577206f776e657220697320746865207a65726f2061646472657373546869732070726f6d69736520776173206e6f7420637265617465642077697468207468697320706f6f6c4d6573736167652073656e646572206973206e6f74207468652063726561746f72206f6620746869732070726f6d697365a26469706673582212208573025aa0d6f9c6bd663a5af3eff280548ab5f6183f2490e2a8574b9d6c80ba64736f6c63430007060033",
  "immutableReferences": {},
  "source": "// SPDX-License-Identifier: MIT\n\npragma solidity >=0.4.21 <0.8.0;\n\nimport {SafeMath} from \"../lib/math/SafeMath.sol\";\nimport {IERC20} from \"../interfaces/IERC20.sol\";\nimport {SafeERC20} from \"../lib/SafeERC20.sol\";\nimport {Ownable} from \"../lib/Ownable.sol\";\n\nimport {PromiseToken} from \"../token/PromiseToken.sol\";\nimport {PromiseCore} from \"../PromiseCore.sol\";\nimport {PromiseList} from \"../PromiseList.sol\";\nimport {IPromiseHolder} from \"../interfaces/IPromiseHolder.sol\";\n\ncontract PromiseChef is Ownable, PromiseList {\n    using SafeMath for uint256;\n    using SafeERC20 for IERC20;\n\n    struct UserInfo {\n        uint256 amount;\n        uint256 rewardDebt;\n    }\n\n    struct PoolInfo {\n        IERC20 creatorToken;\n        address joinerToken;\n        uint256 minRatio;\n        uint256 maxRatio;\n        uint256 allocPoint; // How many allocation points assigned to this pool. PROMs to distribute per block.\n        uint256 lastRewardBlock; // Last block number that PROMs distribution occurs.\n        uint256 accPromPerShare; // Accumulated PROMs per share, times 1e12. See below.\n        uint256 expirationDate;\n        uint256 lpSupply;\n    }\n    struct PromiseCoreData {\n        address creator;\n        address creatorToken;\n        uint112 creatorAmount;\n        uint256 creatorDebt;\n        bool hasCreatorExecuted;\n        address joinerToken;\n        uint112 joinerAmount;\n        uint256 joinerDebt;\n        uint256 joinerPaidFull;\n        uint256 expirationTimestamp;\n    }\n\n    // The PROM TOKEN!\n    PromiseToken public prom;\n    // PromiseCore\n    PromiseCore public promiseCore;\n    // PROM tokens created per block.\n    uint256 public promPerBlock;\n    // Bonus muliplier for early prom makers.\n    uint256 public constant BONUS_MULTIPLIER = 1;\n\n    // Promise holder address;\n    address public promiseHolder;\n    // Info of each pool.\n    PoolInfo[] public poolInfo;\n    // Info of each promise that stakes LP tokens.\n    mapping(uint256 => mapping(address => UserInfo)) public userInfo;\n    // The last prom rewards claim fo this user.\n    mapping(address => uint256) public lastClaim;\n    // Total allocation points. Must be the sum of all allocation points in all pools.\n    uint256 public totalAllocPoint = 0;\n    // The block number when PROM mining starts.\n    uint256 public startBlock;\n    // The block when PROM mining stops.\n    uint256 public endBlock;\n\n    constructor(\n        PromiseToken _prom,\n        PromiseCore _promiseCore,\n        uint256 _promPerBlock,\n        uint256 _startBlock,\n        uint256 _endBlock\n    ) public Ownable(msg.sender) {\n        prom = _prom;\n        promiseCore = _promiseCore;\n        promPerBlock = _promPerBlock;\n        startBlock = block.number;\n        endBlock = _endBlock;\n    }\n\n    function poolLength() external view returns (uint256) {\n        return poolInfo.length;\n    }\n\n    // Add a new lp to the pool. Can only be called by the owner.\n    // XXX DO NOT add the same LP token more than once. Rewards will be messed up if you do.\n    function add(\n        uint256 _allocPoint,\n        IERC20 _creatorToken,\n        address _joinerToken,\n        uint256[2] memory _minUncalculatedRatio,\n        uint256[2] memory _maxUncalculatedRatio,\n        bool _withUpdate,\n        uint256 _expirationDate\n    ) public onlyOwner {\n        if (_withUpdate) {\n            massUpdatePools();\n        }\n        uint256 lastRewardBlock = block.number > startBlock ? block.number : startBlock;\n        totalAllocPoint = totalAllocPoint.add(_allocPoint);\n        poolInfo.push(\n            PoolInfo({\n                creatorToken: _creatorToken,\n                joinerToken: _joinerToken,\n                minRatio: calculateRatio(_minUncalculatedRatio[0], _minUncalculatedRatio[1]),\n                maxRatio: calculateRatio(_maxUncalculatedRatio[0], _maxUncalculatedRatio[1]),\n                expirationDate: _expirationDate,\n                allocPoint: _allocPoint,\n                lastRewardBlock: lastRewardBlock,\n                accPromPerShare: 0,\n                lpSupply: 0\n            })\n        );\n        IPromiseHolder(promiseHolder).approvePromiseChef(address(_creatorToken));\n        _creatorToken.approve(address(promiseCore), 2**256 - 1);\n    }\n\n    // Update the given pool's PROM allocation point and deposit fee. Can only be called by the owner.\n    function set(\n        uint256 _pid,\n        uint256 _allocPoint,\n        bool _withUpdate\n    ) public onlyOwner {\n        if (_withUpdate) {\n            massUpdatePools();\n        }\n        totalAllocPoint = totalAllocPoint.sub(poolInfo[_pid].allocPoint).add(_allocPoint);\n        poolInfo[_pid].allocPoint = _allocPoint;\n    }\n\n    // Return reward multiplier over the given _from to _to block.\n    function getMultiplier(uint256 _from, uint256 _to) public pure returns (uint256) {\n        return _to.sub(_from).mul(BONUS_MULTIPLIER);\n    }\n\n    // View function to see pending PROMs on frontend.\n    function pendingProm(uint256 _pid, address _user) external view returns (uint256) {\n        PoolInfo storage pool = poolInfo[_pid];\n        UserInfo storage user = userInfo[_pid][_user];\n        uint256 accPromPerShare = pool.accPromPerShare;\n        uint256 lpSupply = pool.lpSupply;\n        if (block.number > pool.lastRewardBlock && lpSupply != 0) {\n            uint256 multiplier = getMultiplier(pool.lastRewardBlock, block.number);\n            uint256 promReward = multiplier.mul(promPerBlock).mul(pool.allocPoint).div(totalAllocPoint);\n            accPromPerShare = accPromPerShare.add(promReward.mul(1e12).div(lpSupply));\n        }\n        return user.amount.mul(accPromPerShare).div(1e12).sub(user.rewardDebt);\n    }\n\n    // Update reward variables for all pools. Be careful of gas spending!\n    function massUpdatePools() public {\n        uint256 length = poolInfo.length;\n        for (uint256 pid = 0; pid < length; ++pid) {\n            updatePool(pid);\n        }\n    }\n\n    // Update reward variables of the given pool to be up-to-date.\n    function updatePool(uint256 _pid) public {\n        PoolInfo storage pool = poolInfo[_pid];\n        uint256 lastBlock = block.number < endBlock ? block.number : endBlock;\n        if (lastBlock <= pool.lastRewardBlock) {\n            return;\n        }\n        uint256 lpSupply = pool.lpSupply;\n\n        if (lpSupply == 0 || pool.allocPoint == 0) {\n            pool.lastRewardBlock = lastBlock;\n            return;\n        }\n        uint256 multiplier = getMultiplier(pool.lastRewardBlock, lastBlock);\n        uint256 promReward = multiplier.mul(promPerBlock).mul(pool.allocPoint).div(totalAllocPoint);\n\n        pool.accPromPerShare = pool.accPromPerShare.add(promReward.mul(1e12).div(lpSupply));\n        pool.lastRewardBlock = lastBlock;\n    }\n\n    // Deposit LP tokens to MasterChef for PROM allocation.\n    function createPromise(\n        uint256 _pid,\n        uint256 _creatorAmount,\n        uint256 _joinerAmount\n    ) public {\n        PoolInfo storage pool = poolInfo[_pid];\n        UserInfo storage user = userInfo[_pid][msg.sender];\n        uint256 creatorAmount = uint112(_creatorAmount.div(2).mul(2));\n        uint256 ratio = calculateRatio(_creatorAmount, _joinerAmount);\n        require(\n            ratio >= pool.minRatio && ratio <= pool.maxRatio,\n            \"the ratio between creator and joiner tokens is out of range\"\n        );\n        updatePool(_pid);\n        if (creatorAmount > 0) {\n            pool.creatorToken.safeTransferFrom(address(msg.sender), address(this), creatorAmount.div(2));\n            pool.lpSupply = pool.lpSupply.add(creatorAmount);\n            promiseCore.createPromise(\n                promiseHolder,\n                address(pool.creatorToken),\n                uint112(creatorAmount),\n                pool.joinerToken,\n                uint112(_joinerAmount),\n                pool.expirationDate\n            );\n            user.amount = user.amount.add(creatorAmount);\n            addToAccountList(promiseCore.lastId(), msg.sender);\n            user.rewardDebt = user.amount.mul(pool.accPromPerShare).div(1e12);\n        }\n    }\n\n    function payPromise(uint256 id) external {\n        (, address creatorToken, , uint256 creatorDebt, , , , , , ) = promiseCore.promises(id);\n        IERC20(creatorToken).transferFrom(msg.sender, address(this), creatorDebt);\n        promiseCore.payPromise(id, promiseHolder);\n    }\n\n    function executePromise(\n        uint256 _pid,\n        uint256 promiseId,\n        address account\n    ) external {\n        PromiseCoreData memory p;\n        (\n            ,\n            p.creatorToken,\n            p.creatorAmount,\n            p.creatorDebt,\n            p.hasCreatorExecuted,\n            p.joinerToken,\n            p.joinerAmount,\n            p.joinerDebt,\n            p.joinerPaidFull,\n\n        ) = promiseCore.promises(promiseId);\n        bytes32 listId = keccak256(abi.encodePacked(account));\n        bytes32 index = keccak256(abi.encodePacked(keccak256(abi.encodePacked(account)), promiseId));\n        require(\n            list[listId].id == promiseId || list[index].id == promiseId,\n            \"Message sender is not the creator of this promise\"\n        );\n        deleteFromAccountList(promiseId, account);\n\n        if (!p.hasCreatorExecuted) {\n            promiseCore.executePromise(promiseId, promiseHolder);\n        }\n        uint256 creatorTokenPayout =\n            uint256(p.creatorAmount).sub(p.creatorDebt).sub(\n                promiseCore.divMul(uint112(p.creatorAmount), uint112(p.joinerAmount), p.joinerPaidFull)\n            );\n        uint256 joinerTokenPayout = uint256(p.joinerDebt).add(p.joinerPaidFull);\n        withdrawFromPool(_pid, p.creatorAmount, account);\n        if (creatorTokenPayout > 0) {\n            creatorTokenPayout = creatorTokenPayout.sub((creatorTokenPayout).mul(promiseCore.feeBP()).div(10000));\n            IERC20(p.creatorToken).transferFrom(promiseHolder, account, creatorTokenPayout);\n        }\n        if (joinerTokenPayout > 0) {\n            joinerTokenPayout = joinerTokenPayout.sub((joinerTokenPayout).mul(promiseCore.feeBP()).div(10000));\n            IERC20(p.joinerToken).transferFrom(promiseHolder, account, joinerTokenPayout);\n        }\n    }\n\n    function closePendingPromiseAmount(uint256 _pid, uint256 promiseId) external {\n        PoolInfo storage pool = poolInfo[_pid];\n        bytes32 listId = keccak256(abi.encodePacked(msg.sender));\n        bytes32 index = keccak256(abi.encodePacked(listId, promiseId));\n        require(\n            list[listId].id == promiseId || list[index].id == promiseId,\n            \"Message sender is not the creator of this promise\"\n        );\n        uint256 promiseHolderBalance = pool.creatorToken.balanceOf(promiseHolder);\n        IPromiseHolder(promiseHolder).closePendingPromiseAmount(promiseId);\n        uint256 creatorTokenRefund = (pool.creatorToken.balanceOf(promiseHolder)).sub(promiseHolderBalance);\n        (, address creatorToken, uint256 creatorAmount, , , address joinerToken, , , , ) =\n            promiseCore.promises(promiseId);\n        require(\n            creatorToken == address(pool.creatorToken) && joinerToken == pool.joinerToken,\n            \"This promise was not created with this pool\"\n        );\n        if (creatorAmount == 0) {\n            deleteFromAccountList(promiseId, msg.sender);\n        }\n        withdrawFromPool(_pid, creatorTokenRefund, msg.sender);\n        IERC20(pool.creatorToken).transferFrom(promiseHolder, msg.sender, creatorTokenRefund);\n    }\n\n    function claimReward(uint256 _pid) external {\n        PoolInfo storage pool = poolInfo[_pid];\n        UserInfo storage user = userInfo[_pid][msg.sender];\n        updatePool(_pid);\n        uint256 pending = user.amount.mul(pool.accPromPerShare).div(1e12).sub(user.rewardDebt);\n        if (pending > 0) {\n            safePromTransfer(msg.sender, pending);\n        }\n        user.rewardDebt = user.amount.mul(pool.accPromPerShare).div(1e12);\n    }\n\n    // Withdraw LP tokens from MasterChef.\n    function withdrawFromPool(\n        uint256 _pid,\n        uint256 _amount,\n        address account\n    ) internal {\n        PoolInfo storage pool = poolInfo[_pid];\n        UserInfo storage user = userInfo[_pid][account];\n        require(user.amount >= _amount, \"withdraw: not good\");\n        updatePool(_pid);\n        uint256 pending = user.amount.mul(pool.accPromPerShare).div(1e12).sub(user.rewardDebt);\n        safePromTransfer(account, pending);\n        pool.lpSupply = pool.lpSupply.add(_amount);\n        user.amount = user.amount.sub(_amount);\n        user.rewardDebt = user.amount.mul(pool.accPromPerShare).div(1e12);\n    }\n\n    // Safe prom transfer function, just in case if rounding error causes pool to not have enough PROMs.\n    function safePromTransfer(address _to, uint256 _amount) internal {\n        uint256 promBal = prom.balanceOf(address(this));\n        if (_amount > promBal) {\n            prom.transfer(_to, promBal);\n        } else {\n            prom.transfer(_to, _amount);\n        }\n    }\n\n    function setPromiseHolder(address _promiseHolder) public onlyOwner {\n        promiseHolder = _promiseHolder;\n    }\n\n    //Pancake has to add hidden dummy pools inorder to alter the emission, here we make it simple and transparent to all.\n    function updateEmissionRate(uint256 _promPerBlock) public onlyOwner {\n        massUpdatePools();\n        promPerBlock = _promPerBlock;\n    }\n\n    function calculateRatio(uint256 creatorAmount, uint256 joinerAmount) public pure returns (uint256 z) {\n        z = creatorAmount.mul(1 ether).div(joinerAmount);\n    }\n}\n",
  "sourcePath": "/Users/nanoissuperior/promise-contracts/contracts/farms/PromiseChef.sol",
  "compiler": {
    "name": "solc",
    "version": "0.7.6+commit.7338295f.Emscripten.clang"
  },
  "schemaVersion": "3.2.4",
  "updatedAt": "2021-07-27T14:57:10.019Z",
  "devdoc": {
    "kind": "dev",
    "methods": {},
    "version": 1
  },
  "userdoc": {
    "kind": "user",
    "methods": {},
    "version": 1
  }
}