{
  "contractName": "PromiseFinder",
  "abi": [
    {
      "inputs": [
        {
          "internalType": "contract PromiseCore",
          "name": "_promiseCore",
          "type": "address"
        }
      ],
      "stateMutability": "nonpayable",
      "type": "constructor"
    },
    {
      "inputs": [],
      "name": "promiseCore",
      "outputs": [
        {
          "internalType": "contract PromiseCore",
          "name": "",
          "type": "address"
        }
      ],
      "stateMutability": "view",
      "type": "function",
      "constant": true
    },
    {
      "inputs": [
        {
          "internalType": "address",
          "name": "account",
          "type": "address"
        }
      ],
      "name": "accountPromises",
      "outputs": [
        {
          "internalType": "uint256[]",
          "name": "id",
          "type": "uint256[]"
        },
        {
          "internalType": "uint256[]",
          "name": "outstandingDebt",
          "type": "uint256[]"
        },
        {
          "internalType": "uint256[]",
          "name": "receiving",
          "type": "uint256[]"
        },
        {
          "internalType": "uint256[]",
          "name": "expirationTimestamp",
          "type": "uint256[]"
        },
        {
          "internalType": "address[]",
          "name": "tokens",
          "type": "address[]"
        }
      ],
      "stateMutability": "view",
      "type": "function",
      "constant": true
    },
    {
      "inputs": [
        {
          "internalType": "uint256",
          "name": "id",
          "type": "uint256"
        },
        {
          "internalType": "address",
          "name": "account",
          "type": "address"
        }
      ],
      "name": "_accountPromises",
      "outputs": [
        {
          "internalType": "uint256",
          "name": "outstandingDebt",
          "type": "uint256"
        },
        {
          "internalType": "uint256",
          "name": "receiving",
          "type": "uint256"
        },
        {
          "internalType": "address",
          "name": "creatorToken",
          "type": "address"
        },
        {
          "internalType": "address",
          "name": "joinerToken",
          "type": "address"
        },
        {
          "internalType": "uint256",
          "name": "expirationTimestamp",
          "type": "uint256"
        }
      ],
      "stateMutability": "view",
      "type": "function",
      "constant": true
    }
  ],
  "bytecode": "0x608060405234801561001057600080fd5b506040516111043803806111048339818101604052602081101561003357600080fd5b8101908080519060200190929190505050806000806101000a81548173ffffffffffffffffffffffffffffffffffffffff021916908373ffffffffffffffffffffffffffffffffffffffff16021790555050611070806100946000396000f3fe608060405234801561001057600080fd5b50600436106100415760003560e01c80633bb260bd146100465780638fba402e1461007a578063b9d4ac1a14610124575b600080fd5b61004e6102dd565b604051808273ffffffffffffffffffffffffffffffffffffffff16815260200191505060405180910390f35b6100c66004803603604081101561009057600080fd5b8101908080359060200190929190803573ffffffffffffffffffffffffffffffffffffffff169060200190929190505050610301565b604051808681526020018581526020018473ffffffffffffffffffffffffffffffffffffffff1681526020018373ffffffffffffffffffffffffffffffffffffffff1681526020018281526020019550505050505060405180910390f35b6101666004803603602081101561013a57600080fd5b81019080803573ffffffffffffffffffffffffffffffffffffffff169060200190929190505050610ad7565b60405180806020018060200180602001806020018060200186810386528b818151815260200191508051906020019060200280838360005b838110156101b957808201518184015260208101905061019e565b5050505090500186810385528a818151815260200191508051906020019060200280838360005b838110156101fb5780820151818401526020810190506101e0565b50505050905001868103845289818151815260200191508051906020019060200280838360005b8381101561023d578082015181840152602081019050610222565b50505050905001868103835288818151815260200191508051906020019060200280838360005b8381101561027f578082015181840152602081019050610264565b50505050905001868103825287818151815260200191508051906020019060200280838360005b838110156102c15780820151818401526020810190506102a6565b505050509050019a505050505050505050505060405180910390f35b60008054906101000a900473ffffffffffffffffffffffffffffffffffffffff1681565b6000806000806000610311610f60565b610319611017565b60008054906101000a900473ffffffffffffffffffffffffffffffffffffffff1673ffffffffffffffffffffffffffffffffffffffff16631f06c8598a6040518263ffffffff1660e01b8152600401808281526020019150506101406040518083038186803b15801561038b57600080fd5b505afa15801561039f573d6000803e3d6000fd5b505050506040513d6101408110156103b657600080fd5b8101908080519060200190929190805190602001909291908051906020019092919080519060200190929190805190602001909291908051906020019092919080519060200190929190805190602001909291908051906020019092919080519060200190929190505050909192939495969750909192939495965090919293949550909192939450909192935090919250909150905050826000018173ffffffffffffffffffffffffffffffffffffffff1673ffffffffffffffffffffffffffffffffffffffff16815250508773ffffffffffffffffffffffffffffffffffffffff16826000015173ffffffffffffffffffffffffffffffffffffffff16141561069f5760008054906101000a900473ffffffffffffffffffffffffffffffffffffffff1673ffffffffffffffffffffffffffffffffffffffff16631f06c8598a6040518263ffffffff1660e01b8152600401808281526020019150506101406040518083038186803b15801561052d57600080fd5b505afa158015610541573d6000803e3d6000fd5b505050506040513d61014081101561055857600080fd5b81019080805190602001909291908051906020019092919080519060200190929190805190602001909291908051906020019092919080519060200190929190805190602001909291908051906020019092919080519060200190929190805190602001909291905050509091929394959697985090919293949596509091929394509091925087602001886060018960a0018a60e0018b610100018c610120018681525086815250868152508673ffffffffffffffffffffffffffffffffffffffff1673ffffffffffffffffffffffffffffffffffffffff16815250868152508673ffffffffffffffffffffffffffffffffffffffff1673ffffffffffffffffffffffffffffffffffffffff16815250505050505050816060015196508161010001518260e00151019550816020015194508160a0015193508161012001519250610acb565b60008989604051602001808381526020018273ffffffffffffffffffffffffffffffffffffffff1660601b81526014019250505060405160208183030381529060405280519060200120905060008054906101000a900473ffffffffffffffffffffffffffffffffffffffff1673ffffffffffffffffffffffffffffffffffffffff16632817b4838b836040518363ffffffff1660e01b8152600401808381526020018281526020019250505060606040518083038186803b15801561076457600080fd5b505afa158015610778573d6000803e3d6000fd5b505050506040513d606081101561078e57600080fd5b810190808051906020019092919080519060200190929190805190602001909291905050508460000185602001866040018315151515815250838152508381525050505060008054906101000a900473ffffffffffffffffffffffffffffffffffffffff1673ffffffffffffffffffffffffffffffffffffffff16631f06c8598b6040518263ffffffff1660e01b8152600401808281526020019150506101406040518083038186803b15801561084457600080fd5b505afa158015610858573d6000803e3d6000fd5b505050506040513d61014081101561086f57600080fd5b81019080805190602001909291908051906020019092919080519060200190929190805190602001909291908051906020019092919080519060200190929190805190602001909291908051906020019092919080519060200190929190805190602001909291905050509091929394959697985090919293949550909192939450909150905087602001886040018960a0018a60c0018b6101200185815250856dffffffffffffffffffffffffffff166dffffffffffffffffffffffffffff168152508573ffffffffffffffffffffffffffffffffffffffff1673ffffffffffffffffffffffffffffffffffffffff16815250856dffffffffffffffffffffffffffff166dffffffffffffffffffffffffffff168152508573ffffffffffffffffffffffffffffffffffffffff1673ffffffffffffffffffffffffffffffffffffffff1681525050505050508160200151975060008054906101000a900473ffffffffffffffffffffffffffffffffffffffff1673ffffffffffffffffffffffffffffffffffffffff16638ae9962784604001518560c0015185602001518660000151016040518463ffffffff1660e01b815260040180846dffffffffffffffffffffffffffff168152602001836dffffffffffffffffffffffffffff168152602001828152602001935050505060206040518083038186803b158015610a7657600080fd5b505afa158015610a8a573d6000803e3d6000fd5b505050506040513d6020811015610aa057600080fd5b810190808051906020019092919050505096508260a001519550826020015194508261012001519350505b50509295509295909350565b6060806060806060600086604051602001808273ffffffffffffffffffffffffffffffffffffffff1660601b815260140191505060405160208183030381529060405280519060200120905060008060009054906101000a900473ffffffffffffffffffffffffffffffffffffffff1673ffffffffffffffffffffffffffffffffffffffff1663a9dbaf25836040518263ffffffff1660e01b81526004018082815260200191505060206040518083038186803b158015610b9757600080fd5b505afa158015610bab573d6000803e3d6000fd5b505050506040513d6020811015610bc157600080fd5b810190808051906020019092919050505090508067ffffffffffffffff81118015610beb57600080fd5b50604051908082528060200260200182016040528015610c1a5781602001602082028036833780820191505090505b5096508067ffffffffffffffff81118015610c3457600080fd5b50604051908082528060200260200182016040528015610c635781602001602082028036833780820191505090505b5095508067ffffffffffffffff81118015610c7d57600080fd5b50604051908082528060200260200182016040528015610cac5781602001602082028036833780820191505090505b5094508067ffffffffffffffff81118015610cc657600080fd5b50604051908082528060200260200182016040528015610cf55781602001602082028036833780820191505090505b5093506002810267ffffffffffffffff81118015610d1257600080fd5b50604051908082528060200260200182016040528015610d415781602001602082028036833780820191505090505b5092506000808390505b82821015610f535760008054906101000a900473ffffffffffffffffffffffffffffffffffffffff1673ffffffffffffffffffffffffffffffffffffffff166313d49a8b826040518263ffffffff1660e01b81526004018082815260200191505060606040518083038186803b158015610dc457600080fd5b505afa158015610dd8573d6000803e3d6000fd5b505050506040513d6060811015610dee57600080fd5b81019080805190602001909291908051906020019092919080519060200190929190505050508a8481518110610e2057fe5b60200260200101818152508192505050610e4d898381518110610e3f57fe5b60200260200101518b610301565b8c8781518110610e5957fe5b602002602001018c8881518110610e6c57fe5b602002602001018b60008a11610e83576000610e88565b60028a025b81518110610e9257fe5b602002602001018c60008b11610ea9576001610eb1565b600160028c02015b81518110610ebb57fe5b602002602001018e8b81518110610ece57fe5b60200260200101858152508573ffffffffffffffffffffffffffffffffffffffff1673ffffffffffffffffffffffffffffffffffffffff168152508573ffffffffffffffffffffffffffffffffffffffff1673ffffffffffffffffffffffffffffffffffffffff16815250858152508581525050505050508180600101925050610d4b565b5050505091939590929450565b604051806101400160405280600073ffffffffffffffffffffffffffffffffffffffff168152602001600073ffffffffffffffffffffffffffffffffffffffff16815260200160006dffffffffffffffffffffffffffff16815260200160008152602001600015158152602001600073ffffffffffffffffffffffffffffffffffffffff16815260200160006dffffffffffffffffffffffffffff1681526020016000815260200160008152602001600081525090565b60405180606001604052806000815260200160008152602001600015158152509056fea2646970667358221220cf5582d3ab77823f1c1c2be80db140c636beecee8f67789e73d61c996b2f1f5e64736f6c63430007060033",
  "immutableReferences": {},
  "source": "pragma solidity >=0.4.21 <0.8.0;\n\nimport {PromiseCore} from \"./PromiseCore.sol\";\n\ncontract PromiseFinder {\n    PromiseCore public promiseCore;\n\n    struct PromData {\n        address creator;\n        address creatorToken;\n        uint112 creatorAmount;\n        uint256 creatorDebt;\n        bool hasCreatorExecuted;\n        address joinerToken;\n        uint112 joinerAmount;\n        uint256 joinerDebt;\n        uint256 joinerPaidFull;\n        uint256 expirationTimestamp;\n    }\n\n    struct Promjoiners {\n        uint256 amountPaid;\n        uint256 outstandingDebt;\n        bool hasExecuted;\n    }\n\n    struct LinkedList {\n        bytes32 next;\n        uint256 id;\n        bytes32 previous;\n    }\n\n    constructor(PromiseCore _promiseCore) public {\n        promiseCore = _promiseCore;\n    }\n\n    function accountPromises(address account)\n        public\n        view\n        returns (\n            uint256[] memory id,\n            uint256[] memory outstandingDebt,\n            uint256[] memory receiving,\n            uint256[] memory expirationTimestamp,\n            address[] memory tokens\n        )\n    {\n        bytes32 listId = keccak256(abi.encodePacked(account));\n        uint256 _length = promiseCore.length(listId);\n\n        id = new uint256[](_length);\n        outstandingDebt = new uint256[](_length);\n        receiving = new uint256[](_length);\n        expirationTimestamp = new uint256[](_length);\n        // tokens array is twice the length because it has 2 entries added every loop\n        tokens = new address[](_length * 2);\n\n        uint256 i;\n        bytes32 index = listId;\n        while (i < _length) {\n            (index, id[i], ) = promiseCore.list(index);\n            (\n                outstandingDebt[i],\n                receiving[i],\n                tokens[i > 0 ? i * 2 : 0],\n                tokens[i > 0 ? (i * 2) + 1 : 1],\n                expirationTimestamp[i]\n            ) = _accountPromises(id[i], account);\n            i++;\n        }\n    }\n\n    function _accountPromises(uint256 id, address account)\n        public\n        view\n        returns (\n            uint256 outstandingDebt,\n            uint256 receiving,\n            address creatorToken,\n            address joinerToken,\n            uint256 expirationTimestamp\n        )\n    {\n        PromData memory p;\n        Promjoiners memory j;\n        (p.creator, , , , , , , , , ) = promiseCore.promises(id);\n        if (p.creator == account) {\n            (\n                ,\n                p.creatorToken,\n                ,\n                p.creatorDebt,\n                ,\n                p.joinerToken,\n                ,\n                p.joinerDebt,\n                p.joinerPaidFull,\n                p.expirationTimestamp\n            ) = promiseCore.promises(id);\n            outstandingDebt = p.creatorDebt;\n            receiving = p.joinerDebt + p.joinerPaidFull;\n            creatorToken = p.creatorToken;\n            joinerToken = p.joinerToken;\n            expirationTimestamp = p.expirationTimestamp;\n        } else {\n            bytes32 joinerId = keccak256(abi.encodePacked(id, account));\n            (j.amountPaid, j.outstandingDebt, j.hasExecuted) = promiseCore.joiners(id, joinerId);\n            (\n                ,\n                p.creatorToken,\n                p.creatorAmount,\n                ,\n                ,\n                p.joinerToken,\n                p.joinerAmount,\n                ,\n                ,\n                p.expirationTimestamp\n            ) = promiseCore.promises(id);\n            outstandingDebt = j.outstandingDebt;\n            receiving = promiseCore.divMul(p.creatorAmount, p.joinerAmount, j.amountPaid + j.outstandingDebt);\n            creatorToken = p.joinerToken;\n            joinerToken = p.creatorToken;\n            expirationTimestamp = p.expirationTimestamp;\n        }\n    }\n}\n",
  "sourcePath": "/Users/nanoissuperior/promise-contracts/contracts/PromiseFinder.sol",
  "compiler": {
    "name": "solc",
    "version": "0.7.6+commit.7338295f.Emscripten.clang"
  },
  "schemaVersion": "3.4.2",
  "updatedAt": "2021-08-09T09:44:45.809Z",
  "networkType": "ethereum",
  "devdoc": {
    "kind": "dev",
    "methods": {},
    "version": 1
  },
  "userdoc": {
    "kind": "user",
    "methods": {},
    "version": 1
  }
}