{
  "contractName": "PromiseCore",
  "abi": [
    {
      "inputs": [
        {
          "internalType": "address",
          "name": "_feeAddress",
          "type": "address"
        }
      ],
      "stateMutability": "nonpayable",
      "type": "constructor"
    },
    {
      "anonymous": false,
      "inputs": [
        {
          "indexed": false,
          "internalType": "uint256",
          "name": "id",
          "type": "uint256"
        },
        {
          "indexed": false,
          "internalType": "address",
          "name": "creator",
          "type": "address"
        },
        {
          "indexed": false,
          "internalType": "address",
          "name": "creatorToken",
          "type": "address"
        },
        {
          "indexed": false,
          "internalType": "uint256",
          "name": "creatorAmount",
          "type": "uint256"
        },
        {
          "indexed": false,
          "internalType": "address",
          "name": "joinerToken",
          "type": "address"
        },
        {
          "indexed": false,
          "internalType": "uint256",
          "name": "joinerAmount",
          "type": "uint256"
        },
        {
          "indexed": false,
          "internalType": "uint256",
          "name": "expirationTimestamp",
          "type": "uint256"
        }
      ],
      "name": "PromiseCreated",
      "type": "event"
    },
    {
      "anonymous": false,
      "inputs": [
        {
          "indexed": false,
          "internalType": "uint256",
          "name": "id",
          "type": "uint256"
        },
        {
          "indexed": false,
          "internalType": "address",
          "name": "account",
          "type": "address"
        },
        {
          "indexed": false,
          "internalType": "uint256",
          "name": "creatorTokenAmount",
          "type": "uint256"
        },
        {
          "indexed": false,
          "internalType": "uint256",
          "name": "joinerTokenAmount",
          "type": "uint256"
        }
      ],
      "name": "PromiseExecuted",
      "type": "event"
    },
    {
      "anonymous": false,
      "inputs": [
        {
          "indexed": false,
          "internalType": "uint256",
          "name": "id",
          "type": "uint256"
        },
        {
          "indexed": false,
          "internalType": "address",
          "name": "joiner",
          "type": "address"
        },
        {
          "indexed": false,
          "internalType": "uint256",
          "name": "amount",
          "type": "uint256"
        }
      ],
      "name": "PromiseJoined",
      "type": "event"
    },
    {
      "anonymous": false,
      "inputs": [
        {
          "indexed": false,
          "internalType": "uint256",
          "name": "id",
          "type": "uint256"
        },
        {
          "indexed": false,
          "internalType": "address",
          "name": "account",
          "type": "address"
        },
        {
          "indexed": false,
          "internalType": "uint256",
          "name": "amount",
          "type": "uint256"
        }
      ],
      "name": "PromisePaid",
      "type": "event"
    },
    {
      "anonymous": false,
      "inputs": [
        {
          "indexed": false,
          "internalType": "uint256",
          "name": "id",
          "type": "uint256"
        },
        {
          "indexed": false,
          "internalType": "address",
          "name": "executor",
          "type": "address"
        },
        {
          "indexed": false,
          "internalType": "uint256",
          "name": "refund",
          "type": "uint256"
        }
      ],
      "name": "PromisePendingAmountClosed",
      "type": "event"
    },
    {
      "inputs": [],
      "name": "feeAddress",
      "outputs": [
        {
          "internalType": "address",
          "name": "",
          "type": "address"
        }
      ],
      "stateMutability": "view",
      "type": "function"
    },
    {
      "inputs": [],
      "name": "feeBP",
      "outputs": [
        {
          "internalType": "uint256",
          "name": "",
          "type": "uint256"
        }
      ],
      "stateMutability": "view",
      "type": "function"
    },
    {
      "inputs": [
        {
          "internalType": "uint256",
          "name": "",
          "type": "uint256"
        },
        {
          "internalType": "bytes32",
          "name": "",
          "type": "bytes32"
        }
      ],
      "name": "joiners",
      "outputs": [
        {
          "internalType": "uint256",
          "name": "amountPaid",
          "type": "uint256"
        },
        {
          "internalType": "uint256",
          "name": "outstandingDebt",
          "type": "uint256"
        },
        {
          "internalType": "bool",
          "name": "hasExecuted",
          "type": "bool"
        }
      ],
      "stateMutability": "view",
      "type": "function"
    },
    {
      "inputs": [
        {
          "internalType": "uint256",
          "name": "",
          "type": "uint256"
        }
      ],
      "name": "joinersLength",
      "outputs": [
        {
          "internalType": "uint256",
          "name": "",
          "type": "uint256"
        }
      ],
      "stateMutability": "view",
      "type": "function"
    },
    {
      "inputs": [],
      "name": "lastId",
      "outputs": [
        {
          "internalType": "uint256",
          "name": "",
          "type": "uint256"
        }
      ],
      "stateMutability": "view",
      "type": "function"
    },
    {
      "inputs": [
        {
          "internalType": "bytes32",
          "name": "",
          "type": "bytes32"
        }
      ],
      "name": "length",
      "outputs": [
        {
          "internalType": "uint256",
          "name": "",
          "type": "uint256"
        }
      ],
      "stateMutability": "view",
      "type": "function"
    },
    {
      "inputs": [
        {
          "internalType": "bytes32",
          "name": "",
          "type": "bytes32"
        }
      ],
      "name": "list",
      "outputs": [
        {
          "internalType": "bytes32",
          "name": "next",
          "type": "bytes32"
        },
        {
          "internalType": "uint256",
          "name": "id",
          "type": "uint256"
        },
        {
          "internalType": "bytes32",
          "name": "previous",
          "type": "bytes32"
        }
      ],
      "stateMutability": "view",
      "type": "function"
    },
    {
      "inputs": [
        {
          "internalType": "uint256",
          "name": "",
          "type": "uint256"
        }
      ],
      "name": "promises",
      "outputs": [
        {
          "internalType": "address",
          "name": "creator",
          "type": "address"
        },
        {
          "internalType": "address",
          "name": "creatorToken",
          "type": "address"
        },
        {
          "internalType": "uint112",
          "name": "creatorAmount",
          "type": "uint112"
        },
        {
          "internalType": "uint256",
          "name": "creatorDebt",
          "type": "uint256"
        },
        {
          "internalType": "bool",
          "name": "hasCreatorExecuted",
          "type": "bool"
        },
        {
          "internalType": "address",
          "name": "joinerToken",
          "type": "address"
        },
        {
          "internalType": "uint112",
          "name": "joinerAmount",
          "type": "uint112"
        },
        {
          "internalType": "uint256",
          "name": "joinerDebt",
          "type": "uint256"
        },
        {
          "internalType": "uint256",
          "name": "joinerPaidFull",
          "type": "uint256"
        },
        {
          "internalType": "uint256",
          "name": "expirationTimestamp",
          "type": "uint256"
        }
      ],
      "stateMutability": "view",
      "type": "function"
    },
    {
      "inputs": [
        {
          "internalType": "bytes32",
          "name": "",
          "type": "bytes32"
        }
      ],
      "name": "tail",
      "outputs": [
        {
          "internalType": "bytes32",
          "name": "",
          "type": "bytes32"
        }
      ],
      "stateMutability": "view",
      "type": "function"
    },
    {
      "inputs": [
        {
          "internalType": "address",
          "name": "account",
          "type": "address"
        },
        {
          "internalType": "address",
          "name": "creatorToken",
          "type": "address"
        },
        {
          "internalType": "uint112",
          "name": "creatorAmount",
          "type": "uint112"
        },
        {
          "internalType": "address",
          "name": "joinerToken",
          "type": "address"
        },
        {
          "internalType": "uint112",
          "name": "joinerAmount",
          "type": "uint112"
        },
        {
          "internalType": "uint256",
          "name": "expirationTimestamp",
          "type": "uint256"
        }
      ],
      "name": "createPromise",
      "outputs": [],
      "stateMutability": "nonpayable",
      "type": "function"
    },
    {
      "inputs": [
        {
          "internalType": "uint256",
          "name": "id",
          "type": "uint256"
        },
        {
          "internalType": "address",
          "name": "account",
          "type": "address"
        },
        {
          "internalType": "uint112",
          "name": "amount",
          "type": "uint112"
        }
      ],
      "name": "joinPromise",
      "outputs": [],
      "stateMutability": "nonpayable",
      "type": "function"
    },
    {
      "inputs": [
        {
          "internalType": "uint256",
          "name": "id",
          "type": "uint256"
        },
        {
          "internalType": "address",
          "name": "account",
          "type": "address"
        }
      ],
      "name": "payPromise",
      "outputs": [],
      "stateMutability": "nonpayable",
      "type": "function"
    },
    {
      "inputs": [
        {
          "internalType": "uint256",
          "name": "id",
          "type": "uint256"
        }
      ],
      "name": "closePendingPromiseAmount",
      "outputs": [],
      "stateMutability": "nonpayable",
      "type": "function"
    },
    {
      "inputs": [
        {
          "internalType": "uint256",
          "name": "id",
          "type": "uint256"
        },
        {
          "internalType": "address",
          "name": "account",
          "type": "address"
        }
      ],
      "name": "executePromise",
      "outputs": [],
      "stateMutability": "nonpayable",
      "type": "function"
    },
    {
      "inputs": [
        {
          "internalType": "uint256",
          "name": "id",
          "type": "uint256"
        }
      ],
      "name": "getRemainingCreatorAmountAfterClosingPromise",
      "outputs": [
        {
          "internalType": "uint112",
          "name": "",
          "type": "uint112"
        }
      ],
      "stateMutability": "view",
      "type": "function"
    },
    {
      "inputs": [
        {
          "internalType": "uint256",
          "name": "id",
          "type": "uint256"
        },
        {
          "internalType": "address",
          "name": "account",
          "type": "address"
        }
      ],
      "name": "getJoinerId",
      "outputs": [
        {
          "internalType": "bytes32",
          "name": "",
          "type": "bytes32"
        }
      ],
      "stateMutability": "pure",
      "type": "function"
    },
    {
      "inputs": [
        {
          "internalType": "uint256",
          "name": "id",
          "type": "uint256"
        }
      ],
      "name": "getRemainingAmountAbleToJoinPromise",
      "outputs": [
        {
          "internalType": "uint256",
          "name": "",
          "type": "uint256"
        }
      ],
      "stateMutability": "view",
      "type": "function"
    },
    {
      "inputs": [
        {
          "internalType": "uint256",
          "name": "id",
          "type": "uint256"
        }
      ],
      "name": "getTotalJoinerFundsInPromise",
      "outputs": [
        {
          "internalType": "uint112",
          "name": "",
          "type": "uint112"
        }
      ],
      "stateMutability": "view",
      "type": "function"
    },
    {
      "inputs": [
        {
          "internalType": "uint256",
          "name": "id",
          "type": "uint256"
        }
      ],
      "name": "getCreatorRefundAmount",
      "outputs": [
        {
          "internalType": "uint256",
          "name": "",
          "type": "uint256"
        }
      ],
      "stateMutability": "view",
      "type": "function"
    },
    {
      "inputs": [
        {
          "internalType": "uint256",
          "name": "id",
          "type": "uint256"
        }
      ],
      "name": "getPayoutAmountsForCreator",
      "outputs": [
        {
          "internalType": "uint256",
          "name": "",
          "type": "uint256"
        },
        {
          "internalType": "uint256",
          "name": "",
          "type": "uint256"
        }
      ],
      "stateMutability": "view",
      "type": "function"
    },
    {
      "inputs": [
        {
          "internalType": "uint256",
          "name": "id",
          "type": "uint256"
        },
        {
          "internalType": "bytes32",
          "name": "joinerId",
          "type": "bytes32"
        }
      ],
      "name": "getPayoutAmountsForJoiner",
      "outputs": [
        {
          "internalType": "uint256",
          "name": "",
          "type": "uint256"
        },
        {
          "internalType": "uint256",
          "name": "",
          "type": "uint256"
        }
      ],
      "stateMutability": "view",
      "type": "function"
    },
    {
      "inputs": [
        {
          "internalType": "uint112",
          "name": "a",
          "type": "uint112"
        },
        {
          "internalType": "uint112",
          "name": "b",
          "type": "uint112"
        },
        {
          "internalType": "uint256",
          "name": "c",
          "type": "uint256"
        }
      ],
      "name": "divMul",
      "outputs": [
        {
          "internalType": "uint256",
          "name": "result",
          "type": "uint256"
        }
      ],
      "stateMutability": "pure",
      "type": "function"
    }
  ],
  "bytecode": "0x6080604052603260095534801561001557600080fd5b506040516141253803806141258339818101604052602081101561003857600080fd5b8101908080519060200190929190505050600160008190555080600860006101000a81548173ffffffffffffffffffffffffffffffffffffffff021916908373ffffffffffffffffffffffffffffffffffffffff16021790555050614083806100a26000396000f3fe608060405234801561001057600080fd5b50600436106101425760003560e01c8063627cf474116100b8578063c1292cc31161007c578063c1292cc314610674578063c13ce39214610692578063d61693ae146106fa578063e2d638d414610748578063f3f9fc741461080a578063f8e51ac31461084c57610142565b8063627cf474146104ba5780637c0ac7de146105085780638ae996271461056a578063a9dbaf25146105e0578063b3bf4d791461062257610142565b80632ac00efb1161010a5780632ac00efb14610349578063412753581461038b57806345ac5e02146103bf578063476e2ef0146103ed5780634c92aa50146104365780635dce9dc51461047857610142565b8063017f6fae1461014757806313d49a8b14610165578063150081b1146101b55780631f06c859146102085780632817b483146102ed575b600080fd5b61014f61089e565b6040518082815260200191505060405180910390f35b6101916004803603602081101561017b57600080fd5b81019080803590602001909291905050506108a4565b60405180848152602001838152602001828152602001935050505060405180910390f35b6101eb600480360360408110156101cb57600080fd5b8101908080359060200190929190803590602001909291905050506108ce565b604051808381526020018281526020019250505060405180910390f35b6102346004803603602081101561021e57600080fd5b8101908080359060200190929190505050610bcb565b604051808b73ffffffffffffffffffffffffffffffffffffffff1681526020018a73ffffffffffffffffffffffffffffffffffffffff168152602001896dffffffffffffffffffffffffffff16815260200188815260200187151581526020018673ffffffffffffffffffffffffffffffffffffffff168152602001856dffffffffffffffffffffffffffff1681526020018481526020018381526020018281526020019a505050505050505050505060405180910390f35b6103236004803603604081101561030357600080fd5b810190808035906020019092919080359060200190929190505050610cc0565b604051808481526020018381526020018215158152602001935050505060405180910390f35b6103756004803603602081101561035f57600080fd5b8101908080359060200190929190505050610d04565b6040518082815260200191505060405180910390f35b610393610d1c565b604051808273ffffffffffffffffffffffffffffffffffffffff16815260200191505060405180910390f35b6103eb600480360360208110156103d557600080fd5b8101908080359060200190929190505050610d42565b005b6104196004803603602081101561040357600080fd5b8101908080359060200190929190505050611086565b604051808381526020018281526020019250505060405180910390f35b6104626004803603602081101561044c57600080fd5b81019080803590602001909291905050506112f3565b6040518082815260200191505060405180910390f35b6104a46004803603602081101561048e57600080fd5b8101908080359060200190929190505050611547565b6040518082815260200191505060405180910390f35b610506600480360360408110156104d057600080fd5b8101908080359060200190929190803573ffffffffffffffffffffffffffffffffffffffff1690602001909291905050506117b3565b005b6105546004803603604081101561051e57600080fd5b8101908080359060200190929190803573ffffffffffffffffffffffffffffffffffffffff169060200190929190505050611b0e565b6040518082815260200191505060405180910390f35b6105ca6004803603606081101561058057600080fd5b8101908080356dffffffffffffffffffffffffffff16906020019092919080356dffffffffffffffffffffffffffff16906020019092919080359060200190929190505050611b60565b6040518082815260200191505060405180910390f35b61060c600480360360208110156105f657600080fd5b8101908080359060200190929190505050611c43565b6040518082815260200191505060405180910390f35b61064e6004803603602081101561063857600080fd5b8101908080359060200190929190505050611c5b565b60405180826dffffffffffffffffffffffffffff16815260200191505060405180910390f35b61067c611e89565b6040518082815260200191505060405180910390f35b6106f8600480360360608110156106a857600080fd5b8101908080359060200190929190803573ffffffffffffffffffffffffffffffffffffffff16906020019092919080356dffffffffffffffffffffffffffff169060200190929190505050611e8f565b005b6107466004803603604081101561071057600080fd5b8101908080359060200190929190803573ffffffffffffffffffffffffffffffffffffffff1690602001909291905050506121fa565b005b610808600480360360c081101561075e57600080fd5b81019080803573ffffffffffffffffffffffffffffffffffffffff169060200190929190803573ffffffffffffffffffffffffffffffffffffffff16906020019092919080356dffffffffffffffffffffffffffff169060200190929190803573ffffffffffffffffffffffffffffffffffffffff16906020019092919080356dffffffffffffffffffffffffffff169060200190929190803590602001909291905050506125e9565b005b6108366004803603602081101561082057600080fd5b81019080803590602001909291905050506127e2565b6040518082815260200191505060405180910390f35b6108786004803603602081101561086257600080fd5b81019080803590602001909291905050506127fa565b60405180826dffffffffffffffffffffffffffff16815260200191505060405180910390f35b60095481565b60016020528060005260406000206000915090508060000154908060010154908060020154905083565b600080600060046000868152602001908152602001600020604051806101400160405290816000820160009054906101000a900473ffffffffffffffffffffffffffffffffffffffff1673ffffffffffffffffffffffffffffffffffffffff1673ffffffffffffffffffffffffffffffffffffffff1681526020016001820160009054906101000a900473ffffffffffffffffffffffffffffffffffffffff1673ffffffffffffffffffffffffffffffffffffffff1673ffffffffffffffffffffffffffffffffffffffff1681526020016002820160009054906101000a90046dffffffffffffffffffffffffffff166dffffffffffffffffffffffffffff166dffffffffffffffffffffffffffff168152602001600382015481526020016004820160009054906101000a900460ff161515151581526020016004820160019054906101000a900473ffffffffffffffffffffffffffffffffffffffff1673ffffffffffffffffffffffffffffffffffffffff1673ffffffffffffffffffffffffffffffffffffffff1681526020016005820160009054906101000a90046dffffffffffffffffffffffffffff166dffffffffffffffffffffffffffff166dffffffffffffffffffffffffffff16815260200160068201548152602001600782015481526020016008820154815250509050600060056000878152602001908152602001600020600086815260200190815260200160002060405180606001604052908160008201548152602001600182015481526020016002820160009054906101000a900460ff16151515158152505090506000610b50836060015184604001516dffffffffffffffffffffffffffff16612a4490919063ffffffff16565b9050610b8e818460c00151610b89610b7660028760200151612a6490919063ffffffff16565b8660000151612a4490919063ffffffff16565b611b60565b6000846060015111610ba1576000610bbd565b610bbc83602001518460000151612a4490919063ffffffff16565b5b945094505050509250929050565b60046020528060005260406000206000915090508060000160009054906101000a900473ffffffffffffffffffffffffffffffffffffffff16908060010160009054906101000a900473ffffffffffffffffffffffffffffffffffffffff16908060020160009054906101000a90046dffffffffffffffffffffffffffff16908060030154908060040160009054906101000a900460ff16908060040160019054906101000a900473ffffffffffffffffffffffffffffffffffffffff16908060050160009054906101000a90046dffffffffffffffffffffffffffff1690806006015490806007015490806008015490508a565b6005602052816000526040600020602052806000526040600020600091509150508060000154908060010154908060020160009054906101000a900460ff16905083565b60026020528060005260406000206000915090505481565b600860009054906101000a900473ffffffffffffffffffffffffffffffffffffffff1681565b60026000541415610dbb576040517f08c379a000000000000000000000000000000000000000000000000000000000815260040180806020018281038252601f8152602001807f5265656e7472616e637947756172643a207265656e7472616e742063616c6c0081525060200191505060405180910390fd5b60026000819055506004600082815260200190815260200160002060000160009054906101000a900473ffffffffffffffffffffffffffffffffffffffff1673ffffffffffffffffffffffffffffffffffffffff163373ffffffffffffffffffffffffffffffffffffffff1614610e7d576040517f08c379a0000000000000000000000000000000000000000000000000000000008152600401808060200182810382526027815260200180613f906027913960400191505060405180910390fd5b6000610e8882611547565b905060008111610ee3576040517f08c379a000000000000000000000000000000000000000000000000000000000815260040180806020018281038252602a815260200180613fdf602a913960400191505060405180910390fd5b6000600460008481526020019081526020016000209050610f03836127fa565b8160020160006101000a8154816dffffffffffffffffffffffffffff02191690836dffffffffffffffffffffffffffff160217905550610f4283611c5b565b8160050160006101000a8154816dffffffffffffffffffffffffffff02191690836dffffffffffffffffffffffffffff16021790555060008160030181905550600060066000858152602001908152602001600020541415610fc657610fa88333612a9e565b60018160040160006101000a81548160ff0219169083151502179055505b61101c826000338460010160009054906101000a900473ffffffffffffffffffffffffffffffffffffffff168560040160019054906101000a900473ffffffffffffffffffffffffffffffffffffffff16612b26565b7fc4025c9a28dd28da16f922c1f3a470295e763e78818f464f0737e24b886f5c0e833384604051808481526020018373ffffffffffffffffffffffffffffffffffffffff168152602001828152602001935050505060405180910390a15050600160008190555050565b600080600060046000858152602001908152602001600020604051806101400160405290816000820160009054906101000a900473ffffffffffffffffffffffffffffffffffffffff1673ffffffffffffffffffffffffffffffffffffffff1673ffffffffffffffffffffffffffffffffffffffff1681526020016001820160009054906101000a900473ffffffffffffffffffffffffffffffffffffffff1673ffffffffffffffffffffffffffffffffffffffff1673ffffffffffffffffffffffffffffffffffffffff1681526020016002820160009054906101000a90046dffffffffffffffffffffffffffff166dffffffffffffffffffffffffffff166dffffffffffffffffffffffffffff168152602001600382015481526020016004820160009054906101000a900460ff161515151581526020016004820160019054906101000a900473ffffffffffffffffffffffffffffffffffffffff1673ffffffffffffffffffffffffffffffffffffffff1673ffffffffffffffffffffffffffffffffffffffff1681526020016005820160009054906101000a90046dffffffffffffffffffffffffffff166dffffffffffffffffffffffffffff166dffffffffffffffffffffffffffff168152602001600682015481526020016007820154815260200160088201548152505090506112cd61129482604001518360c00151846101000151611b60565b6112bf836060015184604001516dffffffffffffffffffffffffffff16612a4490919063ffffffff16565b612a4490919063ffffffff16565b6112e98261010001518360e00151612eb990919063ffffffff16565b9250925050915091565b60008060046000848152602001908152602001600020604051806101400160405290816000820160009054906101000a900473ffffffffffffffffffffffffffffffffffffffff1673ffffffffffffffffffffffffffffffffffffffff1673ffffffffffffffffffffffffffffffffffffffff1681526020016001820160009054906101000a900473ffffffffffffffffffffffffffffffffffffffff1673ffffffffffffffffffffffffffffffffffffffff1673ffffffffffffffffffffffffffffffffffffffff1681526020016002820160009054906101000a90046dffffffffffffffffffffffffffff166dffffffffffffffffffffffffffff166dffffffffffffffffffffffffffff168152602001600382015481526020016004820160009054906101000a900460ff161515151581526020016004820160019054906101000a900473ffffffffffffffffffffffffffffffffffffffff1673ffffffffffffffffffffffffffffffffffffffff1673ffffffffffffffffffffffffffffffffffffffff1681526020016005820160009054906101000a90046dffffffffffffffffffffffffffff166dffffffffffffffffffffffffffff166dffffffffffffffffffffffffffff16815260200160068201548152602001600782015481526020016008820154815250509050600061151561150160028460e00151612a6490919063ffffffff16565b836101000151612eb990919063ffffffff16565b905061153e818360c001516dffffffffffffffffffffffffffff16612a4490919063ffffffff16565b92505050919050565b60008060046000848152602001908152602001600020604051806101400160405290816000820160009054906101000a900473ffffffffffffffffffffffffffffffffffffffff1673ffffffffffffffffffffffffffffffffffffffff1673ffffffffffffffffffffffffffffffffffffffff1681526020016001820160009054906101000a900473ffffffffffffffffffffffffffffffffffffffff1673ffffffffffffffffffffffffffffffffffffffff1673ffffffffffffffffffffffffffffffffffffffff1681526020016002820160009054906101000a90046dffffffffffffffffffffffffffff166dffffffffffffffffffffffffffff166dffffffffffffffffffffffffffff168152602001600382015481526020016004820160009054906101000a900460ff161515151581526020016004820160019054906101000a900473ffffffffffffffffffffffffffffffffffffffff1673ffffffffffffffffffffffffffffffffffffffff1673ffffffffffffffffffffffffffffffffffffffff1681526020016005820160009054906101000a90046dffffffffffffffffffffffffffff166dffffffffffffffffffffffffffff166dffffffffffffffffffffffffffff168152602001600682015481526020016007820154815260200160088201548152505090506000611765826060015183604001516dffffffffffffffffffffffffffff16612a4490919063ffffffff16565b9050600061179483604001518460c0015161177f88611c5b565b6dffffffffffffffffffffffffffff16611b60565b90506117a98183612a4490919063ffffffff16565b9350505050919050565b6002600054141561182c576040517f08c379a000000000000000000000000000000000000000000000000000000000815260040180806020018281038252601f8152602001807f5265656e7472616e637947756172643a207265656e7472616e742063616c6c0081525060200191505060405180910390fd5b60026000819055506004600083815260200190815260200160002060000160009054906101000a900473ffffffffffffffffffffffffffffffffffffffff1673ffffffffffffffffffffffffffffffffffffffff168173ffffffffffffffffffffffffffffffffffffffff1614156119b957600015156004600084815260200190815260200160002060040160009054906101000a900460ff1615151461193b576040517f08c379a000000000000000000000000000000000000000000000000000000000815260040180806020018281038252601d8152602001807f50726f6d697365436f72653a20416c726561647920657865637574656400000081525060200191505060405180910390fd5b60006004600084815260200190815260200160002060030154116119aa576040517f08c379a0000000000000000000000000000000000000000000000000000000008152600401808060200182810382526021815260200180613f0c6021913960400191505060405180910390fd5b6119b48282612ed8565b611b02565b60006119c58383611b0e565b905060006005600085815260200190815260200160002060008381526020019081526020016000206001015411611a47576040517f08c379a0000000000000000000000000000000000000000000000000000000008152600401808060200182810382526021815260200180613f0c6021913960400191505060405180910390fd5b6000151560056000858152602001908152602001600020600083815260200190815260200160002060020160009054906101000a900460ff16151514611af5576040517f08c379a000000000000000000000000000000000000000000000000000000000815260040180806020018281038252601d8152602001807f50726f6d697365436f72653a20416c726561647920657865637574656400000081525060200191505060405180910390fd5b611b00838383613082565b505b60016000819055505050565b60008282604051602001808381526020018273ffffffffffffffffffffffffffffffffffffffff1660601b81526014019250505060405160208183030381529060405280519060200120905092915050565b600073__ShareCalculator_______________________6334a31ce08585856040518463ffffffff1660e01b815260040180846dffffffffffffffffffffffffffff168152602001836dffffffffffffffffffffffffffff168152602001827bffffffffffffffffffffffffffffffffffffffffffffffffffffffff168152602001935050505060206040518083038186803b158015611bff57600080fd5b505af4158015611c13573d6000803e3d6000fd5b505050506040513d6020811015611c2957600080fd5b810190808051906020019092919050505090509392505050565b60036020528060005260406000206000915090505481565b60008060046000848152602001908152602001600020604051806101400160405290816000820160009054906101000a900473ffffffffffffffffffffffffffffffffffffffff1673ffffffffffffffffffffffffffffffffffffffff1673ffffffffffffffffffffffffffffffffffffffff1681526020016001820160009054906101000a900473ffffffffffffffffffffffffffffffffffffffff1673ffffffffffffffffffffffffffffffffffffffff1673ffffffffffffffffffffffffffffffffffffffff1681526020016002820160009054906101000a90046dffffffffffffffffffffffffffff166dffffffffffffffffffffffffffff166dffffffffffffffffffffffffffff168152602001600382015481526020016004820160009054906101000a900460ff161515151581526020016004820160019054906101000a900473ffffffffffffffffffffffffffffffffffffffff1673ffffffffffffffffffffffffffffffffffffffff1673ffffffffffffffffffffffffffffffffffffffff1681526020016005820160009054906101000a90046dffffffffffffffffffffffffffff166dffffffffffffffffffffffffffff166dffffffffffffffffffffffffffff168152602001600682015481526020016007820154815260200160088201548152505090506000611e7d611e6960028460e00151612a6490919063ffffffff16565b836101000151612eb990919063ffffffff16565b90508092505050919050565b60075481565b60026000541415611f08576040517f08c379a000000000000000000000000000000000000000000000000000000000815260040180806020018281038252601f8152602001807f5265656e7472616e637947756172643a207265656e7472616e742063616c6c0081525060200191505060405180910390fd5b60026000819055508173ffffffffffffffffffffffffffffffffffffffff166004600085815260200190815260200160002060000160009054906101000a900473ffffffffffffffffffffffffffffffffffffffff1673ffffffffffffffffffffffffffffffffffffffff161415611fcb576040517f08c379a0000000000000000000000000000000000000000000000000000000008152600401808060200182810382526028815260200180613fb76028913960400191505060405180910390fd5b6000611ff16002836dffffffffffffffffffffffffffff1661336590919063ffffffff16565b90506000611ffe856112f3565b905080836dffffffffffffffffffffffffffff161115612069576040517f08c379a000000000000000000000000000000000000000000000000000000000815260040180806020018281038252602d815260200180613f2d602d913960400191505060405180910390fd5b600082116120df576040517f08c379a000000000000000000000000000000000000000000000000000000000815260040180806020018281038252601d8152602001807f50726f6d697365436f72653a20416d6f756e7420746f6f20736d616c6c00000081525060200191505060405180910390fd5b6004600086815260200190815260200160002060040160019054906101000a900473ffffffffffffffffffffffffffffffffffffffff1673ffffffffffffffffffffffffffffffffffffffff166323b872dd3330856040518463ffffffff1660e01b8152600401808473ffffffffffffffffffffffffffffffffffffffff1681526020018373ffffffffffffffffffffffffffffffffffffffff1681526020018281526020019350505050602060405180830381600087803b1580156121a457600080fd5b505af11580156121b8573d6000803e3d6000fd5b505050506040513d60208110156121ce57600080fd5b8101908080519060200190929190505050506121eb85858461338b565b50506001600081905550505050565b60026000541415612273576040517f08c379a000000000000000000000000000000000000000000000000000000000815260040180806020018281038252601f8152602001807f5265656e7472616e637947756172643a207265656e7472616e742063616c6c0081525060200191505060405180910390fd5b60026000819055506004600083815260200190815260200160002060000160009054906101000a900473ffffffffffffffffffffffffffffffffffffffff1673ffffffffffffffffffffffffffffffffffffffff168173ffffffffffffffffffffffffffffffffffffffff1614156123ca57600015156004600084815260200190815260200160002060040160009054906101000a900460ff16151514612382576040517f08c379a000000000000000000000000000000000000000000000000000000000815260040180806020018281038252601d8152602001807f50726f6d697365436f72653a20416c726561647920657865637574656400000081525060200191505060405180910390fd5b60016004600084815260200190815260200160002060040160006101000a81548160ff0219169083151502179055506123bb82826134e8565b6123c58282612a9e565b6125dd565b60006123d68383611b0e565b90506000151560056000858152602001908152602001600020600083815260200190815260200160002060020160009054906101000a900460ff16151514612486576040517f08c379a000000000000000000000000000000000000000000000000000000000815260040180806020018281038252601d8152602001807f50726f6d697365436f72653a20416c726561647920657865637574656400000081525060200191505060405180910390fd5b60006005600085815260200190815260200160002060008381526020019081526020016000206001015414612506576040517f08c379a0000000000000000000000000000000000000000000000000000000008152600401808060200182810382526036815260200180613f5a6036913960400191505060405180910390fd5b60006005600085815260200190815260200160002060008381526020019081526020016000206000015411612586576040517f08c379a000000000000000000000000000000000000000000000000000000000815260040180806020018281038252602a815260200180613ee2602a913960400191505060405180910390fd5b600160056000858152602001908152602001600020600083815260200190815260200160002060020160006101000a81548160ff0219169083151502179055506125d18383836135dc565b6125db8383612a9e565b505b60016000819055505050565b60026000541415612662576040517f08c379a000000000000000000000000000000000000000000000000000000000815260040180806020018281038252601f8152602001807f5265656e7472616e637947756172643a207265656e7472616e742063616c6c0081525060200191505060405180910390fd5b60026000819055508473ffffffffffffffffffffffffffffffffffffffff166323b872dd33306126ac6002896dffffffffffffffffffffffffffff1661336590919063ffffffff16565b6040518463ffffffff1660e01b8152600401808473ffffffffffffffffffffffffffffffffffffffff1681526020018373ffffffffffffffffffffffffffffffffffffffff1681526020018281526020019350505050602060405180830381600087803b15801561271c57600080fd5b505af1158015612730573d6000803e3d6000fd5b505050506040513d602081101561274657600080fd5b8101908080519060200190929190505050506127d28686612794600261278660028a6dffffffffffffffffffffffffffff1661336590919063ffffffff16565b612a6490919063ffffffff16565b866127cc60026127be60028a6dffffffffffffffffffffffffffff1661336590919063ffffffff16565b612a6490919063ffffffff16565b866136d2565b6001600081905550505050505050565b60066020528060005260406000206000915090505481565b60008060046000848152602001908152602001600020604051806101400160405290816000820160009054906101000a900473ffffffffffffffffffffffffffffffffffffffff1673ffffffffffffffffffffffffffffffffffffffff1673ffffffffffffffffffffffffffffffffffffffff1681526020016001820160009054906101000a900473ffffffffffffffffffffffffffffffffffffffff1673ffffffffffffffffffffffffffffffffffffffff1673ffffffffffffffffffffffffffffffffffffffff1681526020016002820160009054906101000a90046dffffffffffffffffffffffffffff166dffffffffffffffffffffffffffff166dffffffffffffffffffffffffffff168152602001600382015481526020016004820160009054906101000a900460ff161515151581526020016004820160019054906101000a900473ffffffffffffffffffffffffffffffffffffffff1673ffffffffffffffffffffffffffffffffffffffff1673ffffffffffffffffffffffffffffffffffffffff1681526020016005820160009054906101000a90046dffffffffffffffffffffffffffff166dffffffffffffffffffffffffffff166dffffffffffffffffffffffffffff16815260200160068201548152602001600782015481526020016008820154815250509050600081604001516dffffffffffffffffffffffffffff1690506000612a37612a1286611547565b612a29856060015185612a4490919063ffffffff16565b612a4490919063ffffffff16565b9050809350505050919050565b600082821115612a5357600080fd5b600082840390508091505092915050565b600080831415612a775760009050612a98565b6000828402905082848281612a8857fe5b0414612a9357600080fd5b809150505b92915050565b600081604051602001808273ffffffffffffffffffffffffffffffffffffffff1660601b8152601401915050604051602081830303815290604052805190602001209050600081846040516020018083815260200182815260200192505050604051602081830303815290604052805190602001209050612b20848383613ac4565b50505050565b6000851115612cec576000612b5a612710612b4c60095489612a6490919063ffffffff16565b61336590919063ffffffff16565b90508273ffffffffffffffffffffffffffffffffffffffff1663a9059cbb85612b8c848a612a4490919063ffffffff16565b6040518363ffffffff1660e01b8152600401808373ffffffffffffffffffffffffffffffffffffffff16815260200182815260200192505050602060405180830381600087803b158015612bdf57600080fd5b505af1158015612bf3573d6000803e3d6000fd5b505050506040513d6020811015612c0957600080fd5b8101908080519060200190929190505050508273ffffffffffffffffffffffffffffffffffffffff1663a9059cbb600860009054906101000a900473ffffffffffffffffffffffffffffffffffffffff16836040518363ffffffff1660e01b8152600401808373ffffffffffffffffffffffffffffffffffffffff16815260200182815260200192505050602060405180830381600087803b158015612cae57600080fd5b505af1158015612cc2573d6000803e3d6000fd5b505050506040513d6020811015612cd857600080fd5b810190808051906020019092919050505050505b6000841115612eb2576000612d20612710612d1260095488612a6490919063ffffffff16565b61336590919063ffffffff16565b90508173ffffffffffffffffffffffffffffffffffffffff1663a9059cbb85612d528489612a4490919063ffffffff16565b6040518363ffffffff1660e01b8152600401808373ffffffffffffffffffffffffffffffffffffffff16815260200182815260200192505050602060405180830381600087803b158015612da557600080fd5b505af1158015612db9573d6000803e3d6000fd5b505050506040513d6020811015612dcf57600080fd5b8101908080519060200190929190505050508173ffffffffffffffffffffffffffffffffffffffff1663a9059cbb600860009054906101000a900473ffffffffffffffffffffffffffffffffffffffff16836040518363ffffffff1660e01b8152600401808373ffffffffffffffffffffffffffffffffffffffff16815260200182815260200192505050602060405180830381600087803b158015612e7457600080fd5b505af1158015612e88573d6000803e3d6000fd5b505050506040513d6020811015612e9e57600080fd5b810190808051906020019092919050505050505b5050505050565b600080828401905083811015612ece57600080fd5b8091505092915050565b6004600083815260200190815260200160002060010160009054906101000a900473ffffffffffffffffffffffffffffffffffffffff1673ffffffffffffffffffffffffffffffffffffffff166323b872dd333060046000878152602001908152602001600020600301546040518463ffffffff1660e01b8152600401808473ffffffffffffffffffffffffffffffffffffffff1681526020018373ffffffffffffffffffffffffffffffffffffffff1681526020018281526020019350505050602060405180830381600087803b158015612fb357600080fd5b505af1158015612fc7573d6000803e3d6000fd5b505050506040513d6020811015612fdd57600080fd5b810190808051906020019092919050505050600060046000848152602001908152602001600020600301819055507fa2df8ace4c2208ef02b823ca6123e300524f840d5375e29e6c6e1ced00a41b8582826004600086815260200190815260200160002060030154604051808481526020018373ffffffffffffffffffffffffffffffffffffffff168152602001828152602001935050505060405180910390a15050565b6004600084815260200190815260200160002060040160019054906101000a900473ffffffffffffffffffffffffffffffffffffffff1673ffffffffffffffffffffffffffffffffffffffff166323b872dd3330600560008881526020019081526020016000206000868152602001908152602001600020600101546040518463ffffffff1660e01b8152600401808473ffffffffffffffffffffffffffffffffffffffff1681526020018373ffffffffffffffffffffffffffffffffffffffff1681526020018281526020019350505050602060405180830381600087803b15801561316e57600080fd5b505af1158015613182573d6000803e3d6000fd5b505050506040513d602081101561319857600080fd5b810190808051906020019092919050505050600560008481526020019081526020016000206000828152602001908152602001600020600101546004600085815260200190815260200160002060060160008282540392505081905550613230600260056000868152602001908152602001600020600084815260200190815260200160002060010154612a6490919063ffffffff16565b600460008581526020019081526020016000206007016000828254019250508190555060056000848152602001908152602001600020600082815260200190815260200160002060010154600560008581526020019081526020016000206000838152602001908152602001600020600001600082825401925050819055507fa2df8ace4c2208ef02b823ca6123e300524f840d5375e29e6c6e1ced00a41b85838360056000878152602001908152602001600020600085815260200190815260200160002060010154604051808481526020018373ffffffffffffffffffffffffffffffffffffffff168152602001828152602001935050505060405180910390a1600060056000858152602001908152602001600020600083815260200190815260200160002060010181905550505050565b600080821161337357600080fd5b600082848161337e57fe5b0490508091505092915050565b60006133978484611b0e565b905060006005600086815260200190815260200160002060008381526020019081526020016000206000015414156133f7576133d38484613d4e565b60066000858152602001908152602001600020600081548092919060010191905055505b816004600086815260200190815260200160002060060160008282540192505081905550816005600086815260200190815260200160002060008381526020019081526020016000206001016000828254019250508190555081600560008681526020019081526020016000206000838152602001908152602001600020600001600082825401925050819055507f88beed1106a2f3731016915495e8483fff2c199d32145d6c24c0595abffbd4e7848484604051808481526020018373ffffffffffffffffffffffffffffffffffffffff168152602001828152602001935050505060405180910390a150505050565b6000806134f484611086565b915091506135718282856004600089815260200190815260200160002060010160009054906101000a900473ffffffffffffffffffffffffffffffffffffffff16600460008a815260200190815260200160002060040160019054906101000a900473ffffffffffffffffffffffffffffffffffffffff16612b26565b7f59c224bd27fcad96a03c3ba94bf8eefdf86bb61624c3c684b52d58489cbe900284848484604051808581526020018473ffffffffffffffffffffffffffffffffffffffff16815260200183815260200182815260200194505050505060405180910390a150505050565b6000806135e985846108ce565b91509150613666828286600460008a815260200190815260200160002060010160009054906101000a900473ffffffffffffffffffffffffffffffffffffffff16600460008b815260200190815260200160002060040160019054906101000a900473ffffffffffffffffffffffffffffffffffffffff16612b26565b7f59c224bd27fcad96a03c3ba94bf8eefdf86bb61624c3c684b52d58489cbe900285858484604051808581526020018473ffffffffffffffffffffffffffffffffffffffff16815260200183815260200182815260200194505050505060405180910390a15050505050565b6000846dffffffffffffffffffffffffffff1611801561370257506000826dffffffffffffffffffffffffffff16115b613757576040517f08c379a00000000000000000000000000000000000000000000000000000000081526004018080602001828103825260458152602001806140096045913960600191505060405180910390fd5b60016007600082825401925050819055506040518061014001604052808773ffffffffffffffffffffffffffffffffffffffff1681526020018673ffffffffffffffffffffffffffffffffffffffff168152602001856dffffffffffffffffffffffffffff1681526020016137e66002876dffffffffffffffffffffffffffff1661336590919063ffffffff16565b81526020016000151581526020018473ffffffffffffffffffffffffffffffffffffffff168152602001836dffffffffffffffffffffffffffff16815260200160008152602001600081526020018281525060046000600754815260200190815260200160002060008201518160000160006101000a81548173ffffffffffffffffffffffffffffffffffffffff021916908373ffffffffffffffffffffffffffffffffffffffff16021790555060208201518160010160006101000a81548173ffffffffffffffffffffffffffffffffffffffff021916908373ffffffffffffffffffffffffffffffffffffffff16021790555060408201518160020160006101000a8154816dffffffffffffffffffffffffffff02191690836dffffffffffffffffffffffffffff1602179055506060820151816003015560808201518160040160006101000a81548160ff02191690831515021790555060a08201518160040160016101000a81548173ffffffffffffffffffffffffffffffffffffffff021916908373ffffffffffffffffffffffffffffffffffffffff16021790555060c08201518160050160006101000a8154816dffffffffffffffffffffffffffff02191690836dffffffffffffffffffffffffffff16021790555060e08201518160060155610100820151816007015561012082015181600801559050506139f160075487613d4e565b7fdc8203516f499093634e3af5b55399a773c8f965d706c0050c41121c3544201e600754878787878787604051808881526020018773ffffffffffffffffffffffffffffffffffffffff1681526020018673ffffffffffffffffffffffffffffffffffffffff168152602001856dffffffffffffffffffffffffffff1681526020018473ffffffffffffffffffffffffffffffffffffffff168152602001836dffffffffffffffffffffffffffff16815260200182815260200197505050505050505060405180910390a1505050505050565b82600160008481526020019081526020016000206001015414158015613aff5750826001600083815260200190815260200160002060010154145b15613c79576000600160008381526020019081526020016000206000015414613b6a5760016000828152602001908152602001600020600201546001600060016000858152602001908152602001600020600001548152602001908152602001600020600201819055505b6000600160008381526020019081526020016000206002015414613c1a5760016000828152602001908152602001600020600001546001600060016000858152602001908152602001600020600201548152602001908152602001600020600001819055508060026000848152602001908152602001600020541415613c1957600160008281526020019081526020016000206002015460026000848152602001908152602001600020819055505b5b600060016000838152602001908152602001600020600201819055506000600160008381526020019081526020016000206000018190555060016003600084815260200190815260200160002060008282540392505081905550613d49565b8260016000848152602001908152602001600020600101541415613d485760016000600160008581526020019081526020016000206000015481526020019081526020016000206001015460016000848152602001908152602001600020600101819055506001600060016000858152602001908152602001600020600001548152602001908152602001600020600001546001600084815260200190815260200160002060000181905550600160036000848152602001908152602001600020600082825403925050819055505b5b505050565b600081604051602001808273ffffffffffffffffffffffffffffffffffffffff1660601b8152601401915050604051602081830303815290604052805190602001209050600081846040516020018083815260200182815260200192505050604051602081830303815290604052805190602001209050613dd0848383613dd6565b50505050565b600060036000848152602001908152602001600020541115613e86578060016000600260008681526020019081526020016000205481526020019081526020016000206000018190555082600160008381526020019081526020016000206001018190555060026000838152602001908152602001600020546001600083815260200190815260200160002060020181905550806002600084815260200190815260200160002081905550613eba565b8260016000848152602001908152602001600020600101819055508160026000848152602001908152602001600020819055505b6001600360008481526020019081526020016000206000828254019250508190555050505056fe50726f6d697365436f72653a204a6f696e6572207761736e277420696e20746869732070726f6d69736550726f6d697365436f72653a204f75747374616e64696e6744656274206973203050726f6d697365436f72653a20416d6f756e7420746f6f206869676820666f7220746869732070726f6d69736550726f6d697365436f72653a204a6f696e6572206469646e277420676f207468726f7567682077697468207468652070726f6d69736550726f6d697365436f72653a204f6e6c79207468652063726561746f722063616e20636c6f736550726f6d697365436f72653a2043616e2774206a6f696e20796f7572206f776e2070726f6d69736550726f6d697365436f72653a2043726561746f7220686173206e6f7468696e6720746f20726566756e6450726f6d697365436f72653a204f6e65206f7220626f7468206f662074686520616d6f756e7473202863726561746f722f6a6f696e65722920697320746f6f20736d616c6ca264697066735822122021a1a0309844a8169002e654cbc0e2b55d0b5719f9df5f6a2ccc554c532eafb664736f6c63430007060033",
  "immutableReferences": {},
  "source": "// SPDX-License-Identifier: BUSL-1.1\npragma solidity >=0.4.21 <0.8.0;\n\nimport {IERC20} from \"./interfaces/IERC20.sol\";\nimport {SafeMath} from \"./lib/math/SafeMath.sol\";\nimport {ReentrancyGuard} from \"./lib/ReentrancyGuard.sol\";\nimport {ShareCalculator} from \"./lib/math/ShareCalculator.sol\";\nimport {PromiseList} from \"./PromiseList.sol\";\n\ncontract PromiseCore is ReentrancyGuard, PromiseList {\n    using SafeMath for uint256;\n    using ShareCalculator for uint224;\n\n    mapping(uint256 => PromiseData) public promises;\n    mapping(uint256 => mapping(bytes32 => PromiseJoinerData)) public joiners;\n    mapping(uint256 => uint256) public joinersLength;\n\n    uint256 public lastId;\n\n    address public feeAddress;\n    uint256 public feeBP = 50;\n\n    struct PromiseData {\n        address creator;\n        address creatorToken;\n        uint112 creatorAmount;\n        uint256 creatorDebt;\n        bool hasCreatorExecuted;\n        address joinerToken;\n        uint112 joinerAmount;\n        uint256 joinerDebt;\n        uint256 joinerPaidFull;\n        uint256 expirationTimestamp;\n    }\n\n    struct PromiseJoinerData {\n        uint256 amountPaid;\n        uint256 outstandingDebt;\n        bool hasExecuted;\n    }\n\n    event PromiseCreated(\n        uint256 id,\n        address creator,\n        address creatorToken,\n        uint256 creatorAmount,\n        address joinerToken,\n        uint256 joinerAmount,\n        uint256 expirationTimestamp\n    );\n\n    event PromiseJoined(uint256 id, address joiner, uint256 amount);\n    event PromisePendingAmountClosed(uint256 id, address executor, uint256 refund);\n    event PromiseExecuted(uint256 id, address account, uint256 creatorTokenAmount, uint256 joinerTokenAmount);\n    event PromisePaid(uint256 id, address account, uint256 amount);\n\n    constructor(address _feeAddress) public {\n        feeAddress = _feeAddress;\n    }\n\n    function createPromise(\n        address account,\n        address creatorToken,\n        uint112 creatorAmount,\n        address joinerToken,\n        uint112 joinerAmount,\n        uint256 expirationTimestamp\n    ) external nonReentrant {\n        IERC20(creatorToken).transferFrom(msg.sender, address(this), uint256(creatorAmount).div(2));\n        _createPromise(\n            account,\n            creatorToken,\n            uint112(uint256(creatorAmount).div(2).mul(2)),\n            joinerToken,\n            uint112(uint256(joinerAmount).div(2).mul(2)),\n            expirationTimestamp\n        );\n    }\n\n    function joinPromise(\n        uint256 id,\n        address account,\n        uint112 amount\n    ) external nonReentrant {\n        //  require(promises[id].expirationTimestamp > block.timestamp, \"expirationTimestamp date is in the past and can't be joined\");\n        require(promises[id].creator != account, \"PromiseCore: Can't join your own promise\");\n        uint256 amountPayingNow = uint256(amount).div(2);\n        uint256 remainingJoinerTokenAmountAbleToJoinPromise = getRemainingAmountAbleToJoinPromise(id);\n        require(amount <= remainingJoinerTokenAmountAbleToJoinPromise, \"PromiseCore: Amount too high for this promise\");\n        require(amountPayingNow > 0, \"PromiseCore: Amount too small\");\n        IERC20(promises[id].joinerToken).transferFrom(msg.sender, address(this), amountPayingNow);\n        _joinPromise(id, account, amountPayingNow);\n    }\n\n    function _joinPromise(\n        uint256 id,\n        address account,\n        uint256 amountPayingNow\n    ) internal {\n        bytes32 joinerId = getJoinerId(id, account);\n        if (joiners[id][joinerId].amountPaid == 0) {\n            addToAccountList(id, account);\n            joinersLength[id]++;\n        }\n        promises[id].joinerDebt += amountPayingNow;\n        joiners[id][joinerId].outstandingDebt += amountPayingNow;\n        joiners[id][joinerId].amountPaid += amountPayingNow;\n        emit PromiseJoined(id, account, amountPayingNow);\n    }\n\n    function payPromise(uint256 id, address account) external nonReentrant {\n        // require(promises[id].expirationTimestamp > block.timestamp, \"Promise expired\");\n        if (account == promises[id].creator) {\n            require(promises[id].hasCreatorExecuted == false, \"PromiseCore: Already executed\");\n            require(promises[id].creatorDebt > 0, \"PromiseCore: OutstandingDebt is 0\");\n            payAsCreator(id, account);\n        } else {\n            bytes32 joinerId = getJoinerId(id, account);\n            require(joiners[id][joinerId].outstandingDebt > 0, \"PromiseCore: OutstandingDebt is 0\");\n            require(joiners[id][joinerId].hasExecuted == false, \"PromiseCore: Already executed\");\n            payAsJoiner(id, account, joinerId);\n        }\n    }\n\n    function payAsCreator(uint256 id, address account) internal {\n        IERC20(promises[id].creatorToken).transferFrom(msg.sender, address(this), promises[id].creatorDebt);\n        promises[id].creatorDebt = 0;\n        emit PromisePaid(id, account, promises[id].creatorDebt);\n    }\n\n    function payAsJoiner(\n        uint256 id,\n        address account,\n        bytes32 joinerId\n    ) internal {\n        IERC20(promises[id].joinerToken).transferFrom(msg.sender, address(this), joiners[id][joinerId].outstandingDebt);\n        promises[id].joinerDebt -= joiners[id][joinerId].outstandingDebt;\n        promises[id].joinerPaidFull += joiners[id][joinerId].outstandingDebt.mul(2);\n        joiners[id][joinerId].amountPaid += joiners[id][joinerId].outstandingDebt;\n        emit PromisePaid(id, account, joiners[id][joinerId].outstandingDebt);\n        joiners[id][joinerId].outstandingDebt = 0;\n    }\n\n    function closePendingPromiseAmount(uint256 id) external nonReentrant {\n        require(msg.sender == promises[id].creator, \"PromiseCore: Only the creator can close\");\n        uint256 refund = getCreatorRefundAmount(id);\n        require(refund > 0, \"PromiseCore: Creator has nothing to refund\");\n        PromiseData storage promiseData = promises[id];\n        promiseData.creatorAmount = getRemainingCreatorAmountAfterClosingPromise(id);\n        promiseData.joinerAmount = getTotalJoinerFundsInPromise(id);\n        promiseData.creatorDebt = 0;\n        if (joinersLength[id] == 0) {\n            deleteFromAccountList(id, msg.sender);\n            promiseData.hasCreatorExecuted = true;\n        }\n        payout(refund, 0, msg.sender, promiseData.creatorToken, promiseData.joinerToken);\n        emit PromisePendingAmountClosed(id, msg.sender, refund);\n    }\n\n    function executePromise(uint256 id, address account) external nonReentrant {\n        // require(promises[id].expirationTimestamp <= block.timestamp, \"This promise has not expired yet\");\n        if (account == promises[id].creator) {\n            require(promises[id].hasCreatorExecuted == false, \"PromiseCore: Already executed\");\n            promises[id].hasCreatorExecuted = true;\n            payoutToCreator(id, account);\n            deleteFromAccountList(id, account);\n        } else {\n            bytes32 joinerId = getJoinerId(id, account);\n            require(joiners[id][joinerId].hasExecuted == false, \"PromiseCore: Already executed\");\n            require(\n                joiners[id][joinerId].outstandingDebt == 0,\n                \"PromiseCore: Joiner didn't go through with the promise\"\n            );\n            require(joiners[id][joinerId].amountPaid > 0, \"PromiseCore: Joiner wasn't in this promise\");\n            joiners[id][joinerId].hasExecuted = true;\n            payoutToJoiner(id, account, joinerId);\n            deleteFromAccountList(id, account);\n        }\n    }\n\n    function payoutToCreator(uint256 id, address account) internal {\n        (uint256 creatorTokenPayout, uint256 joinerTokenPayout) = getPayoutAmountsForCreator(id);\n        payout(creatorTokenPayout, joinerTokenPayout, account, promises[id].creatorToken, promises[id].joinerToken);\n        emit PromiseExecuted(id, account, creatorTokenPayout, joinerTokenPayout);\n    }\n\n    function payoutToJoiner(\n        uint256 id,\n        address account,\n        bytes32 joinerId\n    ) internal {\n        (uint256 creatorTokenPayout, uint256 joinerTokenPayout) = getPayoutAmountsForJoiner(id, joinerId);\n        payout(creatorTokenPayout, joinerTokenPayout, account, promises[id].creatorToken, promises[id].joinerToken);\n        emit PromiseExecuted(id, account, creatorTokenPayout, joinerTokenPayout);\n    }\n\n    function _createPromise(\n        address account,\n        address creatorToken,\n        uint112 creatorAmount,\n        address joinerToken,\n        uint112 joinerAmount,\n        uint256 expirationTimestamp\n    ) internal {\n        require(\n            creatorAmount > 0 && joinerAmount > 0,\n            \"PromiseCore: One or both of the amounts (creator/joiner) is too small\"\n        );\n        //  require(expirationTimestamp > block.timestamp.add(10 minutes), \"expirationTimestamp date is in the past\");\n        lastId += 1;\n        promises[lastId] = PromiseData(\n            account,\n            creatorToken,\n            creatorAmount,\n            uint256(creatorAmount).div(2),\n            false,\n            joinerToken,\n            joinerAmount,\n            0,\n            0,\n            expirationTimestamp\n        );\n        addToAccountList(lastId, account);\n\n        emit PromiseCreated(\n            lastId,\n            account,\n            creatorToken,\n            creatorAmount,\n            joinerToken,\n            joinerAmount,\n            expirationTimestamp\n        );\n    }\n\n    function payout(\n        uint256 creatorTokenAmount,\n        uint256 joinerTokenAmount,\n        address account,\n        address creatorAsset,\n        address joinerAsset\n    ) internal {\n        if (creatorTokenAmount > 0) {\n            uint256 feeA = creatorTokenAmount.mul(feeBP).div(10000);\n            IERC20(creatorAsset).transfer(account, creatorTokenAmount.sub(feeA));\n            IERC20(creatorAsset).transfer(feeAddress, feeA);\n        }\n        if (joinerTokenAmount > 0) {\n            uint256 feeB = joinerTokenAmount.mul(feeBP).div(10000);\n            IERC20(joinerAsset).transfer(account, joinerTokenAmount.sub(feeB));\n            IERC20(joinerAsset).transfer(feeAddress, feeB);\n        }\n    }\n\n    function getRemainingCreatorAmountAfterClosingPromise(uint256 id) public view returns (uint112) {\n        PromiseData memory p = promises[id];\n        uint256 creatorAmount = uint256(p.creatorAmount);\n        uint256 result = creatorAmount.sub(p.creatorDebt).sub(getCreatorRefundAmount(id));\n        return uint112(result);\n    }\n\n    function getJoinerId(uint256 id, address account) public pure returns (bytes32) {\n        return keccak256(abi.encodePacked(id, account));\n    }\n\n    function getRemainingAmountAbleToJoinPromise(uint256 id) public view returns (uint256) {\n        PromiseData memory p = promises[id];\n        uint256 existingJoinerTokenAmount = p.joinerPaidFull.add(p.joinerDebt.mul(2));\n        return uint256(p.joinerAmount).sub(existingJoinerTokenAmount);\n    }\n\n    function getTotalJoinerFundsInPromise(uint256 id) public view returns (uint112) {\n        PromiseData memory p = promises[id];\n        uint256 result = p.joinerPaidFull.add(p.joinerDebt.mul(2));\n        return uint112(result);\n    }\n\n    function getCreatorRefundAmount(uint256 id) public view returns (uint256) {\n        PromiseData memory p = promises[id];\n        uint256 creatorPaid = uint256(p.creatorAmount).sub(p.creatorDebt);\n        uint256 tokensUsedByJoiners = divMul(p.creatorAmount, p.joinerAmount, getTotalJoinerFundsInPromise(id));\n        return creatorPaid.sub(tokensUsedByJoiners);\n    }\n\n    function getPayoutAmountsForCreator(uint256 id) public view returns (uint256, uint256) {\n        PromiseData memory p = promises[id];\n        return (\n            uint256(p.creatorAmount).sub(p.creatorDebt).sub(divMul(p.creatorAmount, p.joinerAmount, p.joinerPaidFull)),\n            (p.joinerDebt).add(p.joinerPaidFull)\n        );\n    }\n\n    function getPayoutAmountsForJoiner(uint256 id, bytes32 joinerId) public view returns (uint256, uint256) {\n        PromiseData memory p = promises[id];\n        PromiseJoinerData memory j = joiners[id][joinerId];\n        uint256 paidByCreator = uint256(p.creatorAmount).sub(p.creatorDebt);\n        return (\n            divMul(uint112(paidByCreator), p.joinerAmount, (j.amountPaid).sub(j.outstandingDebt.mul(2))),\n            p.creatorDebt > 0 ? ((j.amountPaid).sub(j.outstandingDebt)) : 0\n        );\n    }\n\n    function divMul(\n        uint112 a,\n        uint112 b,\n        uint256 c\n    ) public pure returns (uint256 result) {\n        result = ShareCalculator.divMul(a, b, uint224(c));\n    }\n}\n",
  "sourcePath": "/Users/nanoissuperior/promise-contracts/contracts/PromiseCore.sol",
  "compiler": {
    "name": "solc",
    "version": "0.7.6+commit.7338295f.Emscripten.clang"
  },
  "schemaVersion": "3.4.2",
  "updatedAt": "2021-08-18T12:33:33.538Z",
  "devdoc": {
    "kind": "dev",
    "methods": {},
    "version": 1
  },
  "userdoc": {
    "kind": "user",
    "methods": {},
    "version": 1
  }
}