{
  "contractName": "ShareCalculator",
  "abi": [
    {
      "inputs": [
        {
          "internalType": "uint112",
          "name": "x",
          "type": "uint112"
        },
        {
          "internalType": "uint112",
          "name": "y",
          "type": "uint112"
        },
        {
          "internalType": "uint224",
          "name": "z",
          "type": "uint224"
        }
      ],
      "name": "divMul",
      "outputs": [
        {
          "internalType": "uint256",
          "name": "d",
          "type": "uint256"
        }
      ],
      "stateMutability": "pure",
      "type": "function"
    },
    {
      "inputs": [
        {
          "internalType": "uint112",
          "name": "y",
          "type": "uint112"
        }
      ],
      "name": "encode",
      "outputs": [
        {
          "internalType": "uint224",
          "name": "z",
          "type": "uint224"
        }
      ],
      "stateMutability": "pure",
      "type": "function"
    },
    {
      "inputs": [
        {
          "internalType": "uint224",
          "name": "x",
          "type": "uint224"
        },
        {
          "internalType": "uint112",
          "name": "y",
          "type": "uint112"
        }
      ],
      "name": "div",
      "outputs": [
        {
          "internalType": "uint224",
          "name": "z",
          "type": "uint224"
        }
      ],
      "stateMutability": "pure",
      "type": "function"
    },
    {
      "inputs": [
        {
          "internalType": "uint224",
          "name": "x",
          "type": "uint224"
        },
        {
          "internalType": "uint224",
          "name": "y",
          "type": "uint224"
        }
      ],
      "name": "mul",
      "outputs": [
        {
          "internalType": "uint224",
          "name": "z",
          "type": "uint224"
        }
      ],
      "stateMutability": "pure",
      "type": "function"
    },
    {
      "inputs": [
        {
          "internalType": "uint224",
          "name": "x",
          "type": "uint224"
        }
      ],
      "name": "decode",
      "outputs": [
        {
          "internalType": "uint256",
          "name": "z",
          "type": "uint256"
        }
      ],
      "stateMutability": "pure",
      "type": "function"
    }
  ],
  "bytecode": "0x61048b610026600b82828239805160001a60731461001957fe5b30600052607381538281f3fe73000000000000000000000000000000000000000030146080604052600436106100615760003560e01c80630b7a9d1c1461006657806334a31ce01461010c57806338d14899146101a0578063ca2d029914610200578063d11d69e214610270575b600080fd5b6100d86004803603604081101561007c57600080fd5b8101908080357bffffffffffffffffffffffffffffffffffffffffffffffffffffffff16906020019092919080357bffffffffffffffffffffffffffffffffffffffffffffffffffffffff169060200190929190505050610308565b60405180827bffffffffffffffffffffffffffffffffffffffffffffffffffffffff16815260200191505060405180910390f35b61018a6004803603606081101561012257600080fd5b8101908080356dffffffffffffffffffffffffffff16906020019092919080356dffffffffffffffffffffffffffff16906020019092919080357bffffffffffffffffffffffffffffffffffffffffffffffffffffffff169060200190929190505050610341565b6040518082815260200191505060405180910390f35b6101ea600480360360208110156101b657600080fd5b8101908080357bffffffffffffffffffffffffffffffffffffffffffffffffffffffff169060200190929190505050610380565b6040518082815260200191505060405180910390f35b61023c6004803603602081101561021657600080fd5b8101908080356dffffffffffffffffffffffffffff1690602001909291905050506103ca565b60405180827bffffffffffffffffffffffffffffffffffffffffffffffffffffffff16815260200191505060405180910390f35b6102d46004803603604081101561028657600080fd5b8101908080357bffffffffffffffffffffffffffffffffffffffffffffffffffffffff16906020019092919080356dffffffffffffffffffffffffffff1690602001909291905050506103f5565b60405180827bffffffffffffffffffffffffffffffffffffffffffffffffffffffff16815260200191505060405180910390f35b600081830290506000837bffffffffffffffffffffffffffffffffffffffffffffffffffffffff16141561033b57600090505b92915050565b60008061034d856103ca565b9050600061035b82866103f5565b905060006103698583610308565b905061037481610380565b93505050509392505050565b60006070827bffffffffffffffffffffffffffffffffffffffffffffffffffffffff16901c7bffffffffffffffffffffffffffffffffffffffffffffffffffffffff169050919050565b60006e010000000000000000000000000000826dffffffffffffffffffffffffffff16029050919050565b6000816dffffffffffffffffffffffffffff167bffffffffffffffffffffffffffffffffffffffffffffffffffffffff16837bffffffffffffffffffffffffffffffffffffffffffffffffffffffff168161044c57fe5b0490509291505056fea2646970667358221220c1893f1bc81d8a6813cfbfce1fca4a5a7fd0994291c4f260201e016bda5545ac64736f6c63430007060033",
  "immutableReferences": {},
  "source": "// SPDX-License-Identifier: MIT\npragma solidity >=0.4.21 <0.8.0;\n\nlibrary ShareCalculator {\n    uint224 constant Q112 = 2**112;\n\n    function divMul(\n        uint112 x,\n        uint112 y,\n        uint224 z\n    ) public pure returns (uint256 d) {\n        uint224 a = encode(x);\n        uint224 b = div(a, y);\n        uint224 c = mul(z, b);\n        d = decode(c);\n    }\n\n    // encode a uint112 as a UQ112x112\n    function encode(uint112 y) public pure returns (uint224 z) {\n        z = uint224(y) * Q112; // never overflows\n    }\n\n    // divide a UQ112x112 by a uint112, returning a UQ112x112\n    function div(uint224 x, uint112 y) public pure returns (uint224 z) {\n        z = x / uint224(y);\n    }\n\n    function mul(uint224 x, uint224 y) public pure returns (uint224 z) {\n        z = x * y;\n        if (x == 0) {\n            z = 0;\n        }\n    }\n\n    function decode(uint224 x) public pure returns (uint256 z) {\n        z = (x >> 112);\n    }\n}\n",
  "sourcePath": "/Users/nanoissuperior/promise-contracts/contracts/lib/math/ShareCalculator.sol",
  "compiler": {
    "name": "solc",
    "version": "0.7.6+commit.7338295f.Emscripten.clang"
  },
  "schemaVersion": "3.4.2",
  "updatedAt": "2021-08-18T12:33:33.699Z",
  "devdoc": {
    "kind": "dev",
    "methods": {},
    "version": 1
  },
  "userdoc": {
    "kind": "user",
    "methods": {},
    "version": 1
  }
}